{"contracts/Auction.sol":{"BasicDutchAuction":{"abi":[{"inputs":[{"internalType":"uint256","name":"_reservePrice","type":"uint256"},{"internalType":"uint256","name":"_numBlocksAuctionOpen","type":"uint256"},{"internalType":"uint256","name":"_offerPriceDecrement","type":"uint256"}],"stateMutability":"nonpayable","type":"constructor"},{"anonymous":false,"inputs":[{"indexed":false,"internalType":"address","name":"bidder","type":"address"},{"indexed":false,"internalType":"uint256","name":"amount","type":"uint256"}],"name":"Refund","type":"event"},{"anonymous":false,"inputs":[{"indexed":false,"internalType":"address","name":"bidder","type":"address"},{"indexed":false,"internalType":"uint256","name":"amount","type":"uint256"}],"name":"RefundWithdrawal","type":"event"},{"inputs":[],"name":"auctionEndTime","outputs":[{"internalType":"uint256","name":"","type":"uint256"}],"stateMutability":"view","type":"function"},{"inputs":[],"name":"auctionEnded","outputs":[{"internalType":"bool","name":"","type":"bool"}],"stateMutability":"view","type":"function"},{"inputs":[],"name":"bid","outputs":[],"stateMutability":"payable","type":"function"},{"inputs":[],"name":"endAuction","outputs":[],"stateMutability":"nonpayable","type":"function"},{"inputs":[],"name":"highestBid","outputs":[{"internalType":"uint256","name":"","type":"uint256"}],"stateMutability":"view","type":"function"},{"inputs":[],"name":"highestBidder","outputs":[{"internalType":"address","name":"","type":"address"}],"stateMutability":"view","type":"function"},{"inputs":[],"name":"initialPrice","outputs":[{"internalType":"uint256","name":"","type":"uint256"}],"stateMutability":"view","type":"function"},{"inputs":[],"name":"numBlocksAuctionOpen","outputs":[{"internalType":"uint256","name":"","type":"uint256"}],"stateMutability":"view","type":"function"},{"inputs":[],"name":"offerPriceDecrement","outputs":[{"internalType":"uint256","name":"","type":"uint256"}],"stateMutability":"view","type":"function"},{"inputs":[],"name":"refund","outputs":[],"stateMutability":"nonpayable","type":"function"},{"inputs":[],"name":"reservePrice","outputs":[{"internalType":"uint256","name":"","type":"uint256"}],"stateMutability":"view","type":"function"},{"inputs":[],"name":"seller","outputs":[{"internalType":"address payable","name":"","type":"address"}],"stateMutability":"view","type":"function"},{"inputs":[],"name":"withdrawRefund","outputs":[],"stateMutability":"nonpayable","type":"function"}],"evm":{"bytecode":{"linkReferences":{},"object":"60806040523480156200001157600080fd5b5060405162001c7038038062001c70833981810160405281019062000037919062000314565b62000053671305d8ff3d66aa2f60c01b620002d160201b60201c565b6200006f67e60f621e7f1d336c60c01b620002d160201b60201c565b336000806101000a81548173ffffffffffffffffffffffffffffffffffffffff021916908373ffffffffffffffffffffffffffffffffffffffff160217905550620000cb6713ea84972778c94760c01b620002d160201b60201c565b82600181905550620000ee67b3a64e72accaa36260c01b620002d160201b60201c565b816002819055506200011167cd020afce1b5fdf560c01b620002d160201b60201c565b8060038190555062000134675bb368c2aedd955b60c01b620002d160201b60201c565b6200015067c77d921bb28a581a60c01b620002d160201b60201c565b60006003546002546200016491906200039f565b90506200018267cfd79362a31ca24360c01b620002d160201b60201c565b6200019e6763286f252481d92d60c01b620002d160201b60201c565b620001ba67c6b96d0cd122c8f260c01b620002d160201b60201c565b60015481111562000202576040517f08c379a0000000000000000000000000000000000000000000000000000000008152600401620001f9906200044b565b60405180910390fd5b6200021e6730be588d2c0a8d2460c01b620002d160201b60201c565b6200023a67427fcc7297d1124860c01b620002d160201b60201c565b806001546200024a91906200046d565b6004819055506200026c67787b425370af9a4660c01b620002d160201b60201c565b600f6002546200027d91906200039f565b426200028a9190620004a8565b600581905550620002ac6777971b3845ba4cef60c01b620002d160201b60201c565b6000600660006101000a81548160ff02191690831515021790555050505050620004e3565b50565b600080fd5b6000819050919050565b620002ee81620002d9565b8114620002fa57600080fd5b50565b6000815190506200030e81620002e3565b92915050565b60008060006060848603121562000330576200032f620002d4565b5b60006200034086828701620002fd565b93505060206200035386828701620002fd565b92505060406200036686828701620002fd565b9150509250925092565b7f4e487b7100000000000000000000000000000000000000000000000000000000600052601160045260246000fd5b6000620003ac82620002d9565b9150620003b983620002d9565b9250828202620003c981620002d9565b91508282048414831517620003e357620003e262000370565b5b5092915050565b600082825260208201905092915050565b7f496e76616c69642061756374696f6e20706172616d65746572732e0000000000600082015250565b600062000433601b83620003ea565b91506200044082620003fb565b602082019050919050565b60006020820190508181036000830152620004668162000424565b9050919050565b60006200047a82620002d9565b91506200048783620002d9565b9250828203905081811115620004a257620004a162000370565b5b92915050565b6000620004b582620002d9565b9150620004c283620002d9565b9250828201905080821115620004dd57620004dc62000370565b5b92915050565b61177d80620004f36000396000f3fe6080604052600436106100c25760003560e01c8063590e1ae31161007f578063d3642a8811610059578063d3642a8814610201578063d57bde791461022c578063db2e1eed14610257578063fe67a54b14610282576100c2565b8063590e1ae31461019457806386433374146101ab57806391f90157146101d6576100c2565b806308551a53146100c7578063110f8874146100f25780631998aeef146101095780631d0806ae146101135780633103ea621461013e5780634b449cba14610169575b600080fd5b3480156100d357600080fd5b506100dc610299565b6040516100e9919061113f565b60405180910390f35b3480156100fe57600080fd5b506101076102bd565b005b61011161067b565b005b34801561011f57600080fd5b50610128610a98565b6040516101359190611173565b60405180910390f35b34801561014a57600080fd5b50610153610a9e565b6040516101609190611173565b60405180910390f35b34801561017557600080fd5b5061017e610aa4565b60405161018b9190611173565b60405180910390f35b3480156101a057600080fd5b506101a9610aaa565b005b3480156101b757600080fd5b506101c0610df9565b6040516101cd91906111a9565b60405180910390f35b3480156101e257600080fd5b506101eb610e0c565b6040516101f891906111e5565b60405180910390f35b34801561020d57600080fd5b50610216610e32565b6040516102239190611173565b60405180910390f35b34801561023857600080fd5b50610241610e38565b60405161024e9190611173565b60405180910390f35b34801561026357600080fd5b5061026c610e3e565b6040516102799190611173565b60405180910390f35b34801561028e57600080fd5b50610297610e44565b005b60008054906101000a900473ffffffffffffffffffffffffffffffffffffffff1681565b6102d1670c16fa153bfad99860c01b6110fb565b6102e56726aa06e0d961f31360c01b6110fb565b6102f967c199ea4996abfbfa60c01b6110fb565b61030d676ec53ff6aa8a809360c01b6110fb565b600660009054906101000a900460ff1661035c576040517f08c379a00000000000000000000000000000000000000000000000000000000081526004016103539061125d565b60405180910390fd5b6103706734d0c440bb3741bf60c01b6110fb565b61038467d53c40b86eef699060c01b6110fb565b6103986736345e6a6e133a3d60c01b6110fb565b6103ac67c3cf51dc6efa3e1660c01b6110fb565b600660019054906101000a900473ffffffffffffffffffffffffffffffffffffffff1673ffffffffffffffffffffffffffffffffffffffff163373ffffffffffffffffffffffffffffffffffffffff160361043c576040517f08c379a0000000000000000000000000000000000000000000000000000000008152600401610433906112ef565b60405180910390fd5b6104506738cb24d58d81f55e60c01b6110fb565b610464670c87bbae07681a2960c01b6110fb565b6104786701f06c3ce33a3a1160c01b6110fb565b6000600860003373ffffffffffffffffffffffffffffffffffffffff1673ffffffffffffffffffffffffffffffffffffffff1681526020019081526020016000205490506104d06751621a7eb208693d60c01b6110fb565b6104e467fb257deda886fad160c01b6110fb565b6104f8670ee01d87eb3732b560c01b6110fb565b6000811161053b576040517f08c379a00000000000000000000000000000000000000000000000000000000081526004016105329061135b565b60405180910390fd5b61054f678c537e950c0c84d760c01b6110fb565b610563671228da6c62f0913960c01b6110fb565b6000600860003373ffffffffffffffffffffffffffffffffffffffff1673ffffffffffffffffffffffffffffffffffffffff168152602001908152602001600020819055506105bc673db6390a4a7ab16760c01b6110fb565b6105d0674cb1165377356f4e60c01b6110fb565b3373ffffffffffffffffffffffffffffffffffffffff166108fc829081150290604051600060405180830381858888f19350505050158015610616573d6000803e3d6000fd5b5061062b67078e8f520d10846f60c01b6110fb565b61063f67dc6b2bd2865d3e7e60c01b6110fb565b7ff9922a0c01ab47885e389a38642ab35c02f97cc09d44c58de533ec24cd178a33338260405161067092919061137b565b60405180910390a150565b61068f675def54760f248fe660c01b6110fb565b6106a367d6cfabcd97e80f2860c01b6110fb565b6106b767dc00e38eda96db1660c01b6110fb565b6106cb67ff9b51ce9757dda760c01b6110fb565b600660009054906101000a900460ff161561071b576040517f08c379a0000000000000000000000000000000000000000000000000000000008152600401610712906113f0565b60405180910390fd5b61072f67bed03bf443e1ad5e60c01b6110fb565b610743672fbbfe1a4978386260c01b6110fb565b610757676ef925d1b440951260c01b6110fb565b61076b67665e1183d7aebadc60c01b6110fb565b60055442106107af576040517f08c379a00000000000000000000000000000000000000000000000000000000081526004016107a69061145c565b60405180910390fd5b6107c367b7fcd03af6dd583e60c01b6110fb565b6107d767ed95e8b2e33a47b960c01b6110fb565b6107eb6724c8960a094cc20a60c01b6110fb565b6107ff6755d927cde92b225260c01b6110fb565b6007543411610843576040517f08c379a000000000000000000000000000000000000000000000000000000000815260040161083a906114c8565b60405180910390fd5b61085767d020318bd2ee984760c01b6110fb565b61086b67f91e558239e607a360c01b6110fb565b61087f678064a12329e3aa6060c01b6110fb565b610893675c045c8ec069dbeb60c01b6110fb565b6001543410156108d8576040517f08c379a00000000000000000000000000000000000000000000000000000000081526004016108cf9061155a565b60405180910390fd5b6108ec6717d23b48455d5fce60c01b6110fb565b61090067d74b327dbd8d15ec60c01b6110fb565b61091467d6bab06892cd1b8060c01b6110fb565b600073ffffffffffffffffffffffffffffffffffffffff16600660019054906101000a900473ffffffffffffffffffffffffffffffffffffffff1673ffffffffffffffffffffffffffffffffffffffff1614610a115761097e676db098465b61c28360c01b6110fb565b6109926780c3ba7efad2170160c01b6110fb565b60075460086000600660019054906101000a900473ffffffffffffffffffffffffffffffffffffffff1673ffffffffffffffffffffffffffffffffffffffff1673ffffffffffffffffffffffffffffffffffffffff1681526020019081526020016000206000828254610a0591906115a9565b92505081905550610a26565b610a25676603413a4af694eb60c01b6110fb565b5b610a3a67c19b84ae2415d29960c01b6110fb565b33600660016101000a81548173ffffffffffffffffffffffffffffffffffffffff021916908373ffffffffffffffffffffffffffffffffffffffff160217905550610a8f678814e535ff54c53f60c01b6110fb565b34600781905550565b60045481565b60025481565b60055481565b610abe677c93843a4ce1b6aa60c01b6110fb565b610ad267737232b45a6d955b60c01b6110fb565b610ae6679a0e53c866b9013360c01b6110fb565b610afa67ec0f484cb0d3179c60c01b6110fb565b600660009054906101000a900460ff16610b49576040517f08c379a0000000000000000000000000000000000000000000000000000000008152600401610b409061125d565b60405180910390fd5b610b5d67cb0c2beb9f246e9660c01b6110fb565b610b71679763ff2389bf3b2160c01b6110fb565b610b8567cb2d50a953d2b07260c01b6110fb565b610b99674de2b3c74cf9baaf60c01b6110fb565b600660019054906101000a900473ffffffffffffffffffffffffffffffffffffffff1673ffffffffffffffffffffffffffffffffffffffff163373ffffffffffffffffffffffffffffffffffffffff1603610c29576040517f08c379a0000000000000000000000000000000000000000000000000000000008152600401610c209061164f565b60405180910390fd5b610c3d672efaceabbeaf8def60c01b6110fb565b610c516794b12523a2d415c460c01b6110fb565b610c656765db9bbfc510d31a60c01b6110fb565b6000600860003373ffffffffffffffffffffffffffffffffffffffff1673ffffffffffffffffffffffffffffffffffffffff168152602001908152602001600020549050610cbd671738912fa656d32660c01b6110fb565b610cd167d2c32ca2d936882c60c01b6110fb565b610ce5673be2da664e7c9f4260c01b6110fb565b60008111610d28576040517f08c379a0000000000000000000000000000000000000000000000000000000008152600401610d1f906116bb565b60405180910390fd5b610d3c671d88b672455faee360c01b6110fb565b610d5067cc07d738bc3e0aa160c01b6110fb565b6000600860003373ffffffffffffffffffffffffffffffffffffffff1673ffffffffffffffffffffffffffffffffffffffff16815260200190815260200160002081905550610da9674ef26732194553cf60c01b6110fb565b610dbd673e57f1cad84d6e5460c01b6110fb565b7fbb28353e4598c3b9199101a66e0989549b659a59a54d2c27fbb183f1932c8e6d3382604051610dee92919061137b565b60405180910390a150565b600660009054906101000a900460ff1681565b600660019054906101000a900473ffffffffffffffffffffffffffffffffffffffff1681565b60035481565b60075481565b60015481565b610e5867f76c311c9fb289c660c01b6110fb565b610e6c6768e873b28341efa960c01b6110fb565b610e8067c3ab34cb333c9e5960c01b6110fb565b610e9467c184621e7f6e1a3e60c01b6110fb565b600660009054906101000a900460ff1615610ee4576040517f08c379a0000000000000000000000000000000000000000000000000000000008152600401610edb906113f0565b60405180910390fd5b610ef86774c2ef76ad5b939360c01b6110fb565b610f0c672916c58dd5a8f42c60c01b6110fb565b610f20677d39b6d968394eee60c01b6110fb565b610f346789e52422a0d9d80e60c01b6110fb565b600554421015610f79576040517f08c379a0000000000000000000000000000000000000000000000000000000008152600401610f7090611727565b60405180910390fd5b610f8d67c366e2d7b54fa32d60c01b6110fb565b610fa1678f26aee3da0a266560c01b6110fb565b6001600660006101000a81548160ff021916908315150217905550610fd06770243de99cf0602660c01b6110fb565b610fe467a4e668938a61d26a60c01b6110fb565b600073ffffffffffffffffffffffffffffffffffffffff16600660019054906101000a900473ffffffffffffffffffffffffffffffffffffffff1673ffffffffffffffffffffffffffffffffffffffff16146110e45761104e6793e696d9759aeb9460c01b6110fb565b61106267ce2d19ef4a39086a60c01b6110fb565b61107667cc30d3bdb6ab9bdd60c01b6110fb565b60008054906101000a900473ffffffffffffffffffffffffffffffffffffffff1673ffffffffffffffffffffffffffffffffffffffff166108fc6007549081150290604051600060405180830381858888f193505050501580156110de573d6000803e3d6000fd5b506110f9565b6110f8672232fd059e60b34260c01b6110fb565b5b565b50565b600073ffffffffffffffffffffffffffffffffffffffff82169050919050565b6000611129826110fe565b9050919050565b6111398161111e565b82525050565b60006020820190506111546000830184611130565b92915050565b6000819050919050565b61116d8161115a565b82525050565b60006020820190506111886000830184611164565b92915050565b60008115159050919050565b6111a38161118e565b82525050565b60006020820190506111be600083018461119a565b92915050565b60006111cf826110fe565b9050919050565b6111df816111c4565b82525050565b60006020820190506111fa60008301846111d6565b92915050565b600082825260208201905092915050565b7f41756374696f6e20686173206e6f7420656e6465642e00000000000000000000600082015250565b6000611247601683611200565b915061125282611211565b602082019050919050565b600060208201905081810360008301526112768161123a565b9050919050565b7f57696e6e696e67206269646465722063616e6e6f74207769746864726177207260008201527f6566756e642e0000000000000000000000000000000000000000000000000000602082015250565b60006112d9602683611200565b91506112e48261127d565b604082019050919050565b60006020820190508181036000830152611308816112cc565b9050919050565b7f4e6f2066756e647320746f2077697468647261772e0000000000000000000000600082015250565b6000611345601583611200565b91506113508261130f565b602082019050919050565b6000602082019050818103600083015261137481611338565b9050919050565b600060408201905061139060008301856111d6565b61139d6020830184611164565b9392505050565b7f41756374696f6e2068617320616c726561647920656e6465642e000000000000600082015250565b60006113da601a83611200565b91506113e5826113a4565b602082019050919050565b60006020820190508181036000830152611409816113cd565b9050919050565b7f41756374696f6e206973206e6f206c6f6e676572206f70656e2e000000000000600082015250565b6000611446601a83611200565b915061145182611410565b602082019050919050565b6000602082019050818103600083015261147581611439565b9050919050565b7f546865726520697320616c7265616479206120686967686572206269642e0000600082015250565b60006114b2601e83611200565b91506114bd8261147c565b602082019050919050565b600060208201905081810360008301526114e1816114a5565b9050919050565b7f42696420616d6f756e742069732062656c6f772074686520726573657276652060008201527f70726963652e0000000000000000000000000000000000000000000000000000602082015250565b6000611544602683611200565b915061154f826114e8565b604082019050919050565b6000602082019050818103600083015261157381611537565b9050919050565b7f4e487b7100000000000000000000000000000000000000000000000000000000600052601160045260246000fd5b60006115b48261115a565b91506115bf8361115a565b92508282019050808211156115d7576115d661157a565b5b92915050565b7f596f752063616e6e6f7420726566756e64206173207468652077696e6e696e6760008201527f206269646465722e000000000000000000000000000000000000000000000000602082015250565b6000611639602883611200565b9150611644826115dd565b604082019050919050565b600060208201905081810360008301526116688161162c565b9050919050565b7f4e6f2066756e647320746f20726566756e642e00000000000000000000000000600082015250565b60006116a5601383611200565b91506116b08261166f565b602082019050919050565b600060208201905081810360008301526116d481611698565b9050919050565b7f41756374696f6e206973207374696c6c206f70656e2e00000000000000000000600082015250565b6000611711601683611200565b915061171c826116db565b602082019050919050565b6000602082019050818103600083015261174081611704565b905091905056fea26469706673582212201b396aa0b6130b71239682b3a98022729945573447d67a0d023c2f9e8e95f1b964736f6c63430008120033","opcodes":"PUSH1 0x80 PUSH1 0x40 MSTORE CALLVALUE DUP1 ISZERO PUSH3 0x11 JUMPI PUSH1 0x0 DUP1 REVERT JUMPDEST POP PUSH1 0x40 MLOAD PUSH3 0x1C70 CODESIZE SUB DUP1 PUSH3 0x1C70 DUP4 CODECOPY DUP2 DUP2 ADD PUSH1 0x40 MSTORE DUP2 ADD SWAP1 PUSH3 0x37 SWAP2 SWAP1 PUSH3 0x314 JUMP JUMPDEST PUSH3 0x53 PUSH8 0x1305D8FF3D66AA2F PUSH1 0xC0 SHL PUSH3 0x2D1 PUSH1 0x20 SHL PUSH1 0x20 SHR JUMP JUMPDEST PUSH3 0x6F PUSH8 0xE60F621E7F1D336C PUSH1 0xC0 SHL PUSH3 0x2D1 PUSH1 0x20 SHL PUSH1 0x20 SHR JUMP JUMPDEST CALLER PUSH1 0x0 DUP1 PUSH2 0x100 EXP DUP2 SLOAD DUP2 PUSH20 0xFFFFFFFFFFFFFFFFFFFFFFFFFFFFFFFFFFFFFFFF MUL NOT AND SWAP1 DUP4 PUSH20 0xFFFFFFFFFFFFFFFFFFFFFFFFFFFFFFFFFFFFFFFF AND MUL OR SWAP1 SSTORE POP PUSH3 0xCB PUSH8 0x13EA84972778C947 PUSH1 0xC0 SHL PUSH3 0x2D1 PUSH1 0x20 SHL PUSH1 0x20 SHR JUMP JUMPDEST DUP3 PUSH1 0x1 DUP2 SWAP1 SSTORE POP PUSH3 0xEE PUSH8 0xB3A64E72ACCAA362 PUSH1 0xC0 SHL PUSH3 0x2D1 PUSH1 0x20 SHL PUSH1 0x20 SHR JUMP JUMPDEST DUP2 PUSH1 0x2 DUP2 SWAP1 SSTORE POP PUSH3 0x111 PUSH8 0xCD020AFCE1B5FDF5 PUSH1 0xC0 SHL PUSH3 0x2D1 PUSH1 0x20 SHL PUSH1 0x20 SHR JUMP JUMPDEST DUP1 PUSH1 0x3 DUP2 SWAP1 SSTORE POP PUSH3 0x134 PUSH8 0x5BB368C2AEDD955B PUSH1 0xC0 SHL PUSH3 0x2D1 PUSH1 0x20 SHL PUSH1 0x20 SHR JUMP JUMPDEST PUSH3 0x150 PUSH8 0xC77D921BB28A581A PUSH1 0xC0 SHL PUSH3 0x2D1 PUSH1 0x20 SHL PUSH1 0x20 SHR JUMP JUMPDEST PUSH1 0x0 PUSH1 0x3 SLOAD PUSH1 0x2 SLOAD PUSH3 0x164 SWAP2 SWAP1 PUSH3 0x39F JUMP JUMPDEST SWAP1 POP PUSH3 0x182 PUSH8 0xCFD79362A31CA243 PUSH1 0xC0 SHL PUSH3 0x2D1 PUSH1 0x20 SHL PUSH1 0x20 SHR JUMP JUMPDEST PUSH3 0x19E PUSH8 0x63286F252481D92D PUSH1 0xC0 SHL PUSH3 0x2D1 PUSH1 0x20 SHL PUSH1 0x20 SHR JUMP JUMPDEST PUSH3 0x1BA PUSH8 0xC6B96D0CD122C8F2 PUSH1 0xC0 SHL PUSH3 0x2D1 PUSH1 0x20 SHL PUSH1 0x20 SHR JUMP JUMPDEST PUSH1 0x1 SLOAD DUP2 GT ISZERO PUSH3 0x202 JUMPI PUSH1 0x40 MLOAD PUSH32 0x8C379A000000000000000000000000000000000000000000000000000000000 DUP2 MSTORE PUSH1 0x4 ADD PUSH3 0x1F9 SWAP1 PUSH3 0x44B JUMP JUMPDEST PUSH1 0x40 MLOAD DUP1 SWAP2 SUB SWAP1 REVERT JUMPDEST PUSH3 0x21E PUSH8 0x30BE588D2C0A8D24 PUSH1 0xC0 SHL PUSH3 0x2D1 PUSH1 0x20 SHL PUSH1 0x20 SHR JUMP JUMPDEST PUSH3 0x23A PUSH8 0x427FCC7297D11248 PUSH1 0xC0 SHL PUSH3 0x2D1 PUSH1 0x20 SHL PUSH1 0x20 SHR JUMP JUMPDEST DUP1 PUSH1 0x1 SLOAD PUSH3 0x24A SWAP2 SWAP1 PUSH3 0x46D JUMP JUMPDEST PUSH1 0x4 DUP2 SWAP1 SSTORE POP PUSH3 0x26C PUSH8 0x787B425370AF9A46 PUSH1 0xC0 SHL PUSH3 0x2D1 PUSH1 0x20 SHL PUSH1 0x20 SHR JUMP JUMPDEST PUSH1 0xF PUSH1 0x2 SLOAD PUSH3 0x27D SWAP2 SWAP1 PUSH3 0x39F JUMP JUMPDEST TIMESTAMP PUSH3 0x28A SWAP2 SWAP1 PUSH3 0x4A8 JUMP JUMPDEST PUSH1 0x5 DUP2 SWAP1 SSTORE POP PUSH3 0x2AC PUSH8 0x77971B3845BA4CEF PUSH1 0xC0 SHL PUSH3 0x2D1 PUSH1 0x20 SHL PUSH1 0x20 SHR JUMP JUMPDEST PUSH1 0x0 PUSH1 0x6 PUSH1 0x0 PUSH2 0x100 EXP DUP2 SLOAD DUP2 PUSH1 0xFF MUL NOT AND SWAP1 DUP4 ISZERO ISZERO MUL OR SWAP1 SSTORE POP POP POP POP POP PUSH3 0x4E3 JUMP JUMPDEST POP JUMP JUMPDEST PUSH1 0x0 DUP1 REVERT JUMPDEST PUSH1 0x0 DUP2 SWAP1 POP SWAP2 SWAP1 POP JUMP JUMPDEST PUSH3 0x2EE DUP2 PUSH3 0x2D9 JUMP JUMPDEST DUP2 EQ PUSH3 0x2FA JUMPI PUSH1 0x0 DUP1 REVERT JUMPDEST POP JUMP JUMPDEST PUSH1 0x0 DUP2 MLOAD SWAP1 POP PUSH3 0x30E DUP2 PUSH3 0x2E3 JUMP JUMPDEST SWAP3 SWAP2 POP POP JUMP JUMPDEST PUSH1 0x0 DUP1 PUSH1 0x0 PUSH1 0x60 DUP5 DUP7 SUB SLT ISZERO PUSH3 0x330 JUMPI PUSH3 0x32F PUSH3 0x2D4 JUMP JUMPDEST JUMPDEST PUSH1 0x0 PUSH3 0x340 DUP7 DUP3 DUP8 ADD PUSH3 0x2FD JUMP JUMPDEST SWAP4 POP POP PUSH1 0x20 PUSH3 0x353 DUP7 DUP3 DUP8 ADD PUSH3 0x2FD JUMP JUMPDEST SWAP3 POP POP PUSH1 0x40 PUSH3 0x366 DUP7 DUP3 DUP8 ADD PUSH3 0x2FD JUMP JUMPDEST SWAP2 POP POP SWAP3 POP SWAP3 POP SWAP3 JUMP JUMPDEST PUSH32 0x4E487B7100000000000000000000000000000000000000000000000000000000 PUSH1 0x0 MSTORE PUSH1 0x11 PUSH1 0x4 MSTORE PUSH1 0x24 PUSH1 0x0 REVERT JUMPDEST PUSH1 0x0 PUSH3 0x3AC DUP3 PUSH3 0x2D9 JUMP JUMPDEST SWAP2 POP PUSH3 0x3B9 DUP4 PUSH3 0x2D9 JUMP JUMPDEST SWAP3 POP DUP3 DUP3 MUL PUSH3 0x3C9 DUP2 PUSH3 0x2D9 JUMP JUMPDEST SWAP2 POP DUP3 DUP3 DIV DUP5 EQ DUP4 ISZERO OR PUSH3 0x3E3 JUMPI PUSH3 0x3E2 PUSH3 0x370 JUMP JUMPDEST JUMPDEST POP SWAP3 SWAP2 POP POP JUMP JUMPDEST PUSH1 0x0 DUP3 DUP3 MSTORE PUSH1 0x20 DUP3 ADD SWAP1 POP SWAP3 SWAP2 POP POP JUMP JUMPDEST PUSH32 0x496E76616C69642061756374696F6E20706172616D65746572732E0000000000 PUSH1 0x0 DUP3 ADD MSTORE POP JUMP JUMPDEST PUSH1 0x0 PUSH3 0x433 PUSH1 0x1B DUP4 PUSH3 0x3EA JUMP JUMPDEST SWAP2 POP PUSH3 0x440 DUP3 PUSH3 0x3FB JUMP JUMPDEST PUSH1 0x20 DUP3 ADD SWAP1 POP SWAP2 SWAP1 POP JUMP JUMPDEST PUSH1 0x0 PUSH1 0x20 DUP3 ADD SWAP1 POP DUP2 DUP2 SUB PUSH1 0x0 DUP4 ADD MSTORE PUSH3 0x466 DUP2 PUSH3 0x424 JUMP JUMPDEST SWAP1 POP SWAP2 SWAP1 POP JUMP JUMPDEST PUSH1 0x0 PUSH3 0x47A DUP3 PUSH3 0x2D9 JUMP JUMPDEST SWAP2 POP PUSH3 0x487 DUP4 PUSH3 0x2D9 JUMP JUMPDEST SWAP3 POP DUP3 DUP3 SUB SWAP1 POP DUP2 DUP2 GT ISZERO PUSH3 0x4A2 JUMPI PUSH3 0x4A1 PUSH3 0x370 JUMP JUMPDEST JUMPDEST SWAP3 SWAP2 POP POP JUMP JUMPDEST PUSH1 0x0 PUSH3 0x4B5 DUP3 PUSH3 0x2D9 JUMP JUMPDEST SWAP2 POP PUSH3 0x4C2 DUP4 PUSH3 0x2D9 JUMP JUMPDEST SWAP3 POP DUP3 DUP3 ADD SWAP1 POP DUP1 DUP3 GT ISZERO PUSH3 0x4DD JUMPI PUSH3 0x4DC PUSH3 0x370 JUMP JUMPDEST JUMPDEST SWAP3 SWAP2 POP POP JUMP JUMPDEST PUSH2 0x177D DUP1 PUSH3 0x4F3 PUSH1 0x0 CODECOPY PUSH1 0x0 RETURN INVALID PUSH1 0x80 PUSH1 0x40 MSTORE PUSH1 0x4 CALLDATASIZE LT PUSH2 0xC2 JUMPI PUSH1 0x0 CALLDATALOAD PUSH1 0xE0 SHR DUP1 PUSH4 0x590E1AE3 GT PUSH2 0x7F JUMPI DUP1 PUSH4 0xD3642A88 GT PUSH2 0x59 JUMPI DUP1 PUSH4 0xD3642A88 EQ PUSH2 0x201 JUMPI DUP1 PUSH4 0xD57BDE79 EQ PUSH2 0x22C JUMPI DUP1 PUSH4 0xDB2E1EED EQ PUSH2 0x257 JUMPI DUP1 PUSH4 0xFE67A54B EQ PUSH2 0x282 JUMPI PUSH2 0xC2 JUMP JUMPDEST DUP1 PUSH4 0x590E1AE3 EQ PUSH2 0x194 JUMPI DUP1 PUSH4 0x86433374 EQ PUSH2 0x1AB JUMPI DUP1 PUSH4 0x91F90157 EQ PUSH2 0x1D6 JUMPI PUSH2 0xC2 JUMP JUMPDEST DUP1 PUSH4 0x8551A53 EQ PUSH2 0xC7 JUMPI DUP1 PUSH4 0x110F8874 EQ PUSH2 0xF2 JUMPI DUP1 PUSH4 0x1998AEEF EQ PUSH2 0x109 JUMPI DUP1 PUSH4 0x1D0806AE EQ PUSH2 0x113 JUMPI DUP1 PUSH4 0x3103EA62 EQ PUSH2 0x13E JUMPI DUP1 PUSH4 0x4B449CBA EQ PUSH2 0x169 JUMPI JUMPDEST PUSH1 0x0 DUP1 REVERT JUMPDEST CALLVALUE DUP1 ISZERO PUSH2 0xD3 JUMPI PUSH1 0x0 DUP1 REVERT JUMPDEST POP PUSH2 0xDC PUSH2 0x299 JUMP JUMPDEST PUSH1 0x40 MLOAD PUSH2 0xE9 SWAP2 SWAP1 PUSH2 0x113F JUMP JUMPDEST PUSH1 0x40 MLOAD DUP1 SWAP2 SUB SWAP1 RETURN JUMPDEST CALLVALUE DUP1 ISZERO PUSH2 0xFE JUMPI PUSH1 0x0 DUP1 REVERT JUMPDEST POP PUSH2 0x107 PUSH2 0x2BD JUMP JUMPDEST STOP JUMPDEST PUSH2 0x111 PUSH2 0x67B JUMP JUMPDEST STOP JUMPDEST CALLVALUE DUP1 ISZERO PUSH2 0x11F JUMPI PUSH1 0x0 DUP1 REVERT JUMPDEST POP PUSH2 0x128 PUSH2 0xA98 JUMP JUMPDEST PUSH1 0x40 MLOAD PUSH2 0x135 SWAP2 SWAP1 PUSH2 0x1173 JUMP JUMPDEST PUSH1 0x40 MLOAD DUP1 SWAP2 SUB SWAP1 RETURN JUMPDEST CALLVALUE DUP1 ISZERO PUSH2 0x14A JUMPI PUSH1 0x0 DUP1 REVERT JUMPDEST POP PUSH2 0x153 PUSH2 0xA9E JUMP JUMPDEST PUSH1 0x40 MLOAD PUSH2 0x160 SWAP2 SWAP1 PUSH2 0x1173 JUMP JUMPDEST PUSH1 0x40 MLOAD DUP1 SWAP2 SUB SWAP1 RETURN JUMPDEST CALLVALUE DUP1 ISZERO PUSH2 0x175 JUMPI PUSH1 0x0 DUP1 REVERT JUMPDEST POP PUSH2 0x17E PUSH2 0xAA4 JUMP JUMPDEST PUSH1 0x40 MLOAD PUSH2 0x18B SWAP2 SWAP1 PUSH2 0x1173 JUMP JUMPDEST PUSH1 0x40 MLOAD DUP1 SWAP2 SUB SWAP1 RETURN JUMPDEST CALLVALUE DUP1 ISZERO PUSH2 0x1A0 JUMPI PUSH1 0x0 DUP1 REVERT JUMPDEST POP PUSH2 0x1A9 PUSH2 0xAAA JUMP JUMPDEST STOP JUMPDEST CALLVALUE DUP1 ISZERO PUSH2 0x1B7 JUMPI PUSH1 0x0 DUP1 REVERT JUMPDEST POP PUSH2 0x1C0 PUSH2 0xDF9 JUMP JUMPDEST PUSH1 0x40 MLOAD PUSH2 0x1CD SWAP2 SWAP1 PUSH2 0x11A9 JUMP JUMPDEST PUSH1 0x40 MLOAD DUP1 SWAP2 SUB SWAP1 RETURN JUMPDEST CALLVALUE DUP1 ISZERO PUSH2 0x1E2 JUMPI PUSH1 0x0 DUP1 REVERT JUMPDEST POP PUSH2 0x1EB PUSH2 0xE0C JUMP JUMPDEST PUSH1 0x40 MLOAD PUSH2 0x1F8 SWAP2 SWAP1 PUSH2 0x11E5 JUMP JUMPDEST PUSH1 0x40 MLOAD DUP1 SWAP2 SUB SWAP1 RETURN JUMPDEST CALLVALUE DUP1 ISZERO PUSH2 0x20D JUMPI PUSH1 0x0 DUP1 REVERT JUMPDEST POP PUSH2 0x216 PUSH2 0xE32 JUMP JUMPDEST PUSH1 0x40 MLOAD PUSH2 0x223 SWAP2 SWAP1 PUSH2 0x1173 JUMP JUMPDEST PUSH1 0x40 MLOAD DUP1 SWAP2 SUB SWAP1 RETURN JUMPDEST CALLVALUE DUP1 ISZERO PUSH2 0x238 JUMPI PUSH1 0x0 DUP1 REVERT JUMPDEST POP PUSH2 0x241 PUSH2 0xE38 JUMP JUMPDEST PUSH1 0x40 MLOAD PUSH2 0x24E SWAP2 SWAP1 PUSH2 0x1173 JUMP JUMPDEST PUSH1 0x40 MLOAD DUP1 SWAP2 SUB SWAP1 RETURN JUMPDEST CALLVALUE DUP1 ISZERO PUSH2 0x263 JUMPI PUSH1 0x0 DUP1 REVERT JUMPDEST POP PUSH2 0x26C PUSH2 0xE3E JUMP JUMPDEST PUSH1 0x40 MLOAD PUSH2 0x279 SWAP2 SWAP1 PUSH2 0x1173 JUMP JUMPDEST PUSH1 0x40 MLOAD DUP1 SWAP2 SUB SWAP1 RETURN JUMPDEST CALLVALUE DUP1 ISZERO PUSH2 0x28E JUMPI PUSH1 0x0 DUP1 REVERT JUMPDEST POP PUSH2 0x297 PUSH2 0xE44 JUMP JUMPDEST STOP JUMPDEST PUSH1 0x0 DUP1 SLOAD SWAP1 PUSH2 0x100 EXP SWAP1 DIV PUSH20 0xFFFFFFFFFFFFFFFFFFFFFFFFFFFFFFFFFFFFFFFF AND DUP2 JUMP JUMPDEST PUSH2 0x2D1 PUSH8 0xC16FA153BFAD998 PUSH1 0xC0 SHL PUSH2 0x10FB JUMP JUMPDEST PUSH2 0x2E5 PUSH8 0x26AA06E0D961F313 PUSH1 0xC0 SHL PUSH2 0x10FB JUMP JUMPDEST PUSH2 0x2F9 PUSH8 0xC199EA4996ABFBFA PUSH1 0xC0 SHL PUSH2 0x10FB JUMP JUMPDEST PUSH2 0x30D PUSH8 0x6EC53FF6AA8A8093 PUSH1 0xC0 SHL PUSH2 0x10FB JUMP JUMPDEST PUSH1 0x6 PUSH1 0x0 SWAP1 SLOAD SWAP1 PUSH2 0x100 EXP SWAP1 DIV PUSH1 0xFF AND PUSH2 0x35C JUMPI PUSH1 0x40 MLOAD PUSH32 0x8C379A000000000000000000000000000000000000000000000000000000000 DUP2 MSTORE PUSH1 0x4 ADD PUSH2 0x353 SWAP1 PUSH2 0x125D JUMP JUMPDEST PUSH1 0x40 MLOAD DUP1 SWAP2 SUB SWAP1 REVERT JUMPDEST PUSH2 0x370 PUSH8 0x34D0C440BB3741BF PUSH1 0xC0 SHL PUSH2 0x10FB JUMP JUMPDEST PUSH2 0x384 PUSH8 0xD53C40B86EEF6990 PUSH1 0xC0 SHL PUSH2 0x10FB JUMP JUMPDEST PUSH2 0x398 PUSH8 0x36345E6A6E133A3D PUSH1 0xC0 SHL PUSH2 0x10FB JUMP JUMPDEST PUSH2 0x3AC PUSH8 0xC3CF51DC6EFA3E16 PUSH1 0xC0 SHL PUSH2 0x10FB JUMP JUMPDEST PUSH1 0x6 PUSH1 0x1 SWAP1 SLOAD SWAP1 PUSH2 0x100 EXP SWAP1 DIV PUSH20 0xFFFFFFFFFFFFFFFFFFFFFFFFFFFFFFFFFFFFFFFF AND PUSH20 0xFFFFFFFFFFFFFFFFFFFFFFFFFFFFFFFFFFFFFFFF AND CALLER PUSH20 0xFFFFFFFFFFFFFFFFFFFFFFFFFFFFFFFFFFFFFFFF AND SUB PUSH2 0x43C JUMPI PUSH1 0x40 MLOAD PUSH32 0x8C379A000000000000000000000000000000000000000000000000000000000 DUP2 MSTORE PUSH1 0x4 ADD PUSH2 0x433 SWAP1 PUSH2 0x12EF JUMP JUMPDEST PUSH1 0x40 MLOAD DUP1 SWAP2 SUB SWAP1 REVERT JUMPDEST PUSH2 0x450 PUSH8 0x38CB24D58D81F55E PUSH1 0xC0 SHL PUSH2 0x10FB JUMP JUMPDEST PUSH2 0x464 PUSH8 0xC87BBAE07681A29 PUSH1 0xC0 SHL PUSH2 0x10FB JUMP JUMPDEST PUSH2 0x478 PUSH8 0x1F06C3CE33A3A11 PUSH1 0xC0 SHL PUSH2 0x10FB JUMP JUMPDEST PUSH1 0x0 PUSH1 0x8 PUSH1 0x0 CALLER PUSH20 0xFFFFFFFFFFFFFFFFFFFFFFFFFFFFFFFFFFFFFFFF AND PUSH20 0xFFFFFFFFFFFFFFFFFFFFFFFFFFFFFFFFFFFFFFFF AND DUP2 MSTORE PUSH1 0x20 ADD SWAP1 DUP2 MSTORE PUSH1 0x20 ADD PUSH1 0x0 KECCAK256 SLOAD SWAP1 POP PUSH2 0x4D0 PUSH8 0x51621A7EB208693D PUSH1 0xC0 SHL PUSH2 0x10FB JUMP JUMPDEST PUSH2 0x4E4 PUSH8 0xFB257DEDA886FAD1 PUSH1 0xC0 SHL PUSH2 0x10FB JUMP JUMPDEST PUSH2 0x4F8 PUSH8 0xEE01D87EB3732B5 PUSH1 0xC0 SHL PUSH2 0x10FB JUMP JUMPDEST PUSH1 0x0 DUP2 GT PUSH2 0x53B JUMPI PUSH1 0x40 MLOAD PUSH32 0x8C379A000000000000000000000000000000000000000000000000000000000 DUP2 MSTORE PUSH1 0x4 ADD PUSH2 0x532 SWAP1 PUSH2 0x135B JUMP JUMPDEST PUSH1 0x40 MLOAD DUP1 SWAP2 SUB SWAP1 REVERT JUMPDEST PUSH2 0x54F PUSH8 0x8C537E950C0C84D7 PUSH1 0xC0 SHL PUSH2 0x10FB JUMP JUMPDEST PUSH2 0x563 PUSH8 0x1228DA6C62F09139 PUSH1 0xC0 SHL PUSH2 0x10FB JUMP JUMPDEST PUSH1 0x0 PUSH1 0x8 PUSH1 0x0 CALLER PUSH20 0xFFFFFFFFFFFFFFFFFFFFFFFFFFFFFFFFFFFFFFFF AND PUSH20 0xFFFFFFFFFFFFFFFFFFFFFFFFFFFFFFFFFFFFFFFF AND DUP2 MSTORE PUSH1 0x20 ADD SWAP1 DUP2 MSTORE PUSH1 0x20 ADD PUSH1 0x0 KECCAK256 DUP2 SWAP1 SSTORE POP PUSH2 0x5BC PUSH8 0x3DB6390A4A7AB167 PUSH1 0xC0 SHL PUSH2 0x10FB JUMP JUMPDEST PUSH2 0x5D0 PUSH8 0x4CB1165377356F4E PUSH1 0xC0 SHL PUSH2 0x10FB JUMP JUMPDEST CALLER PUSH20 0xFFFFFFFFFFFFFFFFFFFFFFFFFFFFFFFFFFFFFFFF AND PUSH2 0x8FC DUP3 SWAP1 DUP2 ISZERO MUL SWAP1 PUSH1 0x40 MLOAD PUSH1 0x0 PUSH1 0x40 MLOAD DUP1 DUP4 SUB DUP2 DUP6 DUP9 DUP9 CALL SWAP4 POP POP POP POP ISZERO DUP1 ISZERO PUSH2 0x616 JUMPI RETURNDATASIZE PUSH1 0x0 DUP1 RETURNDATACOPY RETURNDATASIZE PUSH1 0x0 REVERT JUMPDEST POP PUSH2 0x62B PUSH8 0x78E8F520D10846F PUSH1 0xC0 SHL PUSH2 0x10FB JUMP JUMPDEST PUSH2 0x63F PUSH8 0xDC6B2BD2865D3E7E PUSH1 0xC0 SHL PUSH2 0x10FB JUMP JUMPDEST PUSH32 0xF9922A0C01AB47885E389A38642AB35C02F97CC09D44C58DE533EC24CD178A33 CALLER DUP3 PUSH1 0x40 MLOAD PUSH2 0x670 SWAP3 SWAP2 SWAP1 PUSH2 0x137B JUMP JUMPDEST PUSH1 0x40 MLOAD DUP1 SWAP2 SUB SWAP1 LOG1 POP JUMP JUMPDEST PUSH2 0x68F PUSH8 0x5DEF54760F248FE6 PUSH1 0xC0 SHL PUSH2 0x10FB JUMP JUMPDEST PUSH2 0x6A3 PUSH8 0xD6CFABCD97E80F28 PUSH1 0xC0 SHL PUSH2 0x10FB JUMP JUMPDEST PUSH2 0x6B7 PUSH8 0xDC00E38EDA96DB16 PUSH1 0xC0 SHL PUSH2 0x10FB JUMP JUMPDEST PUSH2 0x6CB PUSH8 0xFF9B51CE9757DDA7 PUSH1 0xC0 SHL PUSH2 0x10FB JUMP JUMPDEST PUSH1 0x6 PUSH1 0x0 SWAP1 SLOAD SWAP1 PUSH2 0x100 EXP SWAP1 DIV PUSH1 0xFF AND ISZERO PUSH2 0x71B JUMPI PUSH1 0x40 MLOAD PUSH32 0x8C379A000000000000000000000000000000000000000000000000000000000 DUP2 MSTORE PUSH1 0x4 ADD PUSH2 0x712 SWAP1 PUSH2 0x13F0 JUMP JUMPDEST PUSH1 0x40 MLOAD DUP1 SWAP2 SUB SWAP1 REVERT JUMPDEST PUSH2 0x72F PUSH8 0xBED03BF443E1AD5E PUSH1 0xC0 SHL PUSH2 0x10FB JUMP JUMPDEST PUSH2 0x743 PUSH8 0x2FBBFE1A49783862 PUSH1 0xC0 SHL PUSH2 0x10FB JUMP JUMPDEST PUSH2 0x757 PUSH8 0x6EF925D1B4409512 PUSH1 0xC0 SHL PUSH2 0x10FB JUMP JUMPDEST PUSH2 0x76B PUSH8 0x665E1183D7AEBADC PUSH1 0xC0 SHL PUSH2 0x10FB JUMP JUMPDEST PUSH1 0x5 SLOAD TIMESTAMP LT PUSH2 0x7AF JUMPI PUSH1 0x40 MLOAD PUSH32 0x8C379A000000000000000000000000000000000000000000000000000000000 DUP2 MSTORE PUSH1 0x4 ADD PUSH2 0x7A6 SWAP1 PUSH2 0x145C JUMP JUMPDEST PUSH1 0x40 MLOAD DUP1 SWAP2 SUB SWAP1 REVERT JUMPDEST PUSH2 0x7C3 PUSH8 0xB7FCD03AF6DD583E PUSH1 0xC0 SHL PUSH2 0x10FB JUMP JUMPDEST PUSH2 0x7D7 PUSH8 0xED95E8B2E33A47B9 PUSH1 0xC0 SHL PUSH2 0x10FB JUMP JUMPDEST PUSH2 0x7EB PUSH8 0x24C8960A094CC20A PUSH1 0xC0 SHL PUSH2 0x10FB JUMP JUMPDEST PUSH2 0x7FF PUSH8 0x55D927CDE92B2252 PUSH1 0xC0 SHL PUSH2 0x10FB JUMP JUMPDEST PUSH1 0x7 SLOAD CALLVALUE GT PUSH2 0x843 JUMPI PUSH1 0x40 MLOAD PUSH32 0x8C379A000000000000000000000000000000000000000000000000000000000 DUP2 MSTORE PUSH1 0x4 ADD PUSH2 0x83A SWAP1 PUSH2 0x14C8 JUMP JUMPDEST PUSH1 0x40 MLOAD DUP1 SWAP2 SUB SWAP1 REVERT JUMPDEST PUSH2 0x857 PUSH8 0xD020318BD2EE9847 PUSH1 0xC0 SHL PUSH2 0x10FB JUMP JUMPDEST PUSH2 0x86B PUSH8 0xF91E558239E607A3 PUSH1 0xC0 SHL PUSH2 0x10FB JUMP JUMPDEST PUSH2 0x87F PUSH8 0x8064A12329E3AA60 PUSH1 0xC0 SHL PUSH2 0x10FB JUMP JUMPDEST PUSH2 0x893 PUSH8 0x5C045C8EC069DBEB PUSH1 0xC0 SHL PUSH2 0x10FB JUMP JUMPDEST PUSH1 0x1 SLOAD CALLVALUE LT ISZERO PUSH2 0x8D8 JUMPI PUSH1 0x40 MLOAD PUSH32 0x8C379A000000000000000000000000000000000000000000000000000000000 DUP2 MSTORE PUSH1 0x4 ADD PUSH2 0x8CF SWAP1 PUSH2 0x155A JUMP JUMPDEST PUSH1 0x40 MLOAD DUP1 SWAP2 SUB SWAP1 REVERT JUMPDEST PUSH2 0x8EC PUSH8 0x17D23B48455D5FCE PUSH1 0xC0 SHL PUSH2 0x10FB JUMP JUMPDEST PUSH2 0x900 PUSH8 0xD74B327DBD8D15EC PUSH1 0xC0 SHL PUSH2 0x10FB JUMP JUMPDEST PUSH2 0x914 PUSH8 0xD6BAB06892CD1B80 PUSH1 0xC0 SHL PUSH2 0x10FB JUMP JUMPDEST PUSH1 0x0 PUSH20 0xFFFFFFFFFFFFFFFFFFFFFFFFFFFFFFFFFFFFFFFF AND PUSH1 0x6 PUSH1 0x1 SWAP1 SLOAD SWAP1 PUSH2 0x100 EXP SWAP1 DIV PUSH20 0xFFFFFFFFFFFFFFFFFFFFFFFFFFFFFFFFFFFFFFFF AND PUSH20 0xFFFFFFFFFFFFFFFFFFFFFFFFFFFFFFFFFFFFFFFF AND EQ PUSH2 0xA11 JUMPI PUSH2 0x97E PUSH8 0x6DB098465B61C283 PUSH1 0xC0 SHL PUSH2 0x10FB JUMP JUMPDEST PUSH2 0x992 PUSH8 0x80C3BA7EFAD21701 PUSH1 0xC0 SHL PUSH2 0x10FB JUMP JUMPDEST PUSH1 0x7 SLOAD PUSH1 0x8 PUSH1 0x0 PUSH1 0x6 PUSH1 0x1 SWAP1 SLOAD SWAP1 PUSH2 0x100 EXP SWAP1 DIV PUSH20 0xFFFFFFFFFFFFFFFFFFFFFFFFFFFFFFFFFFFFFFFF AND PUSH20 0xFFFFFFFFFFFFFFFFFFFFFFFFFFFFFFFFFFFFFFFF AND PUSH20 0xFFFFFFFFFFFFFFFFFFFFFFFFFFFFFFFFFFFFFFFF AND DUP2 MSTORE PUSH1 0x20 ADD SWAP1 DUP2 MSTORE PUSH1 0x20 ADD PUSH1 0x0 KECCAK256 PUSH1 0x0 DUP3 DUP3 SLOAD PUSH2 0xA05 SWAP2 SWAP1 PUSH2 0x15A9 JUMP JUMPDEST SWAP3 POP POP DUP2 SWAP1 SSTORE POP PUSH2 0xA26 JUMP JUMPDEST PUSH2 0xA25 PUSH8 0x6603413A4AF694EB PUSH1 0xC0 SHL PUSH2 0x10FB JUMP JUMPDEST JUMPDEST PUSH2 0xA3A PUSH8 0xC19B84AE2415D299 PUSH1 0xC0 SHL PUSH2 0x10FB JUMP JUMPDEST CALLER PUSH1 0x6 PUSH1 0x1 PUSH2 0x100 EXP DUP2 SLOAD DUP2 PUSH20 0xFFFFFFFFFFFFFFFFFFFFFFFFFFFFFFFFFFFFFFFF MUL NOT AND SWAP1 DUP4 PUSH20 0xFFFFFFFFFFFFFFFFFFFFFFFFFFFFFFFFFFFFFFFF AND MUL OR SWAP1 SSTORE POP PUSH2 0xA8F PUSH8 0x8814E535FF54C53F PUSH1 0xC0 SHL PUSH2 0x10FB JUMP JUMPDEST CALLVALUE PUSH1 0x7 DUP2 SWAP1 SSTORE POP JUMP JUMPDEST PUSH1 0x4 SLOAD DUP2 JUMP JUMPDEST PUSH1 0x2 SLOAD DUP2 JUMP JUMPDEST PUSH1 0x5 SLOAD DUP2 JUMP JUMPDEST PUSH2 0xABE PUSH8 0x7C93843A4CE1B6AA PUSH1 0xC0 SHL PUSH2 0x10FB JUMP JUMPDEST PUSH2 0xAD2 PUSH8 0x737232B45A6D955B PUSH1 0xC0 SHL PUSH2 0x10FB JUMP JUMPDEST PUSH2 0xAE6 PUSH8 0x9A0E53C866B90133 PUSH1 0xC0 SHL PUSH2 0x10FB JUMP JUMPDEST PUSH2 0xAFA PUSH8 0xEC0F484CB0D3179C PUSH1 0xC0 SHL PUSH2 0x10FB JUMP JUMPDEST PUSH1 0x6 PUSH1 0x0 SWAP1 SLOAD SWAP1 PUSH2 0x100 EXP SWAP1 DIV PUSH1 0xFF AND PUSH2 0xB49 JUMPI PUSH1 0x40 MLOAD PUSH32 0x8C379A000000000000000000000000000000000000000000000000000000000 DUP2 MSTORE PUSH1 0x4 ADD PUSH2 0xB40 SWAP1 PUSH2 0x125D JUMP JUMPDEST PUSH1 0x40 MLOAD DUP1 SWAP2 SUB SWAP1 REVERT JUMPDEST PUSH2 0xB5D PUSH8 0xCB0C2BEB9F246E96 PUSH1 0xC0 SHL PUSH2 0x10FB JUMP JUMPDEST PUSH2 0xB71 PUSH8 0x9763FF2389BF3B21 PUSH1 0xC0 SHL PUSH2 0x10FB JUMP JUMPDEST PUSH2 0xB85 PUSH8 0xCB2D50A953D2B072 PUSH1 0xC0 SHL PUSH2 0x10FB JUMP JUMPDEST PUSH2 0xB99 PUSH8 0x4DE2B3C74CF9BAAF PUSH1 0xC0 SHL PUSH2 0x10FB JUMP JUMPDEST PUSH1 0x6 PUSH1 0x1 SWAP1 SLOAD SWAP1 PUSH2 0x100 EXP SWAP1 DIV PUSH20 0xFFFFFFFFFFFFFFFFFFFFFFFFFFFFFFFFFFFFFFFF AND PUSH20 0xFFFFFFFFFFFFFFFFFFFFFFFFFFFFFFFFFFFFFFFF AND CALLER PUSH20 0xFFFFFFFFFFFFFFFFFFFFFFFFFFFFFFFFFFFFFFFF AND SUB PUSH2 0xC29 JUMPI PUSH1 0x40 MLOAD PUSH32 0x8C379A000000000000000000000000000000000000000000000000000000000 DUP2 MSTORE PUSH1 0x4 ADD PUSH2 0xC20 SWAP1 PUSH2 0x164F JUMP JUMPDEST PUSH1 0x40 MLOAD DUP1 SWAP2 SUB SWAP1 REVERT JUMPDEST PUSH2 0xC3D PUSH8 0x2EFACEABBEAF8DEF PUSH1 0xC0 SHL PUSH2 0x10FB JUMP JUMPDEST PUSH2 0xC51 PUSH8 0x94B12523A2D415C4 PUSH1 0xC0 SHL PUSH2 0x10FB JUMP JUMPDEST PUSH2 0xC65 PUSH8 0x65DB9BBFC510D31A PUSH1 0xC0 SHL PUSH2 0x10FB JUMP JUMPDEST PUSH1 0x0 PUSH1 0x8 PUSH1 0x0 CALLER PUSH20 0xFFFFFFFFFFFFFFFFFFFFFFFFFFFFFFFFFFFFFFFF AND PUSH20 0xFFFFFFFFFFFFFFFFFFFFFFFFFFFFFFFFFFFFFFFF AND DUP2 MSTORE PUSH1 0x20 ADD SWAP1 DUP2 MSTORE PUSH1 0x20 ADD PUSH1 0x0 KECCAK256 SLOAD SWAP1 POP PUSH2 0xCBD PUSH8 0x1738912FA656D326 PUSH1 0xC0 SHL PUSH2 0x10FB JUMP JUMPDEST PUSH2 0xCD1 PUSH8 0xD2C32CA2D936882C PUSH1 0xC0 SHL PUSH2 0x10FB JUMP JUMPDEST PUSH2 0xCE5 PUSH8 0x3BE2DA664E7C9F42 PUSH1 0xC0 SHL PUSH2 0x10FB JUMP JUMPDEST PUSH1 0x0 DUP2 GT PUSH2 0xD28 JUMPI PUSH1 0x40 MLOAD PUSH32 0x8C379A000000000000000000000000000000000000000000000000000000000 DUP2 MSTORE PUSH1 0x4 ADD PUSH2 0xD1F SWAP1 PUSH2 0x16BB JUMP JUMPDEST PUSH1 0x40 MLOAD DUP1 SWAP2 SUB SWAP1 REVERT JUMPDEST PUSH2 0xD3C PUSH8 0x1D88B672455FAEE3 PUSH1 0xC0 SHL PUSH2 0x10FB JUMP JUMPDEST PUSH2 0xD50 PUSH8 0xCC07D738BC3E0AA1 PUSH1 0xC0 SHL PUSH2 0x10FB JUMP JUMPDEST PUSH1 0x0 PUSH1 0x8 PUSH1 0x0 CALLER PUSH20 0xFFFFFFFFFFFFFFFFFFFFFFFFFFFFFFFFFFFFFFFF AND PUSH20 0xFFFFFFFFFFFFFFFFFFFFFFFFFFFFFFFFFFFFFFFF AND DUP2 MSTORE PUSH1 0x20 ADD SWAP1 DUP2 MSTORE PUSH1 0x20 ADD PUSH1 0x0 KECCAK256 DUP2 SWAP1 SSTORE POP PUSH2 0xDA9 PUSH8 0x4EF26732194553CF PUSH1 0xC0 SHL PUSH2 0x10FB JUMP JUMPDEST PUSH2 0xDBD PUSH8 0x3E57F1CAD84D6E54 PUSH1 0xC0 SHL PUSH2 0x10FB JUMP JUMPDEST PUSH32 0xBB28353E4598C3B9199101A66E0989549B659A59A54D2C27FBB183F1932C8E6D CALLER DUP3 PUSH1 0x40 MLOAD PUSH2 0xDEE SWAP3 SWAP2 SWAP1 PUSH2 0x137B JUMP JUMPDEST PUSH1 0x40 MLOAD DUP1 SWAP2 SUB SWAP1 LOG1 POP JUMP JUMPDEST PUSH1 0x6 PUSH1 0x0 SWAP1 SLOAD SWAP1 PUSH2 0x100 EXP SWAP1 DIV PUSH1 0xFF AND DUP2 JUMP JUMPDEST PUSH1 0x6 PUSH1 0x1 SWAP1 SLOAD SWAP1 PUSH2 0x100 EXP SWAP1 DIV PUSH20 0xFFFFFFFFFFFFFFFFFFFFFFFFFFFFFFFFFFFFFFFF AND DUP2 JUMP JUMPDEST PUSH1 0x3 SLOAD DUP2 JUMP JUMPDEST PUSH1 0x7 SLOAD DUP2 JUMP JUMPDEST PUSH1 0x1 SLOAD DUP2 JUMP JUMPDEST PUSH2 0xE58 PUSH8 0xF76C311C9FB289C6 PUSH1 0xC0 SHL PUSH2 0x10FB JUMP JUMPDEST PUSH2 0xE6C PUSH8 0x68E873B28341EFA9 PUSH1 0xC0 SHL PUSH2 0x10FB JUMP JUMPDEST PUSH2 0xE80 PUSH8 0xC3AB34CB333C9E59 PUSH1 0xC0 SHL PUSH2 0x10FB JUMP JUMPDEST PUSH2 0xE94 PUSH8 0xC184621E7F6E1A3E PUSH1 0xC0 SHL PUSH2 0x10FB JUMP JUMPDEST PUSH1 0x6 PUSH1 0x0 SWAP1 SLOAD SWAP1 PUSH2 0x100 EXP SWAP1 DIV PUSH1 0xFF AND ISZERO PUSH2 0xEE4 JUMPI PUSH1 0x40 MLOAD PUSH32 0x8C379A000000000000000000000000000000000000000000000000000000000 DUP2 MSTORE PUSH1 0x4 ADD PUSH2 0xEDB SWAP1 PUSH2 0x13F0 JUMP JUMPDEST PUSH1 0x40 MLOAD DUP1 SWAP2 SUB SWAP1 REVERT JUMPDEST PUSH2 0xEF8 PUSH8 0x74C2EF76AD5B9393 PUSH1 0xC0 SHL PUSH2 0x10FB JUMP JUMPDEST PUSH2 0xF0C PUSH8 0x2916C58DD5A8F42C PUSH1 0xC0 SHL PUSH2 0x10FB JUMP JUMPDEST PUSH2 0xF20 PUSH8 0x7D39B6D968394EEE PUSH1 0xC0 SHL PUSH2 0x10FB JUMP JUMPDEST PUSH2 0xF34 PUSH8 0x89E52422A0D9D80E PUSH1 0xC0 SHL PUSH2 0x10FB JUMP JUMPDEST PUSH1 0x5 SLOAD TIMESTAMP LT ISZERO PUSH2 0xF79 JUMPI PUSH1 0x40 MLOAD PUSH32 0x8C379A000000000000000000000000000000000000000000000000000000000 DUP2 MSTORE PUSH1 0x4 ADD PUSH2 0xF70 SWAP1 PUSH2 0x1727 JUMP JUMPDEST PUSH1 0x40 MLOAD DUP1 SWAP2 SUB SWAP1 REVERT JUMPDEST PUSH2 0xF8D PUSH8 0xC366E2D7B54FA32D PUSH1 0xC0 SHL PUSH2 0x10FB JUMP JUMPDEST PUSH2 0xFA1 PUSH8 0x8F26AEE3DA0A2665 PUSH1 0xC0 SHL PUSH2 0x10FB JUMP JUMPDEST PUSH1 0x1 PUSH1 0x6 PUSH1 0x0 PUSH2 0x100 EXP DUP2 SLOAD DUP2 PUSH1 0xFF MUL NOT AND SWAP1 DUP4 ISZERO ISZERO MUL OR SWAP1 SSTORE POP PUSH2 0xFD0 PUSH8 0x70243DE99CF06026 PUSH1 0xC0 SHL PUSH2 0x10FB JUMP JUMPDEST PUSH2 0xFE4 PUSH8 0xA4E668938A61D26A PUSH1 0xC0 SHL PUSH2 0x10FB JUMP JUMPDEST PUSH1 0x0 PUSH20 0xFFFFFFFFFFFFFFFFFFFFFFFFFFFFFFFFFFFFFFFF AND PUSH1 0x6 PUSH1 0x1 SWAP1 SLOAD SWAP1 PUSH2 0x100 EXP SWAP1 DIV PUSH20 0xFFFFFFFFFFFFFFFFFFFFFFFFFFFFFFFFFFFFFFFF AND PUSH20 0xFFFFFFFFFFFFFFFFFFFFFFFFFFFFFFFFFFFFFFFF AND EQ PUSH2 0x10E4 JUMPI PUSH2 0x104E PUSH8 0x93E696D9759AEB94 PUSH1 0xC0 SHL PUSH2 0x10FB JUMP JUMPDEST PUSH2 0x1062 PUSH8 0xCE2D19EF4A39086A PUSH1 0xC0 SHL PUSH2 0x10FB JUMP JUMPDEST PUSH2 0x1076 PUSH8 0xCC30D3BDB6AB9BDD PUSH1 0xC0 SHL PUSH2 0x10FB JUMP JUMPDEST PUSH1 0x0 DUP1 SLOAD SWAP1 PUSH2 0x100 EXP SWAP1 DIV PUSH20 0xFFFFFFFFFFFFFFFFFFFFFFFFFFFFFFFFFFFFFFFF AND PUSH20 0xFFFFFFFFFFFFFFFFFFFFFFFFFFFFFFFFFFFFFFFF AND PUSH2 0x8FC PUSH1 0x7 SLOAD SWAP1 DUP2 ISZERO MUL SWAP1 PUSH1 0x40 MLOAD PUSH1 0x0 PUSH1 0x40 MLOAD DUP1 DUP4 SUB DUP2 DUP6 DUP9 DUP9 CALL SWAP4 POP POP POP POP ISZERO DUP1 ISZERO PUSH2 0x10DE JUMPI RETURNDATASIZE PUSH1 0x0 DUP1 RETURNDATACOPY RETURNDATASIZE PUSH1 0x0 REVERT JUMPDEST POP PUSH2 0x10F9 JUMP JUMPDEST PUSH2 0x10F8 PUSH8 0x2232FD059E60B342 PUSH1 0xC0 SHL PUSH2 0x10FB JUMP JUMPDEST JUMPDEST JUMP JUMPDEST POP JUMP JUMPDEST PUSH1 0x0 PUSH20 0xFFFFFFFFFFFFFFFFFFFFFFFFFFFFFFFFFFFFFFFF DUP3 AND SWAP1 POP SWAP2 SWAP1 POP JUMP JUMPDEST PUSH1 0x0 PUSH2 0x1129 DUP3 PUSH2 0x10FE JUMP JUMPDEST SWAP1 POP SWAP2 SWAP1 POP JUMP JUMPDEST PUSH2 0x1139 DUP2 PUSH2 0x111E JUMP JUMPDEST DUP3 MSTORE POP POP JUMP JUMPDEST PUSH1 0x0 PUSH1 0x20 DUP3 ADD SWAP1 POP PUSH2 0x1154 PUSH1 0x0 DUP4 ADD DUP5 PUSH2 0x1130 JUMP JUMPDEST SWAP3 SWAP2 POP POP JUMP JUMPDEST PUSH1 0x0 DUP2 SWAP1 POP SWAP2 SWAP1 POP JUMP JUMPDEST PUSH2 0x116D DUP2 PUSH2 0x115A JUMP JUMPDEST DUP3 MSTORE POP POP JUMP JUMPDEST PUSH1 0x0 PUSH1 0x20 DUP3 ADD SWAP1 POP PUSH2 0x1188 PUSH1 0x0 DUP4 ADD DUP5 PUSH2 0x1164 JUMP JUMPDEST SWAP3 SWAP2 POP POP JUMP JUMPDEST PUSH1 0x0 DUP2 ISZERO ISZERO SWAP1 POP SWAP2 SWAP1 POP JUMP JUMPDEST PUSH2 0x11A3 DUP2 PUSH2 0x118E JUMP JUMPDEST DUP3 MSTORE POP POP JUMP JUMPDEST PUSH1 0x0 PUSH1 0x20 DUP3 ADD SWAP1 POP PUSH2 0x11BE PUSH1 0x0 DUP4 ADD DUP5 PUSH2 0x119A JUMP JUMPDEST SWAP3 SWAP2 POP POP JUMP JUMPDEST PUSH1 0x0 PUSH2 0x11CF DUP3 PUSH2 0x10FE JUMP JUMPDEST SWAP1 POP SWAP2 SWAP1 POP JUMP JUMPDEST PUSH2 0x11DF DUP2 PUSH2 0x11C4 JUMP JUMPDEST DUP3 MSTORE POP POP JUMP JUMPDEST PUSH1 0x0 PUSH1 0x20 DUP3 ADD SWAP1 POP PUSH2 0x11FA PUSH1 0x0 DUP4 ADD DUP5 PUSH2 0x11D6 JUMP JUMPDEST SWAP3 SWAP2 POP POP JUMP JUMPDEST PUSH1 0x0 DUP3 DUP3 MSTORE PUSH1 0x20 DUP3 ADD SWAP1 POP SWAP3 SWAP2 POP POP JUMP JUMPDEST PUSH32 0x41756374696F6E20686173206E6F7420656E6465642E00000000000000000000 PUSH1 0x0 DUP3 ADD MSTORE POP JUMP JUMPDEST PUSH1 0x0 PUSH2 0x1247 PUSH1 0x16 DUP4 PUSH2 0x1200 JUMP JUMPDEST SWAP2 POP PUSH2 0x1252 DUP3 PUSH2 0x1211 JUMP JUMPDEST PUSH1 0x20 DUP3 ADD SWAP1 POP SWAP2 SWAP1 POP JUMP JUMPDEST PUSH1 0x0 PUSH1 0x20 DUP3 ADD SWAP1 POP DUP2 DUP2 SUB PUSH1 0x0 DUP4 ADD MSTORE PUSH2 0x1276 DUP2 PUSH2 0x123A JUMP JUMPDEST SWAP1 POP SWAP2 SWAP1 POP JUMP JUMPDEST PUSH32 0x57696E6E696E67206269646465722063616E6E6F742077697468647261772072 PUSH1 0x0 DUP3 ADD MSTORE PUSH32 0x6566756E642E0000000000000000000000000000000000000000000000000000 PUSH1 0x20 DUP3 ADD MSTORE POP JUMP JUMPDEST PUSH1 0x0 PUSH2 0x12D9 PUSH1 0x26 DUP4 PUSH2 0x1200 JUMP JUMPDEST SWAP2 POP PUSH2 0x12E4 DUP3 PUSH2 0x127D JUMP JUMPDEST PUSH1 0x40 DUP3 ADD SWAP1 POP SWAP2 SWAP1 POP JUMP JUMPDEST PUSH1 0x0 PUSH1 0x20 DUP3 ADD SWAP1 POP DUP2 DUP2 SUB PUSH1 0x0 DUP4 ADD MSTORE PUSH2 0x1308 DUP2 PUSH2 0x12CC JUMP JUMPDEST SWAP1 POP SWAP2 SWAP1 POP JUMP JUMPDEST PUSH32 0x4E6F2066756E647320746F2077697468647261772E0000000000000000000000 PUSH1 0x0 DUP3 ADD MSTORE POP JUMP JUMPDEST PUSH1 0x0 PUSH2 0x1345 PUSH1 0x15 DUP4 PUSH2 0x1200 JUMP JUMPDEST SWAP2 POP PUSH2 0x1350 DUP3 PUSH2 0x130F JUMP JUMPDEST PUSH1 0x20 DUP3 ADD SWAP1 POP SWAP2 SWAP1 POP JUMP JUMPDEST PUSH1 0x0 PUSH1 0x20 DUP3 ADD SWAP1 POP DUP2 DUP2 SUB PUSH1 0x0 DUP4 ADD MSTORE PUSH2 0x1374 DUP2 PUSH2 0x1338 JUMP JUMPDEST SWAP1 POP SWAP2 SWAP1 POP JUMP JUMPDEST PUSH1 0x0 PUSH1 0x40 DUP3 ADD SWAP1 POP PUSH2 0x1390 PUSH1 0x0 DUP4 ADD DUP6 PUSH2 0x11D6 JUMP JUMPDEST PUSH2 0x139D PUSH1 0x20 DUP4 ADD DUP5 PUSH2 0x1164 JUMP JUMPDEST SWAP4 SWAP3 POP POP POP JUMP JUMPDEST PUSH32 0x41756374696F6E2068617320616C726561647920656E6465642E000000000000 PUSH1 0x0 DUP3 ADD MSTORE POP JUMP JUMPDEST PUSH1 0x0 PUSH2 0x13DA PUSH1 0x1A DUP4 PUSH2 0x1200 JUMP JUMPDEST SWAP2 POP PUSH2 0x13E5 DUP3 PUSH2 0x13A4 JUMP JUMPDEST PUSH1 0x20 DUP3 ADD SWAP1 POP SWAP2 SWAP1 POP JUMP JUMPDEST PUSH1 0x0 PUSH1 0x20 DUP3 ADD SWAP1 POP DUP2 DUP2 SUB PUSH1 0x0 DUP4 ADD MSTORE PUSH2 0x1409 DUP2 PUSH2 0x13CD JUMP JUMPDEST SWAP1 POP SWAP2 SWAP1 POP JUMP JUMPDEST PUSH32 0x41756374696F6E206973206E6F206C6F6E676572206F70656E2E000000000000 PUSH1 0x0 DUP3 ADD MSTORE POP JUMP JUMPDEST PUSH1 0x0 PUSH2 0x1446 PUSH1 0x1A DUP4 PUSH2 0x1200 JUMP JUMPDEST SWAP2 POP PUSH2 0x1451 DUP3 PUSH2 0x1410 JUMP JUMPDEST PUSH1 0x20 DUP3 ADD SWAP1 POP SWAP2 SWAP1 POP JUMP JUMPDEST PUSH1 0x0 PUSH1 0x20 DUP3 ADD SWAP1 POP DUP2 DUP2 SUB PUSH1 0x0 DUP4 ADD MSTORE PUSH2 0x1475 DUP2 PUSH2 0x1439 JUMP JUMPDEST SWAP1 POP SWAP2 SWAP1 POP JUMP JUMPDEST PUSH32 0x546865726520697320616C7265616479206120686967686572206269642E0000 PUSH1 0x0 DUP3 ADD MSTORE POP JUMP JUMPDEST PUSH1 0x0 PUSH2 0x14B2 PUSH1 0x1E DUP4 PUSH2 0x1200 JUMP JUMPDEST SWAP2 POP PUSH2 0x14BD DUP3 PUSH2 0x147C JUMP JUMPDEST PUSH1 0x20 DUP3 ADD SWAP1 POP SWAP2 SWAP1 POP JUMP JUMPDEST PUSH1 0x0 PUSH1 0x20 DUP3 ADD SWAP1 POP DUP2 DUP2 SUB PUSH1 0x0 DUP4 ADD MSTORE PUSH2 0x14E1 DUP2 PUSH2 0x14A5 JUMP JUMPDEST SWAP1 POP SWAP2 SWAP1 POP JUMP JUMPDEST PUSH32 0x42696420616D6F756E742069732062656C6F7720746865207265736572766520 PUSH1 0x0 DUP3 ADD MSTORE PUSH32 0x70726963652E0000000000000000000000000000000000000000000000000000 PUSH1 0x20 DUP3 ADD MSTORE POP JUMP JUMPDEST PUSH1 0x0 PUSH2 0x1544 PUSH1 0x26 DUP4 PUSH2 0x1200 JUMP JUMPDEST SWAP2 POP PUSH2 0x154F DUP3 PUSH2 0x14E8 JUMP JUMPDEST PUSH1 0x40 DUP3 ADD SWAP1 POP SWAP2 SWAP1 POP JUMP JUMPDEST PUSH1 0x0 PUSH1 0x20 DUP3 ADD SWAP1 POP DUP2 DUP2 SUB PUSH1 0x0 DUP4 ADD MSTORE PUSH2 0x1573 DUP2 PUSH2 0x1537 JUMP JUMPDEST SWAP1 POP SWAP2 SWAP1 POP JUMP JUMPDEST PUSH32 0x4E487B7100000000000000000000000000000000000000000000000000000000 PUSH1 0x0 MSTORE PUSH1 0x11 PUSH1 0x4 MSTORE PUSH1 0x24 PUSH1 0x0 REVERT JUMPDEST PUSH1 0x0 PUSH2 0x15B4 DUP3 PUSH2 0x115A JUMP JUMPDEST SWAP2 POP PUSH2 0x15BF DUP4 PUSH2 0x115A JUMP JUMPDEST SWAP3 POP DUP3 DUP3 ADD SWAP1 POP DUP1 DUP3 GT ISZERO PUSH2 0x15D7 JUMPI PUSH2 0x15D6 PUSH2 0x157A JUMP JUMPDEST JUMPDEST SWAP3 SWAP2 POP POP JUMP JUMPDEST PUSH32 0x596F752063616E6E6F7420726566756E64206173207468652077696E6E696E67 PUSH1 0x0 DUP3 ADD MSTORE PUSH32 0x206269646465722E000000000000000000000000000000000000000000000000 PUSH1 0x20 DUP3 ADD MSTORE POP JUMP JUMPDEST PUSH1 0x0 PUSH2 0x1639 PUSH1 0x28 DUP4 PUSH2 0x1200 JUMP JUMPDEST SWAP2 POP PUSH2 0x1644 DUP3 PUSH2 0x15DD JUMP JUMPDEST PUSH1 0x40 DUP3 ADD SWAP1 POP SWAP2 SWAP1 POP JUMP JUMPDEST PUSH1 0x0 PUSH1 0x20 DUP3 ADD SWAP1 POP DUP2 DUP2 SUB PUSH1 0x0 DUP4 ADD MSTORE PUSH2 0x1668 DUP2 PUSH2 0x162C JUMP JUMPDEST SWAP1 POP SWAP2 SWAP1 POP JUMP JUMPDEST PUSH32 0x4E6F2066756E647320746F20726566756E642E00000000000000000000000000 PUSH1 0x0 DUP3 ADD MSTORE POP JUMP JUMPDEST PUSH1 0x0 PUSH2 0x16A5 PUSH1 0x13 DUP4 PUSH2 0x1200 JUMP JUMPDEST SWAP2 POP PUSH2 0x16B0 DUP3 PUSH2 0x166F JUMP JUMPDEST PUSH1 0x20 DUP3 ADD SWAP1 POP SWAP2 SWAP1 POP JUMP JUMPDEST PUSH1 0x0 PUSH1 0x20 DUP3 ADD SWAP1 POP DUP2 DUP2 SUB PUSH1 0x0 DUP4 ADD MSTORE PUSH2 0x16D4 DUP2 PUSH2 0x1698 JUMP JUMPDEST SWAP1 POP SWAP2 SWAP1 POP JUMP JUMPDEST PUSH32 0x41756374696F6E206973207374696C6C206F70656E2E00000000000000000000 PUSH1 0x0 DUP3 ADD MSTORE POP JUMP JUMPDEST PUSH1 0x0 PUSH2 0x1711 PUSH1 0x16 DUP4 PUSH2 0x1200 JUMP JUMPDEST SWAP2 POP PUSH2 0x171C DUP3 PUSH2 0x16DB JUMP JUMPDEST PUSH1 0x20 DUP3 ADD SWAP1 POP SWAP2 SWAP1 POP JUMP JUMPDEST PUSH1 0x0 PUSH1 0x20 DUP3 ADD SWAP1 POP DUP2 DUP2 SUB PUSH1 0x0 DUP4 ADD MSTORE PUSH2 0x1740 DUP2 PUSH2 0x1704 JUMP JUMPDEST SWAP1 POP SWAP2 SWAP1 POP JUMP INVALID LOG2 PUSH5 0x6970667358 0x22 SLT KECCAK256 SHL CODECOPY PUSH11 0xA0B6130B71239682B3A980 0x22 PUSH19 0x9945573447D67A0D023C2F9E8E95F1B964736F PUSH13 0x63430008120033000000000000 "},"methodIdentifiers":{"auctionEndTime()":"4b449cba","auctionEnded()":"86433374","bid()":"1998aeef","endAuction()":"fe67a54b","highestBid()":"d57bde79","highestBidder()":"91f90157","initialPrice()":"1d0806ae","numBlocksAuctionOpen()":"3103ea62","offerPriceDecrement()":"d3642a88","refund()":"590e1ae3","reservePrice()":"db2e1eed","seller()":"08551a53","withdrawRefund()":"110f8874"}}}}}