{
  "_format": "hh-sol-artifact-1",
  "contractName": "NFTDutchAuction_ERC20Bids",
  "sourceName": "contracts/NFTDutchAuction_ERC20Bids.sol",
  "abi": [
    {
      "inputs": [
        {
          "internalType": "address",
          "name": "erc20TokenAddress",
          "type": "address"
        },
        {
          "internalType": "address",
          "name": "erc721TokenAddress",
          "type": "address"
        },
        {
          "internalType": "uint256",
          "name": "_nftTokenId",
          "type": "uint256"
        },
        {
          "internalType": "uint256",
          "name": "_reservePrice",
          "type": "uint256"
        },
        {
          "internalType": "uint256",
          "name": "_numBlocksAuctionOpen",
          "type": "uint256"
        },
        {
          "internalType": "uint256",
          "name": "_offerPriceDecrement",
          "type": "uint256"
        }
      ],
      "stateMutability": "nonpayable",
      "type": "constructor"
    },
    {
      "inputs": [],
      "name": "addressOfToken",
      "outputs": [
        {
          "internalType": "contract IMyToken",
          "name": "",
          "type": "address"
        }
      ],
      "stateMutability": "view",
      "type": "function"
    },
    {
      "inputs": [],
      "name": "auctionStatusOpen",
      "outputs": [
        {
          "internalType": "bool",
          "name": "",
          "type": "bool"
        }
      ],
      "stateMutability": "view",
      "type": "function"
    },
    {
      "inputs": [
        {
          "internalType": "uint256",
          "name": "amount",
          "type": "uint256"
        }
      ],
      "name": "bid",
      "outputs": [],
      "stateMutability": "nonpayable",
      "type": "function"
    },
    {
      "inputs": [],
      "name": "blockDifference",
      "outputs": [
        {
          "internalType": "uint256",
          "name": "",
          "type": "uint256"
        }
      ],
      "stateMutability": "view",
      "type": "function"
    },
    {
      "inputs": [],
      "name": "buyer",
      "outputs": [
        {
          "internalType": "address",
          "name": "",
          "type": "address"
        }
      ],
      "stateMutability": "view",
      "type": "function"
    },
    {
      "inputs": [],
      "name": "currentBlock",
      "outputs": [
        {
          "internalType": "uint256",
          "name": "",
          "type": "uint256"
        }
      ],
      "stateMutability": "view",
      "type": "function"
    },
    {
      "inputs": [],
      "name": "currentPrice",
      "outputs": [
        {
          "internalType": "uint256",
          "name": "",
          "type": "uint256"
        }
      ],
      "stateMutability": "view",
      "type": "function"
    },
    {
      "inputs": [],
      "name": "initialPrice",
      "outputs": [
        {
          "internalType": "uint256",
          "name": "",
          "type": "uint256"
        }
      ],
      "stateMutability": "view",
      "type": "function"
    },
    {
      "inputs": [],
      "name": "isAuctionOpen",
      "outputs": [
        {
          "internalType": "bool",
          "name": "",
          "type": "bool"
        }
      ],
      "stateMutability": "view",
      "type": "function"
    },
    {
      "inputs": [],
      "name": "nft_Address",
      "outputs": [
        {
          "internalType": "contract IMyNFT",
          "name": "",
          "type": "address"
        }
      ],
      "stateMutability": "view",
      "type": "function"
    },
    {
      "inputs": [],
      "name": "nft_Id",
      "outputs": [
        {
          "internalType": "uint256",
          "name": "",
          "type": "uint256"
        }
      ],
      "stateMutability": "view",
      "type": "function"
    },
    {
      "inputs": [],
      "name": "numBlocksAuctionOpen",
      "outputs": [
        {
          "internalType": "uint256",
          "name": "",
          "type": "uint256"
        }
      ],
      "stateMutability": "view",
      "type": "function"
    },
    {
      "inputs": [],
      "name": "offerPriceDecrement",
      "outputs": [
        {
          "internalType": "uint256",
          "name": "",
          "type": "uint256"
        }
      ],
      "stateMutability": "view",
      "type": "function"
    },
    {
      "inputs": [],
      "name": "reservePrice",
      "outputs": [
        {
          "internalType": "uint256",
          "name": "",
          "type": "uint256"
        }
      ],
      "stateMutability": "view",
      "type": "function"
    },
    {
      "inputs": [],
      "name": "sellerAccountAddress",
      "outputs": [
        {
          "internalType": "address",
          "name": "",
          "type": "address"
        }
      ],
      "stateMutability": "view",
      "type": "function"
    },
    {
      "inputs": [],
      "name": "startingBlock",
      "outputs": [
        {
          "internalType": "uint256",
          "name": "",
          "type": "uint256"
        }
      ],
      "stateMutability": "view",
      "type": "function"
    }
  ],
  "bytecode": "0x60806040523480156200001157600080fd5b506040516200186138038062001861833981810160405281019062000037919062000347565b620000536750d2091bbfa28dcf60c01b6200029f60201b60201c565b6200006f678a7167dc9fd8a1ec60c01b6200029f60201b60201c565b836000819055506200009267731b74dadecd99cc60c01b6200029f60201b60201c565b84600160006101000a81548173ffffffffffffffffffffffffffffffffffffffff021916908373ffffffffffffffffffffffffffffffffffffffff160217905550620000ef673da83d5c3670d2d460c01b6200029f60201b60201c565b85600260006101000a81548173ffffffffffffffffffffffffffffffffffffffff021916908373ffffffffffffffffffffffffffffffffffffffff1602179055506200014c67e1997e0052fd6bb460c01b6200029f60201b60201c565b33600560006101000a81548173ffffffffffffffffffffffffffffffffffffffff021916908373ffffffffffffffffffffffffffffffffffffffff160217905550620001a967c10f36fcdb52523060c01b6200029f60201b60201c565b43600881905550620001cc676703e87e18dba8ca60c01b6200029f60201b60201c565b6001600960146101000a81548160ff021916908315150217905550620002036764e87b954376021560c01b6200029f60201b60201c565b826003819055506200022667ed0aae5a41db617360c01b6200029f60201b60201c565b8160048190555062000249670507b6570d67a52060c01b6200029f60201b60201c565b806006819055506200026c67f6c4d09bf2d42f1260c01b6200029f60201b60201c565b6006546004546200027e919062000412565b6003546200028d91906200045d565b60078190555050505050505062000498565b50565b600080fd5b600073ffffffffffffffffffffffffffffffffffffffff82169050919050565b6000620002d482620002a7565b9050919050565b620002e681620002c7565b8114620002f257600080fd5b50565b6000815190506200030681620002db565b92915050565b6000819050919050565b62000321816200030c565b81146200032d57600080fd5b50565b600081519050620003418162000316565b92915050565b60008060008060008060c08789031215620003675762000366620002a2565b5b60006200037789828a01620002f5565b96505060206200038a89828a01620002f5565b95505060406200039d89828a0162000330565b9450506060620003b089828a0162000330565b9350506080620003c389828a0162000330565b92505060a0620003d689828a0162000330565b9150509295509295509295565b7f4e487b7100000000000000000000000000000000000000000000000000000000600052601160045260246000fd5b60006200041f826200030c565b91506200042c836200030c565b92508282026200043c816200030c565b91508282048414831517620004565762000455620003e3565b5b5092915050565b60006200046a826200030c565b915062000477836200030c565b9250828201905080821115620004925762000491620003e3565b5b92915050565b6113b980620004a86000396000f3fe608060405234801561001057600080fd5b50600436106101005760003560e01c80637150d8ae11610097578063d91c98d311610066578063d91c98d31461026b578063db2e1eed14610289578063e12ed13c146102a7578063f5734ae2146102c557610100565b80637150d8ae146101f35780639d1b464a14610211578063cca414271461022f578063d3642a881461024d57610100565b8063323b935f116100d3578063323b935f1461017d578063454a2ab31461019b5780634a0f97e8146101b75780636ee6cb9f146101d557610100565b80630b48ab8f146101055780631d0806ae14610123578063233aec66146101415780633103ea621461015f575b600080fd5b61010d6102e3565b60405161011a9190610d9d565b60405180910390f35b61012b6102f6565b6040516101389190610dd1565b60405180910390f35b6101496102fc565b6040516101569190610dd1565b60405180910390f35b610167610354565b6040516101749190610dd1565b60405180910390f35b61018561035a565b6040516101929190610e2d565b60405180910390f35b6101b560048036038101906101b09190610e79565b610380565b005b6101bf610921565b6040516101cc9190610f05565b60405180910390f35b6101dd610947565b6040516101ea9190610dd1565b60405180910390f35b6101fb61094d565b6040516102089190610e2d565b60405180910390f35b610219610973565b6040516102269190610dd1565b60405180910390f35b610237610a50565b6040516102449190610d9d565b60405180910390f35b610255610adc565b6040516102629190610dd1565b60405180910390f35b610273610ae2565b6040516102809190610dd1565b60405180910390f35b610291610ae8565b60405161029e9190610dd1565b60405180910390f35b6102af610aee565b6040516102bc9190610dd1565b60405180910390f35b6102cd610b32565b6040516102da9190610f41565b60405180910390f35b600960149054906101000a900460ff1681565b60075481565b600061031267f6b0b7da924cea6f60c01b610b58565b610326679047dd3e70cbacba60c01b610b58565b61033a67d9602869f1ffd32860c01b610b58565b600854610345610aee565b61034f9190610f8b565b905090565b60045481565b600560009054906101000a900473ffffffffffffffffffffffffffffffffffffffff1681565b61039467aac5ec1defc6726e60c01b610b58565b6103a86747bf3c26608be73660c01b610b58565b6103bc670ea34660a70afb1a60c01b610b58565b6103d0674b7c3b925079daf360c01b610b58565b6103d8610a50565b610417576040517f08c379a000000000000000000000000000000000000000000000000000000000815260040161040e9061101c565b60405180910390fd5b61042b67f3b4409255c972a560c01b610b58565b61043f67b0f2eb9fe1df832660c01b610b58565b61045367c505fbfcb5630d6460c01b610b58565b61046767c74e2960b4b6de0060c01b610b58565b600960009054906101000a900473ffffffffffffffffffffffffffffffffffffffff1673ffffffffffffffffffffffffffffffffffffffff163373ffffffffffffffffffffffffffffffffffffffff16036104f7576040517f08c379a00000000000000000000000000000000000000000000000000000000081526004016104ee90611088565b60405180910390fd5b61050b6784fe95d78b68aada60c01b610b58565b61051f673d9f554bdc6819ad60c01b610b58565b61053367d22d91eb9230bcce60c01b610b58565b610547674781c7fe9e45d63460c01b610b58565b600073ffffffffffffffffffffffffffffffffffffffff16600960009054906101000a900473ffffffffffffffffffffffffffffffffffffffff1673ffffffffffffffffffffffffffffffffffffffff16146105d8576040517f08c379a00000000000000000000000000000000000000000000000000000000081526004016105cf906110f4565b60405180910390fd5b6105ec67b9c1141f6417773a60c01b610b58565b61060067e15c5a9c3cecbcc460c01b610b58565b610614671636a0e43bab30ce60c01b610b58565b610628672e746c40f903485b60c01b610b58565b600560009054906101000a900473ffffffffffffffffffffffffffffffffffffffff1673ffffffffffffffffffffffffffffffffffffffff163373ffffffffffffffffffffffffffffffffffffffff16036106b8576040517f08c379a00000000000000000000000000000000000000000000000000000000081526004016106af90611160565b60405180910390fd5b6106cc67671b3d3fd60380c460c01b610b58565b6106e0671b421329498ea25760c01b610b58565b6106f46711a50f7a7259166760c01b610b58565b6107086764bae29784cfa38460c01b610b58565b610710610973565b811015610752576040517f08c379a0000000000000000000000000000000000000000000000000000000008152600401610749906111cc565b60405180910390fd5b61076667d74f6e891103a29960c01b610b58565b61077a67f36c6107cbdc1f1e60c01b610b58565b61078e670ce193515a6f32d560c01b610b58565b6000600260009054906101000a900473ffffffffffffffffffffffffffffffffffffffff1673ffffffffffffffffffffffffffffffffffffffff166323b872dd33600560009054906101000a900473ffffffffffffffffffffffffffffffffffffffff166107fa610973565b6040518463ffffffff1660e01b8152600401610818939291906111ec565b6020604051808303816000875af1158015610837573d6000803e3d6000fd5b505050506040513d601f19601f8201168201806040525081019061085b919061124f565b9050610871676bf509bdad62268860c01b610b58565b610885676f467ff81c884ad360c01b610b58565b61089866c701b06afb696560c01b610b58565b806108d8576040517f08c379a00000000000000000000000000000000000000000000000000000000081526004016108cf906112c8565b60405180910390fd5b6108ec67e9c11d962825915660c01b610b58565b610900676b90bca95a0fd30660c01b610b58565b610914672950900d7d7fe1a560c01b610b58565b61091d33610b5b565b5050565b600260009054906101000a900473ffffffffffffffffffffffffffffffffffffffff1681565b60005481565b600960009054906101000a900473ffffffffffffffffffffffffffffffffffffffff1681565b600061098967b1a1251a1b1709a760c01b610b58565b61099d674b7f861d9b4c896a60c01b610b58565b6109b16740a5600f60ba58be60c01b610b58565b60006109bb6102fc565b90506109d1674779254404e22da660c01b610b58565b6109e5670430c4b14da5f5db60c01b610b58565b6004548110158015610a075750610a06675d686a88aa00b7e660c01b610d70565b5b80610a225750610a21674b0d9e13fdf89da360c01b610d7b565b5b610a465760065481610a3491906112e8565b600754610a419190610f8b565b610a4a565b6003545b91505090565b6000610a66672fa7cf89603abbb960c01b610b58565b610a7a6758a8b6030326883060c01b610b58565b610a8e67a657c1b2c2e65d8460c01b610b58565b6000610a986102fc565b9050610aae67b85fcdfdcb24bf6860c01b610b58565b610ac2676b90c93a809144ce60c01b610b58565b6004548111158015610ad657506008544310155b91505090565b60065481565b60085481565b60035481565b6000610b04670334f419580e84dc60c01b610b58565b610b18670621d74b57a8bcae60c01b610b58565b610b2c675490b00b48a594b260c01b610b58565b43905090565b600160009054906101000a900473ffffffffffffffffffffffffffffffffffffffff1681565b50565b610b6f67b2fc7ca14f1d981660c01b610b58565b610b83671bd50309c223e8f460c01b610b58565b610b9767b953fd991b75b32160c01b610b58565b600160009054906101000a900473ffffffffffffffffffffffffffffffffffffffff1673ffffffffffffffffffffffffffffffffffffffff166323b872dd600560009054906101000a900473ffffffffffffffffffffffffffffffffffffffff16836000546040518463ffffffff1660e01b8152600401610c1a939291906111ec565b600060405180830381600087803b158015610c3457600080fd5b505af1158015610c48573d6000803e3d6000fd5b50505050610c6067195bc137235811ab60c01b610b58565b600160009054906101000a900473ffffffffffffffffffffffffffffffffffffffff1673ffffffffffffffffffffffffffffffffffffffff16636352211e6000546040518263ffffffff1660e01b8152600401610cbd9190610dd1565b602060405180830381865afa158015610cda573d6000803e3d6000fd5b505050506040513d601f19601f82011682018060405250810190610cfe9190611356565b600960006101000a81548173ffffffffffffffffffffffffffffffffffffffff021916908373ffffffffffffffffffffffffffffffffffffffff160217905550610d526721d749d596bd0d3460c01b610b58565b6000600960146101000a81548160ff02191690831515021790555050565b600060019050919050565b6000919050565b60008115159050919050565b610d9781610d82565b82525050565b6000602082019050610db26000830184610d8e565b92915050565b6000819050919050565b610dcb81610db8565b82525050565b6000602082019050610de66000830184610dc2565b92915050565b600073ffffffffffffffffffffffffffffffffffffffff82169050919050565b6000610e1782610dec565b9050919050565b610e2781610e0c565b82525050565b6000602082019050610e426000830184610e1e565b92915050565b600080fd5b610e5681610db8565b8114610e6157600080fd5b50565b600081359050610e7381610e4d565b92915050565b600060208284031215610e8f57610e8e610e48565b5b6000610e9d84828501610e64565b91505092915050565b6000819050919050565b6000610ecb610ec6610ec184610dec565b610ea6565b610dec565b9050919050565b6000610edd82610eb0565b9050919050565b6000610eef82610ed2565b9050919050565b610eff81610ee4565b82525050565b6000602082019050610f1a6000830184610ef6565b92915050565b6000610f2b82610ed2565b9050919050565b610f3b81610f20565b82525050565b6000602082019050610f566000830184610f32565b92915050565b7f4e487b7100000000000000000000000000000000000000000000000000000000600052601160045260246000fd5b6000610f9682610db8565b9150610fa183610db8565b9250828203905081811115610fb957610fb8610f5c565b5b92915050565b600082825260208201905092915050565b7f41756374696f6e20697320636c6f736564000000000000000000000000000000600082015250565b6000611006601183610fbf565b915061101182610fd0565b602082019050919050565b6000602082019050818103600083015261103581610ff9565b9050919050565b7f596f7520616c726561647920626f7567687420746869732070726f6475637400600082015250565b6000611072601f83610fbf565b915061107d8261103c565b602082019050919050565b600060208201905081810360008301526110a181611065565b9050919050565b7f50726f6475637420616c726561647920736f6c64000000000000000000000000600082015250565b60006110de601483610fbf565b91506110e9826110a8565b602082019050919050565b6000602082019050818103600083015261110d816110d1565b9050919050565b7f4f776e65722063616e2774204269640000000000000000000000000000000000600082015250565b600061114a600f83610fbf565b915061115582611114565b602082019050919050565b600060208201905081810360008301526111798161113d565b9050919050565b7f45544820697320696e73756666696369656e7400000000000000000000000000600082015250565b60006111b6601383610fbf565b91506111c182611180565b602082019050919050565b600060208201905081810360008301526111e5816111a9565b9050919050565b60006060820190506112016000830186610e1e565b61120e6020830185610e1e565b61121b6040830184610dc2565b949350505050565b61122c81610d82565b811461123757600080fd5b50565b60008151905061124981611223565b92915050565b60006020828403121561126557611264610e48565b5b60006112738482850161123a565b91505092915050565b7f4661696c656420746f2073656e6420455243323020746f6b656e730000000000600082015250565b60006112b2601b83610fbf565b91506112bd8261127c565b602082019050919050565b600060208201905081810360008301526112e1816112a5565b9050919050565b60006112f382610db8565b91506112fe83610db8565b925082820261130c81610db8565b9150828204841483151761132357611322610f5c565b5b5092915050565b61133381610e0c565b811461133e57600080fd5b50565b6000815190506113508161132a565b92915050565b60006020828403121561136c5761136b610e48565b5b600061137a84828501611341565b9150509291505056fea2646970667358221220aea7600eebb75d0de891b46cd4cd55278dad018a36082627fe2542faff98b83d64736f6c63430008110033",
  "linkReferences": {},
  "deployedLinkReferences": {}
}