{
  "_format": "hh-sol-artifact-1",
  "contractName": "NFTDutchAuction_ERC20BidsUpgradeable",
  "sourceName": "contracts/NFTDutchAuction_ERC20BidsUpgradeable.sol",
  "abi": [
    {
      "anonymous": false,
      "inputs": [
        {
          "indexed": false,
          "internalType": "address",
          "name": "previousAdmin",
          "type": "address"
        },
        {
          "indexed": false,
          "internalType": "address",
          "name": "newAdmin",
          "type": "address"
        }
      ],
      "name": "AdminChanged",
      "type": "event"
    },
    {
      "anonymous": false,
      "inputs": [
        {
          "indexed": true,
          "internalType": "address",
          "name": "beacon",
          "type": "address"
        }
      ],
      "name": "BeaconUpgraded",
      "type": "event"
    },
    {
      "anonymous": false,
      "inputs": [
        {
          "indexed": false,
          "internalType": "uint8",
          "name": "version",
          "type": "uint8"
        }
      ],
      "name": "Initialized",
      "type": "event"
    },
    {
      "anonymous": false,
      "inputs": [
        {
          "indexed": true,
          "internalType": "address",
          "name": "previousOwner",
          "type": "address"
        },
        {
          "indexed": true,
          "internalType": "address",
          "name": "newOwner",
          "type": "address"
        }
      ],
      "name": "OwnershipTransferred",
      "type": "event"
    },
    {
      "anonymous": false,
      "inputs": [
        {
          "indexed": true,
          "internalType": "address",
          "name": "implementation",
          "type": "address"
        }
      ],
      "name": "Upgraded",
      "type": "event"
    },
    {
      "inputs": [],
      "name": "auctionStatusOpen",
      "outputs": [
        {
          "internalType": "bool",
          "name": "",
          "type": "bool"
        }
      ],
      "stateMutability": "view",
      "type": "function"
    },
    {
      "inputs": [
        {
          "internalType": "uint256",
          "name": "amount",
          "type": "uint256"
        }
      ],
      "name": "bid",
      "outputs": [],
      "stateMutability": "nonpayable",
      "type": "function"
    },
    {
      "inputs": [],
      "name": "buyer",
      "outputs": [
        {
          "internalType": "address",
          "name": "",
          "type": "address"
        }
      ],
      "stateMutability": "view",
      "type": "function"
    },
    {
      "inputs": [],
      "name": "currentPrice",
      "outputs": [
        {
          "internalType": "uint256",
          "name": "",
          "type": "uint256"
        }
      ],
      "stateMutability": "view",
      "type": "function"
    },
    {
      "inputs": [
        {
          "internalType": "address",
          "name": "erc20TokenAddress",
          "type": "address"
        },
        {
          "internalType": "address",
          "name": "erc721TokenAddress",
          "type": "address"
        },
        {
          "internalType": "uint256",
          "name": "_nftTokenId",
          "type": "uint256"
        },
        {
          "internalType": "uint256",
          "name": "_reservePrice",
          "type": "uint256"
        },
        {
          "internalType": "uint256",
          "name": "_numBlocksAuctionOpen",
          "type": "uint256"
        },
        {
          "internalType": "uint256",
          "name": "_offerPriceDecrement",
          "type": "uint256"
        }
      ],
      "name": "initialize",
      "outputs": [],
      "stateMutability": "nonpayable",
      "type": "function"
    },
    {
      "inputs": [],
      "name": "owner",
      "outputs": [
        {
          "internalType": "address",
          "name": "",
          "type": "address"
        }
      ],
      "stateMutability": "view",
      "type": "function"
    },
    {
      "inputs": [],
      "name": "proxiableUUID",
      "outputs": [
        {
          "internalType": "bytes32",
          "name": "",
          "type": "bytes32"
        }
      ],
      "stateMutability": "view",
      "type": "function"
    },
    {
      "inputs": [],
      "name": "renounceOwnership",
      "outputs": [],
      "stateMutability": "nonpayable",
      "type": "function"
    },
    {
      "inputs": [],
      "name": "seller",
      "outputs": [
        {
          "internalType": "address",
          "name": "",
          "type": "address"
        }
      ],
      "stateMutability": "view",
      "type": "function"
    },
    {
      "inputs": [
        {
          "internalType": "address",
          "name": "newOwner",
          "type": "address"
        }
      ],
      "name": "transferOwnership",
      "outputs": [],
      "stateMutability": "nonpayable",
      "type": "function"
    },
    {
      "inputs": [
        {
          "internalType": "address",
          "name": "newImplementation",
          "type": "address"
        }
      ],
      "name": "upgradeTo",
      "outputs": [],
      "stateMutability": "nonpayable",
      "type": "function"
    },
    {
      "inputs": [
        {
          "internalType": "address",
          "name": "newImplementation",
          "type": "address"
        },
        {
          "internalType": "bytes",
          "name": "data",
          "type": "bytes"
        }
      ],
      "name": "upgradeToAndCall",
      "outputs": [],
      "stateMutability": "payable",
      "type": "function"
    }
  ],
  "bytecode": "0x60a06040523073ffffffffffffffffffffffffffffffffffffffff1660809073ffffffffffffffffffffffffffffffffffffffff1681525034801561004357600080fd5b50608051612b6761007b600039600081816102c00152818161034e015281816109f001528181610a7e0152610b2e0152612b676000f3fe6080604052600436106100a75760003560e01c8063715018a611610064578063715018a61461019b5780637150d8ae146101b257806386489ba9146101dd5780638da5cb5b146102065780639d1b464a14610231578063f2fde38b1461025c576100a7565b806308551a53146100ac5780630b48ab8f146100d75780633659cfe614610102578063454a2ab31461012b5780634f1ef2861461015457806352d1902d14610170575b600080fd5b3480156100b857600080fd5b506100c1610285565b6040516100ce9190611b90565b60405180910390f35b3480156100e357600080fd5b506100ec6102ab565b6040516100f99190611bc6565b60405180910390f35b34801561010e57600080fd5b5061012960048036038101906101249190611c21565b6102be565b005b34801561013757600080fd5b50610152600480360381019061014d9190611c84565b610446565b005b61016e60048036038101906101699190611df7565b6109ee565b005b34801561017c57600080fd5b50610185610b2a565b6040516101929190611e6c565b60405180910390f35b3480156101a757600080fd5b506101b0610be3565b005b3480156101be57600080fd5b506101c7610bf7565b6040516101d49190611b90565b60405180910390f35b3480156101e957600080fd5b5061020460048036038101906101ff9190611e87565b610c1d565b005b34801561021257600080fd5b5061021b6110fe565b6040516102289190611b90565b60405180910390f35b34801561023d57600080fd5b50610246611128565b6040516102539190611f23565b60405180910390f35b34801561026857600080fd5b50610283600480360381019061027e9190611c21565b61118d565b005b60d060009054906101000a900473ffffffffffffffffffffffffffffffffffffffff1681565b60d360009054906101000a900460ff1681565b7f000000000000000000000000000000000000000000000000000000000000000073ffffffffffffffffffffffffffffffffffffffff163073ffffffffffffffffffffffffffffffffffffffff160361034c576040517f08c379a000000000000000000000000000000000000000000000000000000000815260040161034390611fc1565b60405180910390fd5b7f000000000000000000000000000000000000000000000000000000000000000073ffffffffffffffffffffffffffffffffffffffff1661038b611210565b73ffffffffffffffffffffffffffffffffffffffff16146103e1576040517f08c379a00000000000000000000000000000000000000000000000000000000081526004016103d890612053565b60405180910390fd5b6103ea81611267565b61044381600067ffffffffffffffff81111561040957610408611ccc565b5b6040519080825280601f01601f19166020018201604052801561043b5781602001600182028036833780820191505090505b5060006112ae565b50565b61045a67c8fc569c56f8c64160c01b61141c565b61046e6708e6d0c379a066fe60c01b61141c565b61048267897485b98d2b3c2e60c01b61141c565b61049667edce801f00295fe460c01b61141c565b61049e61141f565b6104dd576040517f08c379a00000000000000000000000000000000000000000000000000000000081526004016104d4906120bf565b60405180910390fd5b6104f167f173cbd3c5e6a6ca60c01b61141c565b61050567adfe299d7eec624060c01b61141c565b61051967481307d1114542aa60c01b61141c565b61052d67f2844bbe0d56f0ec60c01b61141c565b60cf60009054906101000a900473ffffffffffffffffffffffffffffffffffffffff1673ffffffffffffffffffffffffffffffffffffffff163373ffffffffffffffffffffffffffffffffffffffff16036105bd576040517f08c379a00000000000000000000000000000000000000000000000000000000081526004016105b49061212b565b60405180910390fd5b6105d167b2d1c5c872376c2b60c01b61141c565b6105e567ff89ae591a3b151760c01b61141c565b6105f9673d6dfcdfc388fc8160c01b61141c565b61060d67fe8a472217d0a6fa60c01b61141c565b600073ffffffffffffffffffffffffffffffffffffffff1660cf60009054906101000a900473ffffffffffffffffffffffffffffffffffffffff1673ffffffffffffffffffffffffffffffffffffffff161461069e576040517f08c379a000000000000000000000000000000000000000000000000000000000815260040161069590612197565b60405180910390fd5b6106b2677a6b7ec85d07eac960c01b61141c565b6106c667dc17f5df1feb9d1860c01b61141c565b6106da67ce3c6b14b0b88fc160c01b61141c565b6106ee678b7d9464367aaede60c01b61141c565b60d060009054906101000a900473ffffffffffffffffffffffffffffffffffffffff1673ffffffffffffffffffffffffffffffffffffffff163373ffffffffffffffffffffffffffffffffffffffff160361077e576040517f08c379a000000000000000000000000000000000000000000000000000000000815260040161077590612203565b60405180910390fd5b61079267c881a568dfa13d6760c01b61141c565b6107a667455655c8351c489e60c01b61141c565b6107ba674dcc444c551ac14d60c01b61141c565b6107ce6743d4cc3a172bf3b760c01b61141c565b6107d6611128565b811015610818576040517f08c379a000000000000000000000000000000000000000000000000000000000815260040161080f9061226f565b60405180910390fd5b61082b66dcff2e85f532ce60c01b61141c565b61083f67b30d4f6f04c26f6360c01b61141c565b61085367568552b98b68d4f260c01b61141c565b600060cb60009054906101000a900473ffffffffffffffffffffffffffffffffffffffff1673ffffffffffffffffffffffffffffffffffffffff166323b872dd3360d060009054906101000a900473ffffffffffffffffffffffffffffffffffffffff166108bf611128565b6040518463ffffffff1660e01b81526004016108dd9392919061228f565b6020604051808303816000875af11580156108fc573d6000803e3d6000fd5b505050506040513d601f19601f8201168201806040525081019061092091906122f2565b90506109366794a5319668cbf65860c01b61141c565b61094a67f3cb61e312897e5860c01b61141c565b61095e670edaa3e75784173f60c01b61141c565b60011515811515146109a5576040517f08c379a000000000000000000000000000000000000000000000000000000000815260040161099c9061236b565b60405180910390fd5b6109b967611750f7cafd2c8560c01b61141c565b6109cd67f1bbb4c697502c3a60c01b61141c565b6109e16784acbc3fd05bcc8860c01b61141c565b6109ea3361146f565b5050565b7f000000000000000000000000000000000000000000000000000000000000000073ffffffffffffffffffffffffffffffffffffffff163073ffffffffffffffffffffffffffffffffffffffff1603610a7c576040517f08c379a0000000000000000000000000000000000000000000000000000000008152600401610a7390611fc1565b60405180910390fd5b7f000000000000000000000000000000000000000000000000000000000000000073ffffffffffffffffffffffffffffffffffffffff16610abb611210565b73ffffffffffffffffffffffffffffffffffffffff1614610b11576040517f08c379a0000000000000000000000000000000000000000000000000000000008152600401610b0890612053565b60405180910390fd5b610b1a82611267565b610b26828260016112ae565b5050565b60007f000000000000000000000000000000000000000000000000000000000000000073ffffffffffffffffffffffffffffffffffffffff163073ffffffffffffffffffffffffffffffffffffffff1614610bba576040517f08c379a0000000000000000000000000000000000000000000000000000000008152600401610bb1906123fd565b60405180910390fd5b7f360894a13ba1a3210667c828492db98dca3e2076cc3735a920a3ca505d382bbc60001b905090565b610beb611684565b610bf56000611702565b565b60cf60009054906101000a900473ffffffffffffffffffffffffffffffffffffffff1681565b610c31670724cec8ed2e71b460c01b61141c565b60008060019054906101000a900460ff16159050808015610c625750600160008054906101000a900460ff1660ff16105b80610c8f5750610c71306117c8565b158015610c8e5750600160008054906101000a900460ff1660ff16145b5b610cce576040517f08c379a0000000000000000000000000000000000000000000000000000000008152600401610cc59061248f565b60405180910390fd5b60016000806101000a81548160ff021916908360ff1602179055508015610d0b576001600060016101000a81548160ff0219169083151502179055505b610d1f67e9d1321f33c342b460c01b61141c565b610d33677cf20f038b83d88a60c01b61141c565b610d4767418163dfc232490060c01b61141c565b3360d060006101000a81548173ffffffffffffffffffffffffffffffffffffffff021916908373ffffffffffffffffffffffffffffffffffffffff160217905550610d9c672d77e35ba76b167e60c01b61141c565b4360d181905550610db767f6b9a2e28a9a81de60c01b61141c565b600160d360006101000a81548160ff021916908315150217905550610de667d82110f20c2cf60460c01b61141c565b8460c981905550610e0167974cd586d096052c60c01b61141c565b8560ca60006101000a81548173ffffffffffffffffffffffffffffffffffffffff021916908373ffffffffffffffffffffffffffffffffffffffff160217905550610e5667c280b5df8752e44e60c01b61141c565b8660cb60006101000a81548173ffffffffffffffffffffffffffffffffffffffff021916908373ffffffffffffffffffffffffffffffffffffffff160217905550610eab67ad78a80c73d8b0dd60c01b61141c565b610ebf67231abca235ccaee360c01b61141c565b610ed367d1a1cea675fd35d060c01b61141c565b60d060009054906101000a900473ffffffffffffffffffffffffffffffffffffffff1673ffffffffffffffffffffffffffffffffffffffff1660ca60009054906101000a900473ffffffffffffffffffffffffffffffffffffffff1673ffffffffffffffffffffffffffffffffffffffff16636352211e60c9546040518263ffffffff1660e01b8152600401610f699190611f23565b602060405180830381865afa158015610f86573d6000803e3d6000fd5b505050506040513d601f19601f82011682018060405250810190610faa91906124c4565b73ffffffffffffffffffffffffffffffffffffffff1614611000576040517f08c379a0000000000000000000000000000000000000000000000000000000008152600401610ff79061253d565b60405180910390fd5b61101467706830e5b407ee9960c01b61141c565b6110286767c2cee5e434930960c01b61141c565b8360cc8190555061104367244ca85de0cb7d3360c01b61141c565b8260cd8190555061105e6762f34de791c5542060c01b61141c565b8160ce8190555061107967fb6335ba233ec11560c01b61141c565b60ce5460cd54611089919061258c565b60cc5461109691906125ce565b60d28190555080156110f55760008060016101000a81548160ff0219169083151502179055507f7f26b83ff96e1f2b6a682f133852f6798a09c465da95921460cefb384740249860016040516110ec9190612654565b60405180910390a15b50505050505050565b6000609760009054906101000a900473ffffffffffffffffffffffffffffffffffffffff16905090565b600061113e67710dbb94061a3c6a60c01b61141c565b61115267b0ac5af150de258760c01b61141c565b6111666746f8a28242b6356960c01b61141c565b60ce546111716117eb565b61117b919061258c565b60d254611188919061266f565b905090565b611195611684565b600073ffffffffffffffffffffffffffffffffffffffff168173ffffffffffffffffffffffffffffffffffffffff1603611204576040517f08c379a00000000000000000000000000000000000000000000000000000000081526004016111fb90612715565b60405180910390fd5b61120d81611702565b50565b600061123e7f360894a13ba1a3210667c828492db98dca3e2076cc3735a920a3ca505d382bbc60001b611843565b60000160009054906101000a900473ffffffffffffffffffffffffffffffffffffffff16905090565b61127b67c6639cf49dca2e2860c01b61141c565b611283611684565b611297676fb77814d62989a860c01b61141c565b6112ab676c55bf46476a070960c01b61141c565b50565b6112da7f4910fdfa16fed3260ed0e7147f7cc6da11a60208b5b9406d12a635614ffd914360001b61184d565b60000160009054906101000a900460ff16156112fe576112f983611857565b611417565b8273ffffffffffffffffffffffffffffffffffffffff166352d1902d6040518163ffffffff1660e01b8152600401602060405180830381865afa92505050801561136657506040513d601f19601f820116820180604052508101906113639190612761565b60015b6113a5576040517f08c379a000000000000000000000000000000000000000000000000000000000815260040161139c90612800565b60405180910390fd5b7f360894a13ba1a3210667c828492db98dca3e2076cc3735a920a3ca505d382bbc60001b811461140a576040517f08c379a000000000000000000000000000000000000000000000000000000000815260040161140190612892565b60405180910390fd5b50611416838383611910565b5b505050565b50565b600061143567f85957459cc6aba960c01b61141c565b61144967691bdde4ef5420e160c01b61141c565b61145d670e96dbd56f46cce160c01b61141c565b60cd546114686117eb565b1115905090565b61148367f53b2e1fe74f850460c01b61141c565b611497672075f4059f7fc35460c01b61141c565b6114ab6789cb361b4904307660c01b61141c565b60ca60009054906101000a900473ffffffffffffffffffffffffffffffffffffffff1673ffffffffffffffffffffffffffffffffffffffff166323b872dd60d060009054906101000a900473ffffffffffffffffffffffffffffffffffffffff168360c9546040518463ffffffff1660e01b815260040161152e9392919061228f565b600060405180830381600087803b15801561154857600080fd5b505af115801561155c573d6000803e3d6000fd5b50505050611574672c27f8746488cd4260c01b61141c565b60ca60009054906101000a900473ffffffffffffffffffffffffffffffffffffffff1673ffffffffffffffffffffffffffffffffffffffff16636352211e60c9546040518263ffffffff1660e01b81526004016115d19190611f23565b602060405180830381865afa1580156115ee573d6000803e3d6000fd5b505050506040513d601f19601f8201168201806040525081019061161291906124c4565b60cf60006101000a81548173ffffffffffffffffffffffffffffffffffffffff021916908373ffffffffffffffffffffffffffffffffffffffff16021790555061166667ed72f4a372d729bd60c01b61141c565b600060d360006101000a81548160ff02191690831515021790555050565b61168c61193c565b73ffffffffffffffffffffffffffffffffffffffff166116aa6110fe565b73ffffffffffffffffffffffffffffffffffffffff1614611700576040517f08c379a00000000000000000000000000000000000000000000000000000000081526004016116f7906128fe565b60405180910390fd5b565b6000609760009054906101000a900473ffffffffffffffffffffffffffffffffffffffff16905081609760006101000a81548173ffffffffffffffffffffffffffffffffffffffff021916908373ffffffffffffffffffffffffffffffffffffffff1602179055508173ffffffffffffffffffffffffffffffffffffffff168173ffffffffffffffffffffffffffffffffffffffff167f8be0079c531659141344cd1fd0a4f28419497f9722a3daafe3b4186f6b6457e060405160405180910390a35050565b6000808273ffffffffffffffffffffffffffffffffffffffff163b119050919050565b600061180167d3e5b78ea038376960c01b61141c565b61181567462c28d920bc7f2060c01b61141c565b6118296730167709622b766760c01b61141c565b60d154611834611944565b61183e919061266f565b905090565b6000819050919050565b6000819050919050565b611860816117c8565b61189f576040517f08c379a000000000000000000000000000000000000000000000000000000000815260040161189690612990565b60405180910390fd5b806118cc7f360894a13ba1a3210667c828492db98dca3e2076cc3735a920a3ca505d382bbc60001b611843565b60000160006101000a81548173ffffffffffffffffffffffffffffffffffffffff021916908373ffffffffffffffffffffffffffffffffffffffff16021790555050565b61191983611988565b6000825111806119265750805b156119375761193583836119d7565b505b505050565b600033905090565b600061195a67be137d1434fe4be760c01b61141c565b61196e67d2cae95732df596260c01b61141c565b6119826725f5f758df882d0460c01b61141c565b43905090565b61199181611857565b8073ffffffffffffffffffffffffffffffffffffffff167fbc7cd75a20ee27fd9adebab32041f755214dbc6bffa90cc0225b39da2e5c2d3b60405160405180910390a250565b60606119fc8383604051806060016040528060278152602001612b0b60279139611a04565b905092915050565b60606000808573ffffffffffffffffffffffffffffffffffffffff1685604051611a2e9190612a21565b600060405180830381855af49150503d8060008114611a69576040519150601f19603f3d011682016040523d82523d6000602084013e611a6e565b606091505b5091509150611a7f86838387611a8a565b925050509392505050565b60608315611aec576000835103611ae457611aa4856117c8565b611ae3576040517f08c379a0000000000000000000000000000000000000000000000000000000008152600401611ada90612a84565b60405180910390fd5b5b829050611af7565b611af68383611aff565b5b949350505050565b600082511115611b125781518083602001fd5b806040517f08c379a0000000000000000000000000000000000000000000000000000000008152600401611b469190612ae8565b60405180910390fd5b600073ffffffffffffffffffffffffffffffffffffffff82169050919050565b6000611b7a82611b4f565b9050919050565b611b8a81611b6f565b82525050565b6000602082019050611ba56000830184611b81565b92915050565b60008115159050919050565b611bc081611bab565b82525050565b6000602082019050611bdb6000830184611bb7565b92915050565b6000604051905090565b600080fd5b600080fd5b611bfe81611b6f565b8114611c0957600080fd5b50565b600081359050611c1b81611bf5565b92915050565b600060208284031215611c3757611c36611beb565b5b6000611c4584828501611c0c565b91505092915050565b6000819050919050565b611c6181611c4e565b8114611c6c57600080fd5b50565b600081359050611c7e81611c58565b92915050565b600060208284031215611c9a57611c99611beb565b5b6000611ca884828501611c6f565b91505092915050565b600080fd5b600080fd5b6000601f19601f8301169050919050565b7f4e487b7100000000000000000000000000000000000000000000000000000000600052604160045260246000fd5b611d0482611cbb565b810181811067ffffffffffffffff82111715611d2357611d22611ccc565b5b80604052505050565b6000611d36611be1565b9050611d428282611cfb565b919050565b600067ffffffffffffffff821115611d6257611d61611ccc565b5b611d6b82611cbb565b9050602081019050919050565b82818337600083830152505050565b6000611d9a611d9584611d47565b611d2c565b905082815260208101848484011115611db657611db5611cb6565b5b611dc1848285611d78565b509392505050565b600082601f830112611dde57611ddd611cb1565b5b8135611dee848260208601611d87565b91505092915050565b60008060408385031215611e0e57611e0d611beb565b5b6000611e1c85828601611c0c565b925050602083013567ffffffffffffffff811115611e3d57611e3c611bf0565b5b611e4985828601611dc9565b9150509250929050565b6000819050919050565b611e6681611e53565b82525050565b6000602082019050611e816000830184611e5d565b92915050565b60008060008060008060c08789031215611ea457611ea3611beb565b5b6000611eb289828a01611c0c565b9650506020611ec389828a01611c0c565b9550506040611ed489828a01611c6f565b9450506060611ee589828a01611c6f565b9350506080611ef689828a01611c6f565b92505060a0611f0789828a01611c6f565b9150509295509295509295565b611f1d81611c4e565b82525050565b6000602082019050611f386000830184611f14565b92915050565b600082825260208201905092915050565b7f46756e6374696f6e206d7573742062652063616c6c6564207468726f7567682060008201527f64656c656761746563616c6c0000000000000000000000000000000000000000602082015250565b6000611fab602c83611f3e565b9150611fb682611f4f565b604082019050919050565b60006020820190508181036000830152611fda81611f9e565b9050919050565b7f46756e6374696f6e206d7573742062652063616c6c6564207468726f7567682060008201527f6163746976652070726f78790000000000000000000000000000000000000000602082015250565b600061203d602c83611f3e565b915061204882611fe1565b604082019050919050565b6000602082019050818103600083015261206c81612030565b9050919050565b7f41756374696f6e20697320636c6f736564000000000000000000000000000000600082015250565b60006120a9601183611f3e565b91506120b482612073565b602082019050919050565b600060208201905081810360008301526120d88161209c565b9050919050565b7f596f7520616c726561647920626f7567687420746869732070726f6475637400600082015250565b6000612115601f83611f3e565b9150612120826120df565b602082019050919050565b6000602082019050818103600083015261214481612108565b9050919050565b7f50726f6475637420616c726561647920736f6c64000000000000000000000000600082015250565b6000612181601483611f3e565b915061218c8261214b565b602082019050919050565b600060208201905081810360008301526121b081612174565b9050919050565b7f4f776e65722063616e2774204269640000000000000000000000000000000000600082015250565b60006121ed600f83611f3e565b91506121f8826121b7565b602082019050919050565b6000602082019050818103600083015261221c816121e0565b9050919050565b7f57454920697320696e73756666696369656e7400000000000000000000000000600082015250565b6000612259601383611f3e565b915061226482612223565b602082019050919050565b600060208201905081810360008301526122888161224c565b9050919050565b60006060820190506122a46000830186611b81565b6122b16020830185611b81565b6122be6040830184611f14565b949350505050565b6122cf81611bab565b81146122da57600080fd5b50565b6000815190506122ec816122c6565b92915050565b60006020828403121561230857612307611beb565b5b6000612316848285016122dd565b91505092915050565b7f6661696c656420746f2073656e64000000000000000000000000000000000000600082015250565b6000612355600e83611f3e565b91506123608261231f565b602082019050919050565b6000602082019050818103600083015261238481612348565b9050919050565b7f555550535570677261646561626c653a206d757374206e6f742062652063616c60008201527f6c6564207468726f7567682064656c656761746563616c6c0000000000000000602082015250565b60006123e7603883611f3e565b91506123f28261238b565b604082019050919050565b60006020820190508181036000830152612416816123da565b9050919050565b7f496e697469616c697a61626c653a20636f6e747261637420697320616c72656160008201527f647920696e697469616c697a6564000000000000000000000000000000000000602082015250565b6000612479602e83611f3e565b91506124848261241d565b604082019050919050565b600060208201905081810360008301526124a88161246c565b9050919050565b6000815190506124be81611bf5565b92915050565b6000602082840312156124da576124d9611beb565b5b60006124e8848285016124af565b91505092915050565b7f596f7520646f6e2774206f776e2074686973204e465420746f2073656c6c0000600082015250565b6000612527601e83611f3e565b9150612532826124f1565b602082019050919050565b600060208201905081810360008301526125568161251a565b9050919050565b7f4e487b7100000000000000000000000000000000000000000000000000000000600052601160045260246000fd5b600061259782611c4e565b91506125a283611c4e565b92508282026125b081611c4e565b915082820484148315176125c7576125c661255d565b5b5092915050565b60006125d982611c4e565b91506125e483611c4e565b92508282019050808211156125fc576125fb61255d565b5b92915050565b6000819050919050565b600060ff82169050919050565b6000819050919050565b600061263e61263961263484612602565b612619565b61260c565b9050919050565b61264e81612623565b82525050565b60006020820190506126696000830184612645565b92915050565b600061267a82611c4e565b915061268583611c4e565b925082820390508181111561269d5761269c61255d565b5b92915050565b7f4f776e61626c653a206e6577206f776e657220697320746865207a65726f206160008201527f6464726573730000000000000000000000000000000000000000000000000000602082015250565b60006126ff602683611f3e565b915061270a826126a3565b604082019050919050565b6000602082019050818103600083015261272e816126f2565b9050919050565b61273e81611e53565b811461274957600080fd5b50565b60008151905061275b81612735565b92915050565b60006020828403121561277757612776611beb565b5b60006127858482850161274c565b91505092915050565b7f45524331393637557067726164653a206e657720696d706c656d656e7461746960008201527f6f6e206973206e6f742055555053000000000000000000000000000000000000602082015250565b60006127ea602e83611f3e565b91506127f58261278e565b604082019050919050565b60006020820190508181036000830152612819816127dd565b9050919050565b7f45524331393637557067726164653a20756e737570706f727465642070726f7860008201527f6961626c65555549440000000000000000000000000000000000000000000000602082015250565b600061287c602983611f3e565b915061288782612820565b604082019050919050565b600060208201905081810360008301526128ab8161286f565b9050919050565b7f4f776e61626c653a2063616c6c6572206973206e6f7420746865206f776e6572600082015250565b60006128e8602083611f3e565b91506128f3826128b2565b602082019050919050565b60006020820190508181036000830152612917816128db565b9050919050565b7f455243313936373a206e657720696d706c656d656e746174696f6e206973206e60008201527f6f74206120636f6e747261637400000000000000000000000000000000000000602082015250565b600061297a602d83611f3e565b91506129858261291e565b604082019050919050565b600060208201905081810360008301526129a98161296d565b9050919050565b600081519050919050565b600081905092915050565b60005b838110156129e45780820151818401526020810190506129c9565b60008484015250505050565b60006129fb826129b0565b612a0581856129bb565b9350612a158185602086016129c6565b80840191505092915050565b6000612a2d82846129f0565b915081905092915050565b7f416464726573733a2063616c6c20746f206e6f6e2d636f6e7472616374000000600082015250565b6000612a6e601d83611f3e565b9150612a7982612a38565b602082019050919050565b60006020820190508181036000830152612a9d81612a61565b9050919050565b600081519050919050565b6000612aba82612aa4565b612ac48185611f3e565b9350612ad48185602086016129c6565b612add81611cbb565b840191505092915050565b60006020820190508181036000830152612b028184612aaf565b90509291505056fe416464726573733a206c6f772d6c6576656c2064656c65676174652063616c6c206661696c6564a2646970667358221220efd332adff0dc9a63d1158f514f5fda70d65e412c15bcb55fed92d003d9f4b7364736f6c63430008110033",
  "linkReferences": {},
  "deployedLinkReferences": {}
}