{"contracts/NFTDutchAuction_ERC20Bids.sol":{"NFTDutchAuction_ERC20Bids":{"abi":[{"inputs":[{"internalType":"address","name":"erc20TokenAddress","type":"address"},{"internalType":"address","name":"erc721TokenAddress","type":"address"},{"internalType":"uint256","name":"_nftTokenId","type":"uint256"},{"internalType":"uint256","name":"_reservePrice","type":"uint256"},{"internalType":"uint256","name":"_numBlocksAuctionOpen","type":"uint256"},{"internalType":"uint256","name":"_offerPriceDecrement","type":"uint256"}],"stateMutability":"nonpayable","type":"constructor"},{"inputs":[],"name":"auctionStatusOpen","outputs":[{"internalType":"bool","name":"","type":"bool"}],"stateMutability":"view","type":"function"},{"inputs":[{"internalType":"uint256","name":"amount","type":"uint256"}],"name":"bid","outputs":[],"stateMutability":"nonpayable","type":"function"},{"inputs":[],"name":"buyer","outputs":[{"internalType":"address","name":"","type":"address"}],"stateMutability":"view","type":"function"},{"inputs":[],"name":"currentPrice","outputs":[{"internalType":"uint256","name":"","type":"uint256"}],"stateMutability":"view","type":"function"},{"inputs":[],"name":"seller","outputs":[{"internalType":"address","name":"","type":"address"}],"stateMutability":"view","type":"function"}],"evm":{"bytecode":{"linkReferences":{},"object":"60806040523480156200001157600080fd5b5060405162001711380380620017118339818101604052810190620000379190620004ec565b620000536750d2091bbfa28dcf60c01b6200044460201b60201c565b6200006f678a7167dc9fd8a1ec60c01b6200044460201b60201c565b33600760006101000a81548173ffffffffffffffffffffffffffffffffffffffff021916908373ffffffffffffffffffffffffffffffffffffffff160217905550620000cc67731b74dadecd99cc60c01b6200044460201b60201c565b43600881905550620000ef673da83d5c3670d2d460c01b6200044460201b60201c565b6001600a60006101000a81548160ff0219169083151502179055506200012667e1997e0052fd6bb460c01b6200044460201b60201c565b836000819055506200014967c10f36fcdb52523060c01b6200044460201b60201c565b84600160006101000a81548173ffffffffffffffffffffffffffffffffffffffff021916908373ffffffffffffffffffffffffffffffffffffffff160217905550620001a6676703e87e18dba8ca60c01b6200044460201b60201c565b85600260006101000a81548173ffffffffffffffffffffffffffffffffffffffff021916908373ffffffffffffffffffffffffffffffffffffffff160217905550620002036764e87b954376021560c01b6200044460201b60201c565b6200021f67ed0aae5a41db617360c01b6200044460201b60201c565b6200023b670507b6570d67a52060c01b6200044460201b60201c565b600760009054906101000a900473ffffffffffffffffffffffffffffffffffffffff1673ffffffffffffffffffffffffffffffffffffffff16600160009054906101000a900473ffffffffffffffffffffffffffffffffffffffff1673ffffffffffffffffffffffffffffffffffffffff16636352211e6000546040518263ffffffff1660e01b8152600401620002d3919062000599565b602060405180830381865afa158015620002f1573d6000803e3d6000fd5b505050506040513d601f19601f82011682018060405250810190620003179190620005b6565b73ffffffffffffffffffffffffffffffffffffffff161462000370576040517f08c379a0000000000000000000000000000000000000000000000000000000008152600401620003679062000649565b60405180910390fd5b6200038c67f6c4d09bf2d42f1260c01b6200044460201b60201c565b620003a8670334f419580e84dc60c01b6200044460201b60201c565b82600381905550620003cb670621d74b57a8bcae60c01b6200044460201b60201c565b81600481905550620003ee675490b00b48a594b260c01b6200044460201b60201c565b806005819055506200041167f6b0b7da924cea6f60c01b6200044460201b60201c565b6005546004546200042391906200069a565b600354620004329190620006e5565b60098190555050505050505062000720565b50565b600080fd5b600073ffffffffffffffffffffffffffffffffffffffff82169050919050565b600062000479826200044c565b9050919050565b6200048b816200046c565b81146200049757600080fd5b50565b600081519050620004ab8162000480565b92915050565b6000819050919050565b620004c681620004b1565b8114620004d257600080fd5b50565b600081519050620004e681620004bb565b92915050565b60008060008060008060c087890312156200050c576200050b62000447565b5b60006200051c89828a016200049a565b96505060206200052f89828a016200049a565b95505060406200054289828a01620004d5565b94505060606200055589828a01620004d5565b93505060806200056889828a01620004d5565b92505060a06200057b89828a01620004d5565b9150509295509295509295565b6200059381620004b1565b82525050565b6000602082019050620005b0600083018462000588565b92915050565b600060208284031215620005cf57620005ce62000447565b5b6000620005df848285016200049a565b91505092915050565b600082825260208201905092915050565b7f596f7520646f6e2774206f776e2074686973204e465420746f2073656c6c0000600082015250565b600062000631601e83620005e8565b91506200063e82620005f9565b602082019050919050565b60006020820190508181036000830152620006648162000622565b9050919050565b7f4e487b7100000000000000000000000000000000000000000000000000000000600052601160045260246000fd5b6000620006a782620004b1565b9150620006b483620004b1565b9250828202620006c481620004b1565b91508282048414831517620006de57620006dd6200066b565b5b5092915050565b6000620006f282620004b1565b9150620006ff83620004b1565b92508282019050808211156200071a57620007196200066b565b5b92915050565b610fe180620007306000396000f3fe608060405234801561001057600080fd5b50600436106100575760003560e01c806308551a531461005c5780630b48ab8f1461007a578063454a2ab3146100985780637150d8ae146100b45780639d1b464a146100d2575b600080fd5b6100646100f0565b6040516100719190610aa1565b60405180910390f35b610082610116565b60405161008f9190610ad7565b60405180910390f35b6100b260048036038101906100ad9190610b2d565b610129565b005b6100bc6106d1565b6040516100c99190610aa1565b60405180910390f35b6100da6106f7565b6040516100e79190610b69565b60405180910390f35b600760009054906101000a900473ffffffffffffffffffffffffffffffffffffffff1681565b600a60009054906101000a900460ff1681565b61013d675d686a88aa00b7e660c01b61075c565b610151674b0d9e13fdf89da360c01b61075c565b61016567aac5ec1defc6726e60c01b61075c565b6101796747bf3c26608be73660c01b61075c565b61018161075f565b6101c0576040517f08c379a00000000000000000000000000000000000000000000000000000000081526004016101b790610be1565b60405180910390fd5b6101d4670ea34660a70afb1a60c01b61075c565b6101e8674b7c3b925079daf360c01b61075c565b6101fc67f3b4409255c972a560c01b61075c565b61021067b0f2eb9fe1df832660c01b61075c565b600660009054906101000a900473ffffffffffffffffffffffffffffffffffffffff1673ffffffffffffffffffffffffffffffffffffffff163373ffffffffffffffffffffffffffffffffffffffff16036102a0576040517f08c379a000000000000000000000000000000000000000000000000000000000815260040161029790610c4d565b60405180910390fd5b6102b467c505fbfcb5630d6460c01b61075c565b6102c867c74e2960b4b6de0060c01b61075c565b6102dc6784fe95d78b68aada60c01b61075c565b6102f0673d9f554bdc6819ad60c01b61075c565b600073ffffffffffffffffffffffffffffffffffffffff16600660009054906101000a900473ffffffffffffffffffffffffffffffffffffffff1673ffffffffffffffffffffffffffffffffffffffff1614610381576040517f08c379a000000000000000000000000000000000000000000000000000000000815260040161037890610cb9565b60405180910390fd5b61039567d22d91eb9230bcce60c01b61075c565b6103a9674781c7fe9e45d63460c01b61075c565b6103bd67b9c1141f6417773a60c01b61075c565b6103d167e15c5a9c3cecbcc460c01b61075c565b600760009054906101000a900473ffffffffffffffffffffffffffffffffffffffff1673ffffffffffffffffffffffffffffffffffffffff163373ffffffffffffffffffffffffffffffffffffffff1603610461576040517f08c379a000000000000000000000000000000000000000000000000000000000815260040161045890610d25565b60405180910390fd5b610475671636a0e43bab30ce60c01b61075c565b610489672e746c40f903485b60c01b61075c565b61049d67671b3d3fd60380c460c01b61075c565b6104b1671b421329498ea25760c01b61075c565b6104b96106f7565b8110156104fb576040517f08c379a00000000000000000000000000000000000000000000000000000000081526004016104f290610d91565b60405180910390fd5b61050f6711a50f7a7259166760c01b61075c565b6105236764bae29784cfa38460c01b61075c565b61053767d74f6e891103a29960c01b61075c565b6000600260009054906101000a900473ffffffffffffffffffffffffffffffffffffffff1673ffffffffffffffffffffffffffffffffffffffff166323b872dd33600760009054906101000a900473ffffffffffffffffffffffffffffffffffffffff166105a36106f7565b6040518463ffffffff1660e01b81526004016105c193929190610db1565b6020604051808303816000875af11580156105e0573d6000803e3d6000fd5b505050506040513d601f19601f820116820180604052508101906106049190610e14565b905061061a67f36c6107cbdc1f1e60c01b61075c565b61062e670ce193515a6f32d560c01b61075c565b610642676bf509bdad62268860c01b61075c565b6001151581151514610689576040517f08c379a000000000000000000000000000000000000000000000000000000000815260040161068090610e8d565b60405180910390fd5b61069d676f467ff81c884ad360c01b61075c565b6106b066c701b06afb696560c01b61075c565b6106c467e9c11d962825915660c01b61075c565b6106cd336107af565b5050565b600660009054906101000a900473ffffffffffffffffffffffffffffffffffffffff1681565b600061070d676b90c93a809144ce60c01b61075c565b61072167b2fc7ca14f1d981660c01b61075c565b610735671bd50309c223e8f460c01b61075c565b6005546107406109c4565b61074a9190610edc565b6009546107579190610f1e565b905090565b50565b600061077567b953fd991b75b32160c01b61075c565b61078967195bc137235811ab60c01b61075c565b61079d6721d749d596bd0d3460c01b61075c565b6004546107a86109c4565b1115905090565b6107c367b1a1251a1b1709a760c01b61075c565b6107d7674b7f861d9b4c896a60c01b61075c565b6107eb6740a5600f60ba58be60c01b61075c565b600160009054906101000a900473ffffffffffffffffffffffffffffffffffffffff1673ffffffffffffffffffffffffffffffffffffffff166323b872dd600760009054906101000a900473ffffffffffffffffffffffffffffffffffffffff16836000546040518463ffffffff1660e01b815260040161086e93929190610db1565b600060405180830381600087803b15801561088857600080fd5b505af115801561089c573d6000803e3d6000fd5b505050506108b4674779254404e22da660c01b61075c565b600160009054906101000a900473ffffffffffffffffffffffffffffffffffffffff1673ffffffffffffffffffffffffffffffffffffffff16636352211e6000546040518263ffffffff1660e01b81526004016109119190610b69565b602060405180830381865afa15801561092e573d6000803e3d6000fd5b505050506040513d601f19601f820116820180604052508101906109529190610f7e565b600660006101000a81548173ffffffffffffffffffffffffffffffffffffffff021916908373ffffffffffffffffffffffffffffffffffffffff1602179055506109a6670430c4b14da5f5db60c01b61075c565b6000600a60006101000a81548160ff02191690831515021790555050565b60006109da6758a8b6030326883060c01b61075c565b6109ee67a657c1b2c2e65d8460c01b61075c565b610a0267b85fcdfdcb24bf6860c01b61075c565b600854610a0d610a1c565b610a179190610f1e565b905090565b6000610a32679047dd3e70cbacba60c01b61075c565b610a4667d9602869f1ffd32860c01b61075c565b610a5a672fa7cf89603abbb960c01b61075c565b43905090565b600073ffffffffffffffffffffffffffffffffffffffff82169050919050565b6000610a8b82610a60565b9050919050565b610a9b81610a80565b82525050565b6000602082019050610ab66000830184610a92565b92915050565b60008115159050919050565b610ad181610abc565b82525050565b6000602082019050610aec6000830184610ac8565b92915050565b600080fd5b6000819050919050565b610b0a81610af7565b8114610b1557600080fd5b50565b600081359050610b2781610b01565b92915050565b600060208284031215610b4357610b42610af2565b5b6000610b5184828501610b18565b91505092915050565b610b6381610af7565b82525050565b6000602082019050610b7e6000830184610b5a565b92915050565b600082825260208201905092915050565b7f41756374696f6e20697320636c6f736564000000000000000000000000000000600082015250565b6000610bcb601183610b84565b9150610bd682610b95565b602082019050919050565b60006020820190508181036000830152610bfa81610bbe565b9050919050565b7f596f7520616c726561647920626f7567687420746869732070726f6475637400600082015250565b6000610c37601f83610b84565b9150610c4282610c01565b602082019050919050565b60006020820190508181036000830152610c6681610c2a565b9050919050565b7f50726f6475637420616c726561647920736f6c64000000000000000000000000600082015250565b6000610ca3601483610b84565b9150610cae82610c6d565b602082019050919050565b60006020820190508181036000830152610cd281610c96565b9050919050565b7f4f776e65722063616e2774204269640000000000000000000000000000000000600082015250565b6000610d0f600f83610b84565b9150610d1a82610cd9565b602082019050919050565b60006020820190508181036000830152610d3e81610d02565b9050919050565b7f57454920697320696e73756666696369656e7400000000000000000000000000600082015250565b6000610d7b601383610b84565b9150610d8682610d45565b602082019050919050565b60006020820190508181036000830152610daa81610d6e565b9050919050565b6000606082019050610dc66000830186610a92565b610dd36020830185610a92565b610de06040830184610b5a565b949350505050565b610df181610abc565b8114610dfc57600080fd5b50565b600081519050610e0e81610de8565b92915050565b600060208284031215610e2a57610e29610af2565b5b6000610e3884828501610dff565b91505092915050565b7f6661696c656420746f2073656e64000000000000000000000000000000000000600082015250565b6000610e77600e83610b84565b9150610e8282610e41565b602082019050919050565b60006020820190508181036000830152610ea681610e6a565b9050919050565b7f4e487b7100000000000000000000000000000000000000000000000000000000600052601160045260246000fd5b6000610ee782610af7565b9150610ef283610af7565b9250828202610f0081610af7565b91508282048414831517610f1757610f16610ead565b5b5092915050565b6000610f2982610af7565b9150610f3483610af7565b9250828203905081811115610f4c57610f4b610ead565b5b92915050565b610f5b81610a80565b8114610f6657600080fd5b50565b600081519050610f7881610f52565b92915050565b600060208284031215610f9457610f93610af2565b5b6000610fa284828501610f69565b9150509291505056fea26469706673582212200e6cea8fd02103c94876deddd532d4d9d392fd11a3f0fa9a785bc3ea6576ed0964736f6c63430008110033","opcodes":"PUSH1 0x80 PUSH1 0x40 MSTORE CALLVALUE DUP1 ISZERO PUSH3 0x11 JUMPI PUSH1 0x0 DUP1 REVERT JUMPDEST POP PUSH1 0x40 MLOAD PUSH3 0x1711 CODESIZE SUB DUP1 PUSH3 0x1711 DUP4 CODECOPY DUP2 DUP2 ADD PUSH1 0x40 MSTORE DUP2 ADD SWAP1 PUSH3 0x37 SWAP2 SWAP1 PUSH3 0x4EC JUMP JUMPDEST PUSH3 0x53 PUSH8 0x50D2091BBFA28DCF PUSH1 0xC0 SHL PUSH3 0x444 PUSH1 0x20 SHL PUSH1 0x20 SHR JUMP JUMPDEST PUSH3 0x6F PUSH8 0x8A7167DC9FD8A1EC PUSH1 0xC0 SHL PUSH3 0x444 PUSH1 0x20 SHL PUSH1 0x20 SHR JUMP JUMPDEST CALLER PUSH1 0x7 PUSH1 0x0 PUSH2 0x100 EXP DUP2 SLOAD DUP2 PUSH20 0xFFFFFFFFFFFFFFFFFFFFFFFFFFFFFFFFFFFFFFFF MUL NOT AND SWAP1 DUP4 PUSH20 0xFFFFFFFFFFFFFFFFFFFFFFFFFFFFFFFFFFFFFFFF AND MUL OR SWAP1 SSTORE POP PUSH3 0xCC PUSH8 0x731B74DADECD99CC PUSH1 0xC0 SHL PUSH3 0x444 PUSH1 0x20 SHL PUSH1 0x20 SHR JUMP JUMPDEST NUMBER PUSH1 0x8 DUP2 SWAP1 SSTORE POP PUSH3 0xEF PUSH8 0x3DA83D5C3670D2D4 PUSH1 0xC0 SHL PUSH3 0x444 PUSH1 0x20 SHL PUSH1 0x20 SHR JUMP JUMPDEST PUSH1 0x1 PUSH1 0xA PUSH1 0x0 PUSH2 0x100 EXP DUP2 SLOAD DUP2 PUSH1 0xFF MUL NOT AND SWAP1 DUP4 ISZERO ISZERO MUL OR SWAP1 SSTORE POP PUSH3 0x126 PUSH8 0xE1997E0052FD6BB4 PUSH1 0xC0 SHL PUSH3 0x444 PUSH1 0x20 SHL PUSH1 0x20 SHR JUMP JUMPDEST DUP4 PUSH1 0x0 DUP2 SWAP1 SSTORE POP PUSH3 0x149 PUSH8 0xC10F36FCDB525230 PUSH1 0xC0 SHL PUSH3 0x444 PUSH1 0x20 SHL PUSH1 0x20 SHR JUMP JUMPDEST DUP5 PUSH1 0x1 PUSH1 0x0 PUSH2 0x100 EXP DUP2 SLOAD DUP2 PUSH20 0xFFFFFFFFFFFFFFFFFFFFFFFFFFFFFFFFFFFFFFFF MUL NOT AND SWAP1 DUP4 PUSH20 0xFFFFFFFFFFFFFFFFFFFFFFFFFFFFFFFFFFFFFFFF AND MUL OR SWAP1 SSTORE POP PUSH3 0x1A6 PUSH8 0x6703E87E18DBA8CA PUSH1 0xC0 SHL PUSH3 0x444 PUSH1 0x20 SHL PUSH1 0x20 SHR JUMP JUMPDEST DUP6 PUSH1 0x2 PUSH1 0x0 PUSH2 0x100 EXP DUP2 SLOAD DUP2 PUSH20 0xFFFFFFFFFFFFFFFFFFFFFFFFFFFFFFFFFFFFFFFF MUL NOT AND SWAP1 DUP4 PUSH20 0xFFFFFFFFFFFFFFFFFFFFFFFFFFFFFFFFFFFFFFFF AND MUL OR SWAP1 SSTORE POP PUSH3 0x203 PUSH8 0x64E87B9543760215 PUSH1 0xC0 SHL PUSH3 0x444 PUSH1 0x20 SHL PUSH1 0x20 SHR JUMP JUMPDEST PUSH3 0x21F PUSH8 0xED0AAE5A41DB6173 PUSH1 0xC0 SHL PUSH3 0x444 PUSH1 0x20 SHL PUSH1 0x20 SHR JUMP JUMPDEST PUSH3 0x23B PUSH8 0x507B6570D67A520 PUSH1 0xC0 SHL PUSH3 0x444 PUSH1 0x20 SHL PUSH1 0x20 SHR JUMP JUMPDEST PUSH1 0x7 PUSH1 0x0 SWAP1 SLOAD SWAP1 PUSH2 0x100 EXP SWAP1 DIV PUSH20 0xFFFFFFFFFFFFFFFFFFFFFFFFFFFFFFFFFFFFFFFF AND PUSH20 0xFFFFFFFFFFFFFFFFFFFFFFFFFFFFFFFFFFFFFFFF AND PUSH1 0x1 PUSH1 0x0 SWAP1 SLOAD SWAP1 PUSH2 0x100 EXP SWAP1 DIV PUSH20 0xFFFFFFFFFFFFFFFFFFFFFFFFFFFFFFFFFFFFFFFF AND PUSH20 0xFFFFFFFFFFFFFFFFFFFFFFFFFFFFFFFFFFFFFFFF AND PUSH4 0x6352211E PUSH1 0x0 SLOAD PUSH1 0x40 MLOAD DUP3 PUSH4 0xFFFFFFFF AND PUSH1 0xE0 SHL DUP2 MSTORE PUSH1 0x4 ADD PUSH3 0x2D3 SWAP2 SWAP1 PUSH3 0x599 JUMP JUMPDEST PUSH1 0x20 PUSH1 0x40 MLOAD DUP1 DUP4 SUB DUP2 DUP7 GAS STATICCALL ISZERO DUP1 ISZERO PUSH3 0x2F1 JUMPI RETURNDATASIZE PUSH1 0x0 DUP1 RETURNDATACOPY RETURNDATASIZE PUSH1 0x0 REVERT JUMPDEST POP POP POP POP PUSH1 0x40 MLOAD RETURNDATASIZE PUSH1 0x1F NOT PUSH1 0x1F DUP3 ADD AND DUP3 ADD DUP1 PUSH1 0x40 MSTORE POP DUP2 ADD SWAP1 PUSH3 0x317 SWAP2 SWAP1 PUSH3 0x5B6 JUMP JUMPDEST PUSH20 0xFFFFFFFFFFFFFFFFFFFFFFFFFFFFFFFFFFFFFFFF AND EQ PUSH3 0x370 JUMPI PUSH1 0x40 MLOAD PUSH32 0x8C379A000000000000000000000000000000000000000000000000000000000 DUP2 MSTORE PUSH1 0x4 ADD PUSH3 0x367 SWAP1 PUSH3 0x649 JUMP JUMPDEST PUSH1 0x40 MLOAD DUP1 SWAP2 SUB SWAP1 REVERT JUMPDEST PUSH3 0x38C PUSH8 0xF6C4D09BF2D42F12 PUSH1 0xC0 SHL PUSH3 0x444 PUSH1 0x20 SHL PUSH1 0x20 SHR JUMP JUMPDEST PUSH3 0x3A8 PUSH8 0x334F419580E84DC PUSH1 0xC0 SHL PUSH3 0x444 PUSH1 0x20 SHL PUSH1 0x20 SHR JUMP JUMPDEST DUP3 PUSH1 0x3 DUP2 SWAP1 SSTORE POP PUSH3 0x3CB PUSH8 0x621D74B57A8BCAE PUSH1 0xC0 SHL PUSH3 0x444 PUSH1 0x20 SHL PUSH1 0x20 SHR JUMP JUMPDEST DUP2 PUSH1 0x4 DUP2 SWAP1 SSTORE POP PUSH3 0x3EE PUSH8 0x5490B00B48A594B2 PUSH1 0xC0 SHL PUSH3 0x444 PUSH1 0x20 SHL PUSH1 0x20 SHR JUMP JUMPDEST DUP1 PUSH1 0x5 DUP2 SWAP1 SSTORE POP PUSH3 0x411 PUSH8 0xF6B0B7DA924CEA6F PUSH1 0xC0 SHL PUSH3 0x444 PUSH1 0x20 SHL PUSH1 0x20 SHR JUMP JUMPDEST PUSH1 0x5 SLOAD PUSH1 0x4 SLOAD PUSH3 0x423 SWAP2 SWAP1 PUSH3 0x69A JUMP JUMPDEST PUSH1 0x3 SLOAD PUSH3 0x432 SWAP2 SWAP1 PUSH3 0x6E5 JUMP JUMPDEST PUSH1 0x9 DUP2 SWAP1 SSTORE POP POP POP POP POP POP POP PUSH3 0x720 JUMP JUMPDEST POP JUMP JUMPDEST PUSH1 0x0 DUP1 REVERT JUMPDEST PUSH1 0x0 PUSH20 0xFFFFFFFFFFFFFFFFFFFFFFFFFFFFFFFFFFFFFFFF DUP3 AND SWAP1 POP SWAP2 SWAP1 POP JUMP JUMPDEST PUSH1 0x0 PUSH3 0x479 DUP3 PUSH3 0x44C JUMP JUMPDEST SWAP1 POP SWAP2 SWAP1 POP JUMP JUMPDEST PUSH3 0x48B DUP2 PUSH3 0x46C JUMP JUMPDEST DUP2 EQ PUSH3 0x497 JUMPI PUSH1 0x0 DUP1 REVERT JUMPDEST POP JUMP JUMPDEST PUSH1 0x0 DUP2 MLOAD SWAP1 POP PUSH3 0x4AB DUP2 PUSH3 0x480 JUMP JUMPDEST SWAP3 SWAP2 POP POP JUMP JUMPDEST PUSH1 0x0 DUP2 SWAP1 POP SWAP2 SWAP1 POP JUMP JUMPDEST PUSH3 0x4C6 DUP2 PUSH3 0x4B1 JUMP JUMPDEST DUP2 EQ PUSH3 0x4D2 JUMPI PUSH1 0x0 DUP1 REVERT JUMPDEST POP JUMP JUMPDEST PUSH1 0x0 DUP2 MLOAD SWAP1 POP PUSH3 0x4E6 DUP2 PUSH3 0x4BB JUMP JUMPDEST SWAP3 SWAP2 POP POP JUMP JUMPDEST PUSH1 0x0 DUP1 PUSH1 0x0 DUP1 PUSH1 0x0 DUP1 PUSH1 0xC0 DUP8 DUP10 SUB SLT ISZERO PUSH3 0x50C JUMPI PUSH3 0x50B PUSH3 0x447 JUMP JUMPDEST JUMPDEST PUSH1 0x0 PUSH3 0x51C DUP10 DUP3 DUP11 ADD PUSH3 0x49A JUMP JUMPDEST SWAP7 POP POP PUSH1 0x20 PUSH3 0x52F DUP10 DUP3 DUP11 ADD PUSH3 0x49A JUMP JUMPDEST SWAP6 POP POP PUSH1 0x40 PUSH3 0x542 DUP10 DUP3 DUP11 ADD PUSH3 0x4D5 JUMP JUMPDEST SWAP5 POP POP PUSH1 0x60 PUSH3 0x555 DUP10 DUP3 DUP11 ADD PUSH3 0x4D5 JUMP JUMPDEST SWAP4 POP POP PUSH1 0x80 PUSH3 0x568 DUP10 DUP3 DUP11 ADD PUSH3 0x4D5 JUMP JUMPDEST SWAP3 POP POP PUSH1 0xA0 PUSH3 0x57B DUP10 DUP3 DUP11 ADD PUSH3 0x4D5 JUMP JUMPDEST SWAP2 POP POP SWAP3 SWAP6 POP SWAP3 SWAP6 POP SWAP3 SWAP6 JUMP JUMPDEST PUSH3 0x593 DUP2 PUSH3 0x4B1 JUMP JUMPDEST DUP3 MSTORE POP POP JUMP JUMPDEST PUSH1 0x0 PUSH1 0x20 DUP3 ADD SWAP1 POP PUSH3 0x5B0 PUSH1 0x0 DUP4 ADD DUP5 PUSH3 0x588 JUMP JUMPDEST SWAP3 SWAP2 POP POP JUMP JUMPDEST PUSH1 0x0 PUSH1 0x20 DUP3 DUP5 SUB SLT ISZERO PUSH3 0x5CF JUMPI PUSH3 0x5CE PUSH3 0x447 JUMP JUMPDEST JUMPDEST PUSH1 0x0 PUSH3 0x5DF DUP5 DUP3 DUP6 ADD PUSH3 0x49A JUMP JUMPDEST SWAP2 POP POP SWAP3 SWAP2 POP POP JUMP JUMPDEST PUSH1 0x0 DUP3 DUP3 MSTORE PUSH1 0x20 DUP3 ADD SWAP1 POP SWAP3 SWAP2 POP POP JUMP JUMPDEST PUSH32 0x596F7520646F6E2774206F776E2074686973204E465420746F2073656C6C0000 PUSH1 0x0 DUP3 ADD MSTORE POP JUMP JUMPDEST PUSH1 0x0 PUSH3 0x631 PUSH1 0x1E DUP4 PUSH3 0x5E8 JUMP JUMPDEST SWAP2 POP PUSH3 0x63E DUP3 PUSH3 0x5F9 JUMP JUMPDEST PUSH1 0x20 DUP3 ADD SWAP1 POP SWAP2 SWAP1 POP JUMP JUMPDEST PUSH1 0x0 PUSH1 0x20 DUP3 ADD SWAP1 POP DUP2 DUP2 SUB PUSH1 0x0 DUP4 ADD MSTORE PUSH3 0x664 DUP2 PUSH3 0x622 JUMP JUMPDEST SWAP1 POP SWAP2 SWAP1 POP JUMP JUMPDEST PUSH32 0x4E487B7100000000000000000000000000000000000000000000000000000000 PUSH1 0x0 MSTORE PUSH1 0x11 PUSH1 0x4 MSTORE PUSH1 0x24 PUSH1 0x0 REVERT JUMPDEST PUSH1 0x0 PUSH3 0x6A7 DUP3 PUSH3 0x4B1 JUMP JUMPDEST SWAP2 POP PUSH3 0x6B4 DUP4 PUSH3 0x4B1 JUMP JUMPDEST SWAP3 POP DUP3 DUP3 MUL PUSH3 0x6C4 DUP2 PUSH3 0x4B1 JUMP JUMPDEST SWAP2 POP DUP3 DUP3 DIV DUP5 EQ DUP4 ISZERO OR PUSH3 0x6DE JUMPI PUSH3 0x6DD PUSH3 0x66B JUMP JUMPDEST JUMPDEST POP SWAP3 SWAP2 POP POP JUMP JUMPDEST PUSH1 0x0 PUSH3 0x6F2 DUP3 PUSH3 0x4B1 JUMP JUMPDEST SWAP2 POP PUSH3 0x6FF DUP4 PUSH3 0x4B1 JUMP JUMPDEST SWAP3 POP DUP3 DUP3 ADD SWAP1 POP DUP1 DUP3 GT ISZERO PUSH3 0x71A JUMPI PUSH3 0x719 PUSH3 0x66B JUMP JUMPDEST JUMPDEST SWAP3 SWAP2 POP POP JUMP JUMPDEST PUSH2 0xFE1 DUP1 PUSH3 0x730 PUSH1 0x0 CODECOPY PUSH1 0x0 RETURN INVALID PUSH1 0x80 PUSH1 0x40 MSTORE CALLVALUE DUP1 ISZERO PUSH2 0x10 JUMPI PUSH1 0x0 DUP1 REVERT JUMPDEST POP PUSH1 0x4 CALLDATASIZE LT PUSH2 0x57 JUMPI PUSH1 0x0 CALLDATALOAD PUSH1 0xE0 SHR DUP1 PUSH4 0x8551A53 EQ PUSH2 0x5C JUMPI DUP1 PUSH4 0xB48AB8F EQ PUSH2 0x7A JUMPI DUP1 PUSH4 0x454A2AB3 EQ PUSH2 0x98 JUMPI DUP1 PUSH4 0x7150D8AE EQ PUSH2 0xB4 JUMPI DUP1 PUSH4 0x9D1B464A EQ PUSH2 0xD2 JUMPI JUMPDEST PUSH1 0x0 DUP1 REVERT JUMPDEST PUSH2 0x64 PUSH2 0xF0 JUMP JUMPDEST PUSH1 0x40 MLOAD PUSH2 0x71 SWAP2 SWAP1 PUSH2 0xAA1 JUMP JUMPDEST PUSH1 0x40 MLOAD DUP1 SWAP2 SUB SWAP1 RETURN JUMPDEST PUSH2 0x82 PUSH2 0x116 JUMP JUMPDEST PUSH1 0x40 MLOAD PUSH2 0x8F SWAP2 SWAP1 PUSH2 0xAD7 JUMP JUMPDEST PUSH1 0x40 MLOAD DUP1 SWAP2 SUB SWAP1 RETURN JUMPDEST PUSH2 0xB2 PUSH1 0x4 DUP1 CALLDATASIZE SUB DUP2 ADD SWAP1 PUSH2 0xAD SWAP2 SWAP1 PUSH2 0xB2D JUMP JUMPDEST PUSH2 0x129 JUMP JUMPDEST STOP JUMPDEST PUSH2 0xBC PUSH2 0x6D1 JUMP JUMPDEST PUSH1 0x40 MLOAD PUSH2 0xC9 SWAP2 SWAP1 PUSH2 0xAA1 JUMP JUMPDEST PUSH1 0x40 MLOAD DUP1 SWAP2 SUB SWAP1 RETURN JUMPDEST PUSH2 0xDA PUSH2 0x6F7 JUMP JUMPDEST PUSH1 0x40 MLOAD PUSH2 0xE7 SWAP2 SWAP1 PUSH2 0xB69 JUMP JUMPDEST PUSH1 0x40 MLOAD DUP1 SWAP2 SUB SWAP1 RETURN JUMPDEST PUSH1 0x7 PUSH1 0x0 SWAP1 SLOAD SWAP1 PUSH2 0x100 EXP SWAP1 DIV PUSH20 0xFFFFFFFFFFFFFFFFFFFFFFFFFFFFFFFFFFFFFFFF AND DUP2 JUMP JUMPDEST PUSH1 0xA PUSH1 0x0 SWAP1 SLOAD SWAP1 PUSH2 0x100 EXP SWAP1 DIV PUSH1 0xFF AND DUP2 JUMP JUMPDEST PUSH2 0x13D PUSH8 0x5D686A88AA00B7E6 PUSH1 0xC0 SHL PUSH2 0x75C JUMP JUMPDEST PUSH2 0x151 PUSH8 0x4B0D9E13FDF89DA3 PUSH1 0xC0 SHL PUSH2 0x75C JUMP JUMPDEST PUSH2 0x165 PUSH8 0xAAC5EC1DEFC6726E PUSH1 0xC0 SHL PUSH2 0x75C JUMP JUMPDEST PUSH2 0x179 PUSH8 0x47BF3C26608BE736 PUSH1 0xC0 SHL PUSH2 0x75C JUMP JUMPDEST PUSH2 0x181 PUSH2 0x75F JUMP JUMPDEST PUSH2 0x1C0 JUMPI PUSH1 0x40 MLOAD PUSH32 0x8C379A000000000000000000000000000000000000000000000000000000000 DUP2 MSTORE PUSH1 0x4 ADD PUSH2 0x1B7 SWAP1 PUSH2 0xBE1 JUMP JUMPDEST PUSH1 0x40 MLOAD DUP1 SWAP2 SUB SWAP1 REVERT JUMPDEST PUSH2 0x1D4 PUSH8 0xEA34660A70AFB1A PUSH1 0xC0 SHL PUSH2 0x75C JUMP JUMPDEST PUSH2 0x1E8 PUSH8 0x4B7C3B925079DAF3 PUSH1 0xC0 SHL PUSH2 0x75C JUMP JUMPDEST PUSH2 0x1FC PUSH8 0xF3B4409255C972A5 PUSH1 0xC0 SHL PUSH2 0x75C JUMP JUMPDEST PUSH2 0x210 PUSH8 0xB0F2EB9FE1DF8326 PUSH1 0xC0 SHL PUSH2 0x75C JUMP JUMPDEST PUSH1 0x6 PUSH1 0x0 SWAP1 SLOAD SWAP1 PUSH2 0x100 EXP SWAP1 DIV PUSH20 0xFFFFFFFFFFFFFFFFFFFFFFFFFFFFFFFFFFFFFFFF AND PUSH20 0xFFFFFFFFFFFFFFFFFFFFFFFFFFFFFFFFFFFFFFFF AND CALLER PUSH20 0xFFFFFFFFFFFFFFFFFFFFFFFFFFFFFFFFFFFFFFFF AND SUB PUSH2 0x2A0 JUMPI PUSH1 0x40 MLOAD PUSH32 0x8C379A000000000000000000000000000000000000000000000000000000000 DUP2 MSTORE PUSH1 0x4 ADD PUSH2 0x297 SWAP1 PUSH2 0xC4D JUMP JUMPDEST PUSH1 0x40 MLOAD DUP1 SWAP2 SUB SWAP1 REVERT JUMPDEST PUSH2 0x2B4 PUSH8 0xC505FBFCB5630D64 PUSH1 0xC0 SHL PUSH2 0x75C JUMP JUMPDEST PUSH2 0x2C8 PUSH8 0xC74E2960B4B6DE00 PUSH1 0xC0 SHL PUSH2 0x75C JUMP JUMPDEST PUSH2 0x2DC PUSH8 0x84FE95D78B68AADA PUSH1 0xC0 SHL PUSH2 0x75C JUMP JUMPDEST PUSH2 0x2F0 PUSH8 0x3D9F554BDC6819AD PUSH1 0xC0 SHL PUSH2 0x75C JUMP JUMPDEST PUSH1 0x0 PUSH20 0xFFFFFFFFFFFFFFFFFFFFFFFFFFFFFFFFFFFFFFFF AND PUSH1 0x6 PUSH1 0x0 SWAP1 SLOAD SWAP1 PUSH2 0x100 EXP SWAP1 DIV PUSH20 0xFFFFFFFFFFFFFFFFFFFFFFFFFFFFFFFFFFFFFFFF AND PUSH20 0xFFFFFFFFFFFFFFFFFFFFFFFFFFFFFFFFFFFFFFFF AND EQ PUSH2 0x381 JUMPI PUSH1 0x40 MLOAD PUSH32 0x8C379A000000000000000000000000000000000000000000000000000000000 DUP2 MSTORE PUSH1 0x4 ADD PUSH2 0x378 SWAP1 PUSH2 0xCB9 JUMP JUMPDEST PUSH1 0x40 MLOAD DUP1 SWAP2 SUB SWAP1 REVERT JUMPDEST PUSH2 0x395 PUSH8 0xD22D91EB9230BCCE PUSH1 0xC0 SHL PUSH2 0x75C JUMP JUMPDEST PUSH2 0x3A9 PUSH8 0x4781C7FE9E45D634 PUSH1 0xC0 SHL PUSH2 0x75C JUMP JUMPDEST PUSH2 0x3BD PUSH8 0xB9C1141F6417773A PUSH1 0xC0 SHL PUSH2 0x75C JUMP JUMPDEST PUSH2 0x3D1 PUSH8 0xE15C5A9C3CECBCC4 PUSH1 0xC0 SHL PUSH2 0x75C JUMP JUMPDEST PUSH1 0x7 PUSH1 0x0 SWAP1 SLOAD SWAP1 PUSH2 0x100 EXP SWAP1 DIV PUSH20 0xFFFFFFFFFFFFFFFFFFFFFFFFFFFFFFFFFFFFFFFF AND PUSH20 0xFFFFFFFFFFFFFFFFFFFFFFFFFFFFFFFFFFFFFFFF AND CALLER PUSH20 0xFFFFFFFFFFFFFFFFFFFFFFFFFFFFFFFFFFFFFFFF AND SUB PUSH2 0x461 JUMPI PUSH1 0x40 MLOAD PUSH32 0x8C379A000000000000000000000000000000000000000000000000000000000 DUP2 MSTORE PUSH1 0x4 ADD PUSH2 0x458 SWAP1 PUSH2 0xD25 JUMP JUMPDEST PUSH1 0x40 MLOAD DUP1 SWAP2 SUB SWAP1 REVERT JUMPDEST PUSH2 0x475 PUSH8 0x1636A0E43BAB30CE PUSH1 0xC0 SHL PUSH2 0x75C JUMP JUMPDEST PUSH2 0x489 PUSH8 0x2E746C40F903485B PUSH1 0xC0 SHL PUSH2 0x75C JUMP JUMPDEST PUSH2 0x49D PUSH8 0x671B3D3FD60380C4 PUSH1 0xC0 SHL PUSH2 0x75C JUMP JUMPDEST PUSH2 0x4B1 PUSH8 0x1B421329498EA257 PUSH1 0xC0 SHL PUSH2 0x75C JUMP JUMPDEST PUSH2 0x4B9 PUSH2 0x6F7 JUMP JUMPDEST DUP2 LT ISZERO PUSH2 0x4FB JUMPI PUSH1 0x40 MLOAD PUSH32 0x8C379A000000000000000000000000000000000000000000000000000000000 DUP2 MSTORE PUSH1 0x4 ADD PUSH2 0x4F2 SWAP1 PUSH2 0xD91 JUMP JUMPDEST PUSH1 0x40 MLOAD DUP1 SWAP2 SUB SWAP1 REVERT JUMPDEST PUSH2 0x50F PUSH8 0x11A50F7A72591667 PUSH1 0xC0 SHL PUSH2 0x75C JUMP JUMPDEST PUSH2 0x523 PUSH8 0x64BAE29784CFA384 PUSH1 0xC0 SHL PUSH2 0x75C JUMP JUMPDEST PUSH2 0x537 PUSH8 0xD74F6E891103A299 PUSH1 0xC0 SHL PUSH2 0x75C JUMP JUMPDEST PUSH1 0x0 PUSH1 0x2 PUSH1 0x0 SWAP1 SLOAD SWAP1 PUSH2 0x100 EXP SWAP1 DIV PUSH20 0xFFFFFFFFFFFFFFFFFFFFFFFFFFFFFFFFFFFFFFFF AND PUSH20 0xFFFFFFFFFFFFFFFFFFFFFFFFFFFFFFFFFFFFFFFF AND PUSH4 0x23B872DD CALLER PUSH1 0x7 PUSH1 0x0 SWAP1 SLOAD SWAP1 PUSH2 0x100 EXP SWAP1 DIV PUSH20 0xFFFFFFFFFFFFFFFFFFFFFFFFFFFFFFFFFFFFFFFF AND PUSH2 0x5A3 PUSH2 0x6F7 JUMP JUMPDEST PUSH1 0x40 MLOAD DUP5 PUSH4 0xFFFFFFFF AND PUSH1 0xE0 SHL DUP2 MSTORE PUSH1 0x4 ADD PUSH2 0x5C1 SWAP4 SWAP3 SWAP2 SWAP1 PUSH2 0xDB1 JUMP JUMPDEST PUSH1 0x20 PUSH1 0x40 MLOAD DUP1 DUP4 SUB DUP2 PUSH1 0x0 DUP8 GAS CALL ISZERO DUP1 ISZERO PUSH2 0x5E0 JUMPI RETURNDATASIZE PUSH1 0x0 DUP1 RETURNDATACOPY RETURNDATASIZE PUSH1 0x0 REVERT JUMPDEST POP POP POP POP PUSH1 0x40 MLOAD RETURNDATASIZE PUSH1 0x1F NOT PUSH1 0x1F DUP3 ADD AND DUP3 ADD DUP1 PUSH1 0x40 MSTORE POP DUP2 ADD SWAP1 PUSH2 0x604 SWAP2 SWAP1 PUSH2 0xE14 JUMP JUMPDEST SWAP1 POP PUSH2 0x61A PUSH8 0xF36C6107CBDC1F1E PUSH1 0xC0 SHL PUSH2 0x75C JUMP JUMPDEST PUSH2 0x62E PUSH8 0xCE193515A6F32D5 PUSH1 0xC0 SHL PUSH2 0x75C JUMP JUMPDEST PUSH2 0x642 PUSH8 0x6BF509BDAD622688 PUSH1 0xC0 SHL PUSH2 0x75C JUMP JUMPDEST PUSH1 0x1 ISZERO ISZERO DUP2 ISZERO ISZERO EQ PUSH2 0x689 JUMPI PUSH1 0x40 MLOAD PUSH32 0x8C379A000000000000000000000000000000000000000000000000000000000 DUP2 MSTORE PUSH1 0x4 ADD PUSH2 0x680 SWAP1 PUSH2 0xE8D JUMP JUMPDEST PUSH1 0x40 MLOAD DUP1 SWAP2 SUB SWAP1 REVERT JUMPDEST PUSH2 0x69D PUSH8 0x6F467FF81C884AD3 PUSH1 0xC0 SHL PUSH2 0x75C JUMP JUMPDEST PUSH2 0x6B0 PUSH7 0xC701B06AFB6965 PUSH1 0xC0 SHL PUSH2 0x75C JUMP JUMPDEST PUSH2 0x6C4 PUSH8 0xE9C11D9628259156 PUSH1 0xC0 SHL PUSH2 0x75C JUMP JUMPDEST PUSH2 0x6CD CALLER PUSH2 0x7AF JUMP JUMPDEST POP POP JUMP JUMPDEST PUSH1 0x6 PUSH1 0x0 SWAP1 SLOAD SWAP1 PUSH2 0x100 EXP SWAP1 DIV PUSH20 0xFFFFFFFFFFFFFFFFFFFFFFFFFFFFFFFFFFFFFFFF AND DUP2 JUMP JUMPDEST PUSH1 0x0 PUSH2 0x70D PUSH8 0x6B90C93A809144CE PUSH1 0xC0 SHL PUSH2 0x75C JUMP JUMPDEST PUSH2 0x721 PUSH8 0xB2FC7CA14F1D9816 PUSH1 0xC0 SHL PUSH2 0x75C JUMP JUMPDEST PUSH2 0x735 PUSH8 0x1BD50309C223E8F4 PUSH1 0xC0 SHL PUSH2 0x75C JUMP JUMPDEST PUSH1 0x5 SLOAD PUSH2 0x740 PUSH2 0x9C4 JUMP JUMPDEST PUSH2 0x74A SWAP2 SWAP1 PUSH2 0xEDC JUMP JUMPDEST PUSH1 0x9 SLOAD PUSH2 0x757 SWAP2 SWAP1 PUSH2 0xF1E JUMP JUMPDEST SWAP1 POP SWAP1 JUMP JUMPDEST POP JUMP JUMPDEST PUSH1 0x0 PUSH2 0x775 PUSH8 0xB953FD991B75B321 PUSH1 0xC0 SHL PUSH2 0x75C JUMP JUMPDEST PUSH2 0x789 PUSH8 0x195BC137235811AB PUSH1 0xC0 SHL PUSH2 0x75C JUMP JUMPDEST PUSH2 0x79D PUSH8 0x21D749D596BD0D34 PUSH1 0xC0 SHL PUSH2 0x75C JUMP JUMPDEST PUSH1 0x4 SLOAD PUSH2 0x7A8 PUSH2 0x9C4 JUMP JUMPDEST GT ISZERO SWAP1 POP SWAP1 JUMP JUMPDEST PUSH2 0x7C3 PUSH8 0xB1A1251A1B1709A7 PUSH1 0xC0 SHL PUSH2 0x75C JUMP JUMPDEST PUSH2 0x7D7 PUSH8 0x4B7F861D9B4C896A PUSH1 0xC0 SHL PUSH2 0x75C JUMP JUMPDEST PUSH2 0x7EB PUSH8 0x40A5600F60BA58BE PUSH1 0xC0 SHL PUSH2 0x75C JUMP JUMPDEST PUSH1 0x1 PUSH1 0x0 SWAP1 SLOAD SWAP1 PUSH2 0x100 EXP SWAP1 DIV PUSH20 0xFFFFFFFFFFFFFFFFFFFFFFFFFFFFFFFFFFFFFFFF AND PUSH20 0xFFFFFFFFFFFFFFFFFFFFFFFFFFFFFFFFFFFFFFFF AND PUSH4 0x23B872DD PUSH1 0x7 PUSH1 0x0 SWAP1 SLOAD SWAP1 PUSH2 0x100 EXP SWAP1 DIV PUSH20 0xFFFFFFFFFFFFFFFFFFFFFFFFFFFFFFFFFFFFFFFF AND DUP4 PUSH1 0x0 SLOAD PUSH1 0x40 MLOAD DUP5 PUSH4 0xFFFFFFFF AND PUSH1 0xE0 SHL DUP2 MSTORE PUSH1 0x4 ADD PUSH2 0x86E SWAP4 SWAP3 SWAP2 SWAP1 PUSH2 0xDB1 JUMP JUMPDEST PUSH1 0x0 PUSH1 0x40 MLOAD DUP1 DUP4 SUB DUP2 PUSH1 0x0 DUP8 DUP1 EXTCODESIZE ISZERO DUP1 ISZERO PUSH2 0x888 JUMPI PUSH1 0x0 DUP1 REVERT JUMPDEST POP GAS CALL ISZERO DUP1 ISZERO PUSH2 0x89C JUMPI RETURNDATASIZE PUSH1 0x0 DUP1 RETURNDATACOPY RETURNDATASIZE PUSH1 0x0 REVERT JUMPDEST POP POP POP POP PUSH2 0x8B4 PUSH8 0x4779254404E22DA6 PUSH1 0xC0 SHL PUSH2 0x75C JUMP JUMPDEST PUSH1 0x1 PUSH1 0x0 SWAP1 SLOAD SWAP1 PUSH2 0x100 EXP SWAP1 DIV PUSH20 0xFFFFFFFFFFFFFFFFFFFFFFFFFFFFFFFFFFFFFFFF AND PUSH20 0xFFFFFFFFFFFFFFFFFFFFFFFFFFFFFFFFFFFFFFFF AND PUSH4 0x6352211E PUSH1 0x0 SLOAD PUSH1 0x40 MLOAD DUP3 PUSH4 0xFFFFFFFF AND PUSH1 0xE0 SHL DUP2 MSTORE PUSH1 0x4 ADD PUSH2 0x911 SWAP2 SWAP1 PUSH2 0xB69 JUMP JUMPDEST PUSH1 0x20 PUSH1 0x40 MLOAD DUP1 DUP4 SUB DUP2 DUP7 GAS STATICCALL ISZERO DUP1 ISZERO PUSH2 0x92E JUMPI RETURNDATASIZE PUSH1 0x0 DUP1 RETURNDATACOPY RETURNDATASIZE PUSH1 0x0 REVERT JUMPDEST POP POP POP POP PUSH1 0x40 MLOAD RETURNDATASIZE PUSH1 0x1F NOT PUSH1 0x1F DUP3 ADD AND DUP3 ADD DUP1 PUSH1 0x40 MSTORE POP DUP2 ADD SWAP1 PUSH2 0x952 SWAP2 SWAP1 PUSH2 0xF7E JUMP JUMPDEST PUSH1 0x6 PUSH1 0x0 PUSH2 0x100 EXP DUP2 SLOAD DUP2 PUSH20 0xFFFFFFFFFFFFFFFFFFFFFFFFFFFFFFFFFFFFFFFF MUL NOT AND SWAP1 DUP4 PUSH20 0xFFFFFFFFFFFFFFFFFFFFFFFFFFFFFFFFFFFFFFFF AND MUL OR SWAP1 SSTORE POP PUSH2 0x9A6 PUSH8 0x430C4B14DA5F5DB PUSH1 0xC0 SHL PUSH2 0x75C JUMP JUMPDEST PUSH1 0x0 PUSH1 0xA PUSH1 0x0 PUSH2 0x100 EXP DUP2 SLOAD DUP2 PUSH1 0xFF MUL NOT AND SWAP1 DUP4 ISZERO ISZERO MUL OR SWAP1 SSTORE POP POP JUMP JUMPDEST PUSH1 0x0 PUSH2 0x9DA PUSH8 0x58A8B60303268830 PUSH1 0xC0 SHL PUSH2 0x75C JUMP JUMPDEST PUSH2 0x9EE PUSH8 0xA657C1B2C2E65D84 PUSH1 0xC0 SHL PUSH2 0x75C JUMP JUMPDEST PUSH2 0xA02 PUSH8 0xB85FCDFDCB24BF68 PUSH1 0xC0 SHL PUSH2 0x75C JUMP JUMPDEST PUSH1 0x8 SLOAD PUSH2 0xA0D PUSH2 0xA1C JUMP JUMPDEST PUSH2 0xA17 SWAP2 SWAP1 PUSH2 0xF1E JUMP JUMPDEST SWAP1 POP SWAP1 JUMP JUMPDEST PUSH1 0x0 PUSH2 0xA32 PUSH8 0x9047DD3E70CBACBA PUSH1 0xC0 SHL PUSH2 0x75C JUMP JUMPDEST PUSH2 0xA46 PUSH8 0xD9602869F1FFD328 PUSH1 0xC0 SHL PUSH2 0x75C JUMP JUMPDEST PUSH2 0xA5A PUSH8 0x2FA7CF89603ABBB9 PUSH1 0xC0 SHL PUSH2 0x75C JUMP JUMPDEST NUMBER SWAP1 POP SWAP1 JUMP JUMPDEST PUSH1 0x0 PUSH20 0xFFFFFFFFFFFFFFFFFFFFFFFFFFFFFFFFFFFFFFFF DUP3 AND SWAP1 POP SWAP2 SWAP1 POP JUMP JUMPDEST PUSH1 0x0 PUSH2 0xA8B DUP3 PUSH2 0xA60 JUMP JUMPDEST SWAP1 POP SWAP2 SWAP1 POP JUMP JUMPDEST PUSH2 0xA9B DUP2 PUSH2 0xA80 JUMP JUMPDEST DUP3 MSTORE POP POP JUMP JUMPDEST PUSH1 0x0 PUSH1 0x20 DUP3 ADD SWAP1 POP PUSH2 0xAB6 PUSH1 0x0 DUP4 ADD DUP5 PUSH2 0xA92 JUMP JUMPDEST SWAP3 SWAP2 POP POP JUMP JUMPDEST PUSH1 0x0 DUP2 ISZERO ISZERO SWAP1 POP SWAP2 SWAP1 POP JUMP JUMPDEST PUSH2 0xAD1 DUP2 PUSH2 0xABC JUMP JUMPDEST DUP3 MSTORE POP POP JUMP JUMPDEST PUSH1 0x0 PUSH1 0x20 DUP3 ADD SWAP1 POP PUSH2 0xAEC PUSH1 0x0 DUP4 ADD DUP5 PUSH2 0xAC8 JUMP JUMPDEST SWAP3 SWAP2 POP POP JUMP JUMPDEST PUSH1 0x0 DUP1 REVERT JUMPDEST PUSH1 0x0 DUP2 SWAP1 POP SWAP2 SWAP1 POP JUMP JUMPDEST PUSH2 0xB0A DUP2 PUSH2 0xAF7 JUMP JUMPDEST DUP2 EQ PUSH2 0xB15 JUMPI PUSH1 0x0 DUP1 REVERT JUMPDEST POP JUMP JUMPDEST PUSH1 0x0 DUP2 CALLDATALOAD SWAP1 POP PUSH2 0xB27 DUP2 PUSH2 0xB01 JUMP JUMPDEST SWAP3 SWAP2 POP POP JUMP JUMPDEST PUSH1 0x0 PUSH1 0x20 DUP3 DUP5 SUB SLT ISZERO PUSH2 0xB43 JUMPI PUSH2 0xB42 PUSH2 0xAF2 JUMP JUMPDEST JUMPDEST PUSH1 0x0 PUSH2 0xB51 DUP5 DUP3 DUP6 ADD PUSH2 0xB18 JUMP JUMPDEST SWAP2 POP POP SWAP3 SWAP2 POP POP JUMP JUMPDEST PUSH2 0xB63 DUP2 PUSH2 0xAF7 JUMP JUMPDEST DUP3 MSTORE POP POP JUMP JUMPDEST PUSH1 0x0 PUSH1 0x20 DUP3 ADD SWAP1 POP PUSH2 0xB7E PUSH1 0x0 DUP4 ADD DUP5 PUSH2 0xB5A JUMP JUMPDEST SWAP3 SWAP2 POP POP JUMP JUMPDEST PUSH1 0x0 DUP3 DUP3 MSTORE PUSH1 0x20 DUP3 ADD SWAP1 POP SWAP3 SWAP2 POP POP JUMP JUMPDEST PUSH32 0x41756374696F6E20697320636C6F736564000000000000000000000000000000 PUSH1 0x0 DUP3 ADD MSTORE POP JUMP JUMPDEST PUSH1 0x0 PUSH2 0xBCB PUSH1 0x11 DUP4 PUSH2 0xB84 JUMP JUMPDEST SWAP2 POP PUSH2 0xBD6 DUP3 PUSH2 0xB95 JUMP JUMPDEST PUSH1 0x20 DUP3 ADD SWAP1 POP SWAP2 SWAP1 POP JUMP JUMPDEST PUSH1 0x0 PUSH1 0x20 DUP3 ADD SWAP1 POP DUP2 DUP2 SUB PUSH1 0x0 DUP4 ADD MSTORE PUSH2 0xBFA DUP2 PUSH2 0xBBE JUMP JUMPDEST SWAP1 POP SWAP2 SWAP1 POP JUMP JUMPDEST PUSH32 0x596F7520616C726561647920626F7567687420746869732070726F6475637400 PUSH1 0x0 DUP3 ADD MSTORE POP JUMP JUMPDEST PUSH1 0x0 PUSH2 0xC37 PUSH1 0x1F DUP4 PUSH2 0xB84 JUMP JUMPDEST SWAP2 POP PUSH2 0xC42 DUP3 PUSH2 0xC01 JUMP JUMPDEST PUSH1 0x20 DUP3 ADD SWAP1 POP SWAP2 SWAP1 POP JUMP JUMPDEST PUSH1 0x0 PUSH1 0x20 DUP3 ADD SWAP1 POP DUP2 DUP2 SUB PUSH1 0x0 DUP4 ADD MSTORE PUSH2 0xC66 DUP2 PUSH2 0xC2A JUMP JUMPDEST SWAP1 POP SWAP2 SWAP1 POP JUMP JUMPDEST PUSH32 0x50726F6475637420616C726561647920736F6C64000000000000000000000000 PUSH1 0x0 DUP3 ADD MSTORE POP JUMP JUMPDEST PUSH1 0x0 PUSH2 0xCA3 PUSH1 0x14 DUP4 PUSH2 0xB84 JUMP JUMPDEST SWAP2 POP PUSH2 0xCAE DUP3 PUSH2 0xC6D JUMP JUMPDEST PUSH1 0x20 DUP3 ADD SWAP1 POP SWAP2 SWAP1 POP JUMP JUMPDEST PUSH1 0x0 PUSH1 0x20 DUP3 ADD SWAP1 POP DUP2 DUP2 SUB PUSH1 0x0 DUP4 ADD MSTORE PUSH2 0xCD2 DUP2 PUSH2 0xC96 JUMP JUMPDEST SWAP1 POP SWAP2 SWAP1 POP JUMP JUMPDEST PUSH32 0x4F776E65722063616E2774204269640000000000000000000000000000000000 PUSH1 0x0 DUP3 ADD MSTORE POP JUMP JUMPDEST PUSH1 0x0 PUSH2 0xD0F PUSH1 0xF DUP4 PUSH2 0xB84 JUMP JUMPDEST SWAP2 POP PUSH2 0xD1A DUP3 PUSH2 0xCD9 JUMP JUMPDEST PUSH1 0x20 DUP3 ADD SWAP1 POP SWAP2 SWAP1 POP JUMP JUMPDEST PUSH1 0x0 PUSH1 0x20 DUP3 ADD SWAP1 POP DUP2 DUP2 SUB PUSH1 0x0 DUP4 ADD MSTORE PUSH2 0xD3E DUP2 PUSH2 0xD02 JUMP JUMPDEST SWAP1 POP SWAP2 SWAP1 POP JUMP JUMPDEST PUSH32 0x57454920697320696E73756666696369656E7400000000000000000000000000 PUSH1 0x0 DUP3 ADD MSTORE POP JUMP JUMPDEST PUSH1 0x0 PUSH2 0xD7B PUSH1 0x13 DUP4 PUSH2 0xB84 JUMP JUMPDEST SWAP2 POP PUSH2 0xD86 DUP3 PUSH2 0xD45 JUMP JUMPDEST PUSH1 0x20 DUP3 ADD SWAP1 POP SWAP2 SWAP1 POP JUMP JUMPDEST PUSH1 0x0 PUSH1 0x20 DUP3 ADD SWAP1 POP DUP2 DUP2 SUB PUSH1 0x0 DUP4 ADD MSTORE PUSH2 0xDAA DUP2 PUSH2 0xD6E JUMP JUMPDEST SWAP1 POP SWAP2 SWAP1 POP JUMP JUMPDEST PUSH1 0x0 PUSH1 0x60 DUP3 ADD SWAP1 POP PUSH2 0xDC6 PUSH1 0x0 DUP4 ADD DUP7 PUSH2 0xA92 JUMP JUMPDEST PUSH2 0xDD3 PUSH1 0x20 DUP4 ADD DUP6 PUSH2 0xA92 JUMP JUMPDEST PUSH2 0xDE0 PUSH1 0x40 DUP4 ADD DUP5 PUSH2 0xB5A JUMP JUMPDEST SWAP5 SWAP4 POP POP POP POP JUMP JUMPDEST PUSH2 0xDF1 DUP2 PUSH2 0xABC JUMP JUMPDEST DUP2 EQ PUSH2 0xDFC JUMPI PUSH1 0x0 DUP1 REVERT JUMPDEST POP JUMP JUMPDEST PUSH1 0x0 DUP2 MLOAD SWAP1 POP PUSH2 0xE0E DUP2 PUSH2 0xDE8 JUMP JUMPDEST SWAP3 SWAP2 POP POP JUMP JUMPDEST PUSH1 0x0 PUSH1 0x20 DUP3 DUP5 SUB SLT ISZERO PUSH2 0xE2A JUMPI PUSH2 0xE29 PUSH2 0xAF2 JUMP JUMPDEST JUMPDEST PUSH1 0x0 PUSH2 0xE38 DUP5 DUP3 DUP6 ADD PUSH2 0xDFF JUMP JUMPDEST SWAP2 POP POP SWAP3 SWAP2 POP POP JUMP JUMPDEST PUSH32 0x6661696C656420746F2073656E64000000000000000000000000000000000000 PUSH1 0x0 DUP3 ADD MSTORE POP JUMP JUMPDEST PUSH1 0x0 PUSH2 0xE77 PUSH1 0xE DUP4 PUSH2 0xB84 JUMP JUMPDEST SWAP2 POP PUSH2 0xE82 DUP3 PUSH2 0xE41 JUMP JUMPDEST PUSH1 0x20 DUP3 ADD SWAP1 POP SWAP2 SWAP1 POP JUMP JUMPDEST PUSH1 0x0 PUSH1 0x20 DUP3 ADD SWAP1 POP DUP2 DUP2 SUB PUSH1 0x0 DUP4 ADD MSTORE PUSH2 0xEA6 DUP2 PUSH2 0xE6A JUMP JUMPDEST SWAP1 POP SWAP2 SWAP1 POP JUMP JUMPDEST PUSH32 0x4E487B7100000000000000000000000000000000000000000000000000000000 PUSH1 0x0 MSTORE PUSH1 0x11 PUSH1 0x4 MSTORE PUSH1 0x24 PUSH1 0x0 REVERT JUMPDEST PUSH1 0x0 PUSH2 0xEE7 DUP3 PUSH2 0xAF7 JUMP JUMPDEST SWAP2 POP PUSH2 0xEF2 DUP4 PUSH2 0xAF7 JUMP JUMPDEST SWAP3 POP DUP3 DUP3 MUL PUSH2 0xF00 DUP2 PUSH2 0xAF7 JUMP JUMPDEST SWAP2 POP DUP3 DUP3 DIV DUP5 EQ DUP4 ISZERO OR PUSH2 0xF17 JUMPI PUSH2 0xF16 PUSH2 0xEAD JUMP JUMPDEST JUMPDEST POP SWAP3 SWAP2 POP POP JUMP JUMPDEST PUSH1 0x0 PUSH2 0xF29 DUP3 PUSH2 0xAF7 JUMP JUMPDEST SWAP2 POP PUSH2 0xF34 DUP4 PUSH2 0xAF7 JUMP JUMPDEST SWAP3 POP DUP3 DUP3 SUB SWAP1 POP DUP2 DUP2 GT ISZERO PUSH2 0xF4C JUMPI PUSH2 0xF4B PUSH2 0xEAD JUMP JUMPDEST JUMPDEST SWAP3 SWAP2 POP POP JUMP JUMPDEST PUSH2 0xF5B DUP2 PUSH2 0xA80 JUMP JUMPDEST DUP2 EQ PUSH2 0xF66 JUMPI PUSH1 0x0 DUP1 REVERT JUMPDEST POP JUMP JUMPDEST PUSH1 0x0 DUP2 MLOAD SWAP1 POP PUSH2 0xF78 DUP2 PUSH2 0xF52 JUMP JUMPDEST SWAP3 SWAP2 POP POP JUMP JUMPDEST PUSH1 0x0 PUSH1 0x20 DUP3 DUP5 SUB SLT ISZERO PUSH2 0xF94 JUMPI PUSH2 0xF93 PUSH2 0xAF2 JUMP JUMPDEST JUMPDEST PUSH1 0x0 PUSH2 0xFA2 DUP5 DUP3 DUP6 ADD PUSH2 0xF69 JUMP JUMPDEST SWAP2 POP POP SWAP3 SWAP2 POP POP JUMP INVALID LOG2 PUSH5 0x6970667358 0x22 SLT KECCAK256 0xE PUSH13 0xEA8FD02103C94876DEDDD532D4 0xD9 0xD3 SWAP3 REVERT GT LOG3 CREATE STATICCALL SWAP11 PUSH25 0x5BC3EA6576ED0964736F6C6343000811003300000000000000 "},"methodIdentifiers":{"auctionStatusOpen()":"0b48ab8f","bid(uint256)":"454a2ab3","buyer()":"7150d8ae","currentPrice()":"9d1b464a","seller()":"08551a53"}}}}}