{"contracts/NFTDutchAuction_ERC20Bids.sol":{"NFTDutchAuction_ERC20Bids":{"abi":[{"inputs":[{"internalType":"address","name":"erc20TokenAddress","type":"address"},{"internalType":"address","name":"erc721TokenAddress","type":"address"},{"internalType":"uint256","name":"_nftTokenId","type":"uint256"},{"internalType":"uint256","name":"_reservePrice","type":"uint256"},{"internalType":"uint256","name":"_numBlocksAuctionOpen","type":"uint256"},{"internalType":"uint256","name":"_offerPriceDecrement","type":"uint256"}],"stateMutability":"nonpayable","type":"constructor"},{"inputs":[],"name":"addressOfToken","outputs":[{"internalType":"contract IMyToken","name":"","type":"address"}],"stateMutability":"view","type":"function"},{"inputs":[],"name":"auctionStatusOpen","outputs":[{"internalType":"bool","name":"","type":"bool"}],"stateMutability":"view","type":"function"},{"inputs":[{"internalType":"uint256","name":"amount","type":"uint256"}],"name":"bid","outputs":[],"stateMutability":"nonpayable","type":"function"},{"inputs":[],"name":"blockDifference","outputs":[{"internalType":"uint256","name":"","type":"uint256"}],"stateMutability":"view","type":"function"},{"inputs":[],"name":"buyer","outputs":[{"internalType":"address","name":"","type":"address"}],"stateMutability":"view","type":"function"},{"inputs":[],"name":"currentBlock","outputs":[{"internalType":"uint256","name":"","type":"uint256"}],"stateMutability":"view","type":"function"},{"inputs":[],"name":"currentPrice","outputs":[{"internalType":"uint256","name":"","type":"uint256"}],"stateMutability":"view","type":"function"},{"inputs":[],"name":"initialPrice","outputs":[{"internalType":"uint256","name":"","type":"uint256"}],"stateMutability":"view","type":"function"},{"inputs":[],"name":"isAuctionOpen","outputs":[{"internalType":"bool","name":"","type":"bool"}],"stateMutability":"view","type":"function"},{"inputs":[],"name":"nft_Address","outputs":[{"internalType":"contract IMyNFT","name":"","type":"address"}],"stateMutability":"view","type":"function"},{"inputs":[],"name":"nft_Id","outputs":[{"internalType":"uint256","name":"","type":"uint256"}],"stateMutability":"view","type":"function"},{"inputs":[],"name":"numBlocksAuctionOpen","outputs":[{"internalType":"uint256","name":"","type":"uint256"}],"stateMutability":"view","type":"function"},{"inputs":[],"name":"offerPriceDecrement","outputs":[{"internalType":"uint256","name":"","type":"uint256"}],"stateMutability":"view","type":"function"},{"inputs":[],"name":"reservePrice","outputs":[{"internalType":"uint256","name":"","type":"uint256"}],"stateMutability":"view","type":"function"},{"inputs":[],"name":"sellerAccountAddress","outputs":[{"internalType":"address","name":"","type":"address"}],"stateMutability":"view","type":"function"},{"inputs":[],"name":"startingBlock","outputs":[{"internalType":"uint256","name":"","type":"uint256"}],"stateMutability":"view","type":"function"}],"evm":{"bytecode":{"linkReferences":{},"object":"60806040523480156200001157600080fd5b506040516200186138038062001861833981810160405281019062000037919062000347565b620000536750d2091bbfa28dcf60c01b6200029f60201b60201c565b6200006f678a7167dc9fd8a1ec60c01b6200029f60201b60201c565b836000819055506200009267731b74dadecd99cc60c01b6200029f60201b60201c565b84600160006101000a81548173ffffffffffffffffffffffffffffffffffffffff021916908373ffffffffffffffffffffffffffffffffffffffff160217905550620000ef673da83d5c3670d2d460c01b6200029f60201b60201c565b85600260006101000a81548173ffffffffffffffffffffffffffffffffffffffff021916908373ffffffffffffffffffffffffffffffffffffffff1602179055506200014c67e1997e0052fd6bb460c01b6200029f60201b60201c565b33600560006101000a81548173ffffffffffffffffffffffffffffffffffffffff021916908373ffffffffffffffffffffffffffffffffffffffff160217905550620001a967c10f36fcdb52523060c01b6200029f60201b60201c565b43600881905550620001cc676703e87e18dba8ca60c01b6200029f60201b60201c565b6001600960146101000a81548160ff021916908315150217905550620002036764e87b954376021560c01b6200029f60201b60201c565b826003819055506200022667ed0aae5a41db617360c01b6200029f60201b60201c565b8160048190555062000249670507b6570d67a52060c01b6200029f60201b60201c565b806006819055506200026c67f6c4d09bf2d42f1260c01b6200029f60201b60201c565b6006546004546200027e919062000412565b6003546200028d91906200045d565b60078190555050505050505062000498565b50565b600080fd5b600073ffffffffffffffffffffffffffffffffffffffff82169050919050565b6000620002d482620002a7565b9050919050565b620002e681620002c7565b8114620002f257600080fd5b50565b6000815190506200030681620002db565b92915050565b6000819050919050565b62000321816200030c565b81146200032d57600080fd5b50565b600081519050620003418162000316565b92915050565b60008060008060008060c08789031215620003675762000366620002a2565b5b60006200037789828a01620002f5565b96505060206200038a89828a01620002f5565b95505060406200039d89828a0162000330565b9450506060620003b089828a0162000330565b9350506080620003c389828a0162000330565b92505060a0620003d689828a0162000330565b9150509295509295509295565b7f4e487b7100000000000000000000000000000000000000000000000000000000600052601160045260246000fd5b60006200041f826200030c565b91506200042c836200030c565b92508282026200043c816200030c565b91508282048414831517620004565762000455620003e3565b5b5092915050565b60006200046a826200030c565b915062000477836200030c565b9250828201905080821115620004925762000491620003e3565b5b92915050565b6113b980620004a86000396000f3fe608060405234801561001057600080fd5b50600436106101005760003560e01c80637150d8ae11610097578063d91c98d311610066578063d91c98d31461026b578063db2e1eed14610289578063e12ed13c146102a7578063f5734ae2146102c557610100565b80637150d8ae146101f35780639d1b464a14610211578063cca414271461022f578063d3642a881461024d57610100565b8063323b935f116100d3578063323b935f1461017d578063454a2ab31461019b5780634a0f97e8146101b75780636ee6cb9f146101d557610100565b80630b48ab8f146101055780631d0806ae14610123578063233aec66146101415780633103ea621461015f575b600080fd5b61010d6102e3565b60405161011a9190610d9d565b60405180910390f35b61012b6102f6565b6040516101389190610dd1565b60405180910390f35b6101496102fc565b6040516101569190610dd1565b60405180910390f35b610167610354565b6040516101749190610dd1565b60405180910390f35b61018561035a565b6040516101929190610e2d565b60405180910390f35b6101b560048036038101906101b09190610e79565b610380565b005b6101bf610921565b6040516101cc9190610f05565b60405180910390f35b6101dd610947565b6040516101ea9190610dd1565b60405180910390f35b6101fb61094d565b6040516102089190610e2d565b60405180910390f35b610219610973565b6040516102269190610dd1565b60405180910390f35b610237610a50565b6040516102449190610d9d565b60405180910390f35b610255610adc565b6040516102629190610dd1565b60405180910390f35b610273610ae2565b6040516102809190610dd1565b60405180910390f35b610291610ae8565b60405161029e9190610dd1565b60405180910390f35b6102af610aee565b6040516102bc9190610dd1565b60405180910390f35b6102cd610b32565b6040516102da9190610f41565b60405180910390f35b600960149054906101000a900460ff1681565b60075481565b600061031267f6b0b7da924cea6f60c01b610b58565b610326679047dd3e70cbacba60c01b610b58565b61033a67d9602869f1ffd32860c01b610b58565b600854610345610aee565b61034f9190610f8b565b905090565b60045481565b600560009054906101000a900473ffffffffffffffffffffffffffffffffffffffff1681565b61039467aac5ec1defc6726e60c01b610b58565b6103a86747bf3c26608be73660c01b610b58565b6103bc670ea34660a70afb1a60c01b610b58565b6103d0674b7c3b925079daf360c01b610b58565b6103d8610a50565b610417576040517f08c379a000000000000000000000000000000000000000000000000000000000815260040161040e9061101c565b60405180910390fd5b61042b67f3b4409255c972a560c01b610b58565b61043f67b0f2eb9fe1df832660c01b610b58565b61045367c505fbfcb5630d6460c01b610b58565b61046767c74e2960b4b6de0060c01b610b58565b600960009054906101000a900473ffffffffffffffffffffffffffffffffffffffff1673ffffffffffffffffffffffffffffffffffffffff163373ffffffffffffffffffffffffffffffffffffffff16036104f7576040517f08c379a00000000000000000000000000000000000000000000000000000000081526004016104ee90611088565b60405180910390fd5b61050b6784fe95d78b68aada60c01b610b58565b61051f673d9f554bdc6819ad60c01b610b58565b61053367d22d91eb9230bcce60c01b610b58565b610547674781c7fe9e45d63460c01b610b58565b600073ffffffffffffffffffffffffffffffffffffffff16600960009054906101000a900473ffffffffffffffffffffffffffffffffffffffff1673ffffffffffffffffffffffffffffffffffffffff16146105d8576040517f08c379a00000000000000000000000000000000000000000000000000000000081526004016105cf906110f4565b60405180910390fd5b6105ec67b9c1141f6417773a60c01b610b58565b61060067e15c5a9c3cecbcc460c01b610b58565b610614671636a0e43bab30ce60c01b610b58565b610628672e746c40f903485b60c01b610b58565b600560009054906101000a900473ffffffffffffffffffffffffffffffffffffffff1673ffffffffffffffffffffffffffffffffffffffff163373ffffffffffffffffffffffffffffffffffffffff16036106b8576040517f08c379a00000000000000000000000000000000000000000000000000000000081526004016106af90611160565b60405180910390fd5b6106cc67671b3d3fd60380c460c01b610b58565b6106e0671b421329498ea25760c01b610b58565b6106f46711a50f7a7259166760c01b610b58565b6107086764bae29784cfa38460c01b610b58565b610710610973565b811015610752576040517f08c379a0000000000000000000000000000000000000000000000000000000008152600401610749906111cc565b60405180910390fd5b61076667d74f6e891103a29960c01b610b58565b61077a67f36c6107cbdc1f1e60c01b610b58565b61078e670ce193515a6f32d560c01b610b58565b6000600260009054906101000a900473ffffffffffffffffffffffffffffffffffffffff1673ffffffffffffffffffffffffffffffffffffffff166323b872dd33600560009054906101000a900473ffffffffffffffffffffffffffffffffffffffff166107fa610973565b6040518463ffffffff1660e01b8152600401610818939291906111ec565b6020604051808303816000875af1158015610837573d6000803e3d6000fd5b505050506040513d601f19601f8201168201806040525081019061085b919061124f565b9050610871676bf509bdad62268860c01b610b58565b610885676f467ff81c884ad360c01b610b58565b61089866c701b06afb696560c01b610b58565b806108d8576040517f08c379a00000000000000000000000000000000000000000000000000000000081526004016108cf906112c8565b60405180910390fd5b6108ec67e9c11d962825915660c01b610b58565b610900676b90bca95a0fd30660c01b610b58565b610914672950900d7d7fe1a560c01b610b58565b61091d33610b5b565b5050565b600260009054906101000a900473ffffffffffffffffffffffffffffffffffffffff1681565b60005481565b600960009054906101000a900473ffffffffffffffffffffffffffffffffffffffff1681565b600061098967b1a1251a1b1709a760c01b610b58565b61099d674b7f861d9b4c896a60c01b610b58565b6109b16740a5600f60ba58be60c01b610b58565b60006109bb6102fc565b90506109d1674779254404e22da660c01b610b58565b6109e5670430c4b14da5f5db60c01b610b58565b6004548110158015610a075750610a06675d686a88aa00b7e660c01b610d70565b5b80610a225750610a21674b0d9e13fdf89da360c01b610d7b565b5b610a465760065481610a3491906112e8565b600754610a419190610f8b565b610a4a565b6003545b91505090565b6000610a66672fa7cf89603abbb960c01b610b58565b610a7a6758a8b6030326883060c01b610b58565b610a8e67a657c1b2c2e65d8460c01b610b58565b6000610a986102fc565b9050610aae67b85fcdfdcb24bf6860c01b610b58565b610ac2676b90c93a809144ce60c01b610b58565b6004548111158015610ad657506008544310155b91505090565b60065481565b60085481565b60035481565b6000610b04670334f419580e84dc60c01b610b58565b610b18670621d74b57a8bcae60c01b610b58565b610b2c675490b00b48a594b260c01b610b58565b43905090565b600160009054906101000a900473ffffffffffffffffffffffffffffffffffffffff1681565b50565b610b6f67b2fc7ca14f1d981660c01b610b58565b610b83671bd50309c223e8f460c01b610b58565b610b9767b953fd991b75b32160c01b610b58565b600160009054906101000a900473ffffffffffffffffffffffffffffffffffffffff1673ffffffffffffffffffffffffffffffffffffffff166323b872dd600560009054906101000a900473ffffffffffffffffffffffffffffffffffffffff16836000546040518463ffffffff1660e01b8152600401610c1a939291906111ec565b600060405180830381600087803b158015610c3457600080fd5b505af1158015610c48573d6000803e3d6000fd5b50505050610c6067195bc137235811ab60c01b610b58565b600160009054906101000a900473ffffffffffffffffffffffffffffffffffffffff1673ffffffffffffffffffffffffffffffffffffffff16636352211e6000546040518263ffffffff1660e01b8152600401610cbd9190610dd1565b602060405180830381865afa158015610cda573d6000803e3d6000fd5b505050506040513d601f19601f82011682018060405250810190610cfe9190611356565b600960006101000a81548173ffffffffffffffffffffffffffffffffffffffff021916908373ffffffffffffffffffffffffffffffffffffffff160217905550610d526721d749d596bd0d3460c01b610b58565b6000600960146101000a81548160ff02191690831515021790555050565b600060019050919050565b6000919050565b60008115159050919050565b610d9781610d82565b82525050565b6000602082019050610db26000830184610d8e565b92915050565b6000819050919050565b610dcb81610db8565b82525050565b6000602082019050610de66000830184610dc2565b92915050565b600073ffffffffffffffffffffffffffffffffffffffff82169050919050565b6000610e1782610dec565b9050919050565b610e2781610e0c565b82525050565b6000602082019050610e426000830184610e1e565b92915050565b600080fd5b610e5681610db8565b8114610e6157600080fd5b50565b600081359050610e7381610e4d565b92915050565b600060208284031215610e8f57610e8e610e48565b5b6000610e9d84828501610e64565b91505092915050565b6000819050919050565b6000610ecb610ec6610ec184610dec565b610ea6565b610dec565b9050919050565b6000610edd82610eb0565b9050919050565b6000610eef82610ed2565b9050919050565b610eff81610ee4565b82525050565b6000602082019050610f1a6000830184610ef6565b92915050565b6000610f2b82610ed2565b9050919050565b610f3b81610f20565b82525050565b6000602082019050610f566000830184610f32565b92915050565b7f4e487b7100000000000000000000000000000000000000000000000000000000600052601160045260246000fd5b6000610f9682610db8565b9150610fa183610db8565b9250828203905081811115610fb957610fb8610f5c565b5b92915050565b600082825260208201905092915050565b7f41756374696f6e20697320636c6f736564000000000000000000000000000000600082015250565b6000611006601183610fbf565b915061101182610fd0565b602082019050919050565b6000602082019050818103600083015261103581610ff9565b9050919050565b7f596f7520616c726561647920626f7567687420746869732070726f6475637400600082015250565b6000611072601f83610fbf565b915061107d8261103c565b602082019050919050565b600060208201905081810360008301526110a181611065565b9050919050565b7f50726f6475637420616c726561647920736f6c64000000000000000000000000600082015250565b60006110de601483610fbf565b91506110e9826110a8565b602082019050919050565b6000602082019050818103600083015261110d816110d1565b9050919050565b7f4f776e65722063616e2774204269640000000000000000000000000000000000600082015250565b600061114a600f83610fbf565b915061115582611114565b602082019050919050565b600060208201905081810360008301526111798161113d565b9050919050565b7f45544820697320696e73756666696369656e7400000000000000000000000000600082015250565b60006111b6601383610fbf565b91506111c182611180565b602082019050919050565b600060208201905081810360008301526111e5816111a9565b9050919050565b60006060820190506112016000830186610e1e565b61120e6020830185610e1e565b61121b6040830184610dc2565b949350505050565b61122c81610d82565b811461123757600080fd5b50565b60008151905061124981611223565b92915050565b60006020828403121561126557611264610e48565b5b60006112738482850161123a565b91505092915050565b7f4661696c656420746f2073656e6420455243323020746f6b656e730000000000600082015250565b60006112b2601b83610fbf565b91506112bd8261127c565b602082019050919050565b600060208201905081810360008301526112e1816112a5565b9050919050565b60006112f382610db8565b91506112fe83610db8565b925082820261130c81610db8565b9150828204841483151761132357611322610f5c565b5b5092915050565b61133381610e0c565b811461133e57600080fd5b50565b6000815190506113508161132a565b92915050565b60006020828403121561136c5761136b610e48565b5b600061137a84828501611341565b9150509291505056fea2646970667358221220aea7600eebb75d0de891b46cd4cd55278dad018a36082627fe2542faff98b83d64736f6c63430008110033","opcodes":"PUSH1 0x80 PUSH1 0x40 MSTORE CALLVALUE DUP1 ISZERO PUSH3 0x11 JUMPI PUSH1 0x0 DUP1 REVERT JUMPDEST POP PUSH1 0x40 MLOAD PUSH3 0x1861 CODESIZE SUB DUP1 PUSH3 0x1861 DUP4 CODECOPY DUP2 DUP2 ADD PUSH1 0x40 MSTORE DUP2 ADD SWAP1 PUSH3 0x37 SWAP2 SWAP1 PUSH3 0x347 JUMP JUMPDEST PUSH3 0x53 PUSH8 0x50D2091BBFA28DCF PUSH1 0xC0 SHL PUSH3 0x29F PUSH1 0x20 SHL PUSH1 0x20 SHR JUMP JUMPDEST PUSH3 0x6F PUSH8 0x8A7167DC9FD8A1EC PUSH1 0xC0 SHL PUSH3 0x29F PUSH1 0x20 SHL PUSH1 0x20 SHR JUMP JUMPDEST DUP4 PUSH1 0x0 DUP2 SWAP1 SSTORE POP PUSH3 0x92 PUSH8 0x731B74DADECD99CC PUSH1 0xC0 SHL PUSH3 0x29F PUSH1 0x20 SHL PUSH1 0x20 SHR JUMP JUMPDEST DUP5 PUSH1 0x1 PUSH1 0x0 PUSH2 0x100 EXP DUP2 SLOAD DUP2 PUSH20 0xFFFFFFFFFFFFFFFFFFFFFFFFFFFFFFFFFFFFFFFF MUL NOT AND SWAP1 DUP4 PUSH20 0xFFFFFFFFFFFFFFFFFFFFFFFFFFFFFFFFFFFFFFFF AND MUL OR SWAP1 SSTORE POP PUSH3 0xEF PUSH8 0x3DA83D5C3670D2D4 PUSH1 0xC0 SHL PUSH3 0x29F PUSH1 0x20 SHL PUSH1 0x20 SHR JUMP JUMPDEST DUP6 PUSH1 0x2 PUSH1 0x0 PUSH2 0x100 EXP DUP2 SLOAD DUP2 PUSH20 0xFFFFFFFFFFFFFFFFFFFFFFFFFFFFFFFFFFFFFFFF MUL NOT AND SWAP1 DUP4 PUSH20 0xFFFFFFFFFFFFFFFFFFFFFFFFFFFFFFFFFFFFFFFF AND MUL OR SWAP1 SSTORE POP PUSH3 0x14C PUSH8 0xE1997E0052FD6BB4 PUSH1 0xC0 SHL PUSH3 0x29F PUSH1 0x20 SHL PUSH1 0x20 SHR JUMP JUMPDEST CALLER PUSH1 0x5 PUSH1 0x0 PUSH2 0x100 EXP DUP2 SLOAD DUP2 PUSH20 0xFFFFFFFFFFFFFFFFFFFFFFFFFFFFFFFFFFFFFFFF MUL NOT AND SWAP1 DUP4 PUSH20 0xFFFFFFFFFFFFFFFFFFFFFFFFFFFFFFFFFFFFFFFF AND MUL OR SWAP1 SSTORE POP PUSH3 0x1A9 PUSH8 0xC10F36FCDB525230 PUSH1 0xC0 SHL PUSH3 0x29F PUSH1 0x20 SHL PUSH1 0x20 SHR JUMP JUMPDEST NUMBER PUSH1 0x8 DUP2 SWAP1 SSTORE POP PUSH3 0x1CC PUSH8 0x6703E87E18DBA8CA PUSH1 0xC0 SHL PUSH3 0x29F PUSH1 0x20 SHL PUSH1 0x20 SHR JUMP JUMPDEST PUSH1 0x1 PUSH1 0x9 PUSH1 0x14 PUSH2 0x100 EXP DUP2 SLOAD DUP2 PUSH1 0xFF MUL NOT AND SWAP1 DUP4 ISZERO ISZERO MUL OR SWAP1 SSTORE POP PUSH3 0x203 PUSH8 0x64E87B9543760215 PUSH1 0xC0 SHL PUSH3 0x29F PUSH1 0x20 SHL PUSH1 0x20 SHR JUMP JUMPDEST DUP3 PUSH1 0x3 DUP2 SWAP1 SSTORE POP PUSH3 0x226 PUSH8 0xED0AAE5A41DB6173 PUSH1 0xC0 SHL PUSH3 0x29F PUSH1 0x20 SHL PUSH1 0x20 SHR JUMP JUMPDEST DUP2 PUSH1 0x4 DUP2 SWAP1 SSTORE POP PUSH3 0x249 PUSH8 0x507B6570D67A520 PUSH1 0xC0 SHL PUSH3 0x29F PUSH1 0x20 SHL PUSH1 0x20 SHR JUMP JUMPDEST DUP1 PUSH1 0x6 DUP2 SWAP1 SSTORE POP PUSH3 0x26C PUSH8 0xF6C4D09BF2D42F12 PUSH1 0xC0 SHL PUSH3 0x29F PUSH1 0x20 SHL PUSH1 0x20 SHR JUMP JUMPDEST PUSH1 0x6 SLOAD PUSH1 0x4 SLOAD PUSH3 0x27E SWAP2 SWAP1 PUSH3 0x412 JUMP JUMPDEST PUSH1 0x3 SLOAD PUSH3 0x28D SWAP2 SWAP1 PUSH3 0x45D JUMP JUMPDEST PUSH1 0x7 DUP2 SWAP1 SSTORE POP POP POP POP POP POP POP PUSH3 0x498 JUMP JUMPDEST POP JUMP JUMPDEST PUSH1 0x0 DUP1 REVERT JUMPDEST PUSH1 0x0 PUSH20 0xFFFFFFFFFFFFFFFFFFFFFFFFFFFFFFFFFFFFFFFF DUP3 AND SWAP1 POP SWAP2 SWAP1 POP JUMP JUMPDEST PUSH1 0x0 PUSH3 0x2D4 DUP3 PUSH3 0x2A7 JUMP JUMPDEST SWAP1 POP SWAP2 SWAP1 POP JUMP JUMPDEST PUSH3 0x2E6 DUP2 PUSH3 0x2C7 JUMP JUMPDEST DUP2 EQ PUSH3 0x2F2 JUMPI PUSH1 0x0 DUP1 REVERT JUMPDEST POP JUMP JUMPDEST PUSH1 0x0 DUP2 MLOAD SWAP1 POP PUSH3 0x306 DUP2 PUSH3 0x2DB JUMP JUMPDEST SWAP3 SWAP2 POP POP JUMP JUMPDEST PUSH1 0x0 DUP2 SWAP1 POP SWAP2 SWAP1 POP JUMP JUMPDEST PUSH3 0x321 DUP2 PUSH3 0x30C JUMP JUMPDEST DUP2 EQ PUSH3 0x32D JUMPI PUSH1 0x0 DUP1 REVERT JUMPDEST POP JUMP JUMPDEST PUSH1 0x0 DUP2 MLOAD SWAP1 POP PUSH3 0x341 DUP2 PUSH3 0x316 JUMP JUMPDEST SWAP3 SWAP2 POP POP JUMP JUMPDEST PUSH1 0x0 DUP1 PUSH1 0x0 DUP1 PUSH1 0x0 DUP1 PUSH1 0xC0 DUP8 DUP10 SUB SLT ISZERO PUSH3 0x367 JUMPI PUSH3 0x366 PUSH3 0x2A2 JUMP JUMPDEST JUMPDEST PUSH1 0x0 PUSH3 0x377 DUP10 DUP3 DUP11 ADD PUSH3 0x2F5 JUMP JUMPDEST SWAP7 POP POP PUSH1 0x20 PUSH3 0x38A DUP10 DUP3 DUP11 ADD PUSH3 0x2F5 JUMP JUMPDEST SWAP6 POP POP PUSH1 0x40 PUSH3 0x39D DUP10 DUP3 DUP11 ADD PUSH3 0x330 JUMP JUMPDEST SWAP5 POP POP PUSH1 0x60 PUSH3 0x3B0 DUP10 DUP3 DUP11 ADD PUSH3 0x330 JUMP JUMPDEST SWAP4 POP POP PUSH1 0x80 PUSH3 0x3C3 DUP10 DUP3 DUP11 ADD PUSH3 0x330 JUMP JUMPDEST SWAP3 POP POP PUSH1 0xA0 PUSH3 0x3D6 DUP10 DUP3 DUP11 ADD PUSH3 0x330 JUMP JUMPDEST SWAP2 POP POP SWAP3 SWAP6 POP SWAP3 SWAP6 POP SWAP3 SWAP6 JUMP JUMPDEST PUSH32 0x4E487B7100000000000000000000000000000000000000000000000000000000 PUSH1 0x0 MSTORE PUSH1 0x11 PUSH1 0x4 MSTORE PUSH1 0x24 PUSH1 0x0 REVERT JUMPDEST PUSH1 0x0 PUSH3 0x41F DUP3 PUSH3 0x30C JUMP JUMPDEST SWAP2 POP PUSH3 0x42C DUP4 PUSH3 0x30C JUMP JUMPDEST SWAP3 POP DUP3 DUP3 MUL PUSH3 0x43C DUP2 PUSH3 0x30C JUMP JUMPDEST SWAP2 POP DUP3 DUP3 DIV DUP5 EQ DUP4 ISZERO OR PUSH3 0x456 JUMPI PUSH3 0x455 PUSH3 0x3E3 JUMP JUMPDEST JUMPDEST POP SWAP3 SWAP2 POP POP JUMP JUMPDEST PUSH1 0x0 PUSH3 0x46A DUP3 PUSH3 0x30C JUMP JUMPDEST SWAP2 POP PUSH3 0x477 DUP4 PUSH3 0x30C JUMP JUMPDEST SWAP3 POP DUP3 DUP3 ADD SWAP1 POP DUP1 DUP3 GT ISZERO PUSH3 0x492 JUMPI PUSH3 0x491 PUSH3 0x3E3 JUMP JUMPDEST JUMPDEST SWAP3 SWAP2 POP POP JUMP JUMPDEST PUSH2 0x13B9 DUP1 PUSH3 0x4A8 PUSH1 0x0 CODECOPY PUSH1 0x0 RETURN INVALID PUSH1 0x80 PUSH1 0x40 MSTORE CALLVALUE DUP1 ISZERO PUSH2 0x10 JUMPI PUSH1 0x0 DUP1 REVERT JUMPDEST POP PUSH1 0x4 CALLDATASIZE LT PUSH2 0x100 JUMPI PUSH1 0x0 CALLDATALOAD PUSH1 0xE0 SHR DUP1 PUSH4 0x7150D8AE GT PUSH2 0x97 JUMPI DUP1 PUSH4 0xD91C98D3 GT PUSH2 0x66 JUMPI DUP1 PUSH4 0xD91C98D3 EQ PUSH2 0x26B JUMPI DUP1 PUSH4 0xDB2E1EED EQ PUSH2 0x289 JUMPI DUP1 PUSH4 0xE12ED13C EQ PUSH2 0x2A7 JUMPI DUP1 PUSH4 0xF5734AE2 EQ PUSH2 0x2C5 JUMPI PUSH2 0x100 JUMP JUMPDEST DUP1 PUSH4 0x7150D8AE EQ PUSH2 0x1F3 JUMPI DUP1 PUSH4 0x9D1B464A EQ PUSH2 0x211 JUMPI DUP1 PUSH4 0xCCA41427 EQ PUSH2 0x22F JUMPI DUP1 PUSH4 0xD3642A88 EQ PUSH2 0x24D JUMPI PUSH2 0x100 JUMP JUMPDEST DUP1 PUSH4 0x323B935F GT PUSH2 0xD3 JUMPI DUP1 PUSH4 0x323B935F EQ PUSH2 0x17D JUMPI DUP1 PUSH4 0x454A2AB3 EQ PUSH2 0x19B JUMPI DUP1 PUSH4 0x4A0F97E8 EQ PUSH2 0x1B7 JUMPI DUP1 PUSH4 0x6EE6CB9F EQ PUSH2 0x1D5 JUMPI PUSH2 0x100 JUMP JUMPDEST DUP1 PUSH4 0xB48AB8F EQ PUSH2 0x105 JUMPI DUP1 PUSH4 0x1D0806AE EQ PUSH2 0x123 JUMPI DUP1 PUSH4 0x233AEC66 EQ PUSH2 0x141 JUMPI DUP1 PUSH4 0x3103EA62 EQ PUSH2 0x15F JUMPI JUMPDEST PUSH1 0x0 DUP1 REVERT JUMPDEST PUSH2 0x10D PUSH2 0x2E3 JUMP JUMPDEST PUSH1 0x40 MLOAD PUSH2 0x11A SWAP2 SWAP1 PUSH2 0xD9D JUMP JUMPDEST PUSH1 0x40 MLOAD DUP1 SWAP2 SUB SWAP1 RETURN JUMPDEST PUSH2 0x12B PUSH2 0x2F6 JUMP JUMPDEST PUSH1 0x40 MLOAD PUSH2 0x138 SWAP2 SWAP1 PUSH2 0xDD1 JUMP JUMPDEST PUSH1 0x40 MLOAD DUP1 SWAP2 SUB SWAP1 RETURN JUMPDEST PUSH2 0x149 PUSH2 0x2FC JUMP JUMPDEST PUSH1 0x40 MLOAD PUSH2 0x156 SWAP2 SWAP1 PUSH2 0xDD1 JUMP JUMPDEST PUSH1 0x40 MLOAD DUP1 SWAP2 SUB SWAP1 RETURN JUMPDEST PUSH2 0x167 PUSH2 0x354 JUMP JUMPDEST PUSH1 0x40 MLOAD PUSH2 0x174 SWAP2 SWAP1 PUSH2 0xDD1 JUMP JUMPDEST PUSH1 0x40 MLOAD DUP1 SWAP2 SUB SWAP1 RETURN JUMPDEST PUSH2 0x185 PUSH2 0x35A JUMP JUMPDEST PUSH1 0x40 MLOAD PUSH2 0x192 SWAP2 SWAP1 PUSH2 0xE2D JUMP JUMPDEST PUSH1 0x40 MLOAD DUP1 SWAP2 SUB SWAP1 RETURN JUMPDEST PUSH2 0x1B5 PUSH1 0x4 DUP1 CALLDATASIZE SUB DUP2 ADD SWAP1 PUSH2 0x1B0 SWAP2 SWAP1 PUSH2 0xE79 JUMP JUMPDEST PUSH2 0x380 JUMP JUMPDEST STOP JUMPDEST PUSH2 0x1BF PUSH2 0x921 JUMP JUMPDEST PUSH1 0x40 MLOAD PUSH2 0x1CC SWAP2 SWAP1 PUSH2 0xF05 JUMP JUMPDEST PUSH1 0x40 MLOAD DUP1 SWAP2 SUB SWAP1 RETURN JUMPDEST PUSH2 0x1DD PUSH2 0x947 JUMP JUMPDEST PUSH1 0x40 MLOAD PUSH2 0x1EA SWAP2 SWAP1 PUSH2 0xDD1 JUMP JUMPDEST PUSH1 0x40 MLOAD DUP1 SWAP2 SUB SWAP1 RETURN JUMPDEST PUSH2 0x1FB PUSH2 0x94D JUMP JUMPDEST PUSH1 0x40 MLOAD PUSH2 0x208 SWAP2 SWAP1 PUSH2 0xE2D JUMP JUMPDEST PUSH1 0x40 MLOAD DUP1 SWAP2 SUB SWAP1 RETURN JUMPDEST PUSH2 0x219 PUSH2 0x973 JUMP JUMPDEST PUSH1 0x40 MLOAD PUSH2 0x226 SWAP2 SWAP1 PUSH2 0xDD1 JUMP JUMPDEST PUSH1 0x40 MLOAD DUP1 SWAP2 SUB SWAP1 RETURN JUMPDEST PUSH2 0x237 PUSH2 0xA50 JUMP JUMPDEST PUSH1 0x40 MLOAD PUSH2 0x244 SWAP2 SWAP1 PUSH2 0xD9D JUMP JUMPDEST PUSH1 0x40 MLOAD DUP1 SWAP2 SUB SWAP1 RETURN JUMPDEST PUSH2 0x255 PUSH2 0xADC JUMP JUMPDEST PUSH1 0x40 MLOAD PUSH2 0x262 SWAP2 SWAP1 PUSH2 0xDD1 JUMP JUMPDEST PUSH1 0x40 MLOAD DUP1 SWAP2 SUB SWAP1 RETURN JUMPDEST PUSH2 0x273 PUSH2 0xAE2 JUMP JUMPDEST PUSH1 0x40 MLOAD PUSH2 0x280 SWAP2 SWAP1 PUSH2 0xDD1 JUMP JUMPDEST PUSH1 0x40 MLOAD DUP1 SWAP2 SUB SWAP1 RETURN JUMPDEST PUSH2 0x291 PUSH2 0xAE8 JUMP JUMPDEST PUSH1 0x40 MLOAD PUSH2 0x29E SWAP2 SWAP1 PUSH2 0xDD1 JUMP JUMPDEST PUSH1 0x40 MLOAD DUP1 SWAP2 SUB SWAP1 RETURN JUMPDEST PUSH2 0x2AF PUSH2 0xAEE JUMP JUMPDEST PUSH1 0x40 MLOAD PUSH2 0x2BC SWAP2 SWAP1 PUSH2 0xDD1 JUMP JUMPDEST PUSH1 0x40 MLOAD DUP1 SWAP2 SUB SWAP1 RETURN JUMPDEST PUSH2 0x2CD PUSH2 0xB32 JUMP JUMPDEST PUSH1 0x40 MLOAD PUSH2 0x2DA SWAP2 SWAP1 PUSH2 0xF41 JUMP JUMPDEST PUSH1 0x40 MLOAD DUP1 SWAP2 SUB SWAP1 RETURN JUMPDEST PUSH1 0x9 PUSH1 0x14 SWAP1 SLOAD SWAP1 PUSH2 0x100 EXP SWAP1 DIV PUSH1 0xFF AND DUP2 JUMP JUMPDEST PUSH1 0x7 SLOAD DUP2 JUMP JUMPDEST PUSH1 0x0 PUSH2 0x312 PUSH8 0xF6B0B7DA924CEA6F PUSH1 0xC0 SHL PUSH2 0xB58 JUMP JUMPDEST PUSH2 0x326 PUSH8 0x9047DD3E70CBACBA PUSH1 0xC0 SHL PUSH2 0xB58 JUMP JUMPDEST PUSH2 0x33A PUSH8 0xD9602869F1FFD328 PUSH1 0xC0 SHL PUSH2 0xB58 JUMP JUMPDEST PUSH1 0x8 SLOAD PUSH2 0x345 PUSH2 0xAEE JUMP JUMPDEST PUSH2 0x34F SWAP2 SWAP1 PUSH2 0xF8B JUMP JUMPDEST SWAP1 POP SWAP1 JUMP JUMPDEST PUSH1 0x4 SLOAD DUP2 JUMP JUMPDEST PUSH1 0x5 PUSH1 0x0 SWAP1 SLOAD SWAP1 PUSH2 0x100 EXP SWAP1 DIV PUSH20 0xFFFFFFFFFFFFFFFFFFFFFFFFFFFFFFFFFFFFFFFF AND DUP2 JUMP JUMPDEST PUSH2 0x394 PUSH8 0xAAC5EC1DEFC6726E PUSH1 0xC0 SHL PUSH2 0xB58 JUMP JUMPDEST PUSH2 0x3A8 PUSH8 0x47BF3C26608BE736 PUSH1 0xC0 SHL PUSH2 0xB58 JUMP JUMPDEST PUSH2 0x3BC PUSH8 0xEA34660A70AFB1A PUSH1 0xC0 SHL PUSH2 0xB58 JUMP JUMPDEST PUSH2 0x3D0 PUSH8 0x4B7C3B925079DAF3 PUSH1 0xC0 SHL PUSH2 0xB58 JUMP JUMPDEST PUSH2 0x3D8 PUSH2 0xA50 JUMP JUMPDEST PUSH2 0x417 JUMPI PUSH1 0x40 MLOAD PUSH32 0x8C379A000000000000000000000000000000000000000000000000000000000 DUP2 MSTORE PUSH1 0x4 ADD PUSH2 0x40E SWAP1 PUSH2 0x101C JUMP JUMPDEST PUSH1 0x40 MLOAD DUP1 SWAP2 SUB SWAP1 REVERT JUMPDEST PUSH2 0x42B PUSH8 0xF3B4409255C972A5 PUSH1 0xC0 SHL PUSH2 0xB58 JUMP JUMPDEST PUSH2 0x43F PUSH8 0xB0F2EB9FE1DF8326 PUSH1 0xC0 SHL PUSH2 0xB58 JUMP JUMPDEST PUSH2 0x453 PUSH8 0xC505FBFCB5630D64 PUSH1 0xC0 SHL PUSH2 0xB58 JUMP JUMPDEST PUSH2 0x467 PUSH8 0xC74E2960B4B6DE00 PUSH1 0xC0 SHL PUSH2 0xB58 JUMP JUMPDEST PUSH1 0x9 PUSH1 0x0 SWAP1 SLOAD SWAP1 PUSH2 0x100 EXP SWAP1 DIV PUSH20 0xFFFFFFFFFFFFFFFFFFFFFFFFFFFFFFFFFFFFFFFF AND PUSH20 0xFFFFFFFFFFFFFFFFFFFFFFFFFFFFFFFFFFFFFFFF AND CALLER PUSH20 0xFFFFFFFFFFFFFFFFFFFFFFFFFFFFFFFFFFFFFFFF AND SUB PUSH2 0x4F7 JUMPI PUSH1 0x40 MLOAD PUSH32 0x8C379A000000000000000000000000000000000000000000000000000000000 DUP2 MSTORE PUSH1 0x4 ADD PUSH2 0x4EE SWAP1 PUSH2 0x1088 JUMP JUMPDEST PUSH1 0x40 MLOAD DUP1 SWAP2 SUB SWAP1 REVERT JUMPDEST PUSH2 0x50B PUSH8 0x84FE95D78B68AADA PUSH1 0xC0 SHL PUSH2 0xB58 JUMP JUMPDEST PUSH2 0x51F PUSH8 0x3D9F554BDC6819AD PUSH1 0xC0 SHL PUSH2 0xB58 JUMP JUMPDEST PUSH2 0x533 PUSH8 0xD22D91EB9230BCCE PUSH1 0xC0 SHL PUSH2 0xB58 JUMP JUMPDEST PUSH2 0x547 PUSH8 0x4781C7FE9E45D634 PUSH1 0xC0 SHL PUSH2 0xB58 JUMP JUMPDEST PUSH1 0x0 PUSH20 0xFFFFFFFFFFFFFFFFFFFFFFFFFFFFFFFFFFFFFFFF AND PUSH1 0x9 PUSH1 0x0 SWAP1 SLOAD SWAP1 PUSH2 0x100 EXP SWAP1 DIV PUSH20 0xFFFFFFFFFFFFFFFFFFFFFFFFFFFFFFFFFFFFFFFF AND PUSH20 0xFFFFFFFFFFFFFFFFFFFFFFFFFFFFFFFFFFFFFFFF AND EQ PUSH2 0x5D8 JUMPI PUSH1 0x40 MLOAD PUSH32 0x8C379A000000000000000000000000000000000000000000000000000000000 DUP2 MSTORE PUSH1 0x4 ADD PUSH2 0x5CF SWAP1 PUSH2 0x10F4 JUMP JUMPDEST PUSH1 0x40 MLOAD DUP1 SWAP2 SUB SWAP1 REVERT JUMPDEST PUSH2 0x5EC PUSH8 0xB9C1141F6417773A PUSH1 0xC0 SHL PUSH2 0xB58 JUMP JUMPDEST PUSH2 0x600 PUSH8 0xE15C5A9C3CECBCC4 PUSH1 0xC0 SHL PUSH2 0xB58 JUMP JUMPDEST PUSH2 0x614 PUSH8 0x1636A0E43BAB30CE PUSH1 0xC0 SHL PUSH2 0xB58 JUMP JUMPDEST PUSH2 0x628 PUSH8 0x2E746C40F903485B PUSH1 0xC0 SHL PUSH2 0xB58 JUMP JUMPDEST PUSH1 0x5 PUSH1 0x0 SWAP1 SLOAD SWAP1 PUSH2 0x100 EXP SWAP1 DIV PUSH20 0xFFFFFFFFFFFFFFFFFFFFFFFFFFFFFFFFFFFFFFFF AND PUSH20 0xFFFFFFFFFFFFFFFFFFFFFFFFFFFFFFFFFFFFFFFF AND CALLER PUSH20 0xFFFFFFFFFFFFFFFFFFFFFFFFFFFFFFFFFFFFFFFF AND SUB PUSH2 0x6B8 JUMPI PUSH1 0x40 MLOAD PUSH32 0x8C379A000000000000000000000000000000000000000000000000000000000 DUP2 MSTORE PUSH1 0x4 ADD PUSH2 0x6AF SWAP1 PUSH2 0x1160 JUMP JUMPDEST PUSH1 0x40 MLOAD DUP1 SWAP2 SUB SWAP1 REVERT JUMPDEST PUSH2 0x6CC PUSH8 0x671B3D3FD60380C4 PUSH1 0xC0 SHL PUSH2 0xB58 JUMP JUMPDEST PUSH2 0x6E0 PUSH8 0x1B421329498EA257 PUSH1 0xC0 SHL PUSH2 0xB58 JUMP JUMPDEST PUSH2 0x6F4 PUSH8 0x11A50F7A72591667 PUSH1 0xC0 SHL PUSH2 0xB58 JUMP JUMPDEST PUSH2 0x708 PUSH8 0x64BAE29784CFA384 PUSH1 0xC0 SHL PUSH2 0xB58 JUMP JUMPDEST PUSH2 0x710 PUSH2 0x973 JUMP JUMPDEST DUP2 LT ISZERO PUSH2 0x752 JUMPI PUSH1 0x40 MLOAD PUSH32 0x8C379A000000000000000000000000000000000000000000000000000000000 DUP2 MSTORE PUSH1 0x4 ADD PUSH2 0x749 SWAP1 PUSH2 0x11CC JUMP JUMPDEST PUSH1 0x40 MLOAD DUP1 SWAP2 SUB SWAP1 REVERT JUMPDEST PUSH2 0x766 PUSH8 0xD74F6E891103A299 PUSH1 0xC0 SHL PUSH2 0xB58 JUMP JUMPDEST PUSH2 0x77A PUSH8 0xF36C6107CBDC1F1E PUSH1 0xC0 SHL PUSH2 0xB58 JUMP JUMPDEST PUSH2 0x78E PUSH8 0xCE193515A6F32D5 PUSH1 0xC0 SHL PUSH2 0xB58 JUMP JUMPDEST PUSH1 0x0 PUSH1 0x2 PUSH1 0x0 SWAP1 SLOAD SWAP1 PUSH2 0x100 EXP SWAP1 DIV PUSH20 0xFFFFFFFFFFFFFFFFFFFFFFFFFFFFFFFFFFFFFFFF AND PUSH20 0xFFFFFFFFFFFFFFFFFFFFFFFFFFFFFFFFFFFFFFFF AND PUSH4 0x23B872DD CALLER PUSH1 0x5 PUSH1 0x0 SWAP1 SLOAD SWAP1 PUSH2 0x100 EXP SWAP1 DIV PUSH20 0xFFFFFFFFFFFFFFFFFFFFFFFFFFFFFFFFFFFFFFFF AND PUSH2 0x7FA PUSH2 0x973 JUMP JUMPDEST PUSH1 0x40 MLOAD DUP5 PUSH4 0xFFFFFFFF AND PUSH1 0xE0 SHL DUP2 MSTORE PUSH1 0x4 ADD PUSH2 0x818 SWAP4 SWAP3 SWAP2 SWAP1 PUSH2 0x11EC JUMP JUMPDEST PUSH1 0x20 PUSH1 0x40 MLOAD DUP1 DUP4 SUB DUP2 PUSH1 0x0 DUP8 GAS CALL ISZERO DUP1 ISZERO PUSH2 0x837 JUMPI RETURNDATASIZE PUSH1 0x0 DUP1 RETURNDATACOPY RETURNDATASIZE PUSH1 0x0 REVERT JUMPDEST POP POP POP POP PUSH1 0x40 MLOAD RETURNDATASIZE PUSH1 0x1F NOT PUSH1 0x1F DUP3 ADD AND DUP3 ADD DUP1 PUSH1 0x40 MSTORE POP DUP2 ADD SWAP1 PUSH2 0x85B SWAP2 SWAP1 PUSH2 0x124F JUMP JUMPDEST SWAP1 POP PUSH2 0x871 PUSH8 0x6BF509BDAD622688 PUSH1 0xC0 SHL PUSH2 0xB58 JUMP JUMPDEST PUSH2 0x885 PUSH8 0x6F467FF81C884AD3 PUSH1 0xC0 SHL PUSH2 0xB58 JUMP JUMPDEST PUSH2 0x898 PUSH7 0xC701B06AFB6965 PUSH1 0xC0 SHL PUSH2 0xB58 JUMP JUMPDEST DUP1 PUSH2 0x8D8 JUMPI PUSH1 0x40 MLOAD PUSH32 0x8C379A000000000000000000000000000000000000000000000000000000000 DUP2 MSTORE PUSH1 0x4 ADD PUSH2 0x8CF SWAP1 PUSH2 0x12C8 JUMP JUMPDEST PUSH1 0x40 MLOAD DUP1 SWAP2 SUB SWAP1 REVERT JUMPDEST PUSH2 0x8EC PUSH8 0xE9C11D9628259156 PUSH1 0xC0 SHL PUSH2 0xB58 JUMP JUMPDEST PUSH2 0x900 PUSH8 0x6B90BCA95A0FD306 PUSH1 0xC0 SHL PUSH2 0xB58 JUMP JUMPDEST PUSH2 0x914 PUSH8 0x2950900D7D7FE1A5 PUSH1 0xC0 SHL PUSH2 0xB58 JUMP JUMPDEST PUSH2 0x91D CALLER PUSH2 0xB5B JUMP JUMPDEST POP POP JUMP JUMPDEST PUSH1 0x2 PUSH1 0x0 SWAP1 SLOAD SWAP1 PUSH2 0x100 EXP SWAP1 DIV PUSH20 0xFFFFFFFFFFFFFFFFFFFFFFFFFFFFFFFFFFFFFFFF AND DUP2 JUMP JUMPDEST PUSH1 0x0 SLOAD DUP2 JUMP JUMPDEST PUSH1 0x9 PUSH1 0x0 SWAP1 SLOAD SWAP1 PUSH2 0x100 EXP SWAP1 DIV PUSH20 0xFFFFFFFFFFFFFFFFFFFFFFFFFFFFFFFFFFFFFFFF AND DUP2 JUMP JUMPDEST PUSH1 0x0 PUSH2 0x989 PUSH8 0xB1A1251A1B1709A7 PUSH1 0xC0 SHL PUSH2 0xB58 JUMP JUMPDEST PUSH2 0x99D PUSH8 0x4B7F861D9B4C896A PUSH1 0xC0 SHL PUSH2 0xB58 JUMP JUMPDEST PUSH2 0x9B1 PUSH8 0x40A5600F60BA58BE PUSH1 0xC0 SHL PUSH2 0xB58 JUMP JUMPDEST PUSH1 0x0 PUSH2 0x9BB PUSH2 0x2FC JUMP JUMPDEST SWAP1 POP PUSH2 0x9D1 PUSH8 0x4779254404E22DA6 PUSH1 0xC0 SHL PUSH2 0xB58 JUMP JUMPDEST PUSH2 0x9E5 PUSH8 0x430C4B14DA5F5DB PUSH1 0xC0 SHL PUSH2 0xB58 JUMP JUMPDEST PUSH1 0x4 SLOAD DUP2 LT ISZERO DUP1 ISZERO PUSH2 0xA07 JUMPI POP PUSH2 0xA06 PUSH8 0x5D686A88AA00B7E6 PUSH1 0xC0 SHL PUSH2 0xD70 JUMP JUMPDEST JUMPDEST DUP1 PUSH2 0xA22 JUMPI POP PUSH2 0xA21 PUSH8 0x4B0D9E13FDF89DA3 PUSH1 0xC0 SHL PUSH2 0xD7B JUMP JUMPDEST JUMPDEST PUSH2 0xA46 JUMPI PUSH1 0x6 SLOAD DUP2 PUSH2 0xA34 SWAP2 SWAP1 PUSH2 0x12E8 JUMP JUMPDEST PUSH1 0x7 SLOAD PUSH2 0xA41 SWAP2 SWAP1 PUSH2 0xF8B JUMP JUMPDEST PUSH2 0xA4A JUMP JUMPDEST PUSH1 0x3 SLOAD JUMPDEST SWAP2 POP POP SWAP1 JUMP JUMPDEST PUSH1 0x0 PUSH2 0xA66 PUSH8 0x2FA7CF89603ABBB9 PUSH1 0xC0 SHL PUSH2 0xB58 JUMP JUMPDEST PUSH2 0xA7A PUSH8 0x58A8B60303268830 PUSH1 0xC0 SHL PUSH2 0xB58 JUMP JUMPDEST PUSH2 0xA8E PUSH8 0xA657C1B2C2E65D84 PUSH1 0xC0 SHL PUSH2 0xB58 JUMP JUMPDEST PUSH1 0x0 PUSH2 0xA98 PUSH2 0x2FC JUMP JUMPDEST SWAP1 POP PUSH2 0xAAE PUSH8 0xB85FCDFDCB24BF68 PUSH1 0xC0 SHL PUSH2 0xB58 JUMP JUMPDEST PUSH2 0xAC2 PUSH8 0x6B90C93A809144CE PUSH1 0xC0 SHL PUSH2 0xB58 JUMP JUMPDEST PUSH1 0x4 SLOAD DUP2 GT ISZERO DUP1 ISZERO PUSH2 0xAD6 JUMPI POP PUSH1 0x8 SLOAD NUMBER LT ISZERO JUMPDEST SWAP2 POP POP SWAP1 JUMP JUMPDEST PUSH1 0x6 SLOAD DUP2 JUMP JUMPDEST PUSH1 0x8 SLOAD DUP2 JUMP JUMPDEST PUSH1 0x3 SLOAD DUP2 JUMP JUMPDEST PUSH1 0x0 PUSH2 0xB04 PUSH8 0x334F419580E84DC PUSH1 0xC0 SHL PUSH2 0xB58 JUMP JUMPDEST PUSH2 0xB18 PUSH8 0x621D74B57A8BCAE PUSH1 0xC0 SHL PUSH2 0xB58 JUMP JUMPDEST PUSH2 0xB2C PUSH8 0x5490B00B48A594B2 PUSH1 0xC0 SHL PUSH2 0xB58 JUMP JUMPDEST NUMBER SWAP1 POP SWAP1 JUMP JUMPDEST PUSH1 0x1 PUSH1 0x0 SWAP1 SLOAD SWAP1 PUSH2 0x100 EXP SWAP1 DIV PUSH20 0xFFFFFFFFFFFFFFFFFFFFFFFFFFFFFFFFFFFFFFFF AND DUP2 JUMP JUMPDEST POP JUMP JUMPDEST PUSH2 0xB6F PUSH8 0xB2FC7CA14F1D9816 PUSH1 0xC0 SHL PUSH2 0xB58 JUMP JUMPDEST PUSH2 0xB83 PUSH8 0x1BD50309C223E8F4 PUSH1 0xC0 SHL PUSH2 0xB58 JUMP JUMPDEST PUSH2 0xB97 PUSH8 0xB953FD991B75B321 PUSH1 0xC0 SHL PUSH2 0xB58 JUMP JUMPDEST PUSH1 0x1 PUSH1 0x0 SWAP1 SLOAD SWAP1 PUSH2 0x100 EXP SWAP1 DIV PUSH20 0xFFFFFFFFFFFFFFFFFFFFFFFFFFFFFFFFFFFFFFFF AND PUSH20 0xFFFFFFFFFFFFFFFFFFFFFFFFFFFFFFFFFFFFFFFF AND PUSH4 0x23B872DD PUSH1 0x5 PUSH1 0x0 SWAP1 SLOAD SWAP1 PUSH2 0x100 EXP SWAP1 DIV PUSH20 0xFFFFFFFFFFFFFFFFFFFFFFFFFFFFFFFFFFFFFFFF AND DUP4 PUSH1 0x0 SLOAD PUSH1 0x40 MLOAD DUP5 PUSH4 0xFFFFFFFF AND PUSH1 0xE0 SHL DUP2 MSTORE PUSH1 0x4 ADD PUSH2 0xC1A SWAP4 SWAP3 SWAP2 SWAP1 PUSH2 0x11EC JUMP JUMPDEST PUSH1 0x0 PUSH1 0x40 MLOAD DUP1 DUP4 SUB DUP2 PUSH1 0x0 DUP8 DUP1 EXTCODESIZE ISZERO DUP1 ISZERO PUSH2 0xC34 JUMPI PUSH1 0x0 DUP1 REVERT JUMPDEST POP GAS CALL ISZERO DUP1 ISZERO PUSH2 0xC48 JUMPI RETURNDATASIZE PUSH1 0x0 DUP1 RETURNDATACOPY RETURNDATASIZE PUSH1 0x0 REVERT JUMPDEST POP POP POP POP PUSH2 0xC60 PUSH8 0x195BC137235811AB PUSH1 0xC0 SHL PUSH2 0xB58 JUMP JUMPDEST PUSH1 0x1 PUSH1 0x0 SWAP1 SLOAD SWAP1 PUSH2 0x100 EXP SWAP1 DIV PUSH20 0xFFFFFFFFFFFFFFFFFFFFFFFFFFFFFFFFFFFFFFFF AND PUSH20 0xFFFFFFFFFFFFFFFFFFFFFFFFFFFFFFFFFFFFFFFF AND PUSH4 0x6352211E PUSH1 0x0 SLOAD PUSH1 0x40 MLOAD DUP3 PUSH4 0xFFFFFFFF AND PUSH1 0xE0 SHL DUP2 MSTORE PUSH1 0x4 ADD PUSH2 0xCBD SWAP2 SWAP1 PUSH2 0xDD1 JUMP JUMPDEST PUSH1 0x20 PUSH1 0x40 MLOAD DUP1 DUP4 SUB DUP2 DUP7 GAS STATICCALL ISZERO DUP1 ISZERO PUSH2 0xCDA JUMPI RETURNDATASIZE PUSH1 0x0 DUP1 RETURNDATACOPY RETURNDATASIZE PUSH1 0x0 REVERT JUMPDEST POP POP POP POP PUSH1 0x40 MLOAD RETURNDATASIZE PUSH1 0x1F NOT PUSH1 0x1F DUP3 ADD AND DUP3 ADD DUP1 PUSH1 0x40 MSTORE POP DUP2 ADD SWAP1 PUSH2 0xCFE SWAP2 SWAP1 PUSH2 0x1356 JUMP JUMPDEST PUSH1 0x9 PUSH1 0x0 PUSH2 0x100 EXP DUP2 SLOAD DUP2 PUSH20 0xFFFFFFFFFFFFFFFFFFFFFFFFFFFFFFFFFFFFFFFF MUL NOT AND SWAP1 DUP4 PUSH20 0xFFFFFFFFFFFFFFFFFFFFFFFFFFFFFFFFFFFFFFFF AND MUL OR SWAP1 SSTORE POP PUSH2 0xD52 PUSH8 0x21D749D596BD0D34 PUSH1 0xC0 SHL PUSH2 0xB58 JUMP JUMPDEST PUSH1 0x0 PUSH1 0x9 PUSH1 0x14 PUSH2 0x100 EXP DUP2 SLOAD DUP2 PUSH1 0xFF MUL NOT AND SWAP1 DUP4 ISZERO ISZERO MUL OR SWAP1 SSTORE POP POP JUMP JUMPDEST PUSH1 0x0 PUSH1 0x1 SWAP1 POP SWAP2 SWAP1 POP JUMP JUMPDEST PUSH1 0x0 SWAP2 SWAP1 POP JUMP JUMPDEST PUSH1 0x0 DUP2 ISZERO ISZERO SWAP1 POP SWAP2 SWAP1 POP JUMP JUMPDEST PUSH2 0xD97 DUP2 PUSH2 0xD82 JUMP JUMPDEST DUP3 MSTORE POP POP JUMP JUMPDEST PUSH1 0x0 PUSH1 0x20 DUP3 ADD SWAP1 POP PUSH2 0xDB2 PUSH1 0x0 DUP4 ADD DUP5 PUSH2 0xD8E JUMP JUMPDEST SWAP3 SWAP2 POP POP JUMP JUMPDEST PUSH1 0x0 DUP2 SWAP1 POP SWAP2 SWAP1 POP JUMP JUMPDEST PUSH2 0xDCB DUP2 PUSH2 0xDB8 JUMP JUMPDEST DUP3 MSTORE POP POP JUMP JUMPDEST PUSH1 0x0 PUSH1 0x20 DUP3 ADD SWAP1 POP PUSH2 0xDE6 PUSH1 0x0 DUP4 ADD DUP5 PUSH2 0xDC2 JUMP JUMPDEST SWAP3 SWAP2 POP POP JUMP JUMPDEST PUSH1 0x0 PUSH20 0xFFFFFFFFFFFFFFFFFFFFFFFFFFFFFFFFFFFFFFFF DUP3 AND SWAP1 POP SWAP2 SWAP1 POP JUMP JUMPDEST PUSH1 0x0 PUSH2 0xE17 DUP3 PUSH2 0xDEC JUMP JUMPDEST SWAP1 POP SWAP2 SWAP1 POP JUMP JUMPDEST PUSH2 0xE27 DUP2 PUSH2 0xE0C JUMP JUMPDEST DUP3 MSTORE POP POP JUMP JUMPDEST PUSH1 0x0 PUSH1 0x20 DUP3 ADD SWAP1 POP PUSH2 0xE42 PUSH1 0x0 DUP4 ADD DUP5 PUSH2 0xE1E JUMP JUMPDEST SWAP3 SWAP2 POP POP JUMP JUMPDEST PUSH1 0x0 DUP1 REVERT JUMPDEST PUSH2 0xE56 DUP2 PUSH2 0xDB8 JUMP JUMPDEST DUP2 EQ PUSH2 0xE61 JUMPI PUSH1 0x0 DUP1 REVERT JUMPDEST POP JUMP JUMPDEST PUSH1 0x0 DUP2 CALLDATALOAD SWAP1 POP PUSH2 0xE73 DUP2 PUSH2 0xE4D JUMP JUMPDEST SWAP3 SWAP2 POP POP JUMP JUMPDEST PUSH1 0x0 PUSH1 0x20 DUP3 DUP5 SUB SLT ISZERO PUSH2 0xE8F JUMPI PUSH2 0xE8E PUSH2 0xE48 JUMP JUMPDEST JUMPDEST PUSH1 0x0 PUSH2 0xE9D DUP5 DUP3 DUP6 ADD PUSH2 0xE64 JUMP JUMPDEST SWAP2 POP POP SWAP3 SWAP2 POP POP JUMP JUMPDEST PUSH1 0x0 DUP2 SWAP1 POP SWAP2 SWAP1 POP JUMP JUMPDEST PUSH1 0x0 PUSH2 0xECB PUSH2 0xEC6 PUSH2 0xEC1 DUP5 PUSH2 0xDEC JUMP JUMPDEST PUSH2 0xEA6 JUMP JUMPDEST PUSH2 0xDEC JUMP JUMPDEST SWAP1 POP SWAP2 SWAP1 POP JUMP JUMPDEST PUSH1 0x0 PUSH2 0xEDD DUP3 PUSH2 0xEB0 JUMP JUMPDEST SWAP1 POP SWAP2 SWAP1 POP JUMP JUMPDEST PUSH1 0x0 PUSH2 0xEEF DUP3 PUSH2 0xED2 JUMP JUMPDEST SWAP1 POP SWAP2 SWAP1 POP JUMP JUMPDEST PUSH2 0xEFF DUP2 PUSH2 0xEE4 JUMP JUMPDEST DUP3 MSTORE POP POP JUMP JUMPDEST PUSH1 0x0 PUSH1 0x20 DUP3 ADD SWAP1 POP PUSH2 0xF1A PUSH1 0x0 DUP4 ADD DUP5 PUSH2 0xEF6 JUMP JUMPDEST SWAP3 SWAP2 POP POP JUMP JUMPDEST PUSH1 0x0 PUSH2 0xF2B DUP3 PUSH2 0xED2 JUMP JUMPDEST SWAP1 POP SWAP2 SWAP1 POP JUMP JUMPDEST PUSH2 0xF3B DUP2 PUSH2 0xF20 JUMP JUMPDEST DUP3 MSTORE POP POP JUMP JUMPDEST PUSH1 0x0 PUSH1 0x20 DUP3 ADD SWAP1 POP PUSH2 0xF56 PUSH1 0x0 DUP4 ADD DUP5 PUSH2 0xF32 JUMP JUMPDEST SWAP3 SWAP2 POP POP JUMP JUMPDEST PUSH32 0x4E487B7100000000000000000000000000000000000000000000000000000000 PUSH1 0x0 MSTORE PUSH1 0x11 PUSH1 0x4 MSTORE PUSH1 0x24 PUSH1 0x0 REVERT JUMPDEST PUSH1 0x0 PUSH2 0xF96 DUP3 PUSH2 0xDB8 JUMP JUMPDEST SWAP2 POP PUSH2 0xFA1 DUP4 PUSH2 0xDB8 JUMP JUMPDEST SWAP3 POP DUP3 DUP3 SUB SWAP1 POP DUP2 DUP2 GT ISZERO PUSH2 0xFB9 JUMPI PUSH2 0xFB8 PUSH2 0xF5C JUMP JUMPDEST JUMPDEST SWAP3 SWAP2 POP POP JUMP JUMPDEST PUSH1 0x0 DUP3 DUP3 MSTORE PUSH1 0x20 DUP3 ADD SWAP1 POP SWAP3 SWAP2 POP POP JUMP JUMPDEST PUSH32 0x41756374696F6E20697320636C6F736564000000000000000000000000000000 PUSH1 0x0 DUP3 ADD MSTORE POP JUMP JUMPDEST PUSH1 0x0 PUSH2 0x1006 PUSH1 0x11 DUP4 PUSH2 0xFBF JUMP JUMPDEST SWAP2 POP PUSH2 0x1011 DUP3 PUSH2 0xFD0 JUMP JUMPDEST PUSH1 0x20 DUP3 ADD SWAP1 POP SWAP2 SWAP1 POP JUMP JUMPDEST PUSH1 0x0 PUSH1 0x20 DUP3 ADD SWAP1 POP DUP2 DUP2 SUB PUSH1 0x0 DUP4 ADD MSTORE PUSH2 0x1035 DUP2 PUSH2 0xFF9 JUMP JUMPDEST SWAP1 POP SWAP2 SWAP1 POP JUMP JUMPDEST PUSH32 0x596F7520616C726561647920626F7567687420746869732070726F6475637400 PUSH1 0x0 DUP3 ADD MSTORE POP JUMP JUMPDEST PUSH1 0x0 PUSH2 0x1072 PUSH1 0x1F DUP4 PUSH2 0xFBF JUMP JUMPDEST SWAP2 POP PUSH2 0x107D DUP3 PUSH2 0x103C JUMP JUMPDEST PUSH1 0x20 DUP3 ADD SWAP1 POP SWAP2 SWAP1 POP JUMP JUMPDEST PUSH1 0x0 PUSH1 0x20 DUP3 ADD SWAP1 POP DUP2 DUP2 SUB PUSH1 0x0 DUP4 ADD MSTORE PUSH2 0x10A1 DUP2 PUSH2 0x1065 JUMP JUMPDEST SWAP1 POP SWAP2 SWAP1 POP JUMP JUMPDEST PUSH32 0x50726F6475637420616C726561647920736F6C64000000000000000000000000 PUSH1 0x0 DUP3 ADD MSTORE POP JUMP JUMPDEST PUSH1 0x0 PUSH2 0x10DE PUSH1 0x14 DUP4 PUSH2 0xFBF JUMP JUMPDEST SWAP2 POP PUSH2 0x10E9 DUP3 PUSH2 0x10A8 JUMP JUMPDEST PUSH1 0x20 DUP3 ADD SWAP1 POP SWAP2 SWAP1 POP JUMP JUMPDEST PUSH1 0x0 PUSH1 0x20 DUP3 ADD SWAP1 POP DUP2 DUP2 SUB PUSH1 0x0 DUP4 ADD MSTORE PUSH2 0x110D DUP2 PUSH2 0x10D1 JUMP JUMPDEST SWAP1 POP SWAP2 SWAP1 POP JUMP JUMPDEST PUSH32 0x4F776E65722063616E2774204269640000000000000000000000000000000000 PUSH1 0x0 DUP3 ADD MSTORE POP JUMP JUMPDEST PUSH1 0x0 PUSH2 0x114A PUSH1 0xF DUP4 PUSH2 0xFBF JUMP JUMPDEST SWAP2 POP PUSH2 0x1155 DUP3 PUSH2 0x1114 JUMP JUMPDEST PUSH1 0x20 DUP3 ADD SWAP1 POP SWAP2 SWAP1 POP JUMP JUMPDEST PUSH1 0x0 PUSH1 0x20 DUP3 ADD SWAP1 POP DUP2 DUP2 SUB PUSH1 0x0 DUP4 ADD MSTORE PUSH2 0x1179 DUP2 PUSH2 0x113D JUMP JUMPDEST SWAP1 POP SWAP2 SWAP1 POP JUMP JUMPDEST PUSH32 0x45544820697320696E73756666696369656E7400000000000000000000000000 PUSH1 0x0 DUP3 ADD MSTORE POP JUMP JUMPDEST PUSH1 0x0 PUSH2 0x11B6 PUSH1 0x13 DUP4 PUSH2 0xFBF JUMP JUMPDEST SWAP2 POP PUSH2 0x11C1 DUP3 PUSH2 0x1180 JUMP JUMPDEST PUSH1 0x20 DUP3 ADD SWAP1 POP SWAP2 SWAP1 POP JUMP JUMPDEST PUSH1 0x0 PUSH1 0x20 DUP3 ADD SWAP1 POP DUP2 DUP2 SUB PUSH1 0x0 DUP4 ADD MSTORE PUSH2 0x11E5 DUP2 PUSH2 0x11A9 JUMP JUMPDEST SWAP1 POP SWAP2 SWAP1 POP JUMP JUMPDEST PUSH1 0x0 PUSH1 0x60 DUP3 ADD SWAP1 POP PUSH2 0x1201 PUSH1 0x0 DUP4 ADD DUP7 PUSH2 0xE1E JUMP JUMPDEST PUSH2 0x120E PUSH1 0x20 DUP4 ADD DUP6 PUSH2 0xE1E JUMP JUMPDEST PUSH2 0x121B PUSH1 0x40 DUP4 ADD DUP5 PUSH2 0xDC2 JUMP JUMPDEST SWAP5 SWAP4 POP POP POP POP JUMP JUMPDEST PUSH2 0x122C DUP2 PUSH2 0xD82 JUMP JUMPDEST DUP2 EQ PUSH2 0x1237 JUMPI PUSH1 0x0 DUP1 REVERT JUMPDEST POP JUMP JUMPDEST PUSH1 0x0 DUP2 MLOAD SWAP1 POP PUSH2 0x1249 DUP2 PUSH2 0x1223 JUMP JUMPDEST SWAP3 SWAP2 POP POP JUMP JUMPDEST PUSH1 0x0 PUSH1 0x20 DUP3 DUP5 SUB SLT ISZERO PUSH2 0x1265 JUMPI PUSH2 0x1264 PUSH2 0xE48 JUMP JUMPDEST JUMPDEST PUSH1 0x0 PUSH2 0x1273 DUP5 DUP3 DUP6 ADD PUSH2 0x123A JUMP JUMPDEST SWAP2 POP POP SWAP3 SWAP2 POP POP JUMP JUMPDEST PUSH32 0x4661696C656420746F2073656E6420455243323020746F6B656E730000000000 PUSH1 0x0 DUP3 ADD MSTORE POP JUMP JUMPDEST PUSH1 0x0 PUSH2 0x12B2 PUSH1 0x1B DUP4 PUSH2 0xFBF JUMP JUMPDEST SWAP2 POP PUSH2 0x12BD DUP3 PUSH2 0x127C JUMP JUMPDEST PUSH1 0x20 DUP3 ADD SWAP1 POP SWAP2 SWAP1 POP JUMP JUMPDEST PUSH1 0x0 PUSH1 0x20 DUP3 ADD SWAP1 POP DUP2 DUP2 SUB PUSH1 0x0 DUP4 ADD MSTORE PUSH2 0x12E1 DUP2 PUSH2 0x12A5 JUMP JUMPDEST SWAP1 POP SWAP2 SWAP1 POP JUMP JUMPDEST PUSH1 0x0 PUSH2 0x12F3 DUP3 PUSH2 0xDB8 JUMP JUMPDEST SWAP2 POP PUSH2 0x12FE DUP4 PUSH2 0xDB8 JUMP JUMPDEST SWAP3 POP DUP3 DUP3 MUL PUSH2 0x130C DUP2 PUSH2 0xDB8 JUMP JUMPDEST SWAP2 POP DUP3 DUP3 DIV DUP5 EQ DUP4 ISZERO OR PUSH2 0x1323 JUMPI PUSH2 0x1322 PUSH2 0xF5C JUMP JUMPDEST JUMPDEST POP SWAP3 SWAP2 POP POP JUMP JUMPDEST PUSH2 0x1333 DUP2 PUSH2 0xE0C JUMP JUMPDEST DUP2 EQ PUSH2 0x133E JUMPI PUSH1 0x0 DUP1 REVERT JUMPDEST POP JUMP JUMPDEST PUSH1 0x0 DUP2 MLOAD SWAP1 POP PUSH2 0x1350 DUP2 PUSH2 0x132A JUMP JUMPDEST SWAP3 SWAP2 POP POP JUMP JUMPDEST PUSH1 0x0 PUSH1 0x20 DUP3 DUP5 SUB SLT ISZERO PUSH2 0x136C JUMPI PUSH2 0x136B PUSH2 0xE48 JUMP JUMPDEST JUMPDEST PUSH1 0x0 PUSH2 0x137A DUP5 DUP3 DUP6 ADD PUSH2 0x1341 JUMP JUMPDEST SWAP2 POP POP SWAP3 SWAP2 POP POP JUMP INVALID LOG2 PUSH5 0x6970667358 0x22 SLT KECCAK256 0xAE 0xA7 PUSH1 0xE 0xEB 0xB7 0x5D 0xD 0xE8 SWAP2 0xB4 PUSH13 0xD4CD55278DAD018A36082627FE 0x25 TIMESTAMP STATICCALL SELFDESTRUCT SWAP9 0xB8 RETURNDATASIZE PUSH5 0x736F6C6343 STOP ADDMOD GT STOP CALLER "},"methodIdentifiers":{"addressOfToken()":"4a0f97e8","auctionStatusOpen()":"0b48ab8f","bid(uint256)":"454a2ab3","blockDifference()":"233aec66","buyer()":"7150d8ae","currentBlock()":"e12ed13c","currentPrice()":"9d1b464a","initialPrice()":"1d0806ae","isAuctionOpen()":"cca41427","nft_Address()":"f5734ae2","nft_Id()":"6ee6cb9f","numBlocksAuctionOpen()":"3103ea62","offerPriceDecrement()":"d3642a88","reservePrice()":"db2e1eed","sellerAccountAddress()":"323b935f","startingBlock()":"d91c98d3"}}}}}