{"contracts/NFTDutchAuction.sol":{"NFTDutchAuction":{"abi":[{"inputs":[{"internalType":"address","name":"erc721TokenAddress","type":"address"},{"internalType":"uint256","name":"_nftTokenId","type":"uint256"},{"internalType":"uint256","name":"_reservePrice","type":"uint256"},{"internalType":"uint256","name":"_numBlocksAuctionOpen","type":"uint256"},{"internalType":"uint256","name":"_offerPriceDecrement","type":"uint256"}],"stateMutability":"nonpayable","type":"constructor"},{"inputs":[],"name":"auctionStatusOpen","outputs":[{"internalType":"bool","name":"","type":"bool"}],"stateMutability":"view","type":"function"},{"inputs":[],"name":"bid","outputs":[],"stateMutability":"payable","type":"function"},{"inputs":[],"name":"buyer","outputs":[{"internalType":"address","name":"","type":"address"}],"stateMutability":"view","type":"function"},{"inputs":[],"name":"currentPrice","outputs":[{"internalType":"uint256","name":"","type":"uint256"}],"stateMutability":"view","type":"function"},{"inputs":[],"name":"seller","outputs":[{"internalType":"address","name":"","type":"address"}],"stateMutability":"view","type":"function"}],"evm":{"bytecode":{"linkReferences":{},"object":"60806040523480156200001157600080fd5b50604051620017623803806200176283398181016040528101906200003791906200048e565b62000053670d7f8a26cbf95f0160c01b620003e660201b60201c565b6200006f6774de773792d477bc60c01b620003e660201b60201c565b33600660006101000a81548173ffffffffffffffffffffffffffffffffffffffff021916908373ffffffffffffffffffffffffffffffffffffffff160217905550620000cc67489ff98932972b0260c01b620003e660201b60201c565b43600781905550620000ef676b2d1386a9e1784960c01b620003e660201b60201c565b6001600960006101000a81548160ff021916908315150217905550620001266783a0fa238fe5507e60c01b620003e660201b60201c565b836000819055506200014967ec5e4d17337359fe60c01b620003e660201b60201c565b84600160006101000a81548173ffffffffffffffffffffffffffffffffffffffff021916908373ffffffffffffffffffffffffffffffffffffffff160217905550620001a66789dd0ab97d4a9ad460c01b620003e660201b60201c565b620001c267536f4f11dac17a9060c01b620003e660201b60201c565b620001de67faf300df835874e360c01b620003e660201b60201c565b600660009054906101000a900473ffffffffffffffffffffffffffffffffffffffff1673ffffffffffffffffffffffffffffffffffffffff16600160009054906101000a900473ffffffffffffffffffffffffffffffffffffffff1673ffffffffffffffffffffffffffffffffffffffff16636352211e6000546040518263ffffffff1660e01b815260040162000276919062000527565b602060405180830381865afa15801562000294573d6000803e3d6000fd5b505050506040513d601f19601f82011682018060405250810190620002ba919062000544565b73ffffffffffffffffffffffffffffffffffffffff161462000313576040517f08c379a00000000000000000000000000000000000000000000000000000000081526004016200030a90620005d7565b60405180910390fd5b6200032f67fc225ffce895d24960c01b620003e660201b60201c565b6200034b67ba5d4a4572e1300e60c01b620003e660201b60201c565b826002819055506200036e6793d63782b014e6a860c01b620003e660201b60201c565b81600381905550620003916724b5cb9a691f844560c01b620003e660201b60201c565b80600481905550620003b46745cb79a56a2b631b60c01b620003e660201b60201c565b600454600354620003c6919062000628565b600254620003d5919062000673565b6008819055505050505050620006ae565b50565b600080fd5b600073ffffffffffffffffffffffffffffffffffffffff82169050919050565b60006200041b82620003ee565b9050919050565b6200042d816200040e565b81146200043957600080fd5b50565b6000815190506200044d8162000422565b92915050565b6000819050919050565b620004688162000453565b81146200047457600080fd5b50565b60008151905062000488816200045d565b92915050565b600080600080600060a08688031215620004ad57620004ac620003e9565b5b6000620004bd888289016200043c565b9550506020620004d08882890162000477565b9450506040620004e38882890162000477565b9350506060620004f68882890162000477565b9250506080620005098882890162000477565b9150509295509295909350565b620005218162000453565b82525050565b60006020820190506200053e600083018462000516565b92915050565b6000602082840312156200055d576200055c620003e9565b5b60006200056d848285016200043c565b91505092915050565b600082825260208201905092915050565b7f596f7520646f6e2774206f776e2074686973204e465420746f2073656c6c0000600082015250565b6000620005bf601e8362000576565b9150620005cc8262000587565b602082019050919050565b60006020820190508181036000830152620005f281620005b0565b9050919050565b7f4e487b7100000000000000000000000000000000000000000000000000000000600052601160045260246000fd5b6000620006358262000453565b9150620006428362000453565b9250828202620006528162000453565b915082820484148315176200066c576200066b620005f9565b5b5092915050565b6000620006808262000453565b91506200068d8362000453565b9250828201905080821115620006a857620006a7620005f9565b5b92915050565b6110a480620006be6000396000f3fe60806040526004361061004a5760003560e01c806308551a531461004f5780630b48ab8f1461007a5780631998aeef146100a55780637150d8ae146100af5780639d1b464a146100da575b600080fd5b34801561005b57600080fd5b50610064610105565b6040516100719190610bd0565b60405180910390f35b34801561008657600080fd5b5061008f61012b565b60405161009c9190610c06565b60405180910390f35b6100ad61013e565b005b3480156100bb57600080fd5b506100c461077b565b6040516100d19190610bd0565b60405180910390f35b3480156100e657600080fd5b506100ef6107a1565b6040516100fc9190610c3a565b60405180910390f35b600660009054906101000a900473ffffffffffffffffffffffffffffffffffffffff1681565b600960009054906101000a900460ff1681565b61015267c4c8ad51696be90460c01b610806565b610166674f79a1617318bc6b60c01b610806565b61017a674aad7470d13846c160c01b610806565b61018e678ce52ed69693f67660c01b610806565b610196610809565b6101d5576040517f08c379a00000000000000000000000000000000000000000000000000000000081526004016101cc90610cb2565b60405180910390fd5b6101e96706abde97fbe1123c60c01b610806565b6101fd6737cdf5c8f92341d960c01b610806565b610211677c95a6d1350a174860c01b610806565b61022567491338420513a13460c01b610806565b600560009054906101000a900473ffffffffffffffffffffffffffffffffffffffff1673ffffffffffffffffffffffffffffffffffffffff163373ffffffffffffffffffffffffffffffffffffffff16036102b5576040517f08c379a00000000000000000000000000000000000000000000000000000000081526004016102ac90610d1e565b60405180910390fd5b6102c967c9f4ec8d963220a760c01b610806565b6102dd67464787cac3a034bb60c01b610806565b6102f167233892d0b73dd9aa60c01b610806565b61030567c9a9b80a81d904c160c01b610806565b600073ffffffffffffffffffffffffffffffffffffffff16600560009054906101000a900473ffffffffffffffffffffffffffffffffffffffff1673ffffffffffffffffffffffffffffffffffffffff1614610396576040517f08c379a000000000000000000000000000000000000000000000000000000000815260040161038d90610d8a565b60405180910390fd5b6103aa679d479d21f48cec1e60c01b610806565b6103be67a24d70489a230d4160c01b610806565b6103d2679295beb6e894056060c01b610806565b6103e667121be5b142f8f88d60c01b610806565b600660009054906101000a900473ffffffffffffffffffffffffffffffffffffffff1673ffffffffffffffffffffffffffffffffffffffff163373ffffffffffffffffffffffffffffffffffffffff1603610476576040517f08c379a000000000000000000000000000000000000000000000000000000000815260040161046d90610df6565b60405180910390fd5b61048a67d20e01b631e8433e60c01b610806565b61049e679cc914dcefdfc3a360c01b610806565b6104b267a4c1aaba673fa72360c01b610806565b6104c6673dc9c49cffda509560c01b610806565b6104ce6107a1565b341015610510576040517f08c379a000000000000000000000000000000000000000000000000000000000815260040161050790610e62565b60405180910390fd5b61052467e72518b674d3759560c01b610806565b6105386785406600f63d4aa660c01b610806565b61054c67d889e1ad0a5dd4e760c01b610806565b6000600660009054906101000a900473ffffffffffffffffffffffffffffffffffffffff1673ffffffffffffffffffffffffffffffffffffffff1661058f6107a1565b60405161059b90610eb3565b60006040518083038185875af1925050503d80600081146105d8576040519150601f19603f3d011682016040523d82523d6000602084013e6105dd565b606091505b505090506105f567435fe3a1769e4e5f60c01b610806565b61060967473a8adc3e23f24960c01b610806565b61061d67995a8d311f96ba4c60c01b610806565b6001151581151514610664576040517f08c379a000000000000000000000000000000000000000000000000000000000815260040161065b90610f14565b60405180910390fd5b61067867413375660f72d50260c01b610806565b61068c6712221a82fcd3153660c01b610806565b6106a0671f564d95a027c30960c01b610806565b60006106aa6107a1565b346106b59190610f63565b90506106cb6754add30f56ec1f5b60c01b610806565b6106df6726d22fac2da4a83460c01b610806565b6000811115610732576106fc67a20e333bb73a950960c01b610806565b610710675128299badcbd51060c01b610806565b61072467a3b04a44bc849e3b60c01b610806565b61072d81610859565b610747565b610746671263239c3048370c60c01b610806565b5b61075b67c44c86cedab7c53e60c01b610806565b61076f67edf975bafd4ef77760c01b610806565b6107776108df565b5050565b600560009054906101000a900473ffffffffffffffffffffffffffffffffffffffff1681565b60006107b767d5c699647af115c560c01b610806565b6107cb673ed20a6e8f4ec65060c01b610806565b6107df6771659a7a5445159f60c01b610806565b6004546107ea610af3565b6107f49190610f97565b6008546108019190610f63565b905090565b50565b600061081f677cd051ba68ea722b60c01b610806565b61083367ff05876e4552704460c01b610806565b610847670d6051a504dee1e760c01b610806565b600354610852610af3565b1115905090565b61086d6727795f7974a1b2c360c01b610806565b610881678f4b71256890816f60c01b610806565b610895677421cf00f7ee39ac60c01b610806565b3373ffffffffffffffffffffffffffffffffffffffff166108fc829081150290604051600060405180830381858888f193505050501580156108db573d6000803e3d6000fd5b5050565b6108f3678acdd0eb2e2db23b60c01b610806565b6109076773e61756e1573ebf60c01b610806565b61091b670e88214c57e3ddf460c01b610806565b600160009054906101000a900473ffffffffffffffffffffffffffffffffffffffff1673ffffffffffffffffffffffffffffffffffffffff166323b872dd600660009054906101000a900473ffffffffffffffffffffffffffffffffffffffff16336000546040518463ffffffff1660e01b815260040161099e93929190610fd9565b600060405180830381600087803b1580156109b857600080fd5b505af11580156109cc573d6000803e3d6000fd5b505050506109e467fecb1a17d2ede24960c01b610806565b600160009054906101000a900473ffffffffffffffffffffffffffffffffffffffff1673ffffffffffffffffffffffffffffffffffffffff16636352211e6000546040518263ffffffff1660e01b8152600401610a419190610c3a565b602060405180830381865afa158015610a5e573d6000803e3d6000fd5b505050506040513d601f19601f82011682018060405250810190610a829190611041565b600560006101000a81548173ffffffffffffffffffffffffffffffffffffffff021916908373ffffffffffffffffffffffffffffffffffffffff160217905550610ad66773b197044d02dcb360c01b610806565b6000600960006101000a81548160ff021916908315150217905550565b6000610b0967cd2a838648dcdf0160c01b610806565b610b1d679afdc418ee4c69e160c01b610806565b610b3167a1a0902d2410543260c01b610806565b600754610b3c610b4b565b610b469190610f63565b905090565b6000610b6167b26c470baad13c8e60c01b610806565b610b756740d831310979674560c01b610806565b610b896745ca6277e9d2908960c01b610806565b43905090565b600073ffffffffffffffffffffffffffffffffffffffff82169050919050565b6000610bba82610b8f565b9050919050565b610bca81610baf565b82525050565b6000602082019050610be56000830184610bc1565b92915050565b60008115159050919050565b610c0081610beb565b82525050565b6000602082019050610c1b6000830184610bf7565b92915050565b6000819050919050565b610c3481610c21565b82525050565b6000602082019050610c4f6000830184610c2b565b92915050565b600082825260208201905092915050565b7f41756374696f6e20697320636c6f736564000000000000000000000000000000600082015250565b6000610c9c601183610c55565b9150610ca782610c66565b602082019050919050565b60006020820190508181036000830152610ccb81610c8f565b9050919050565b7f596f7520616c726561647920626f7567687420746869732070726f6475637400600082015250565b6000610d08601f83610c55565b9150610d1382610cd2565b602082019050919050565b60006020820190508181036000830152610d3781610cfb565b9050919050565b7f50726f6475637420616c726561647920736f6c64000000000000000000000000600082015250565b6000610d74601483610c55565b9150610d7f82610d3e565b602082019050919050565b60006020820190508181036000830152610da381610d67565b9050919050565b7f4f776e65722063616e2774204269640000000000000000000000000000000000600082015250565b6000610de0600f83610c55565b9150610deb82610daa565b602082019050919050565b60006020820190508181036000830152610e0f81610dd3565b9050919050565b7f57454920697320696e73756666696369656e7400000000000000000000000000600082015250565b6000610e4c601383610c55565b9150610e5782610e16565b602082019050919050565b60006020820190508181036000830152610e7b81610e3f565b9050919050565b600081905092915050565b50565b6000610e9d600083610e82565b9150610ea882610e8d565b600082019050919050565b6000610ebe82610e90565b9150819050919050565b7f6661696c656420746f2073656e64000000000000000000000000000000000000600082015250565b6000610efe600e83610c55565b9150610f0982610ec8565b602082019050919050565b60006020820190508181036000830152610f2d81610ef1565b9050919050565b7f4e487b7100000000000000000000000000000000000000000000000000000000600052601160045260246000fd5b6000610f6e82610c21565b9150610f7983610c21565b9250828203905081811115610f9157610f90610f34565b5b92915050565b6000610fa282610c21565b9150610fad83610c21565b9250828202610fbb81610c21565b91508282048414831517610fd257610fd1610f34565b5b5092915050565b6000606082019050610fee6000830186610bc1565b610ffb6020830185610bc1565b6110086040830184610c2b565b949350505050565b600080fd5b61101e81610baf565b811461102957600080fd5b50565b60008151905061103b81611015565b92915050565b60006020828403121561105757611056611010565b5b60006110658482850161102c565b9150509291505056fea2646970667358221220b1183e95c403cd0926288719fd5280b9b91618d73b40f05bd06e41edc4fc8b8f64736f6c63430008110033","opcodes":"PUSH1 0x80 PUSH1 0x40 MSTORE CALLVALUE DUP1 ISZERO PUSH3 0x11 JUMPI PUSH1 0x0 DUP1 REVERT JUMPDEST POP PUSH1 0x40 MLOAD PUSH3 0x1762 CODESIZE SUB DUP1 PUSH3 0x1762 DUP4 CODECOPY DUP2 DUP2 ADD PUSH1 0x40 MSTORE DUP2 ADD SWAP1 PUSH3 0x37 SWAP2 SWAP1 PUSH3 0x48E JUMP JUMPDEST PUSH3 0x53 PUSH8 0xD7F8A26CBF95F01 PUSH1 0xC0 SHL PUSH3 0x3E6 PUSH1 0x20 SHL PUSH1 0x20 SHR JUMP JUMPDEST PUSH3 0x6F PUSH8 0x74DE773792D477BC PUSH1 0xC0 SHL PUSH3 0x3E6 PUSH1 0x20 SHL PUSH1 0x20 SHR JUMP JUMPDEST CALLER PUSH1 0x6 PUSH1 0x0 PUSH2 0x100 EXP DUP2 SLOAD DUP2 PUSH20 0xFFFFFFFFFFFFFFFFFFFFFFFFFFFFFFFFFFFFFFFF MUL NOT AND SWAP1 DUP4 PUSH20 0xFFFFFFFFFFFFFFFFFFFFFFFFFFFFFFFFFFFFFFFF AND MUL OR SWAP1 SSTORE POP PUSH3 0xCC PUSH8 0x489FF98932972B02 PUSH1 0xC0 SHL PUSH3 0x3E6 PUSH1 0x20 SHL PUSH1 0x20 SHR JUMP JUMPDEST NUMBER PUSH1 0x7 DUP2 SWAP1 SSTORE POP PUSH3 0xEF PUSH8 0x6B2D1386A9E17849 PUSH1 0xC0 SHL PUSH3 0x3E6 PUSH1 0x20 SHL PUSH1 0x20 SHR JUMP JUMPDEST PUSH1 0x1 PUSH1 0x9 PUSH1 0x0 PUSH2 0x100 EXP DUP2 SLOAD DUP2 PUSH1 0xFF MUL NOT AND SWAP1 DUP4 ISZERO ISZERO MUL OR SWAP1 SSTORE POP PUSH3 0x126 PUSH8 0x83A0FA238FE5507E PUSH1 0xC0 SHL PUSH3 0x3E6 PUSH1 0x20 SHL PUSH1 0x20 SHR JUMP JUMPDEST DUP4 PUSH1 0x0 DUP2 SWAP1 SSTORE POP PUSH3 0x149 PUSH8 0xEC5E4D17337359FE PUSH1 0xC0 SHL PUSH3 0x3E6 PUSH1 0x20 SHL PUSH1 0x20 SHR JUMP JUMPDEST DUP5 PUSH1 0x1 PUSH1 0x0 PUSH2 0x100 EXP DUP2 SLOAD DUP2 PUSH20 0xFFFFFFFFFFFFFFFFFFFFFFFFFFFFFFFFFFFFFFFF MUL NOT AND SWAP1 DUP4 PUSH20 0xFFFFFFFFFFFFFFFFFFFFFFFFFFFFFFFFFFFFFFFF AND MUL OR SWAP1 SSTORE POP PUSH3 0x1A6 PUSH8 0x89DD0AB97D4A9AD4 PUSH1 0xC0 SHL PUSH3 0x3E6 PUSH1 0x20 SHL PUSH1 0x20 SHR JUMP JUMPDEST PUSH3 0x1C2 PUSH8 0x536F4F11DAC17A90 PUSH1 0xC0 SHL PUSH3 0x3E6 PUSH1 0x20 SHL PUSH1 0x20 SHR JUMP JUMPDEST PUSH3 0x1DE PUSH8 0xFAF300DF835874E3 PUSH1 0xC0 SHL PUSH3 0x3E6 PUSH1 0x20 SHL PUSH1 0x20 SHR JUMP JUMPDEST PUSH1 0x6 PUSH1 0x0 SWAP1 SLOAD SWAP1 PUSH2 0x100 EXP SWAP1 DIV PUSH20 0xFFFFFFFFFFFFFFFFFFFFFFFFFFFFFFFFFFFFFFFF AND PUSH20 0xFFFFFFFFFFFFFFFFFFFFFFFFFFFFFFFFFFFFFFFF AND PUSH1 0x1 PUSH1 0x0 SWAP1 SLOAD SWAP1 PUSH2 0x100 EXP SWAP1 DIV PUSH20 0xFFFFFFFFFFFFFFFFFFFFFFFFFFFFFFFFFFFFFFFF AND PUSH20 0xFFFFFFFFFFFFFFFFFFFFFFFFFFFFFFFFFFFFFFFF AND PUSH4 0x6352211E PUSH1 0x0 SLOAD PUSH1 0x40 MLOAD DUP3 PUSH4 0xFFFFFFFF AND PUSH1 0xE0 SHL DUP2 MSTORE PUSH1 0x4 ADD PUSH3 0x276 SWAP2 SWAP1 PUSH3 0x527 JUMP JUMPDEST PUSH1 0x20 PUSH1 0x40 MLOAD DUP1 DUP4 SUB DUP2 DUP7 GAS STATICCALL ISZERO DUP1 ISZERO PUSH3 0x294 JUMPI RETURNDATASIZE PUSH1 0x0 DUP1 RETURNDATACOPY RETURNDATASIZE PUSH1 0x0 REVERT JUMPDEST POP POP POP POP PUSH1 0x40 MLOAD RETURNDATASIZE PUSH1 0x1F NOT PUSH1 0x1F DUP3 ADD AND DUP3 ADD DUP1 PUSH1 0x40 MSTORE POP DUP2 ADD SWAP1 PUSH3 0x2BA SWAP2 SWAP1 PUSH3 0x544 JUMP JUMPDEST PUSH20 0xFFFFFFFFFFFFFFFFFFFFFFFFFFFFFFFFFFFFFFFF AND EQ PUSH3 0x313 JUMPI PUSH1 0x40 MLOAD PUSH32 0x8C379A000000000000000000000000000000000000000000000000000000000 DUP2 MSTORE PUSH1 0x4 ADD PUSH3 0x30A SWAP1 PUSH3 0x5D7 JUMP JUMPDEST PUSH1 0x40 MLOAD DUP1 SWAP2 SUB SWAP1 REVERT JUMPDEST PUSH3 0x32F PUSH8 0xFC225FFCE895D249 PUSH1 0xC0 SHL PUSH3 0x3E6 PUSH1 0x20 SHL PUSH1 0x20 SHR JUMP JUMPDEST PUSH3 0x34B PUSH8 0xBA5D4A4572E1300E PUSH1 0xC0 SHL PUSH3 0x3E6 PUSH1 0x20 SHL PUSH1 0x20 SHR JUMP JUMPDEST DUP3 PUSH1 0x2 DUP2 SWAP1 SSTORE POP PUSH3 0x36E PUSH8 0x93D63782B014E6A8 PUSH1 0xC0 SHL PUSH3 0x3E6 PUSH1 0x20 SHL PUSH1 0x20 SHR JUMP JUMPDEST DUP2 PUSH1 0x3 DUP2 SWAP1 SSTORE POP PUSH3 0x391 PUSH8 0x24B5CB9A691F8445 PUSH1 0xC0 SHL PUSH3 0x3E6 PUSH1 0x20 SHL PUSH1 0x20 SHR JUMP JUMPDEST DUP1 PUSH1 0x4 DUP2 SWAP1 SSTORE POP PUSH3 0x3B4 PUSH8 0x45CB79A56A2B631B PUSH1 0xC0 SHL PUSH3 0x3E6 PUSH1 0x20 SHL PUSH1 0x20 SHR JUMP JUMPDEST PUSH1 0x4 SLOAD PUSH1 0x3 SLOAD PUSH3 0x3C6 SWAP2 SWAP1 PUSH3 0x628 JUMP JUMPDEST PUSH1 0x2 SLOAD PUSH3 0x3D5 SWAP2 SWAP1 PUSH3 0x673 JUMP JUMPDEST PUSH1 0x8 DUP2 SWAP1 SSTORE POP POP POP POP POP POP PUSH3 0x6AE JUMP JUMPDEST POP JUMP JUMPDEST PUSH1 0x0 DUP1 REVERT JUMPDEST PUSH1 0x0 PUSH20 0xFFFFFFFFFFFFFFFFFFFFFFFFFFFFFFFFFFFFFFFF DUP3 AND SWAP1 POP SWAP2 SWAP1 POP JUMP JUMPDEST PUSH1 0x0 PUSH3 0x41B DUP3 PUSH3 0x3EE JUMP JUMPDEST SWAP1 POP SWAP2 SWAP1 POP JUMP JUMPDEST PUSH3 0x42D DUP2 PUSH3 0x40E JUMP JUMPDEST DUP2 EQ PUSH3 0x439 JUMPI PUSH1 0x0 DUP1 REVERT JUMPDEST POP JUMP JUMPDEST PUSH1 0x0 DUP2 MLOAD SWAP1 POP PUSH3 0x44D DUP2 PUSH3 0x422 JUMP JUMPDEST SWAP3 SWAP2 POP POP JUMP JUMPDEST PUSH1 0x0 DUP2 SWAP1 POP SWAP2 SWAP1 POP JUMP JUMPDEST PUSH3 0x468 DUP2 PUSH3 0x453 JUMP JUMPDEST DUP2 EQ PUSH3 0x474 JUMPI PUSH1 0x0 DUP1 REVERT JUMPDEST POP JUMP JUMPDEST PUSH1 0x0 DUP2 MLOAD SWAP1 POP PUSH3 0x488 DUP2 PUSH3 0x45D JUMP JUMPDEST SWAP3 SWAP2 POP POP JUMP JUMPDEST PUSH1 0x0 DUP1 PUSH1 0x0 DUP1 PUSH1 0x0 PUSH1 0xA0 DUP7 DUP9 SUB SLT ISZERO PUSH3 0x4AD JUMPI PUSH3 0x4AC PUSH3 0x3E9 JUMP JUMPDEST JUMPDEST PUSH1 0x0 PUSH3 0x4BD DUP9 DUP3 DUP10 ADD PUSH3 0x43C JUMP JUMPDEST SWAP6 POP POP PUSH1 0x20 PUSH3 0x4D0 DUP9 DUP3 DUP10 ADD PUSH3 0x477 JUMP JUMPDEST SWAP5 POP POP PUSH1 0x40 PUSH3 0x4E3 DUP9 DUP3 DUP10 ADD PUSH3 0x477 JUMP JUMPDEST SWAP4 POP POP PUSH1 0x60 PUSH3 0x4F6 DUP9 DUP3 DUP10 ADD PUSH3 0x477 JUMP JUMPDEST SWAP3 POP POP PUSH1 0x80 PUSH3 0x509 DUP9 DUP3 DUP10 ADD PUSH3 0x477 JUMP JUMPDEST SWAP2 POP POP SWAP3 SWAP6 POP SWAP3 SWAP6 SWAP1 SWAP4 POP JUMP JUMPDEST PUSH3 0x521 DUP2 PUSH3 0x453 JUMP JUMPDEST DUP3 MSTORE POP POP JUMP JUMPDEST PUSH1 0x0 PUSH1 0x20 DUP3 ADD SWAP1 POP PUSH3 0x53E PUSH1 0x0 DUP4 ADD DUP5 PUSH3 0x516 JUMP JUMPDEST SWAP3 SWAP2 POP POP JUMP JUMPDEST PUSH1 0x0 PUSH1 0x20 DUP3 DUP5 SUB SLT ISZERO PUSH3 0x55D JUMPI PUSH3 0x55C PUSH3 0x3E9 JUMP JUMPDEST JUMPDEST PUSH1 0x0 PUSH3 0x56D DUP5 DUP3 DUP6 ADD PUSH3 0x43C JUMP JUMPDEST SWAP2 POP POP SWAP3 SWAP2 POP POP JUMP JUMPDEST PUSH1 0x0 DUP3 DUP3 MSTORE PUSH1 0x20 DUP3 ADD SWAP1 POP SWAP3 SWAP2 POP POP JUMP JUMPDEST PUSH32 0x596F7520646F6E2774206F776E2074686973204E465420746F2073656C6C0000 PUSH1 0x0 DUP3 ADD MSTORE POP JUMP JUMPDEST PUSH1 0x0 PUSH3 0x5BF PUSH1 0x1E DUP4 PUSH3 0x576 JUMP JUMPDEST SWAP2 POP PUSH3 0x5CC DUP3 PUSH3 0x587 JUMP JUMPDEST PUSH1 0x20 DUP3 ADD SWAP1 POP SWAP2 SWAP1 POP JUMP JUMPDEST PUSH1 0x0 PUSH1 0x20 DUP3 ADD SWAP1 POP DUP2 DUP2 SUB PUSH1 0x0 DUP4 ADD MSTORE PUSH3 0x5F2 DUP2 PUSH3 0x5B0 JUMP JUMPDEST SWAP1 POP SWAP2 SWAP1 POP JUMP JUMPDEST PUSH32 0x4E487B7100000000000000000000000000000000000000000000000000000000 PUSH1 0x0 MSTORE PUSH1 0x11 PUSH1 0x4 MSTORE PUSH1 0x24 PUSH1 0x0 REVERT JUMPDEST PUSH1 0x0 PUSH3 0x635 DUP3 PUSH3 0x453 JUMP JUMPDEST SWAP2 POP PUSH3 0x642 DUP4 PUSH3 0x453 JUMP JUMPDEST SWAP3 POP DUP3 DUP3 MUL PUSH3 0x652 DUP2 PUSH3 0x453 JUMP JUMPDEST SWAP2 POP DUP3 DUP3 DIV DUP5 EQ DUP4 ISZERO OR PUSH3 0x66C JUMPI PUSH3 0x66B PUSH3 0x5F9 JUMP JUMPDEST JUMPDEST POP SWAP3 SWAP2 POP POP JUMP JUMPDEST PUSH1 0x0 PUSH3 0x680 DUP3 PUSH3 0x453 JUMP JUMPDEST SWAP2 POP PUSH3 0x68D DUP4 PUSH3 0x453 JUMP JUMPDEST SWAP3 POP DUP3 DUP3 ADD SWAP1 POP DUP1 DUP3 GT ISZERO PUSH3 0x6A8 JUMPI PUSH3 0x6A7 PUSH3 0x5F9 JUMP JUMPDEST JUMPDEST SWAP3 SWAP2 POP POP JUMP JUMPDEST PUSH2 0x10A4 DUP1 PUSH3 0x6BE PUSH1 0x0 CODECOPY PUSH1 0x0 RETURN INVALID PUSH1 0x80 PUSH1 0x40 MSTORE PUSH1 0x4 CALLDATASIZE LT PUSH2 0x4A JUMPI PUSH1 0x0 CALLDATALOAD PUSH1 0xE0 SHR DUP1 PUSH4 0x8551A53 EQ PUSH2 0x4F JUMPI DUP1 PUSH4 0xB48AB8F EQ PUSH2 0x7A JUMPI DUP1 PUSH4 0x1998AEEF EQ PUSH2 0xA5 JUMPI DUP1 PUSH4 0x7150D8AE EQ PUSH2 0xAF JUMPI DUP1 PUSH4 0x9D1B464A EQ PUSH2 0xDA JUMPI JUMPDEST PUSH1 0x0 DUP1 REVERT JUMPDEST CALLVALUE DUP1 ISZERO PUSH2 0x5B JUMPI PUSH1 0x0 DUP1 REVERT JUMPDEST POP PUSH2 0x64 PUSH2 0x105 JUMP JUMPDEST PUSH1 0x40 MLOAD PUSH2 0x71 SWAP2 SWAP1 PUSH2 0xBD0 JUMP JUMPDEST PUSH1 0x40 MLOAD DUP1 SWAP2 SUB SWAP1 RETURN JUMPDEST CALLVALUE DUP1 ISZERO PUSH2 0x86 JUMPI PUSH1 0x0 DUP1 REVERT JUMPDEST POP PUSH2 0x8F PUSH2 0x12B JUMP JUMPDEST PUSH1 0x40 MLOAD PUSH2 0x9C SWAP2 SWAP1 PUSH2 0xC06 JUMP JUMPDEST PUSH1 0x40 MLOAD DUP1 SWAP2 SUB SWAP1 RETURN JUMPDEST PUSH2 0xAD PUSH2 0x13E JUMP JUMPDEST STOP JUMPDEST CALLVALUE DUP1 ISZERO PUSH2 0xBB JUMPI PUSH1 0x0 DUP1 REVERT JUMPDEST POP PUSH2 0xC4 PUSH2 0x77B JUMP JUMPDEST PUSH1 0x40 MLOAD PUSH2 0xD1 SWAP2 SWAP1 PUSH2 0xBD0 JUMP JUMPDEST PUSH1 0x40 MLOAD DUP1 SWAP2 SUB SWAP1 RETURN JUMPDEST CALLVALUE DUP1 ISZERO PUSH2 0xE6 JUMPI PUSH1 0x0 DUP1 REVERT JUMPDEST POP PUSH2 0xEF PUSH2 0x7A1 JUMP JUMPDEST PUSH1 0x40 MLOAD PUSH2 0xFC SWAP2 SWAP1 PUSH2 0xC3A JUMP JUMPDEST PUSH1 0x40 MLOAD DUP1 SWAP2 SUB SWAP1 RETURN JUMPDEST PUSH1 0x6 PUSH1 0x0 SWAP1 SLOAD SWAP1 PUSH2 0x100 EXP SWAP1 DIV PUSH20 0xFFFFFFFFFFFFFFFFFFFFFFFFFFFFFFFFFFFFFFFF AND DUP2 JUMP JUMPDEST PUSH1 0x9 PUSH1 0x0 SWAP1 SLOAD SWAP1 PUSH2 0x100 EXP SWAP1 DIV PUSH1 0xFF AND DUP2 JUMP JUMPDEST PUSH2 0x152 PUSH8 0xC4C8AD51696BE904 PUSH1 0xC0 SHL PUSH2 0x806 JUMP JUMPDEST PUSH2 0x166 PUSH8 0x4F79A1617318BC6B PUSH1 0xC0 SHL PUSH2 0x806 JUMP JUMPDEST PUSH2 0x17A PUSH8 0x4AAD7470D13846C1 PUSH1 0xC0 SHL PUSH2 0x806 JUMP JUMPDEST PUSH2 0x18E PUSH8 0x8CE52ED69693F676 PUSH1 0xC0 SHL PUSH2 0x806 JUMP JUMPDEST PUSH2 0x196 PUSH2 0x809 JUMP JUMPDEST PUSH2 0x1D5 JUMPI PUSH1 0x40 MLOAD PUSH32 0x8C379A000000000000000000000000000000000000000000000000000000000 DUP2 MSTORE PUSH1 0x4 ADD PUSH2 0x1CC SWAP1 PUSH2 0xCB2 JUMP JUMPDEST PUSH1 0x40 MLOAD DUP1 SWAP2 SUB SWAP1 REVERT JUMPDEST PUSH2 0x1E9 PUSH8 0x6ABDE97FBE1123C PUSH1 0xC0 SHL PUSH2 0x806 JUMP JUMPDEST PUSH2 0x1FD PUSH8 0x37CDF5C8F92341D9 PUSH1 0xC0 SHL PUSH2 0x806 JUMP JUMPDEST PUSH2 0x211 PUSH8 0x7C95A6D1350A1748 PUSH1 0xC0 SHL PUSH2 0x806 JUMP JUMPDEST PUSH2 0x225 PUSH8 0x491338420513A134 PUSH1 0xC0 SHL PUSH2 0x806 JUMP JUMPDEST PUSH1 0x5 PUSH1 0x0 SWAP1 SLOAD SWAP1 PUSH2 0x100 EXP SWAP1 DIV PUSH20 0xFFFFFFFFFFFFFFFFFFFFFFFFFFFFFFFFFFFFFFFF AND PUSH20 0xFFFFFFFFFFFFFFFFFFFFFFFFFFFFFFFFFFFFFFFF AND CALLER PUSH20 0xFFFFFFFFFFFFFFFFFFFFFFFFFFFFFFFFFFFFFFFF AND SUB PUSH2 0x2B5 JUMPI PUSH1 0x40 MLOAD PUSH32 0x8C379A000000000000000000000000000000000000000000000000000000000 DUP2 MSTORE PUSH1 0x4 ADD PUSH2 0x2AC SWAP1 PUSH2 0xD1E JUMP JUMPDEST PUSH1 0x40 MLOAD DUP1 SWAP2 SUB SWAP1 REVERT JUMPDEST PUSH2 0x2C9 PUSH8 0xC9F4EC8D963220A7 PUSH1 0xC0 SHL PUSH2 0x806 JUMP JUMPDEST PUSH2 0x2DD PUSH8 0x464787CAC3A034BB PUSH1 0xC0 SHL PUSH2 0x806 JUMP JUMPDEST PUSH2 0x2F1 PUSH8 0x233892D0B73DD9AA PUSH1 0xC0 SHL PUSH2 0x806 JUMP JUMPDEST PUSH2 0x305 PUSH8 0xC9A9B80A81D904C1 PUSH1 0xC0 SHL PUSH2 0x806 JUMP JUMPDEST PUSH1 0x0 PUSH20 0xFFFFFFFFFFFFFFFFFFFFFFFFFFFFFFFFFFFFFFFF AND PUSH1 0x5 PUSH1 0x0 SWAP1 SLOAD SWAP1 PUSH2 0x100 EXP SWAP1 DIV PUSH20 0xFFFFFFFFFFFFFFFFFFFFFFFFFFFFFFFFFFFFFFFF AND PUSH20 0xFFFFFFFFFFFFFFFFFFFFFFFFFFFFFFFFFFFFFFFF AND EQ PUSH2 0x396 JUMPI PUSH1 0x40 MLOAD PUSH32 0x8C379A000000000000000000000000000000000000000000000000000000000 DUP2 MSTORE PUSH1 0x4 ADD PUSH2 0x38D SWAP1 PUSH2 0xD8A JUMP JUMPDEST PUSH1 0x40 MLOAD DUP1 SWAP2 SUB SWAP1 REVERT JUMPDEST PUSH2 0x3AA PUSH8 0x9D479D21F48CEC1E PUSH1 0xC0 SHL PUSH2 0x806 JUMP JUMPDEST PUSH2 0x3BE PUSH8 0xA24D70489A230D41 PUSH1 0xC0 SHL PUSH2 0x806 JUMP JUMPDEST PUSH2 0x3D2 PUSH8 0x9295BEB6E8940560 PUSH1 0xC0 SHL PUSH2 0x806 JUMP JUMPDEST PUSH2 0x3E6 PUSH8 0x121BE5B142F8F88D PUSH1 0xC0 SHL PUSH2 0x806 JUMP JUMPDEST PUSH1 0x6 PUSH1 0x0 SWAP1 SLOAD SWAP1 PUSH2 0x100 EXP SWAP1 DIV PUSH20 0xFFFFFFFFFFFFFFFFFFFFFFFFFFFFFFFFFFFFFFFF AND PUSH20 0xFFFFFFFFFFFFFFFFFFFFFFFFFFFFFFFFFFFFFFFF AND CALLER PUSH20 0xFFFFFFFFFFFFFFFFFFFFFFFFFFFFFFFFFFFFFFFF AND SUB PUSH2 0x476 JUMPI PUSH1 0x40 MLOAD PUSH32 0x8C379A000000000000000000000000000000000000000000000000000000000 DUP2 MSTORE PUSH1 0x4 ADD PUSH2 0x46D SWAP1 PUSH2 0xDF6 JUMP JUMPDEST PUSH1 0x40 MLOAD DUP1 SWAP2 SUB SWAP1 REVERT JUMPDEST PUSH2 0x48A PUSH8 0xD20E01B631E8433E PUSH1 0xC0 SHL PUSH2 0x806 JUMP JUMPDEST PUSH2 0x49E PUSH8 0x9CC914DCEFDFC3A3 PUSH1 0xC0 SHL PUSH2 0x806 JUMP JUMPDEST PUSH2 0x4B2 PUSH8 0xA4C1AABA673FA723 PUSH1 0xC0 SHL PUSH2 0x806 JUMP JUMPDEST PUSH2 0x4C6 PUSH8 0x3DC9C49CFFDA5095 PUSH1 0xC0 SHL PUSH2 0x806 JUMP JUMPDEST PUSH2 0x4CE PUSH2 0x7A1 JUMP JUMPDEST CALLVALUE LT ISZERO PUSH2 0x510 JUMPI PUSH1 0x40 MLOAD PUSH32 0x8C379A000000000000000000000000000000000000000000000000000000000 DUP2 MSTORE PUSH1 0x4 ADD PUSH2 0x507 SWAP1 PUSH2 0xE62 JUMP JUMPDEST PUSH1 0x40 MLOAD DUP1 SWAP2 SUB SWAP1 REVERT JUMPDEST PUSH2 0x524 PUSH8 0xE72518B674D37595 PUSH1 0xC0 SHL PUSH2 0x806 JUMP JUMPDEST PUSH2 0x538 PUSH8 0x85406600F63D4AA6 PUSH1 0xC0 SHL PUSH2 0x806 JUMP JUMPDEST PUSH2 0x54C PUSH8 0xD889E1AD0A5DD4E7 PUSH1 0xC0 SHL PUSH2 0x806 JUMP JUMPDEST PUSH1 0x0 PUSH1 0x6 PUSH1 0x0 SWAP1 SLOAD SWAP1 PUSH2 0x100 EXP SWAP1 DIV PUSH20 0xFFFFFFFFFFFFFFFFFFFFFFFFFFFFFFFFFFFFFFFF AND PUSH20 0xFFFFFFFFFFFFFFFFFFFFFFFFFFFFFFFFFFFFFFFF AND PUSH2 0x58F PUSH2 0x7A1 JUMP JUMPDEST PUSH1 0x40 MLOAD PUSH2 0x59B SWAP1 PUSH2 0xEB3 JUMP JUMPDEST PUSH1 0x0 PUSH1 0x40 MLOAD DUP1 DUP4 SUB DUP2 DUP6 DUP8 GAS CALL SWAP3 POP POP POP RETURNDATASIZE DUP1 PUSH1 0x0 DUP2 EQ PUSH2 0x5D8 JUMPI PUSH1 0x40 MLOAD SWAP2 POP PUSH1 0x1F NOT PUSH1 0x3F RETURNDATASIZE ADD AND DUP3 ADD PUSH1 0x40 MSTORE RETURNDATASIZE DUP3 MSTORE RETURNDATASIZE PUSH1 0x0 PUSH1 0x20 DUP5 ADD RETURNDATACOPY PUSH2 0x5DD JUMP JUMPDEST PUSH1 0x60 SWAP2 POP JUMPDEST POP POP SWAP1 POP PUSH2 0x5F5 PUSH8 0x435FE3A1769E4E5F PUSH1 0xC0 SHL PUSH2 0x806 JUMP JUMPDEST PUSH2 0x609 PUSH8 0x473A8ADC3E23F249 PUSH1 0xC0 SHL PUSH2 0x806 JUMP JUMPDEST PUSH2 0x61D PUSH8 0x995A8D311F96BA4C PUSH1 0xC0 SHL PUSH2 0x806 JUMP JUMPDEST PUSH1 0x1 ISZERO ISZERO DUP2 ISZERO ISZERO EQ PUSH2 0x664 JUMPI PUSH1 0x40 MLOAD PUSH32 0x8C379A000000000000000000000000000000000000000000000000000000000 DUP2 MSTORE PUSH1 0x4 ADD PUSH2 0x65B SWAP1 PUSH2 0xF14 JUMP JUMPDEST PUSH1 0x40 MLOAD DUP1 SWAP2 SUB SWAP1 REVERT JUMPDEST PUSH2 0x678 PUSH8 0x413375660F72D502 PUSH1 0xC0 SHL PUSH2 0x806 JUMP JUMPDEST PUSH2 0x68C PUSH8 0x12221A82FCD31536 PUSH1 0xC0 SHL PUSH2 0x806 JUMP JUMPDEST PUSH2 0x6A0 PUSH8 0x1F564D95A027C309 PUSH1 0xC0 SHL PUSH2 0x806 JUMP JUMPDEST PUSH1 0x0 PUSH2 0x6AA PUSH2 0x7A1 JUMP JUMPDEST CALLVALUE PUSH2 0x6B5 SWAP2 SWAP1 PUSH2 0xF63 JUMP JUMPDEST SWAP1 POP PUSH2 0x6CB PUSH8 0x54ADD30F56EC1F5B PUSH1 0xC0 SHL PUSH2 0x806 JUMP JUMPDEST PUSH2 0x6DF PUSH8 0x26D22FAC2DA4A834 PUSH1 0xC0 SHL PUSH2 0x806 JUMP JUMPDEST PUSH1 0x0 DUP2 GT ISZERO PUSH2 0x732 JUMPI PUSH2 0x6FC PUSH8 0xA20E333BB73A9509 PUSH1 0xC0 SHL PUSH2 0x806 JUMP JUMPDEST PUSH2 0x710 PUSH8 0x5128299BADCBD510 PUSH1 0xC0 SHL PUSH2 0x806 JUMP JUMPDEST PUSH2 0x724 PUSH8 0xA3B04A44BC849E3B PUSH1 0xC0 SHL PUSH2 0x806 JUMP JUMPDEST PUSH2 0x72D DUP2 PUSH2 0x859 JUMP JUMPDEST PUSH2 0x747 JUMP JUMPDEST PUSH2 0x746 PUSH8 0x1263239C3048370C PUSH1 0xC0 SHL PUSH2 0x806 JUMP JUMPDEST JUMPDEST PUSH2 0x75B PUSH8 0xC44C86CEDAB7C53E PUSH1 0xC0 SHL PUSH2 0x806 JUMP JUMPDEST PUSH2 0x76F PUSH8 0xEDF975BAFD4EF777 PUSH1 0xC0 SHL PUSH2 0x806 JUMP JUMPDEST PUSH2 0x777 PUSH2 0x8DF JUMP JUMPDEST POP POP JUMP JUMPDEST PUSH1 0x5 PUSH1 0x0 SWAP1 SLOAD SWAP1 PUSH2 0x100 EXP SWAP1 DIV PUSH20 0xFFFFFFFFFFFFFFFFFFFFFFFFFFFFFFFFFFFFFFFF AND DUP2 JUMP JUMPDEST PUSH1 0x0 PUSH2 0x7B7 PUSH8 0xD5C699647AF115C5 PUSH1 0xC0 SHL PUSH2 0x806 JUMP JUMPDEST PUSH2 0x7CB PUSH8 0x3ED20A6E8F4EC650 PUSH1 0xC0 SHL PUSH2 0x806 JUMP JUMPDEST PUSH2 0x7DF PUSH8 0x71659A7A5445159F PUSH1 0xC0 SHL PUSH2 0x806 JUMP JUMPDEST PUSH1 0x4 SLOAD PUSH2 0x7EA PUSH2 0xAF3 JUMP JUMPDEST PUSH2 0x7F4 SWAP2 SWAP1 PUSH2 0xF97 JUMP JUMPDEST PUSH1 0x8 SLOAD PUSH2 0x801 SWAP2 SWAP1 PUSH2 0xF63 JUMP JUMPDEST SWAP1 POP SWAP1 JUMP JUMPDEST POP JUMP JUMPDEST PUSH1 0x0 PUSH2 0x81F PUSH8 0x7CD051BA68EA722B PUSH1 0xC0 SHL PUSH2 0x806 JUMP JUMPDEST PUSH2 0x833 PUSH8 0xFF05876E45527044 PUSH1 0xC0 SHL PUSH2 0x806 JUMP JUMPDEST PUSH2 0x847 PUSH8 0xD6051A504DEE1E7 PUSH1 0xC0 SHL PUSH2 0x806 JUMP JUMPDEST PUSH1 0x3 SLOAD PUSH2 0x852 PUSH2 0xAF3 JUMP JUMPDEST GT ISZERO SWAP1 POP SWAP1 JUMP JUMPDEST PUSH2 0x86D PUSH8 0x27795F7974A1B2C3 PUSH1 0xC0 SHL PUSH2 0x806 JUMP JUMPDEST PUSH2 0x881 PUSH8 0x8F4B71256890816F PUSH1 0xC0 SHL PUSH2 0x806 JUMP JUMPDEST PUSH2 0x895 PUSH8 0x7421CF00F7EE39AC PUSH1 0xC0 SHL PUSH2 0x806 JUMP JUMPDEST CALLER PUSH20 0xFFFFFFFFFFFFFFFFFFFFFFFFFFFFFFFFFFFFFFFF AND PUSH2 0x8FC DUP3 SWAP1 DUP2 ISZERO MUL SWAP1 PUSH1 0x40 MLOAD PUSH1 0x0 PUSH1 0x40 MLOAD DUP1 DUP4 SUB DUP2 DUP6 DUP9 DUP9 CALL SWAP4 POP POP POP POP ISZERO DUP1 ISZERO PUSH2 0x8DB JUMPI RETURNDATASIZE PUSH1 0x0 DUP1 RETURNDATACOPY RETURNDATASIZE PUSH1 0x0 REVERT JUMPDEST POP POP JUMP JUMPDEST PUSH2 0x8F3 PUSH8 0x8ACDD0EB2E2DB23B PUSH1 0xC0 SHL PUSH2 0x806 JUMP JUMPDEST PUSH2 0x907 PUSH8 0x73E61756E1573EBF PUSH1 0xC0 SHL PUSH2 0x806 JUMP JUMPDEST PUSH2 0x91B PUSH8 0xE88214C57E3DDF4 PUSH1 0xC0 SHL PUSH2 0x806 JUMP JUMPDEST PUSH1 0x1 PUSH1 0x0 SWAP1 SLOAD SWAP1 PUSH2 0x100 EXP SWAP1 DIV PUSH20 0xFFFFFFFFFFFFFFFFFFFFFFFFFFFFFFFFFFFFFFFF AND PUSH20 0xFFFFFFFFFFFFFFFFFFFFFFFFFFFFFFFFFFFFFFFF AND PUSH4 0x23B872DD PUSH1 0x6 PUSH1 0x0 SWAP1 SLOAD SWAP1 PUSH2 0x100 EXP SWAP1 DIV PUSH20 0xFFFFFFFFFFFFFFFFFFFFFFFFFFFFFFFFFFFFFFFF AND CALLER PUSH1 0x0 SLOAD PUSH1 0x40 MLOAD DUP5 PUSH4 0xFFFFFFFF AND PUSH1 0xE0 SHL DUP2 MSTORE PUSH1 0x4 ADD PUSH2 0x99E SWAP4 SWAP3 SWAP2 SWAP1 PUSH2 0xFD9 JUMP JUMPDEST PUSH1 0x0 PUSH1 0x40 MLOAD DUP1 DUP4 SUB DUP2 PUSH1 0x0 DUP8 DUP1 EXTCODESIZE ISZERO DUP1 ISZERO PUSH2 0x9B8 JUMPI PUSH1 0x0 DUP1 REVERT JUMPDEST POP GAS CALL ISZERO DUP1 ISZERO PUSH2 0x9CC JUMPI RETURNDATASIZE PUSH1 0x0 DUP1 RETURNDATACOPY RETURNDATASIZE PUSH1 0x0 REVERT JUMPDEST POP POP POP POP PUSH2 0x9E4 PUSH8 0xFECB1A17D2EDE249 PUSH1 0xC0 SHL PUSH2 0x806 JUMP JUMPDEST PUSH1 0x1 PUSH1 0x0 SWAP1 SLOAD SWAP1 PUSH2 0x100 EXP SWAP1 DIV PUSH20 0xFFFFFFFFFFFFFFFFFFFFFFFFFFFFFFFFFFFFFFFF AND PUSH20 0xFFFFFFFFFFFFFFFFFFFFFFFFFFFFFFFFFFFFFFFF AND PUSH4 0x6352211E PUSH1 0x0 SLOAD PUSH1 0x40 MLOAD DUP3 PUSH4 0xFFFFFFFF AND PUSH1 0xE0 SHL DUP2 MSTORE PUSH1 0x4 ADD PUSH2 0xA41 SWAP2 SWAP1 PUSH2 0xC3A JUMP JUMPDEST PUSH1 0x20 PUSH1 0x40 MLOAD DUP1 DUP4 SUB DUP2 DUP7 GAS STATICCALL ISZERO DUP1 ISZERO PUSH2 0xA5E JUMPI RETURNDATASIZE PUSH1 0x0 DUP1 RETURNDATACOPY RETURNDATASIZE PUSH1 0x0 REVERT JUMPDEST POP POP POP POP PUSH1 0x40 MLOAD RETURNDATASIZE PUSH1 0x1F NOT PUSH1 0x1F DUP3 ADD AND DUP3 ADD DUP1 PUSH1 0x40 MSTORE POP DUP2 ADD SWAP1 PUSH2 0xA82 SWAP2 SWAP1 PUSH2 0x1041 JUMP JUMPDEST PUSH1 0x5 PUSH1 0x0 PUSH2 0x100 EXP DUP2 SLOAD DUP2 PUSH20 0xFFFFFFFFFFFFFFFFFFFFFFFFFFFFFFFFFFFFFFFF MUL NOT AND SWAP1 DUP4 PUSH20 0xFFFFFFFFFFFFFFFFFFFFFFFFFFFFFFFFFFFFFFFF AND MUL OR SWAP1 SSTORE POP PUSH2 0xAD6 PUSH8 0x73B197044D02DCB3 PUSH1 0xC0 SHL PUSH2 0x806 JUMP JUMPDEST PUSH1 0x0 PUSH1 0x9 PUSH1 0x0 PUSH2 0x100 EXP DUP2 SLOAD DUP2 PUSH1 0xFF MUL NOT AND SWAP1 DUP4 ISZERO ISZERO MUL OR SWAP1 SSTORE POP JUMP JUMPDEST PUSH1 0x0 PUSH2 0xB09 PUSH8 0xCD2A838648DCDF01 PUSH1 0xC0 SHL PUSH2 0x806 JUMP JUMPDEST PUSH2 0xB1D PUSH8 0x9AFDC418EE4C69E1 PUSH1 0xC0 SHL PUSH2 0x806 JUMP JUMPDEST PUSH2 0xB31 PUSH8 0xA1A0902D24105432 PUSH1 0xC0 SHL PUSH2 0x806 JUMP JUMPDEST PUSH1 0x7 SLOAD PUSH2 0xB3C PUSH2 0xB4B JUMP JUMPDEST PUSH2 0xB46 SWAP2 SWAP1 PUSH2 0xF63 JUMP JUMPDEST SWAP1 POP SWAP1 JUMP JUMPDEST PUSH1 0x0 PUSH2 0xB61 PUSH8 0xB26C470BAAD13C8E PUSH1 0xC0 SHL PUSH2 0x806 JUMP JUMPDEST PUSH2 0xB75 PUSH8 0x40D8313109796745 PUSH1 0xC0 SHL PUSH2 0x806 JUMP JUMPDEST PUSH2 0xB89 PUSH8 0x45CA6277E9D29089 PUSH1 0xC0 SHL PUSH2 0x806 JUMP JUMPDEST NUMBER SWAP1 POP SWAP1 JUMP JUMPDEST PUSH1 0x0 PUSH20 0xFFFFFFFFFFFFFFFFFFFFFFFFFFFFFFFFFFFFFFFF DUP3 AND SWAP1 POP SWAP2 SWAP1 POP JUMP JUMPDEST PUSH1 0x0 PUSH2 0xBBA DUP3 PUSH2 0xB8F JUMP JUMPDEST SWAP1 POP SWAP2 SWAP1 POP JUMP JUMPDEST PUSH2 0xBCA DUP2 PUSH2 0xBAF JUMP JUMPDEST DUP3 MSTORE POP POP JUMP JUMPDEST PUSH1 0x0 PUSH1 0x20 DUP3 ADD SWAP1 POP PUSH2 0xBE5 PUSH1 0x0 DUP4 ADD DUP5 PUSH2 0xBC1 JUMP JUMPDEST SWAP3 SWAP2 POP POP JUMP JUMPDEST PUSH1 0x0 DUP2 ISZERO ISZERO SWAP1 POP SWAP2 SWAP1 POP JUMP JUMPDEST PUSH2 0xC00 DUP2 PUSH2 0xBEB JUMP JUMPDEST DUP3 MSTORE POP POP JUMP JUMPDEST PUSH1 0x0 PUSH1 0x20 DUP3 ADD SWAP1 POP PUSH2 0xC1B PUSH1 0x0 DUP4 ADD DUP5 PUSH2 0xBF7 JUMP JUMPDEST SWAP3 SWAP2 POP POP JUMP JUMPDEST PUSH1 0x0 DUP2 SWAP1 POP SWAP2 SWAP1 POP JUMP JUMPDEST PUSH2 0xC34 DUP2 PUSH2 0xC21 JUMP JUMPDEST DUP3 MSTORE POP POP JUMP JUMPDEST PUSH1 0x0 PUSH1 0x20 DUP3 ADD SWAP1 POP PUSH2 0xC4F PUSH1 0x0 DUP4 ADD DUP5 PUSH2 0xC2B JUMP JUMPDEST SWAP3 SWAP2 POP POP JUMP JUMPDEST PUSH1 0x0 DUP3 DUP3 MSTORE PUSH1 0x20 DUP3 ADD SWAP1 POP SWAP3 SWAP2 POP POP JUMP JUMPDEST PUSH32 0x41756374696F6E20697320636C6F736564000000000000000000000000000000 PUSH1 0x0 DUP3 ADD MSTORE POP JUMP JUMPDEST PUSH1 0x0 PUSH2 0xC9C PUSH1 0x11 DUP4 PUSH2 0xC55 JUMP JUMPDEST SWAP2 POP PUSH2 0xCA7 DUP3 PUSH2 0xC66 JUMP JUMPDEST PUSH1 0x20 DUP3 ADD SWAP1 POP SWAP2 SWAP1 POP JUMP JUMPDEST PUSH1 0x0 PUSH1 0x20 DUP3 ADD SWAP1 POP DUP2 DUP2 SUB PUSH1 0x0 DUP4 ADD MSTORE PUSH2 0xCCB DUP2 PUSH2 0xC8F JUMP JUMPDEST SWAP1 POP SWAP2 SWAP1 POP JUMP JUMPDEST PUSH32 0x596F7520616C726561647920626F7567687420746869732070726F6475637400 PUSH1 0x0 DUP3 ADD MSTORE POP JUMP JUMPDEST PUSH1 0x0 PUSH2 0xD08 PUSH1 0x1F DUP4 PUSH2 0xC55 JUMP JUMPDEST SWAP2 POP PUSH2 0xD13 DUP3 PUSH2 0xCD2 JUMP JUMPDEST PUSH1 0x20 DUP3 ADD SWAP1 POP SWAP2 SWAP1 POP JUMP JUMPDEST PUSH1 0x0 PUSH1 0x20 DUP3 ADD SWAP1 POP DUP2 DUP2 SUB PUSH1 0x0 DUP4 ADD MSTORE PUSH2 0xD37 DUP2 PUSH2 0xCFB JUMP JUMPDEST SWAP1 POP SWAP2 SWAP1 POP JUMP JUMPDEST PUSH32 0x50726F6475637420616C726561647920736F6C64000000000000000000000000 PUSH1 0x0 DUP3 ADD MSTORE POP JUMP JUMPDEST PUSH1 0x0 PUSH2 0xD74 PUSH1 0x14 DUP4 PUSH2 0xC55 JUMP JUMPDEST SWAP2 POP PUSH2 0xD7F DUP3 PUSH2 0xD3E JUMP JUMPDEST PUSH1 0x20 DUP3 ADD SWAP1 POP SWAP2 SWAP1 POP JUMP JUMPDEST PUSH1 0x0 PUSH1 0x20 DUP3 ADD SWAP1 POP DUP2 DUP2 SUB PUSH1 0x0 DUP4 ADD MSTORE PUSH2 0xDA3 DUP2 PUSH2 0xD67 JUMP JUMPDEST SWAP1 POP SWAP2 SWAP1 POP JUMP JUMPDEST PUSH32 0x4F776E65722063616E2774204269640000000000000000000000000000000000 PUSH1 0x0 DUP3 ADD MSTORE POP JUMP JUMPDEST PUSH1 0x0 PUSH2 0xDE0 PUSH1 0xF DUP4 PUSH2 0xC55 JUMP JUMPDEST SWAP2 POP PUSH2 0xDEB DUP3 PUSH2 0xDAA JUMP JUMPDEST PUSH1 0x20 DUP3 ADD SWAP1 POP SWAP2 SWAP1 POP JUMP JUMPDEST PUSH1 0x0 PUSH1 0x20 DUP3 ADD SWAP1 POP DUP2 DUP2 SUB PUSH1 0x0 DUP4 ADD MSTORE PUSH2 0xE0F DUP2 PUSH2 0xDD3 JUMP JUMPDEST SWAP1 POP SWAP2 SWAP1 POP JUMP JUMPDEST PUSH32 0x57454920697320696E73756666696369656E7400000000000000000000000000 PUSH1 0x0 DUP3 ADD MSTORE POP JUMP JUMPDEST PUSH1 0x0 PUSH2 0xE4C PUSH1 0x13 DUP4 PUSH2 0xC55 JUMP JUMPDEST SWAP2 POP PUSH2 0xE57 DUP3 PUSH2 0xE16 JUMP JUMPDEST PUSH1 0x20 DUP3 ADD SWAP1 POP SWAP2 SWAP1 POP JUMP JUMPDEST PUSH1 0x0 PUSH1 0x20 DUP3 ADD SWAP1 POP DUP2 DUP2 SUB PUSH1 0x0 DUP4 ADD MSTORE PUSH2 0xE7B DUP2 PUSH2 0xE3F JUMP JUMPDEST SWAP1 POP SWAP2 SWAP1 POP JUMP JUMPDEST PUSH1 0x0 DUP2 SWAP1 POP SWAP3 SWAP2 POP POP JUMP JUMPDEST POP JUMP JUMPDEST PUSH1 0x0 PUSH2 0xE9D PUSH1 0x0 DUP4 PUSH2 0xE82 JUMP JUMPDEST SWAP2 POP PUSH2 0xEA8 DUP3 PUSH2 0xE8D JUMP JUMPDEST PUSH1 0x0 DUP3 ADD SWAP1 POP SWAP2 SWAP1 POP JUMP JUMPDEST PUSH1 0x0 PUSH2 0xEBE DUP3 PUSH2 0xE90 JUMP JUMPDEST SWAP2 POP DUP2 SWAP1 POP SWAP2 SWAP1 POP JUMP JUMPDEST PUSH32 0x6661696C656420746F2073656E64000000000000000000000000000000000000 PUSH1 0x0 DUP3 ADD MSTORE POP JUMP JUMPDEST PUSH1 0x0 PUSH2 0xEFE PUSH1 0xE DUP4 PUSH2 0xC55 JUMP JUMPDEST SWAP2 POP PUSH2 0xF09 DUP3 PUSH2 0xEC8 JUMP JUMPDEST PUSH1 0x20 DUP3 ADD SWAP1 POP SWAP2 SWAP1 POP JUMP JUMPDEST PUSH1 0x0 PUSH1 0x20 DUP3 ADD SWAP1 POP DUP2 DUP2 SUB PUSH1 0x0 DUP4 ADD MSTORE PUSH2 0xF2D DUP2 PUSH2 0xEF1 JUMP JUMPDEST SWAP1 POP SWAP2 SWAP1 POP JUMP JUMPDEST PUSH32 0x4E487B7100000000000000000000000000000000000000000000000000000000 PUSH1 0x0 MSTORE PUSH1 0x11 PUSH1 0x4 MSTORE PUSH1 0x24 PUSH1 0x0 REVERT JUMPDEST PUSH1 0x0 PUSH2 0xF6E DUP3 PUSH2 0xC21 JUMP JUMPDEST SWAP2 POP PUSH2 0xF79 DUP4 PUSH2 0xC21 JUMP JUMPDEST SWAP3 POP DUP3 DUP3 SUB SWAP1 POP DUP2 DUP2 GT ISZERO PUSH2 0xF91 JUMPI PUSH2 0xF90 PUSH2 0xF34 JUMP JUMPDEST JUMPDEST SWAP3 SWAP2 POP POP JUMP JUMPDEST PUSH1 0x0 PUSH2 0xFA2 DUP3 PUSH2 0xC21 JUMP JUMPDEST SWAP2 POP PUSH2 0xFAD DUP4 PUSH2 0xC21 JUMP JUMPDEST SWAP3 POP DUP3 DUP3 MUL PUSH2 0xFBB DUP2 PUSH2 0xC21 JUMP JUMPDEST SWAP2 POP DUP3 DUP3 DIV DUP5 EQ DUP4 ISZERO OR PUSH2 0xFD2 JUMPI PUSH2 0xFD1 PUSH2 0xF34 JUMP JUMPDEST JUMPDEST POP SWAP3 SWAP2 POP POP JUMP JUMPDEST PUSH1 0x0 PUSH1 0x60 DUP3 ADD SWAP1 POP PUSH2 0xFEE PUSH1 0x0 DUP4 ADD DUP7 PUSH2 0xBC1 JUMP JUMPDEST PUSH2 0xFFB PUSH1 0x20 DUP4 ADD DUP6 PUSH2 0xBC1 JUMP JUMPDEST PUSH2 0x1008 PUSH1 0x40 DUP4 ADD DUP5 PUSH2 0xC2B JUMP JUMPDEST SWAP5 SWAP4 POP POP POP POP JUMP JUMPDEST PUSH1 0x0 DUP1 REVERT JUMPDEST PUSH2 0x101E DUP2 PUSH2 0xBAF JUMP JUMPDEST DUP2 EQ PUSH2 0x1029 JUMPI PUSH1 0x0 DUP1 REVERT JUMPDEST POP JUMP JUMPDEST PUSH1 0x0 DUP2 MLOAD SWAP1 POP PUSH2 0x103B DUP2 PUSH2 0x1015 JUMP JUMPDEST SWAP3 SWAP2 POP POP JUMP JUMPDEST PUSH1 0x0 PUSH1 0x20 DUP3 DUP5 SUB SLT ISZERO PUSH2 0x1057 JUMPI PUSH2 0x1056 PUSH2 0x1010 JUMP JUMPDEST JUMPDEST PUSH1 0x0 PUSH2 0x1065 DUP5 DUP3 DUP6 ADD PUSH2 0x102C JUMP JUMPDEST SWAP2 POP POP SWAP3 SWAP2 POP POP JUMP INVALID LOG2 PUSH5 0x6970667358 0x22 SLT KECCAK256 0xB1 XOR RETURNDATACOPY SWAP6 0xC4 SUB 0xCD MULMOD 0x26 0x28 DUP8 NOT REVERT MSTORE DUP1 0xB9 0xB9 AND XOR 0xD7 EXTCODESIZE BLOCKHASH CREATE JUMPDEST 0xD0 PUSH15 0x41EDC4FC8B8F64736F6C6343000811 STOP CALLER "},"methodIdentifiers":{"auctionStatusOpen()":"0b48ab8f","bid()":"1998aeef","buyer()":"7150d8ae","currentPrice()":"9d1b464a","seller()":"08551a53"}}}}}