{"contracts/NFTDutchAuction.sol":{"NFTDutchAuction":{"abi":[{"inputs":[{"internalType":"address","name":"_nftAddress","type":"address"},{"internalType":"uint256","name":"_nftId","type":"uint256"},{"internalType":"uint256","name":"_reservePrice","type":"uint256"},{"internalType":"uint256","name":"_numBlocksAuctionOpen","type":"uint256"},{"internalType":"uint256","name":"_offerPriceDecrement","type":"uint256"}],"stateMutability":"nonpayable","type":"constructor"},{"inputs":[],"name":"auctionStatusOpen","outputs":[{"internalType":"bool","name":"","type":"bool"}],"stateMutability":"view","type":"function"},{"inputs":[],"name":"buyer","outputs":[{"internalType":"address","name":"","type":"address"}],"stateMutability":"view","type":"function"},{"inputs":[],"name":"getBlockDifference","outputs":[{"internalType":"uint256","name":"","type":"uint256"}],"stateMutability":"view","type":"function"},{"inputs":[],"name":"getCurrentBlock","outputs":[{"internalType":"uint256","name":"","type":"uint256"}],"stateMutability":"view","type":"function"},{"inputs":[],"name":"getCurrentPrice","outputs":[{"internalType":"uint256","name":"","type":"uint256"}],"stateMutability":"view","type":"function"},{"inputs":[],"name":"initBlock","outputs":[{"internalType":"uint256","name":"","type":"uint256"}],"stateMutability":"view","type":"function"},{"inputs":[],"name":"initialPrice","outputs":[{"internalType":"uint256","name":"","type":"uint256"}],"stateMutability":"view","type":"function"},{"inputs":[],"name":"isAuctionOpen","outputs":[{"internalType":"bool","name":"","type":"bool"}],"stateMutability":"view","type":"function"},{"inputs":[],"name":"nftAddress","outputs":[{"internalType":"contract IMyNFT","name":"","type":"address"}],"stateMutability":"view","type":"function"},{"inputs":[],"name":"nftId","outputs":[{"internalType":"uint256","name":"","type":"uint256"}],"stateMutability":"view","type":"function"},{"inputs":[],"name":"numBlocksAuctionOpen","outputs":[{"internalType":"uint256","name":"","type":"uint256"}],"stateMutability":"view","type":"function"},{"inputs":[],"name":"offerPriceDecrement","outputs":[{"internalType":"uint256","name":"","type":"uint256"}],"stateMutability":"view","type":"function"},{"inputs":[],"name":"placeBid","outputs":[],"stateMutability":"payable","type":"function"},{"inputs":[],"name":"reservePrice","outputs":[{"internalType":"uint256","name":"","type":"uint256"}],"stateMutability":"view","type":"function"},{"inputs":[],"name":"seller","outputs":[{"internalType":"address","name":"","type":"address"}],"stateMutability":"view","type":"function"}],"evm":{"bytecode":{"linkReferences":{},"object":"60806040523480156200001157600080fd5b5060405162001b6b38038062001b6b8339818101604052810190620000379190620004cc565b6200005367178ba1866f4fa8d460c01b6200042460201b60201c565b6200006f672eed34f01aec9f0f60c01b6200042460201b60201c565b33600660006101000a81548173ffffffffffffffffffffffffffffffffffffffff021916908373ffffffffffffffffffffffffffffffffffffffff160217905550620000cc6740b4ffba715d802560c01b6200042460201b60201c565b43600781905550620000ef67ebdb8ee908ec57bf60c01b6200042460201b60201c565b6001600960006101000a81548160ff0219169083151502179055506200012667b53a068e877f3f6c60c01b6200042460201b60201c565b8360008190555062000149674fd4420527ae439660c01b6200042460201b60201c565b84600160006101000a81548173ffffffffffffffffffffffffffffffffffffffff021916908373ffffffffffffffffffffffffffffffffffffffff160217905550620001a66725ebdbe3f6e49b5560c01b6200042460201b60201c565b620001c2671989f91b426af39c60c01b6200042460201b60201c565b620001de67f7b2bacbbe8afa0f60c01b6200042460201b60201c565b600660009054906101000a900473ffffffffffffffffffffffffffffffffffffffff1673ffffffffffffffffffffffffffffffffffffffff16600160009054906101000a900473ffffffffffffffffffffffffffffffffffffffff1673ffffffffffffffffffffffffffffffffffffffff16636352211e6000546040518263ffffffff1660e01b815260040162000276919062000565565b602060405180830381865afa15801562000294573d6000803e3d6000fd5b505050506040513d601f19601f82011682018060405250810190620002ba919062000582565b73ffffffffffffffffffffffffffffffffffffffff161462000313576040517f08c379a00000000000000000000000000000000000000000000000000000000081526004016200030a9062000615565b60405180910390fd5b6200032f67a6b36ab55a4a882760c01b6200042460201b60201c565b6200034b676e0f7999b60fbf8560c01b6200042460201b60201c565b826002819055506200036e6726ffa8b8edc4c5da60c01b6200042460201b60201c565b816003819055506200039167747d11e8ac067b1160c01b6200042460201b60201c565b80600481905550620003b4672c59b9bcc523850e60c01b6200042460201b60201c565b620003d067d74ef3993324d92a60c01b6200042460201b60201c565b6000600454600354620003e4919062000666565b90506200040267679ab0bafdea184e60c01b6200042460201b60201c565b60025481620004129190620006b1565b600881905550505050505050620006ec565b50565b600080fd5b600073ffffffffffffffffffffffffffffffffffffffff82169050919050565b600062000459826200042c565b9050919050565b6200046b816200044c565b81146200047757600080fd5b50565b6000815190506200048b8162000460565b92915050565b6000819050919050565b620004a68162000491565b8114620004b257600080fd5b50565b600081519050620004c6816200049b565b92915050565b600080600080600060a08688031215620004eb57620004ea62000427565b5b6000620004fb888289016200047a565b95505060206200050e88828901620004b5565b94505060406200052188828901620004b5565b93505060606200053488828901620004b5565b92505060806200054788828901620004b5565b9150509295509295909350565b6200055f8162000491565b82525050565b60006020820190506200057c600083018462000554565b92915050565b6000602082840312156200059b576200059a62000427565b5b6000620005ab848285016200047a565b91505092915050565b600082825260208201905092915050565b7f596f7520646f6e2774206f776e2074686973204e465420746f2073656c6c0000600082015250565b6000620005fd601e83620005b4565b91506200060a82620005c5565b602082019050919050565b600060208201905081810360008301526200063081620005ee565b9050919050565b7f4e487b7100000000000000000000000000000000000000000000000000000000600052601160045260246000fd5b6000620006738262000491565b9150620006808362000491565b9250828202620006908162000491565b91508282048414831517620006aa57620006a962000637565b5b5092915050565b6000620006be8262000491565b9150620006cb8362000491565b9250828201905080821115620006e657620006e562000637565b5b92915050565b61146f80620006fc6000396000f3fe6080604052600436106100e85760003560e01c8063672d5d3b1161008a578063d3642a8811610059578063d3642a88146102c6578063db2e1eed146102f1578063eb91d37e1461031c578063ecfc7ecc14610347576100e8565b8063672d5d3b1461021a5780637150d8ae14610245578063c6bc518214610270578063cca414271461029b576100e8565b80633103ea62116100c65780633103ea621461016e57806342c71d2b146101995780635bf8633a146101c45780635d05125b146101ef576100e8565b806308551a53146100ed5780630b48ab8f146101185780631d0806ae14610143575b600080fd5b3480156100f957600080fd5b50610102610351565b60405161010f9190610f21565b60405180910390f35b34801561012457600080fd5b5061012d610377565b60405161013a9190610f57565b60405180910390f35b34801561014f57600080fd5b5061015861038a565b6040516101659190610f8b565b60405180910390f35b34801561017a57600080fd5b50610183610390565b6040516101909190610f8b565b60405180910390f35b3480156101a557600080fd5b506101ae610396565b6040516101bb9190610f8b565b60405180910390f35b3480156101d057600080fd5b506101d96103ee565b6040516101e69190611005565b60405180910390f35b3480156101fb57600080fd5b50610204610414565b6040516102119190610f8b565b60405180910390f35b34801561022657600080fd5b5061022f61041a565b60405161023c9190610f8b565b60405180910390f35b34801561025157600080fd5b5061025a61045e565b6040516102679190610f21565b60405180910390f35b34801561027c57600080fd5b50610285610484565b6040516102929190610f8b565b60405180910390f35b3480156102a757600080fd5b506102b061048a565b6040516102bd9190610f57565b60405180910390f35b3480156102d257600080fd5b506102db6104da565b6040516102e89190610f8b565b60405180910390f35b3480156102fd57600080fd5b506103066104e0565b6040516103139190610f8b565b60405180910390f35b34801561032857600080fd5b506103316104e6565b60405161033e9190610f8b565b60405180910390f35b61034f610606565b005b600660009054906101000a900473ffffffffffffffffffffffffffffffffffffffff1681565b600960009054906101000a900460ff1681565b60085481565b60035481565b60006103ac6783a0fa238fe5507e60c01b610c43565b6103c067ec5e4d17337359fe60c01b610c43565b6103d46789dd0ab97d4a9ad460c01b610c43565b6007546103df61041a565b6103e9919061104f565b905090565b600160009054906101000a900473ffffffffffffffffffffffffffffffffffffffff1681565b60075481565b60006104306774de773792d477bc60c01b610c43565b61044467489ff98932972b0260c01b610c43565b610458676b2d1386a9e1784960c01b610c43565b43905090565b600560009054906101000a900473ffffffffffffffffffffffffffffffffffffffff1681565b60005481565b60006104a067a4c1aaba673fa72360c01b610c43565b6104b4673dc9c49cffda509560c01b610c43565b6104c867e72518b674d3759560c01b610c43565b6003546104d3610396565b1115905090565b60045481565b60025481565b60006104fc67e8f4b8f2a5816d8860c01b610c43565b61051067fca88963f97e5ed060c01b610c43565b61052467531628a5b2d9e7d560c01b610c43565b600061052e610396565b9050610544679044c24c0f1a3c4b60c01b610c43565b610558672383c4abc7f39c0a60c01b610c43565b60035481106105a857610575672d1a4c6646820e5e60c01b610c43565b6105896749c5af0599c60f8760c01b610c43565b61059d673c1761ce3f87340a60c01b610c43565b600254915050610603565b6105bc672de3201f2035800860c01b610c43565b6105d067f6cdcd252bfb7cc860c01b610c43565b6105e4670d7f8a26cbf95f0160c01b610c43565b600454816105f29190611083565b6008546105ff919061104f565b9150505b90565b61061a6724b5cb9a691f844560c01b610c43565b61062e6745cb79a56a2b631b60c01b610c43565b61064267b26c470baad13c8e60c01b610c43565b6106566740d831310979674560c01b610c43565b61065e61048a565b61069d576040517f08c379a000000000000000000000000000000000000000000000000000000000815260040161069490611122565b60405180910390fd5b6106b16745ca6277e9d2908960c01b610c43565b6106c567cd2a838648dcdf0160c01b610c43565b6106d9679afdc418ee4c69e160c01b610c43565b6106ed67a1a0902d2410543260c01b610c43565b600560009054906101000a900473ffffffffffffffffffffffffffffffffffffffff1673ffffffffffffffffffffffffffffffffffffffff163373ffffffffffffffffffffffffffffffffffffffff160361077d576040517f08c379a00000000000000000000000000000000000000000000000000000000081526004016107749061118e565b60405180910390fd5b61079167d5c699647af115c560c01b610c43565b6107a5673ed20a6e8f4ec65060c01b610c43565b6107b96771659a7a5445159f60c01b610c43565b6107cd677cd051ba68ea722b60c01b610c43565b600073ffffffffffffffffffffffffffffffffffffffff16600560009054906101000a900473ffffffffffffffffffffffffffffffffffffffff1673ffffffffffffffffffffffffffffffffffffffff161461085e576040517f08c379a0000000000000000000000000000000000000000000000000000000008152600401610855906111fa565b60405180910390fd5b61087267ff05876e4552704460c01b610c43565b610886670d6051a504dee1e760c01b610c43565b61089a678acdd0eb2e2db23b60c01b610c43565b6108ae6773e61756e1573ebf60c01b610c43565b600660009054906101000a900473ffffffffffffffffffffffffffffffffffffffff1673ffffffffffffffffffffffffffffffffffffffff163373ffffffffffffffffffffffffffffffffffffffff160361093e576040517f08c379a000000000000000000000000000000000000000000000000000000000815260040161093590611266565b60405180910390fd5b610952670e88214c57e3ddf460c01b610c43565b61096667fecb1a17d2ede24960c01b610c43565b61097a6773b197044d02dcb360c01b610c43565b61098e6727795f7974a1b2c360c01b610c43565b6109966104e6565b3410156109d8576040517f08c379a00000000000000000000000000000000000000000000000000000000081526004016109cf906112d2565b60405180910390fd5b6109ec678f4b71256890816f60c01b610c43565b610a00677421cf00f7ee39ac60c01b610c43565b610a1467c4c8ad51696be90460c01b610c43565b6000600660009054906101000a900473ffffffffffffffffffffffffffffffffffffffff1673ffffffffffffffffffffffffffffffffffffffff16610a576104e6565b604051610a6390611323565b60006040518083038185875af1925050503d8060008114610aa0576040519150601f19603f3d011682016040523d82523d6000602084013e610aa5565b606091505b50509050610abd674f79a1617318bc6b60c01b610c43565b610ad1674aad7470d13846c160c01b610c43565b610ae5678ce52ed69693f67660c01b610c43565b6001151581151514610b2c576040517f08c379a0000000000000000000000000000000000000000000000000000000008152600401610b2390611384565b60405180910390fd5b610b406706abde97fbe1123c60c01b610c43565b610b546737cdf5c8f92341d960c01b610c43565b610b68677c95a6d1350a174860c01b610c43565b6000610b726104e6565b34610b7d919061104f565b9050610b9367491338420513a13460c01b610c43565b610ba767c9f4ec8d963220a760c01b610c43565b6000811115610bfa57610bc467464787cac3a034bb60c01b610c43565b610bd867233892d0b73dd9aa60c01b610c43565b610bec67c9a9b80a81d904c160c01b610c43565b610bf581610c46565b610c0f565b610c0e679d479d21f48cec1e60c01b610c43565b5b610c2367a24d70489a230d4160c01b610c43565b610c37679295beb6e894056060c01b610c43565b610c3f610ccc565b5050565b50565b610c5a67121be5b142f8f88d60c01b610c43565b610c6e67d20e01b631e8433e60c01b610c43565b610c82679cc914dcefdfc3a360c01b610c43565b3373ffffffffffffffffffffffffffffffffffffffff166108fc829081150290604051600060405180830381858888f19350505050158015610cc8573d6000803e3d6000fd5b5050565b610ce067536f4f11dac17a9060c01b610c43565b610cf467faf300df835874e360c01b610c43565b610d0867fc225ffce895d24960c01b610c43565b600160009054906101000a900473ffffffffffffffffffffffffffffffffffffffff1673ffffffffffffffffffffffffffffffffffffffff166323b872dd600660009054906101000a900473ffffffffffffffffffffffffffffffffffffffff16336000546040518463ffffffff1660e01b8152600401610d8b939291906113a4565b600060405180830381600087803b158015610da557600080fd5b505af1158015610db9573d6000803e3d6000fd5b50505050610dd167ba5d4a4572e1300e60c01b610c43565b600160009054906101000a900473ffffffffffffffffffffffffffffffffffffffff1673ffffffffffffffffffffffffffffffffffffffff16636352211e6000546040518263ffffffff1660e01b8152600401610e2e9190610f8b565b602060405180830381865afa158015610e4b573d6000803e3d6000fd5b505050506040513d601f19601f82011682018060405250810190610e6f919061140c565b600560006101000a81548173ffffffffffffffffffffffffffffffffffffffff021916908373ffffffffffffffffffffffffffffffffffffffff160217905550610ec36793d63782b014e6a860c01b610c43565b6000600960006101000a81548160ff021916908315150217905550565b600073ffffffffffffffffffffffffffffffffffffffff82169050919050565b6000610f0b82610ee0565b9050919050565b610f1b81610f00565b82525050565b6000602082019050610f366000830184610f12565b92915050565b60008115159050919050565b610f5181610f3c565b82525050565b6000602082019050610f6c6000830184610f48565b92915050565b6000819050919050565b610f8581610f72565b82525050565b6000602082019050610fa06000830184610f7c565b92915050565b6000819050919050565b6000610fcb610fc6610fc184610ee0565b610fa6565b610ee0565b9050919050565b6000610fdd82610fb0565b9050919050565b6000610fef82610fd2565b9050919050565b610fff81610fe4565b82525050565b600060208201905061101a6000830184610ff6565b92915050565b7f4e487b7100000000000000000000000000000000000000000000000000000000600052601160045260246000fd5b600061105a82610f72565b915061106583610f72565b925082820390508181111561107d5761107c611020565b5b92915050565b600061108e82610f72565b915061109983610f72565b92508282026110a781610f72565b915082820484148315176110be576110bd611020565b5b5092915050565b600082825260208201905092915050565b7f41756374696f6e20697320636c6f736564000000000000000000000000000000600082015250565b600061110c6011836110c5565b9150611117826110d6565b602082019050919050565b6000602082019050818103600083015261113b816110ff565b9050919050565b7f596f7520616c726561647920626f7567687420746869732070726f6475637400600082015250565b6000611178601f836110c5565b915061118382611142565b602082019050919050565b600060208201905081810360008301526111a78161116b565b9050919050565b7f50726f6475637420616c726561647920736f6c64000000000000000000000000600082015250565b60006111e46014836110c5565b91506111ef826111ae565b602082019050919050565b60006020820190508181036000830152611213816111d7565b9050919050565b7f4f776e65722063616e2774206269640000000000000000000000000000000000600082015250565b6000611250600f836110c5565b915061125b8261121a565b602082019050919050565b6000602082019050818103600083015261127f81611243565b9050919050565b7f57454920697320696e73756666696369656e7400000000000000000000000000600082015250565b60006112bc6013836110c5565b91506112c782611286565b602082019050919050565b600060208201905081810360008301526112eb816112af565b9050919050565b600081905092915050565b50565b600061130d6000836112f2565b9150611318826112fd565b600082019050919050565b600061132e82611300565b9150819050919050565b7f4661696c656420746f2073656e64000000000000000000000000000000000000600082015250565b600061136e600e836110c5565b915061137982611338565b602082019050919050565b6000602082019050818103600083015261139d81611361565b9050919050565b60006060820190506113b96000830186610f12565b6113c66020830185610f12565b6113d36040830184610f7c565b949350505050565b600080fd5b6113e981610f00565b81146113f457600080fd5b50565b600081519050611406816113e0565b92915050565b600060208284031215611422576114216113db565b5b6000611430848285016113f7565b9150509291505056fea2646970667358221220542fae39f74113d2bbeee7fb2d635b70b1864c975b3d432f614470da5249fad064736f6c63430008110033","opcodes":"PUSH1 0x80 PUSH1 0x40 MSTORE CALLVALUE DUP1 ISZERO PUSH3 0x11 JUMPI PUSH1 0x0 DUP1 REVERT JUMPDEST POP PUSH1 0x40 MLOAD PUSH3 0x1B6B CODESIZE SUB DUP1 PUSH3 0x1B6B DUP4 CODECOPY DUP2 DUP2 ADD PUSH1 0x40 MSTORE DUP2 ADD SWAP1 PUSH3 0x37 SWAP2 SWAP1 PUSH3 0x4CC JUMP JUMPDEST PUSH3 0x53 PUSH8 0x178BA1866F4FA8D4 PUSH1 0xC0 SHL PUSH3 0x424 PUSH1 0x20 SHL PUSH1 0x20 SHR JUMP JUMPDEST PUSH3 0x6F PUSH8 0x2EED34F01AEC9F0F PUSH1 0xC0 SHL PUSH3 0x424 PUSH1 0x20 SHL PUSH1 0x20 SHR JUMP JUMPDEST CALLER PUSH1 0x6 PUSH1 0x0 PUSH2 0x100 EXP DUP2 SLOAD DUP2 PUSH20 0xFFFFFFFFFFFFFFFFFFFFFFFFFFFFFFFFFFFFFFFF MUL NOT AND SWAP1 DUP4 PUSH20 0xFFFFFFFFFFFFFFFFFFFFFFFFFFFFFFFFFFFFFFFF AND MUL OR SWAP1 SSTORE POP PUSH3 0xCC PUSH8 0x40B4FFBA715D8025 PUSH1 0xC0 SHL PUSH3 0x424 PUSH1 0x20 SHL PUSH1 0x20 SHR JUMP JUMPDEST NUMBER PUSH1 0x7 DUP2 SWAP1 SSTORE POP PUSH3 0xEF PUSH8 0xEBDB8EE908EC57BF PUSH1 0xC0 SHL PUSH3 0x424 PUSH1 0x20 SHL PUSH1 0x20 SHR JUMP JUMPDEST PUSH1 0x1 PUSH1 0x9 PUSH1 0x0 PUSH2 0x100 EXP DUP2 SLOAD DUP2 PUSH1 0xFF MUL NOT AND SWAP1 DUP4 ISZERO ISZERO MUL OR SWAP1 SSTORE POP PUSH3 0x126 PUSH8 0xB53A068E877F3F6C PUSH1 0xC0 SHL PUSH3 0x424 PUSH1 0x20 SHL PUSH1 0x20 SHR JUMP JUMPDEST DUP4 PUSH1 0x0 DUP2 SWAP1 SSTORE POP PUSH3 0x149 PUSH8 0x4FD4420527AE4396 PUSH1 0xC0 SHL PUSH3 0x424 PUSH1 0x20 SHL PUSH1 0x20 SHR JUMP JUMPDEST DUP5 PUSH1 0x1 PUSH1 0x0 PUSH2 0x100 EXP DUP2 SLOAD DUP2 PUSH20 0xFFFFFFFFFFFFFFFFFFFFFFFFFFFFFFFFFFFFFFFF MUL NOT AND SWAP1 DUP4 PUSH20 0xFFFFFFFFFFFFFFFFFFFFFFFFFFFFFFFFFFFFFFFF AND MUL OR SWAP1 SSTORE POP PUSH3 0x1A6 PUSH8 0x25EBDBE3F6E49B55 PUSH1 0xC0 SHL PUSH3 0x424 PUSH1 0x20 SHL PUSH1 0x20 SHR JUMP JUMPDEST PUSH3 0x1C2 PUSH8 0x1989F91B426AF39C PUSH1 0xC0 SHL PUSH3 0x424 PUSH1 0x20 SHL PUSH1 0x20 SHR JUMP JUMPDEST PUSH3 0x1DE PUSH8 0xF7B2BACBBE8AFA0F PUSH1 0xC0 SHL PUSH3 0x424 PUSH1 0x20 SHL PUSH1 0x20 SHR JUMP JUMPDEST PUSH1 0x6 PUSH1 0x0 SWAP1 SLOAD SWAP1 PUSH2 0x100 EXP SWAP1 DIV PUSH20 0xFFFFFFFFFFFFFFFFFFFFFFFFFFFFFFFFFFFFFFFF AND PUSH20 0xFFFFFFFFFFFFFFFFFFFFFFFFFFFFFFFFFFFFFFFF AND PUSH1 0x1 PUSH1 0x0 SWAP1 SLOAD SWAP1 PUSH2 0x100 EXP SWAP1 DIV PUSH20 0xFFFFFFFFFFFFFFFFFFFFFFFFFFFFFFFFFFFFFFFF AND PUSH20 0xFFFFFFFFFFFFFFFFFFFFFFFFFFFFFFFFFFFFFFFF AND PUSH4 0x6352211E PUSH1 0x0 SLOAD PUSH1 0x40 MLOAD DUP3 PUSH4 0xFFFFFFFF AND PUSH1 0xE0 SHL DUP2 MSTORE PUSH1 0x4 ADD PUSH3 0x276 SWAP2 SWAP1 PUSH3 0x565 JUMP JUMPDEST PUSH1 0x20 PUSH1 0x40 MLOAD DUP1 DUP4 SUB DUP2 DUP7 GAS STATICCALL ISZERO DUP1 ISZERO PUSH3 0x294 JUMPI RETURNDATASIZE PUSH1 0x0 DUP1 RETURNDATACOPY RETURNDATASIZE PUSH1 0x0 REVERT JUMPDEST POP POP POP POP PUSH1 0x40 MLOAD RETURNDATASIZE PUSH1 0x1F NOT PUSH1 0x1F DUP3 ADD AND DUP3 ADD DUP1 PUSH1 0x40 MSTORE POP DUP2 ADD SWAP1 PUSH3 0x2BA SWAP2 SWAP1 PUSH3 0x582 JUMP JUMPDEST PUSH20 0xFFFFFFFFFFFFFFFFFFFFFFFFFFFFFFFFFFFFFFFF AND EQ PUSH3 0x313 JUMPI PUSH1 0x40 MLOAD PUSH32 0x8C379A000000000000000000000000000000000000000000000000000000000 DUP2 MSTORE PUSH1 0x4 ADD PUSH3 0x30A SWAP1 PUSH3 0x615 JUMP JUMPDEST PUSH1 0x40 MLOAD DUP1 SWAP2 SUB SWAP1 REVERT JUMPDEST PUSH3 0x32F PUSH8 0xA6B36AB55A4A8827 PUSH1 0xC0 SHL PUSH3 0x424 PUSH1 0x20 SHL PUSH1 0x20 SHR JUMP JUMPDEST PUSH3 0x34B PUSH8 0x6E0F7999B60FBF85 PUSH1 0xC0 SHL PUSH3 0x424 PUSH1 0x20 SHL PUSH1 0x20 SHR JUMP JUMPDEST DUP3 PUSH1 0x2 DUP2 SWAP1 SSTORE POP PUSH3 0x36E PUSH8 0x26FFA8B8EDC4C5DA PUSH1 0xC0 SHL PUSH3 0x424 PUSH1 0x20 SHL PUSH1 0x20 SHR JUMP JUMPDEST DUP2 PUSH1 0x3 DUP2 SWAP1 SSTORE POP PUSH3 0x391 PUSH8 0x747D11E8AC067B11 PUSH1 0xC0 SHL PUSH3 0x424 PUSH1 0x20 SHL PUSH1 0x20 SHR JUMP JUMPDEST DUP1 PUSH1 0x4 DUP2 SWAP1 SSTORE POP PUSH3 0x3B4 PUSH8 0x2C59B9BCC523850E PUSH1 0xC0 SHL PUSH3 0x424 PUSH1 0x20 SHL PUSH1 0x20 SHR JUMP JUMPDEST PUSH3 0x3D0 PUSH8 0xD74EF3993324D92A PUSH1 0xC0 SHL PUSH3 0x424 PUSH1 0x20 SHL PUSH1 0x20 SHR JUMP JUMPDEST PUSH1 0x0 PUSH1 0x4 SLOAD PUSH1 0x3 SLOAD PUSH3 0x3E4 SWAP2 SWAP1 PUSH3 0x666 JUMP JUMPDEST SWAP1 POP PUSH3 0x402 PUSH8 0x679AB0BAFDEA184E PUSH1 0xC0 SHL PUSH3 0x424 PUSH1 0x20 SHL PUSH1 0x20 SHR JUMP JUMPDEST PUSH1 0x2 SLOAD DUP2 PUSH3 0x412 SWAP2 SWAP1 PUSH3 0x6B1 JUMP JUMPDEST PUSH1 0x8 DUP2 SWAP1 SSTORE POP POP POP POP POP POP POP PUSH3 0x6EC JUMP JUMPDEST POP JUMP JUMPDEST PUSH1 0x0 DUP1 REVERT JUMPDEST PUSH1 0x0 PUSH20 0xFFFFFFFFFFFFFFFFFFFFFFFFFFFFFFFFFFFFFFFF DUP3 AND SWAP1 POP SWAP2 SWAP1 POP JUMP JUMPDEST PUSH1 0x0 PUSH3 0x459 DUP3 PUSH3 0x42C JUMP JUMPDEST SWAP1 POP SWAP2 SWAP1 POP JUMP JUMPDEST PUSH3 0x46B DUP2 PUSH3 0x44C JUMP JUMPDEST DUP2 EQ PUSH3 0x477 JUMPI PUSH1 0x0 DUP1 REVERT JUMPDEST POP JUMP JUMPDEST PUSH1 0x0 DUP2 MLOAD SWAP1 POP PUSH3 0x48B DUP2 PUSH3 0x460 JUMP JUMPDEST SWAP3 SWAP2 POP POP JUMP JUMPDEST PUSH1 0x0 DUP2 SWAP1 POP SWAP2 SWAP1 POP JUMP JUMPDEST PUSH3 0x4A6 DUP2 PUSH3 0x491 JUMP JUMPDEST DUP2 EQ PUSH3 0x4B2 JUMPI PUSH1 0x0 DUP1 REVERT JUMPDEST POP JUMP JUMPDEST PUSH1 0x0 DUP2 MLOAD SWAP1 POP PUSH3 0x4C6 DUP2 PUSH3 0x49B JUMP JUMPDEST SWAP3 SWAP2 POP POP JUMP JUMPDEST PUSH1 0x0 DUP1 PUSH1 0x0 DUP1 PUSH1 0x0 PUSH1 0xA0 DUP7 DUP9 SUB SLT ISZERO PUSH3 0x4EB JUMPI PUSH3 0x4EA PUSH3 0x427 JUMP JUMPDEST JUMPDEST PUSH1 0x0 PUSH3 0x4FB DUP9 DUP3 DUP10 ADD PUSH3 0x47A JUMP JUMPDEST SWAP6 POP POP PUSH1 0x20 PUSH3 0x50E DUP9 DUP3 DUP10 ADD PUSH3 0x4B5 JUMP JUMPDEST SWAP5 POP POP PUSH1 0x40 PUSH3 0x521 DUP9 DUP3 DUP10 ADD PUSH3 0x4B5 JUMP JUMPDEST SWAP4 POP POP PUSH1 0x60 PUSH3 0x534 DUP9 DUP3 DUP10 ADD PUSH3 0x4B5 JUMP JUMPDEST SWAP3 POP POP PUSH1 0x80 PUSH3 0x547 DUP9 DUP3 DUP10 ADD PUSH3 0x4B5 JUMP JUMPDEST SWAP2 POP POP SWAP3 SWAP6 POP SWAP3 SWAP6 SWAP1 SWAP4 POP JUMP JUMPDEST PUSH3 0x55F DUP2 PUSH3 0x491 JUMP JUMPDEST DUP3 MSTORE POP POP JUMP JUMPDEST PUSH1 0x0 PUSH1 0x20 DUP3 ADD SWAP1 POP PUSH3 0x57C PUSH1 0x0 DUP4 ADD DUP5 PUSH3 0x554 JUMP JUMPDEST SWAP3 SWAP2 POP POP JUMP JUMPDEST PUSH1 0x0 PUSH1 0x20 DUP3 DUP5 SUB SLT ISZERO PUSH3 0x59B JUMPI PUSH3 0x59A PUSH3 0x427 JUMP JUMPDEST JUMPDEST PUSH1 0x0 PUSH3 0x5AB DUP5 DUP3 DUP6 ADD PUSH3 0x47A JUMP JUMPDEST SWAP2 POP POP SWAP3 SWAP2 POP POP JUMP JUMPDEST PUSH1 0x0 DUP3 DUP3 MSTORE PUSH1 0x20 DUP3 ADD SWAP1 POP SWAP3 SWAP2 POP POP JUMP JUMPDEST PUSH32 0x596F7520646F6E2774206F776E2074686973204E465420746F2073656C6C0000 PUSH1 0x0 DUP3 ADD MSTORE POP JUMP JUMPDEST PUSH1 0x0 PUSH3 0x5FD PUSH1 0x1E DUP4 PUSH3 0x5B4 JUMP JUMPDEST SWAP2 POP PUSH3 0x60A DUP3 PUSH3 0x5C5 JUMP JUMPDEST PUSH1 0x20 DUP3 ADD SWAP1 POP SWAP2 SWAP1 POP JUMP JUMPDEST PUSH1 0x0 PUSH1 0x20 DUP3 ADD SWAP1 POP DUP2 DUP2 SUB PUSH1 0x0 DUP4 ADD MSTORE PUSH3 0x630 DUP2 PUSH3 0x5EE JUMP JUMPDEST SWAP1 POP SWAP2 SWAP1 POP JUMP JUMPDEST PUSH32 0x4E487B7100000000000000000000000000000000000000000000000000000000 PUSH1 0x0 MSTORE PUSH1 0x11 PUSH1 0x4 MSTORE PUSH1 0x24 PUSH1 0x0 REVERT JUMPDEST PUSH1 0x0 PUSH3 0x673 DUP3 PUSH3 0x491 JUMP JUMPDEST SWAP2 POP PUSH3 0x680 DUP4 PUSH3 0x491 JUMP JUMPDEST SWAP3 POP DUP3 DUP3 MUL PUSH3 0x690 DUP2 PUSH3 0x491 JUMP JUMPDEST SWAP2 POP DUP3 DUP3 DIV DUP5 EQ DUP4 ISZERO OR PUSH3 0x6AA JUMPI PUSH3 0x6A9 PUSH3 0x637 JUMP JUMPDEST JUMPDEST POP SWAP3 SWAP2 POP POP JUMP JUMPDEST PUSH1 0x0 PUSH3 0x6BE DUP3 PUSH3 0x491 JUMP JUMPDEST SWAP2 POP PUSH3 0x6CB DUP4 PUSH3 0x491 JUMP JUMPDEST SWAP3 POP DUP3 DUP3 ADD SWAP1 POP DUP1 DUP3 GT ISZERO PUSH3 0x6E6 JUMPI PUSH3 0x6E5 PUSH3 0x637 JUMP JUMPDEST JUMPDEST SWAP3 SWAP2 POP POP JUMP JUMPDEST PUSH2 0x146F DUP1 PUSH3 0x6FC PUSH1 0x0 CODECOPY PUSH1 0x0 RETURN INVALID PUSH1 0x80 PUSH1 0x40 MSTORE PUSH1 0x4 CALLDATASIZE LT PUSH2 0xE8 JUMPI PUSH1 0x0 CALLDATALOAD PUSH1 0xE0 SHR DUP1 PUSH4 0x672D5D3B GT PUSH2 0x8A JUMPI DUP1 PUSH4 0xD3642A88 GT PUSH2 0x59 JUMPI DUP1 PUSH4 0xD3642A88 EQ PUSH2 0x2C6 JUMPI DUP1 PUSH4 0xDB2E1EED EQ PUSH2 0x2F1 JUMPI DUP1 PUSH4 0xEB91D37E EQ PUSH2 0x31C JUMPI DUP1 PUSH4 0xECFC7ECC EQ PUSH2 0x347 JUMPI PUSH2 0xE8 JUMP JUMPDEST DUP1 PUSH4 0x672D5D3B EQ PUSH2 0x21A JUMPI DUP1 PUSH4 0x7150D8AE EQ PUSH2 0x245 JUMPI DUP1 PUSH4 0xC6BC5182 EQ PUSH2 0x270 JUMPI DUP1 PUSH4 0xCCA41427 EQ PUSH2 0x29B JUMPI PUSH2 0xE8 JUMP JUMPDEST DUP1 PUSH4 0x3103EA62 GT PUSH2 0xC6 JUMPI DUP1 PUSH4 0x3103EA62 EQ PUSH2 0x16E JUMPI DUP1 PUSH4 0x42C71D2B EQ PUSH2 0x199 JUMPI DUP1 PUSH4 0x5BF8633A EQ PUSH2 0x1C4 JUMPI DUP1 PUSH4 0x5D05125B EQ PUSH2 0x1EF JUMPI PUSH2 0xE8 JUMP JUMPDEST DUP1 PUSH4 0x8551A53 EQ PUSH2 0xED JUMPI DUP1 PUSH4 0xB48AB8F EQ PUSH2 0x118 JUMPI DUP1 PUSH4 0x1D0806AE EQ PUSH2 0x143 JUMPI JUMPDEST PUSH1 0x0 DUP1 REVERT JUMPDEST CALLVALUE DUP1 ISZERO PUSH2 0xF9 JUMPI PUSH1 0x0 DUP1 REVERT JUMPDEST POP PUSH2 0x102 PUSH2 0x351 JUMP JUMPDEST PUSH1 0x40 MLOAD PUSH2 0x10F SWAP2 SWAP1 PUSH2 0xF21 JUMP JUMPDEST PUSH1 0x40 MLOAD DUP1 SWAP2 SUB SWAP1 RETURN JUMPDEST CALLVALUE DUP1 ISZERO PUSH2 0x124 JUMPI PUSH1 0x0 DUP1 REVERT JUMPDEST POP PUSH2 0x12D PUSH2 0x377 JUMP JUMPDEST PUSH1 0x40 MLOAD PUSH2 0x13A SWAP2 SWAP1 PUSH2 0xF57 JUMP JUMPDEST PUSH1 0x40 MLOAD DUP1 SWAP2 SUB SWAP1 RETURN JUMPDEST CALLVALUE DUP1 ISZERO PUSH2 0x14F JUMPI PUSH1 0x0 DUP1 REVERT JUMPDEST POP PUSH2 0x158 PUSH2 0x38A JUMP JUMPDEST PUSH1 0x40 MLOAD PUSH2 0x165 SWAP2 SWAP1 PUSH2 0xF8B JUMP JUMPDEST PUSH1 0x40 MLOAD DUP1 SWAP2 SUB SWAP1 RETURN JUMPDEST CALLVALUE DUP1 ISZERO PUSH2 0x17A JUMPI PUSH1 0x0 DUP1 REVERT JUMPDEST POP PUSH2 0x183 PUSH2 0x390 JUMP JUMPDEST PUSH1 0x40 MLOAD PUSH2 0x190 SWAP2 SWAP1 PUSH2 0xF8B JUMP JUMPDEST PUSH1 0x40 MLOAD DUP1 SWAP2 SUB SWAP1 RETURN JUMPDEST CALLVALUE DUP1 ISZERO PUSH2 0x1A5 JUMPI PUSH1 0x0 DUP1 REVERT JUMPDEST POP PUSH2 0x1AE PUSH2 0x396 JUMP JUMPDEST PUSH1 0x40 MLOAD PUSH2 0x1BB SWAP2 SWAP1 PUSH2 0xF8B JUMP JUMPDEST PUSH1 0x40 MLOAD DUP1 SWAP2 SUB SWAP1 RETURN JUMPDEST CALLVALUE DUP1 ISZERO PUSH2 0x1D0 JUMPI PUSH1 0x0 DUP1 REVERT JUMPDEST POP PUSH2 0x1D9 PUSH2 0x3EE JUMP JUMPDEST PUSH1 0x40 MLOAD PUSH2 0x1E6 SWAP2 SWAP1 PUSH2 0x1005 JUMP JUMPDEST PUSH1 0x40 MLOAD DUP1 SWAP2 SUB SWAP1 RETURN JUMPDEST CALLVALUE DUP1 ISZERO PUSH2 0x1FB JUMPI PUSH1 0x0 DUP1 REVERT JUMPDEST POP PUSH2 0x204 PUSH2 0x414 JUMP JUMPDEST PUSH1 0x40 MLOAD PUSH2 0x211 SWAP2 SWAP1 PUSH2 0xF8B JUMP JUMPDEST PUSH1 0x40 MLOAD DUP1 SWAP2 SUB SWAP1 RETURN JUMPDEST CALLVALUE DUP1 ISZERO PUSH2 0x226 JUMPI PUSH1 0x0 DUP1 REVERT JUMPDEST POP PUSH2 0x22F PUSH2 0x41A JUMP JUMPDEST PUSH1 0x40 MLOAD PUSH2 0x23C SWAP2 SWAP1 PUSH2 0xF8B JUMP JUMPDEST PUSH1 0x40 MLOAD DUP1 SWAP2 SUB SWAP1 RETURN JUMPDEST CALLVALUE DUP1 ISZERO PUSH2 0x251 JUMPI PUSH1 0x0 DUP1 REVERT JUMPDEST POP PUSH2 0x25A PUSH2 0x45E JUMP JUMPDEST PUSH1 0x40 MLOAD PUSH2 0x267 SWAP2 SWAP1 PUSH2 0xF21 JUMP JUMPDEST PUSH1 0x40 MLOAD DUP1 SWAP2 SUB SWAP1 RETURN JUMPDEST CALLVALUE DUP1 ISZERO PUSH2 0x27C JUMPI PUSH1 0x0 DUP1 REVERT JUMPDEST POP PUSH2 0x285 PUSH2 0x484 JUMP JUMPDEST PUSH1 0x40 MLOAD PUSH2 0x292 SWAP2 SWAP1 PUSH2 0xF8B JUMP JUMPDEST PUSH1 0x40 MLOAD DUP1 SWAP2 SUB SWAP1 RETURN JUMPDEST CALLVALUE DUP1 ISZERO PUSH2 0x2A7 JUMPI PUSH1 0x0 DUP1 REVERT JUMPDEST POP PUSH2 0x2B0 PUSH2 0x48A JUMP JUMPDEST PUSH1 0x40 MLOAD PUSH2 0x2BD SWAP2 SWAP1 PUSH2 0xF57 JUMP JUMPDEST PUSH1 0x40 MLOAD DUP1 SWAP2 SUB SWAP1 RETURN JUMPDEST CALLVALUE DUP1 ISZERO PUSH2 0x2D2 JUMPI PUSH1 0x0 DUP1 REVERT JUMPDEST POP PUSH2 0x2DB PUSH2 0x4DA JUMP JUMPDEST PUSH1 0x40 MLOAD PUSH2 0x2E8 SWAP2 SWAP1 PUSH2 0xF8B JUMP JUMPDEST PUSH1 0x40 MLOAD DUP1 SWAP2 SUB SWAP1 RETURN JUMPDEST CALLVALUE DUP1 ISZERO PUSH2 0x2FD JUMPI PUSH1 0x0 DUP1 REVERT JUMPDEST POP PUSH2 0x306 PUSH2 0x4E0 JUMP JUMPDEST PUSH1 0x40 MLOAD PUSH2 0x313 SWAP2 SWAP1 PUSH2 0xF8B JUMP JUMPDEST PUSH1 0x40 MLOAD DUP1 SWAP2 SUB SWAP1 RETURN JUMPDEST CALLVALUE DUP1 ISZERO PUSH2 0x328 JUMPI PUSH1 0x0 DUP1 REVERT JUMPDEST POP PUSH2 0x331 PUSH2 0x4E6 JUMP JUMPDEST PUSH1 0x40 MLOAD PUSH2 0x33E SWAP2 SWAP1 PUSH2 0xF8B JUMP JUMPDEST PUSH1 0x40 MLOAD DUP1 SWAP2 SUB SWAP1 RETURN JUMPDEST PUSH2 0x34F PUSH2 0x606 JUMP JUMPDEST STOP JUMPDEST PUSH1 0x6 PUSH1 0x0 SWAP1 SLOAD SWAP1 PUSH2 0x100 EXP SWAP1 DIV PUSH20 0xFFFFFFFFFFFFFFFFFFFFFFFFFFFFFFFFFFFFFFFF AND DUP2 JUMP JUMPDEST PUSH1 0x9 PUSH1 0x0 SWAP1 SLOAD SWAP1 PUSH2 0x100 EXP SWAP1 DIV PUSH1 0xFF AND DUP2 JUMP JUMPDEST PUSH1 0x8 SLOAD DUP2 JUMP JUMPDEST PUSH1 0x3 SLOAD DUP2 JUMP JUMPDEST PUSH1 0x0 PUSH2 0x3AC PUSH8 0x83A0FA238FE5507E PUSH1 0xC0 SHL PUSH2 0xC43 JUMP JUMPDEST PUSH2 0x3C0 PUSH8 0xEC5E4D17337359FE PUSH1 0xC0 SHL PUSH2 0xC43 JUMP JUMPDEST PUSH2 0x3D4 PUSH8 0x89DD0AB97D4A9AD4 PUSH1 0xC0 SHL PUSH2 0xC43 JUMP JUMPDEST PUSH1 0x7 SLOAD PUSH2 0x3DF PUSH2 0x41A JUMP JUMPDEST PUSH2 0x3E9 SWAP2 SWAP1 PUSH2 0x104F JUMP JUMPDEST SWAP1 POP SWAP1 JUMP JUMPDEST PUSH1 0x1 PUSH1 0x0 SWAP1 SLOAD SWAP1 PUSH2 0x100 EXP SWAP1 DIV PUSH20 0xFFFFFFFFFFFFFFFFFFFFFFFFFFFFFFFFFFFFFFFF AND DUP2 JUMP JUMPDEST PUSH1 0x7 SLOAD DUP2 JUMP JUMPDEST PUSH1 0x0 PUSH2 0x430 PUSH8 0x74DE773792D477BC PUSH1 0xC0 SHL PUSH2 0xC43 JUMP JUMPDEST PUSH2 0x444 PUSH8 0x489FF98932972B02 PUSH1 0xC0 SHL PUSH2 0xC43 JUMP JUMPDEST PUSH2 0x458 PUSH8 0x6B2D1386A9E17849 PUSH1 0xC0 SHL PUSH2 0xC43 JUMP JUMPDEST NUMBER SWAP1 POP SWAP1 JUMP JUMPDEST PUSH1 0x5 PUSH1 0x0 SWAP1 SLOAD SWAP1 PUSH2 0x100 EXP SWAP1 DIV PUSH20 0xFFFFFFFFFFFFFFFFFFFFFFFFFFFFFFFFFFFFFFFF AND DUP2 JUMP JUMPDEST PUSH1 0x0 SLOAD DUP2 JUMP JUMPDEST PUSH1 0x0 PUSH2 0x4A0 PUSH8 0xA4C1AABA673FA723 PUSH1 0xC0 SHL PUSH2 0xC43 JUMP JUMPDEST PUSH2 0x4B4 PUSH8 0x3DC9C49CFFDA5095 PUSH1 0xC0 SHL PUSH2 0xC43 JUMP JUMPDEST PUSH2 0x4C8 PUSH8 0xE72518B674D37595 PUSH1 0xC0 SHL PUSH2 0xC43 JUMP JUMPDEST PUSH1 0x3 SLOAD PUSH2 0x4D3 PUSH2 0x396 JUMP JUMPDEST GT ISZERO SWAP1 POP SWAP1 JUMP JUMPDEST PUSH1 0x4 SLOAD DUP2 JUMP JUMPDEST PUSH1 0x2 SLOAD DUP2 JUMP JUMPDEST PUSH1 0x0 PUSH2 0x4FC PUSH8 0xE8F4B8F2A5816D88 PUSH1 0xC0 SHL PUSH2 0xC43 JUMP JUMPDEST PUSH2 0x510 PUSH8 0xFCA88963F97E5ED0 PUSH1 0xC0 SHL PUSH2 0xC43 JUMP JUMPDEST PUSH2 0x524 PUSH8 0x531628A5B2D9E7D5 PUSH1 0xC0 SHL PUSH2 0xC43 JUMP JUMPDEST PUSH1 0x0 PUSH2 0x52E PUSH2 0x396 JUMP JUMPDEST SWAP1 POP PUSH2 0x544 PUSH8 0x9044C24C0F1A3C4B PUSH1 0xC0 SHL PUSH2 0xC43 JUMP JUMPDEST PUSH2 0x558 PUSH8 0x2383C4ABC7F39C0A PUSH1 0xC0 SHL PUSH2 0xC43 JUMP JUMPDEST PUSH1 0x3 SLOAD DUP2 LT PUSH2 0x5A8 JUMPI PUSH2 0x575 PUSH8 0x2D1A4C6646820E5E PUSH1 0xC0 SHL PUSH2 0xC43 JUMP JUMPDEST PUSH2 0x589 PUSH8 0x49C5AF0599C60F87 PUSH1 0xC0 SHL PUSH2 0xC43 JUMP JUMPDEST PUSH2 0x59D PUSH8 0x3C1761CE3F87340A PUSH1 0xC0 SHL PUSH2 0xC43 JUMP JUMPDEST PUSH1 0x2 SLOAD SWAP2 POP POP PUSH2 0x603 JUMP JUMPDEST PUSH2 0x5BC PUSH8 0x2DE3201F20358008 PUSH1 0xC0 SHL PUSH2 0xC43 JUMP JUMPDEST PUSH2 0x5D0 PUSH8 0xF6CDCD252BFB7CC8 PUSH1 0xC0 SHL PUSH2 0xC43 JUMP JUMPDEST PUSH2 0x5E4 PUSH8 0xD7F8A26CBF95F01 PUSH1 0xC0 SHL PUSH2 0xC43 JUMP JUMPDEST PUSH1 0x4 SLOAD DUP2 PUSH2 0x5F2 SWAP2 SWAP1 PUSH2 0x1083 JUMP JUMPDEST PUSH1 0x8 SLOAD PUSH2 0x5FF SWAP2 SWAP1 PUSH2 0x104F JUMP JUMPDEST SWAP2 POP POP JUMPDEST SWAP1 JUMP JUMPDEST PUSH2 0x61A PUSH8 0x24B5CB9A691F8445 PUSH1 0xC0 SHL PUSH2 0xC43 JUMP JUMPDEST PUSH2 0x62E PUSH8 0x45CB79A56A2B631B PUSH1 0xC0 SHL PUSH2 0xC43 JUMP JUMPDEST PUSH2 0x642 PUSH8 0xB26C470BAAD13C8E PUSH1 0xC0 SHL PUSH2 0xC43 JUMP JUMPDEST PUSH2 0x656 PUSH8 0x40D8313109796745 PUSH1 0xC0 SHL PUSH2 0xC43 JUMP JUMPDEST PUSH2 0x65E PUSH2 0x48A JUMP JUMPDEST PUSH2 0x69D JUMPI PUSH1 0x40 MLOAD PUSH32 0x8C379A000000000000000000000000000000000000000000000000000000000 DUP2 MSTORE PUSH1 0x4 ADD PUSH2 0x694 SWAP1 PUSH2 0x1122 JUMP JUMPDEST PUSH1 0x40 MLOAD DUP1 SWAP2 SUB SWAP1 REVERT JUMPDEST PUSH2 0x6B1 PUSH8 0x45CA6277E9D29089 PUSH1 0xC0 SHL PUSH2 0xC43 JUMP JUMPDEST PUSH2 0x6C5 PUSH8 0xCD2A838648DCDF01 PUSH1 0xC0 SHL PUSH2 0xC43 JUMP JUMPDEST PUSH2 0x6D9 PUSH8 0x9AFDC418EE4C69E1 PUSH1 0xC0 SHL PUSH2 0xC43 JUMP JUMPDEST PUSH2 0x6ED PUSH8 0xA1A0902D24105432 PUSH1 0xC0 SHL PUSH2 0xC43 JUMP JUMPDEST PUSH1 0x5 PUSH1 0x0 SWAP1 SLOAD SWAP1 PUSH2 0x100 EXP SWAP1 DIV PUSH20 0xFFFFFFFFFFFFFFFFFFFFFFFFFFFFFFFFFFFFFFFF AND PUSH20 0xFFFFFFFFFFFFFFFFFFFFFFFFFFFFFFFFFFFFFFFF AND CALLER PUSH20 0xFFFFFFFFFFFFFFFFFFFFFFFFFFFFFFFFFFFFFFFF AND SUB PUSH2 0x77D JUMPI PUSH1 0x40 MLOAD PUSH32 0x8C379A000000000000000000000000000000000000000000000000000000000 DUP2 MSTORE PUSH1 0x4 ADD PUSH2 0x774 SWAP1 PUSH2 0x118E JUMP JUMPDEST PUSH1 0x40 MLOAD DUP1 SWAP2 SUB SWAP1 REVERT JUMPDEST PUSH2 0x791 PUSH8 0xD5C699647AF115C5 PUSH1 0xC0 SHL PUSH2 0xC43 JUMP JUMPDEST PUSH2 0x7A5 PUSH8 0x3ED20A6E8F4EC650 PUSH1 0xC0 SHL PUSH2 0xC43 JUMP JUMPDEST PUSH2 0x7B9 PUSH8 0x71659A7A5445159F PUSH1 0xC0 SHL PUSH2 0xC43 JUMP JUMPDEST PUSH2 0x7CD PUSH8 0x7CD051BA68EA722B PUSH1 0xC0 SHL PUSH2 0xC43 JUMP JUMPDEST PUSH1 0x0 PUSH20 0xFFFFFFFFFFFFFFFFFFFFFFFFFFFFFFFFFFFFFFFF AND PUSH1 0x5 PUSH1 0x0 SWAP1 SLOAD SWAP1 PUSH2 0x100 EXP SWAP1 DIV PUSH20 0xFFFFFFFFFFFFFFFFFFFFFFFFFFFFFFFFFFFFFFFF AND PUSH20 0xFFFFFFFFFFFFFFFFFFFFFFFFFFFFFFFFFFFFFFFF AND EQ PUSH2 0x85E JUMPI PUSH1 0x40 MLOAD PUSH32 0x8C379A000000000000000000000000000000000000000000000000000000000 DUP2 MSTORE PUSH1 0x4 ADD PUSH2 0x855 SWAP1 PUSH2 0x11FA JUMP JUMPDEST PUSH1 0x40 MLOAD DUP1 SWAP2 SUB SWAP1 REVERT JUMPDEST PUSH2 0x872 PUSH8 0xFF05876E45527044 PUSH1 0xC0 SHL PUSH2 0xC43 JUMP JUMPDEST PUSH2 0x886 PUSH8 0xD6051A504DEE1E7 PUSH1 0xC0 SHL PUSH2 0xC43 JUMP JUMPDEST PUSH2 0x89A PUSH8 0x8ACDD0EB2E2DB23B PUSH1 0xC0 SHL PUSH2 0xC43 JUMP JUMPDEST PUSH2 0x8AE PUSH8 0x73E61756E1573EBF PUSH1 0xC0 SHL PUSH2 0xC43 JUMP JUMPDEST PUSH1 0x6 PUSH1 0x0 SWAP1 SLOAD SWAP1 PUSH2 0x100 EXP SWAP1 DIV PUSH20 0xFFFFFFFFFFFFFFFFFFFFFFFFFFFFFFFFFFFFFFFF AND PUSH20 0xFFFFFFFFFFFFFFFFFFFFFFFFFFFFFFFFFFFFFFFF AND CALLER PUSH20 0xFFFFFFFFFFFFFFFFFFFFFFFFFFFFFFFFFFFFFFFF AND SUB PUSH2 0x93E JUMPI PUSH1 0x40 MLOAD PUSH32 0x8C379A000000000000000000000000000000000000000000000000000000000 DUP2 MSTORE PUSH1 0x4 ADD PUSH2 0x935 SWAP1 PUSH2 0x1266 JUMP JUMPDEST PUSH1 0x40 MLOAD DUP1 SWAP2 SUB SWAP1 REVERT JUMPDEST PUSH2 0x952 PUSH8 0xE88214C57E3DDF4 PUSH1 0xC0 SHL PUSH2 0xC43 JUMP JUMPDEST PUSH2 0x966 PUSH8 0xFECB1A17D2EDE249 PUSH1 0xC0 SHL PUSH2 0xC43 JUMP JUMPDEST PUSH2 0x97A PUSH8 0x73B197044D02DCB3 PUSH1 0xC0 SHL PUSH2 0xC43 JUMP JUMPDEST PUSH2 0x98E PUSH8 0x27795F7974A1B2C3 PUSH1 0xC0 SHL PUSH2 0xC43 JUMP JUMPDEST PUSH2 0x996 PUSH2 0x4E6 JUMP JUMPDEST CALLVALUE LT ISZERO PUSH2 0x9D8 JUMPI PUSH1 0x40 MLOAD PUSH32 0x8C379A000000000000000000000000000000000000000000000000000000000 DUP2 MSTORE PUSH1 0x4 ADD PUSH2 0x9CF SWAP1 PUSH2 0x12D2 JUMP JUMPDEST PUSH1 0x40 MLOAD DUP1 SWAP2 SUB SWAP1 REVERT JUMPDEST PUSH2 0x9EC PUSH8 0x8F4B71256890816F PUSH1 0xC0 SHL PUSH2 0xC43 JUMP JUMPDEST PUSH2 0xA00 PUSH8 0x7421CF00F7EE39AC PUSH1 0xC0 SHL PUSH2 0xC43 JUMP JUMPDEST PUSH2 0xA14 PUSH8 0xC4C8AD51696BE904 PUSH1 0xC0 SHL PUSH2 0xC43 JUMP JUMPDEST PUSH1 0x0 PUSH1 0x6 PUSH1 0x0 SWAP1 SLOAD SWAP1 PUSH2 0x100 EXP SWAP1 DIV PUSH20 0xFFFFFFFFFFFFFFFFFFFFFFFFFFFFFFFFFFFFFFFF AND PUSH20 0xFFFFFFFFFFFFFFFFFFFFFFFFFFFFFFFFFFFFFFFF AND PUSH2 0xA57 PUSH2 0x4E6 JUMP JUMPDEST PUSH1 0x40 MLOAD PUSH2 0xA63 SWAP1 PUSH2 0x1323 JUMP JUMPDEST PUSH1 0x0 PUSH1 0x40 MLOAD DUP1 DUP4 SUB DUP2 DUP6 DUP8 GAS CALL SWAP3 POP POP POP RETURNDATASIZE DUP1 PUSH1 0x0 DUP2 EQ PUSH2 0xAA0 JUMPI PUSH1 0x40 MLOAD SWAP2 POP PUSH1 0x1F NOT PUSH1 0x3F RETURNDATASIZE ADD AND DUP3 ADD PUSH1 0x40 MSTORE RETURNDATASIZE DUP3 MSTORE RETURNDATASIZE PUSH1 0x0 PUSH1 0x20 DUP5 ADD RETURNDATACOPY PUSH2 0xAA5 JUMP JUMPDEST PUSH1 0x60 SWAP2 POP JUMPDEST POP POP SWAP1 POP PUSH2 0xABD PUSH8 0x4F79A1617318BC6B PUSH1 0xC0 SHL PUSH2 0xC43 JUMP JUMPDEST PUSH2 0xAD1 PUSH8 0x4AAD7470D13846C1 PUSH1 0xC0 SHL PUSH2 0xC43 JUMP JUMPDEST PUSH2 0xAE5 PUSH8 0x8CE52ED69693F676 PUSH1 0xC0 SHL PUSH2 0xC43 JUMP JUMPDEST PUSH1 0x1 ISZERO ISZERO DUP2 ISZERO ISZERO EQ PUSH2 0xB2C JUMPI PUSH1 0x40 MLOAD PUSH32 0x8C379A000000000000000000000000000000000000000000000000000000000 DUP2 MSTORE PUSH1 0x4 ADD PUSH2 0xB23 SWAP1 PUSH2 0x1384 JUMP JUMPDEST PUSH1 0x40 MLOAD DUP1 SWAP2 SUB SWAP1 REVERT JUMPDEST PUSH2 0xB40 PUSH8 0x6ABDE97FBE1123C PUSH1 0xC0 SHL PUSH2 0xC43 JUMP JUMPDEST PUSH2 0xB54 PUSH8 0x37CDF5C8F92341D9 PUSH1 0xC0 SHL PUSH2 0xC43 JUMP JUMPDEST PUSH2 0xB68 PUSH8 0x7C95A6D1350A1748 PUSH1 0xC0 SHL PUSH2 0xC43 JUMP JUMPDEST PUSH1 0x0 PUSH2 0xB72 PUSH2 0x4E6 JUMP JUMPDEST CALLVALUE PUSH2 0xB7D SWAP2 SWAP1 PUSH2 0x104F JUMP JUMPDEST SWAP1 POP PUSH2 0xB93 PUSH8 0x491338420513A134 PUSH1 0xC0 SHL PUSH2 0xC43 JUMP JUMPDEST PUSH2 0xBA7 PUSH8 0xC9F4EC8D963220A7 PUSH1 0xC0 SHL PUSH2 0xC43 JUMP JUMPDEST PUSH1 0x0 DUP2 GT ISZERO PUSH2 0xBFA JUMPI PUSH2 0xBC4 PUSH8 0x464787CAC3A034BB PUSH1 0xC0 SHL PUSH2 0xC43 JUMP JUMPDEST PUSH2 0xBD8 PUSH8 0x233892D0B73DD9AA PUSH1 0xC0 SHL PUSH2 0xC43 JUMP JUMPDEST PUSH2 0xBEC PUSH8 0xC9A9B80A81D904C1 PUSH1 0xC0 SHL PUSH2 0xC43 JUMP JUMPDEST PUSH2 0xBF5 DUP2 PUSH2 0xC46 JUMP JUMPDEST PUSH2 0xC0F JUMP JUMPDEST PUSH2 0xC0E PUSH8 0x9D479D21F48CEC1E PUSH1 0xC0 SHL PUSH2 0xC43 JUMP JUMPDEST JUMPDEST PUSH2 0xC23 PUSH8 0xA24D70489A230D41 PUSH1 0xC0 SHL PUSH2 0xC43 JUMP JUMPDEST PUSH2 0xC37 PUSH8 0x9295BEB6E8940560 PUSH1 0xC0 SHL PUSH2 0xC43 JUMP JUMPDEST PUSH2 0xC3F PUSH2 0xCCC JUMP JUMPDEST POP POP JUMP JUMPDEST POP JUMP JUMPDEST PUSH2 0xC5A PUSH8 0x121BE5B142F8F88D PUSH1 0xC0 SHL PUSH2 0xC43 JUMP JUMPDEST PUSH2 0xC6E PUSH8 0xD20E01B631E8433E PUSH1 0xC0 SHL PUSH2 0xC43 JUMP JUMPDEST PUSH2 0xC82 PUSH8 0x9CC914DCEFDFC3A3 PUSH1 0xC0 SHL PUSH2 0xC43 JUMP JUMPDEST CALLER PUSH20 0xFFFFFFFFFFFFFFFFFFFFFFFFFFFFFFFFFFFFFFFF AND PUSH2 0x8FC DUP3 SWAP1 DUP2 ISZERO MUL SWAP1 PUSH1 0x40 MLOAD PUSH1 0x0 PUSH1 0x40 MLOAD DUP1 DUP4 SUB DUP2 DUP6 DUP9 DUP9 CALL SWAP4 POP POP POP POP ISZERO DUP1 ISZERO PUSH2 0xCC8 JUMPI RETURNDATASIZE PUSH1 0x0 DUP1 RETURNDATACOPY RETURNDATASIZE PUSH1 0x0 REVERT JUMPDEST POP POP JUMP JUMPDEST PUSH2 0xCE0 PUSH8 0x536F4F11DAC17A90 PUSH1 0xC0 SHL PUSH2 0xC43 JUMP JUMPDEST PUSH2 0xCF4 PUSH8 0xFAF300DF835874E3 PUSH1 0xC0 SHL PUSH2 0xC43 JUMP JUMPDEST PUSH2 0xD08 PUSH8 0xFC225FFCE895D249 PUSH1 0xC0 SHL PUSH2 0xC43 JUMP JUMPDEST PUSH1 0x1 PUSH1 0x0 SWAP1 SLOAD SWAP1 PUSH2 0x100 EXP SWAP1 DIV PUSH20 0xFFFFFFFFFFFFFFFFFFFFFFFFFFFFFFFFFFFFFFFF AND PUSH20 0xFFFFFFFFFFFFFFFFFFFFFFFFFFFFFFFFFFFFFFFF AND PUSH4 0x23B872DD PUSH1 0x6 PUSH1 0x0 SWAP1 SLOAD SWAP1 PUSH2 0x100 EXP SWAP1 DIV PUSH20 0xFFFFFFFFFFFFFFFFFFFFFFFFFFFFFFFFFFFFFFFF AND CALLER PUSH1 0x0 SLOAD PUSH1 0x40 MLOAD DUP5 PUSH4 0xFFFFFFFF AND PUSH1 0xE0 SHL DUP2 MSTORE PUSH1 0x4 ADD PUSH2 0xD8B SWAP4 SWAP3 SWAP2 SWAP1 PUSH2 0x13A4 JUMP JUMPDEST PUSH1 0x0 PUSH1 0x40 MLOAD DUP1 DUP4 SUB DUP2 PUSH1 0x0 DUP8 DUP1 EXTCODESIZE ISZERO DUP1 ISZERO PUSH2 0xDA5 JUMPI PUSH1 0x0 DUP1 REVERT JUMPDEST POP GAS CALL ISZERO DUP1 ISZERO PUSH2 0xDB9 JUMPI RETURNDATASIZE PUSH1 0x0 DUP1 RETURNDATACOPY RETURNDATASIZE PUSH1 0x0 REVERT JUMPDEST POP POP POP POP PUSH2 0xDD1 PUSH8 0xBA5D4A4572E1300E PUSH1 0xC0 SHL PUSH2 0xC43 JUMP JUMPDEST PUSH1 0x1 PUSH1 0x0 SWAP1 SLOAD SWAP1 PUSH2 0x100 EXP SWAP1 DIV PUSH20 0xFFFFFFFFFFFFFFFFFFFFFFFFFFFFFFFFFFFFFFFF AND PUSH20 0xFFFFFFFFFFFFFFFFFFFFFFFFFFFFFFFFFFFFFFFF AND PUSH4 0x6352211E PUSH1 0x0 SLOAD PUSH1 0x40 MLOAD DUP3 PUSH4 0xFFFFFFFF AND PUSH1 0xE0 SHL DUP2 MSTORE PUSH1 0x4 ADD PUSH2 0xE2E SWAP2 SWAP1 PUSH2 0xF8B JUMP JUMPDEST PUSH1 0x20 PUSH1 0x40 MLOAD DUP1 DUP4 SUB DUP2 DUP7 GAS STATICCALL ISZERO DUP1 ISZERO PUSH2 0xE4B JUMPI RETURNDATASIZE PUSH1 0x0 DUP1 RETURNDATACOPY RETURNDATASIZE PUSH1 0x0 REVERT JUMPDEST POP POP POP POP PUSH1 0x40 MLOAD RETURNDATASIZE PUSH1 0x1F NOT PUSH1 0x1F DUP3 ADD AND DUP3 ADD DUP1 PUSH1 0x40 MSTORE POP DUP2 ADD SWAP1 PUSH2 0xE6F SWAP2 SWAP1 PUSH2 0x140C JUMP JUMPDEST PUSH1 0x5 PUSH1 0x0 PUSH2 0x100 EXP DUP2 SLOAD DUP2 PUSH20 0xFFFFFFFFFFFFFFFFFFFFFFFFFFFFFFFFFFFFFFFF MUL NOT AND SWAP1 DUP4 PUSH20 0xFFFFFFFFFFFFFFFFFFFFFFFFFFFFFFFFFFFFFFFF AND MUL OR SWAP1 SSTORE POP PUSH2 0xEC3 PUSH8 0x93D63782B014E6A8 PUSH1 0xC0 SHL PUSH2 0xC43 JUMP JUMPDEST PUSH1 0x0 PUSH1 0x9 PUSH1 0x0 PUSH2 0x100 EXP DUP2 SLOAD DUP2 PUSH1 0xFF MUL NOT AND SWAP1 DUP4 ISZERO ISZERO MUL OR SWAP1 SSTORE POP JUMP JUMPDEST PUSH1 0x0 PUSH20 0xFFFFFFFFFFFFFFFFFFFFFFFFFFFFFFFFFFFFFFFF DUP3 AND SWAP1 POP SWAP2 SWAP1 POP JUMP JUMPDEST PUSH1 0x0 PUSH2 0xF0B DUP3 PUSH2 0xEE0 JUMP JUMPDEST SWAP1 POP SWAP2 SWAP1 POP JUMP JUMPDEST PUSH2 0xF1B DUP2 PUSH2 0xF00 JUMP JUMPDEST DUP3 MSTORE POP POP JUMP JUMPDEST PUSH1 0x0 PUSH1 0x20 DUP3 ADD SWAP1 POP PUSH2 0xF36 PUSH1 0x0 DUP4 ADD DUP5 PUSH2 0xF12 JUMP JUMPDEST SWAP3 SWAP2 POP POP JUMP JUMPDEST PUSH1 0x0 DUP2 ISZERO ISZERO SWAP1 POP SWAP2 SWAP1 POP JUMP JUMPDEST PUSH2 0xF51 DUP2 PUSH2 0xF3C JUMP JUMPDEST DUP3 MSTORE POP POP JUMP JUMPDEST PUSH1 0x0 PUSH1 0x20 DUP3 ADD SWAP1 POP PUSH2 0xF6C PUSH1 0x0 DUP4 ADD DUP5 PUSH2 0xF48 JUMP JUMPDEST SWAP3 SWAP2 POP POP JUMP JUMPDEST PUSH1 0x0 DUP2 SWAP1 POP SWAP2 SWAP1 POP JUMP JUMPDEST PUSH2 0xF85 DUP2 PUSH2 0xF72 JUMP JUMPDEST DUP3 MSTORE POP POP JUMP JUMPDEST PUSH1 0x0 PUSH1 0x20 DUP3 ADD SWAP1 POP PUSH2 0xFA0 PUSH1 0x0 DUP4 ADD DUP5 PUSH2 0xF7C JUMP JUMPDEST SWAP3 SWAP2 POP POP JUMP JUMPDEST PUSH1 0x0 DUP2 SWAP1 POP SWAP2 SWAP1 POP JUMP JUMPDEST PUSH1 0x0 PUSH2 0xFCB PUSH2 0xFC6 PUSH2 0xFC1 DUP5 PUSH2 0xEE0 JUMP JUMPDEST PUSH2 0xFA6 JUMP JUMPDEST PUSH2 0xEE0 JUMP JUMPDEST SWAP1 POP SWAP2 SWAP1 POP JUMP JUMPDEST PUSH1 0x0 PUSH2 0xFDD DUP3 PUSH2 0xFB0 JUMP JUMPDEST SWAP1 POP SWAP2 SWAP1 POP JUMP JUMPDEST PUSH1 0x0 PUSH2 0xFEF DUP3 PUSH2 0xFD2 JUMP JUMPDEST SWAP1 POP SWAP2 SWAP1 POP JUMP JUMPDEST PUSH2 0xFFF DUP2 PUSH2 0xFE4 JUMP JUMPDEST DUP3 MSTORE POP POP JUMP JUMPDEST PUSH1 0x0 PUSH1 0x20 DUP3 ADD SWAP1 POP PUSH2 0x101A PUSH1 0x0 DUP4 ADD DUP5 PUSH2 0xFF6 JUMP JUMPDEST SWAP3 SWAP2 POP POP JUMP JUMPDEST PUSH32 0x4E487B7100000000000000000000000000000000000000000000000000000000 PUSH1 0x0 MSTORE PUSH1 0x11 PUSH1 0x4 MSTORE PUSH1 0x24 PUSH1 0x0 REVERT JUMPDEST PUSH1 0x0 PUSH2 0x105A DUP3 PUSH2 0xF72 JUMP JUMPDEST SWAP2 POP PUSH2 0x1065 DUP4 PUSH2 0xF72 JUMP JUMPDEST SWAP3 POP DUP3 DUP3 SUB SWAP1 POP DUP2 DUP2 GT ISZERO PUSH2 0x107D JUMPI PUSH2 0x107C PUSH2 0x1020 JUMP JUMPDEST JUMPDEST SWAP3 SWAP2 POP POP JUMP JUMPDEST PUSH1 0x0 PUSH2 0x108E DUP3 PUSH2 0xF72 JUMP JUMPDEST SWAP2 POP PUSH2 0x1099 DUP4 PUSH2 0xF72 JUMP JUMPDEST SWAP3 POP DUP3 DUP3 MUL PUSH2 0x10A7 DUP2 PUSH2 0xF72 JUMP JUMPDEST SWAP2 POP DUP3 DUP3 DIV DUP5 EQ DUP4 ISZERO OR PUSH2 0x10BE JUMPI PUSH2 0x10BD PUSH2 0x1020 JUMP JUMPDEST JUMPDEST POP SWAP3 SWAP2 POP POP JUMP JUMPDEST PUSH1 0x0 DUP3 DUP3 MSTORE PUSH1 0x20 DUP3 ADD SWAP1 POP SWAP3 SWAP2 POP POP JUMP JUMPDEST PUSH32 0x41756374696F6E20697320636C6F736564000000000000000000000000000000 PUSH1 0x0 DUP3 ADD MSTORE POP JUMP JUMPDEST PUSH1 0x0 PUSH2 0x110C PUSH1 0x11 DUP4 PUSH2 0x10C5 JUMP JUMPDEST SWAP2 POP PUSH2 0x1117 DUP3 PUSH2 0x10D6 JUMP JUMPDEST PUSH1 0x20 DUP3 ADD SWAP1 POP SWAP2 SWAP1 POP JUMP JUMPDEST PUSH1 0x0 PUSH1 0x20 DUP3 ADD SWAP1 POP DUP2 DUP2 SUB PUSH1 0x0 DUP4 ADD MSTORE PUSH2 0x113B DUP2 PUSH2 0x10FF JUMP JUMPDEST SWAP1 POP SWAP2 SWAP1 POP JUMP JUMPDEST PUSH32 0x596F7520616C726561647920626F7567687420746869732070726F6475637400 PUSH1 0x0 DUP3 ADD MSTORE POP JUMP JUMPDEST PUSH1 0x0 PUSH2 0x1178 PUSH1 0x1F DUP4 PUSH2 0x10C5 JUMP JUMPDEST SWAP2 POP PUSH2 0x1183 DUP3 PUSH2 0x1142 JUMP JUMPDEST PUSH1 0x20 DUP3 ADD SWAP1 POP SWAP2 SWAP1 POP JUMP JUMPDEST PUSH1 0x0 PUSH1 0x20 DUP3 ADD SWAP1 POP DUP2 DUP2 SUB PUSH1 0x0 DUP4 ADD MSTORE PUSH2 0x11A7 DUP2 PUSH2 0x116B JUMP JUMPDEST SWAP1 POP SWAP2 SWAP1 POP JUMP JUMPDEST PUSH32 0x50726F6475637420616C726561647920736F6C64000000000000000000000000 PUSH1 0x0 DUP3 ADD MSTORE POP JUMP JUMPDEST PUSH1 0x0 PUSH2 0x11E4 PUSH1 0x14 DUP4 PUSH2 0x10C5 JUMP JUMPDEST SWAP2 POP PUSH2 0x11EF DUP3 PUSH2 0x11AE JUMP JUMPDEST PUSH1 0x20 DUP3 ADD SWAP1 POP SWAP2 SWAP1 POP JUMP JUMPDEST PUSH1 0x0 PUSH1 0x20 DUP3 ADD SWAP1 POP DUP2 DUP2 SUB PUSH1 0x0 DUP4 ADD MSTORE PUSH2 0x1213 DUP2 PUSH2 0x11D7 JUMP JUMPDEST SWAP1 POP SWAP2 SWAP1 POP JUMP JUMPDEST PUSH32 0x4F776E65722063616E2774206269640000000000000000000000000000000000 PUSH1 0x0 DUP3 ADD MSTORE POP JUMP JUMPDEST PUSH1 0x0 PUSH2 0x1250 PUSH1 0xF DUP4 PUSH2 0x10C5 JUMP JUMPDEST SWAP2 POP PUSH2 0x125B DUP3 PUSH2 0x121A JUMP JUMPDEST PUSH1 0x20 DUP3 ADD SWAP1 POP SWAP2 SWAP1 POP JUMP JUMPDEST PUSH1 0x0 PUSH1 0x20 DUP3 ADD SWAP1 POP DUP2 DUP2 SUB PUSH1 0x0 DUP4 ADD MSTORE PUSH2 0x127F DUP2 PUSH2 0x1243 JUMP JUMPDEST SWAP1 POP SWAP2 SWAP1 POP JUMP JUMPDEST PUSH32 0x57454920697320696E73756666696369656E7400000000000000000000000000 PUSH1 0x0 DUP3 ADD MSTORE POP JUMP JUMPDEST PUSH1 0x0 PUSH2 0x12BC PUSH1 0x13 DUP4 PUSH2 0x10C5 JUMP JUMPDEST SWAP2 POP PUSH2 0x12C7 DUP3 PUSH2 0x1286 JUMP JUMPDEST PUSH1 0x20 DUP3 ADD SWAP1 POP SWAP2 SWAP1 POP JUMP JUMPDEST PUSH1 0x0 PUSH1 0x20 DUP3 ADD SWAP1 POP DUP2 DUP2 SUB PUSH1 0x0 DUP4 ADD MSTORE PUSH2 0x12EB DUP2 PUSH2 0x12AF JUMP JUMPDEST SWAP1 POP SWAP2 SWAP1 POP JUMP JUMPDEST PUSH1 0x0 DUP2 SWAP1 POP SWAP3 SWAP2 POP POP JUMP JUMPDEST POP JUMP JUMPDEST PUSH1 0x0 PUSH2 0x130D PUSH1 0x0 DUP4 PUSH2 0x12F2 JUMP JUMPDEST SWAP2 POP PUSH2 0x1318 DUP3 PUSH2 0x12FD JUMP JUMPDEST PUSH1 0x0 DUP3 ADD SWAP1 POP SWAP2 SWAP1 POP JUMP JUMPDEST PUSH1 0x0 PUSH2 0x132E DUP3 PUSH2 0x1300 JUMP JUMPDEST SWAP2 POP DUP2 SWAP1 POP SWAP2 SWAP1 POP JUMP JUMPDEST PUSH32 0x4661696C656420746F2073656E64000000000000000000000000000000000000 PUSH1 0x0 DUP3 ADD MSTORE POP JUMP JUMPDEST PUSH1 0x0 PUSH2 0x136E PUSH1 0xE DUP4 PUSH2 0x10C5 JUMP JUMPDEST SWAP2 POP PUSH2 0x1379 DUP3 PUSH2 0x1338 JUMP JUMPDEST PUSH1 0x20 DUP3 ADD SWAP1 POP SWAP2 SWAP1 POP JUMP JUMPDEST PUSH1 0x0 PUSH1 0x20 DUP3 ADD SWAP1 POP DUP2 DUP2 SUB PUSH1 0x0 DUP4 ADD MSTORE PUSH2 0x139D DUP2 PUSH2 0x1361 JUMP JUMPDEST SWAP1 POP SWAP2 SWAP1 POP JUMP JUMPDEST PUSH1 0x0 PUSH1 0x60 DUP3 ADD SWAP1 POP PUSH2 0x13B9 PUSH1 0x0 DUP4 ADD DUP7 PUSH2 0xF12 JUMP JUMPDEST PUSH2 0x13C6 PUSH1 0x20 DUP4 ADD DUP6 PUSH2 0xF12 JUMP JUMPDEST PUSH2 0x13D3 PUSH1 0x40 DUP4 ADD DUP5 PUSH2 0xF7C JUMP JUMPDEST SWAP5 SWAP4 POP POP POP POP JUMP JUMPDEST PUSH1 0x0 DUP1 REVERT JUMPDEST PUSH2 0x13E9 DUP2 PUSH2 0xF00 JUMP JUMPDEST DUP2 EQ PUSH2 0x13F4 JUMPI PUSH1 0x0 DUP1 REVERT JUMPDEST POP JUMP JUMPDEST PUSH1 0x0 DUP2 MLOAD SWAP1 POP PUSH2 0x1406 DUP2 PUSH2 0x13E0 JUMP JUMPDEST SWAP3 SWAP2 POP POP JUMP JUMPDEST PUSH1 0x0 PUSH1 0x20 DUP3 DUP5 SUB SLT ISZERO PUSH2 0x1422 JUMPI PUSH2 0x1421 PUSH2 0x13DB JUMP JUMPDEST JUMPDEST PUSH1 0x0 PUSH2 0x1430 DUP5 DUP3 DUP6 ADD PUSH2 0x13F7 JUMP JUMPDEST SWAP2 POP POP SWAP3 SWAP2 POP POP JUMP INVALID LOG2 PUSH5 0x6970667358 0x22 SLT KECCAK256 SLOAD 0x2F 0xAE CODECOPY 0xF7 COINBASE SGT 0xD2 0xBB 0xEE 0xE7 0xFB 0x2D PUSH4 0x5B70B186 0x4C SWAP8 JUMPDEST RETURNDATASIZE NUMBER 0x2F PUSH2 0x4470 0xDA MSTORE 0x49 STATICCALL 0xD0 PUSH5 0x736F6C6343 STOP ADDMOD GT STOP CALLER "},"methodIdentifiers":{"auctionStatusOpen()":"0b48ab8f","buyer()":"7150d8ae","getBlockDifference()":"42c71d2b","getCurrentBlock()":"672d5d3b","getCurrentPrice()":"eb91d37e","initBlock()":"5d05125b","initialPrice()":"1d0806ae","isAuctionOpen()":"cca41427","nftAddress()":"5bf8633a","nftId()":"c6bc5182","numBlocksAuctionOpen()":"3103ea62","offerPriceDecrement()":"d3642a88","placeBid()":"ecfc7ecc","reservePrice()":"db2e1eed","seller()":"08551a53"}}}}}