{"contracts/NFTDutchAuction.sol":{"NFTDutchAuction":{"abi":[{"inputs":[{"internalType":"address","name":"_nftAddress","type":"address"},{"internalType":"uint256","name":"_nftId","type":"uint256"},{"internalType":"uint256","name":"_reservePrice","type":"uint256"},{"internalType":"uint256","name":"_numBlocksAuctionOpen","type":"uint256"},{"internalType":"uint256","name":"_offerPriceDecrement","type":"uint256"}],"stateMutability":"nonpayable","type":"constructor"},{"inputs":[],"name":"auctionStatusOpen","outputs":[{"internalType":"bool","name":"","type":"bool"}],"stateMutability":"view","type":"function"},{"inputs":[],"name":"buyer","outputs":[{"internalType":"address","name":"","type":"address"}],"stateMutability":"view","type":"function"},{"inputs":[],"name":"getBlockDiff","outputs":[{"internalType":"uint256","name":"","type":"uint256"}],"stateMutability":"view","type":"function"},{"inputs":[],"name":"getCurrBlock","outputs":[{"internalType":"uint256","name":"","type":"uint256"}],"stateMutability":"view","type":"function"},{"inputs":[],"name":"getCurrentPrice","outputs":[{"internalType":"uint256","name":"","type":"uint256"}],"stateMutability":"view","type":"function"},{"inputs":[],"name":"initialPrice","outputs":[{"internalType":"uint256","name":"","type":"uint256"}],"stateMutability":"view","type":"function"},{"inputs":[],"name":"isAuctionClosed","outputs":[{"internalType":"bool","name":"","type":"bool"}],"stateMutability":"view","type":"function"},{"inputs":[],"name":"nft_Address","outputs":[{"internalType":"contract IMyNFT","name":"","type":"address"}],"stateMutability":"view","type":"function"},{"inputs":[],"name":"nft_Id","outputs":[{"internalType":"uint256","name":"","type":"uint256"}],"stateMutability":"view","type":"function"},{"inputs":[],"name":"numBlocksAuctionOpen","outputs":[{"internalType":"uint256","name":"","type":"uint256"}],"stateMutability":"view","type":"function"},{"inputs":[],"name":"offerPriceDecrement","outputs":[{"internalType":"uint256","name":"","type":"uint256"}],"stateMutability":"view","type":"function"},{"inputs":[],"name":"placeBid","outputs":[],"stateMutability":"payable","type":"function"},{"inputs":[],"name":"reservePrice","outputs":[{"internalType":"uint256","name":"","type":"uint256"}],"stateMutability":"view","type":"function"},{"inputs":[],"name":"seller","outputs":[{"internalType":"address","name":"","type":"address"}],"stateMutability":"view","type":"function"},{"inputs":[],"name":"startingBlock","outputs":[{"internalType":"uint256","name":"","type":"uint256"}],"stateMutability":"view","type":"function"}],"evm":{"bytecode":{"linkReferences":{},"object":"60806040523480156200001157600080fd5b5060405162001ce138038062001ce18339818101604052810190620000379190620004a9565b620000536737824b2936c7247360c01b6200040160201b60201c565b6200006f673c6a5acb1ab31ea960c01b6200040160201b60201c565b33600660006101000a81548173ffffffffffffffffffffffffffffffffffffffff021916908373ffffffffffffffffffffffffffffffffffffffff160217905550620000cc67f3136cc7d65426a960c01b6200040160201b60201c565b43600781905550620000ef6794ff634b9b53733f60c01b6200040160201b60201c565b6001600960006101000a81548160ff0219169083151502179055506200012667dca4acd99292200360c01b6200040160201b60201c565b836000819055506200014967d573761901e29b5060c01b6200040160201b60201c565b84600160006101000a81548173ffffffffffffffffffffffffffffffffffffffff021916908373ffffffffffffffffffffffffffffffffffffffff160217905550620001a66762635f99dd5f6dd760c01b6200040160201b60201c565b620001c26739621a1db509ae7260c01b6200040160201b60201c565b620001de677bbdb5dff2337d5860c01b6200040160201b60201c565b3373ffffffffffffffffffffffffffffffffffffffff16600160009054906101000a900473ffffffffffffffffffffffffffffffffffffffff1673ffffffffffffffffffffffffffffffffffffffff16636352211e6000546040518263ffffffff1660e01b815260040162000254919062000542565b602060405180830381865afa15801562000272573d6000803e3d6000fd5b505050506040513d601f19601f820116820180604052508101906200029891906200055f565b73ffffffffffffffffffffffffffffffffffffffff1614620002f1576040517f08c379a0000000000000000000000000000000000000000000000000000000008152600401620002e890620005f2565b60405180910390fd5b6200030d67e34189d84babfa7160c01b6200040160201b60201c565b6200032967fd81524b6eaf344a60c01b6200040160201b60201c565b826002819055506200034c67f9e6c658f5be6cd060c01b6200040160201b60201c565b816003819055506200036f6785fa2494582962cf60c01b6200040160201b60201c565b8060048190555062000392670291063d4534cb7b60c01b6200040160201b60201c565b620003ad665481e9b51b944460c01b6200040160201b60201c565b6000600454600354620003c1919062000643565b9050620003df67b10768c0278d65f660c01b6200040160201b60201c565b60025481620003ef91906200068e565b600881905550505050505050620006c9565b50565b600080fd5b600073ffffffffffffffffffffffffffffffffffffffff82169050919050565b6000620004368262000409565b9050919050565b620004488162000429565b81146200045457600080fd5b50565b60008151905062000468816200043d565b92915050565b6000819050919050565b62000483816200046e565b81146200048f57600080fd5b50565b600081519050620004a38162000478565b92915050565b600080600080600060a08688031215620004c857620004c762000404565b5b6000620004d88882890162000457565b9550506020620004eb8882890162000492565b9450506040620004fe8882890162000492565b9350506060620005118882890162000492565b9250506080620005248882890162000492565b9150509295509295909350565b6200053c816200046e565b82525050565b600060208201905062000559600083018462000531565b92915050565b60006020828403121562000578576200057762000404565b5b6000620005888482850162000457565b91505092915050565b600082825260208201905092915050565b7f596f7520646f6e2774206f776e2074686973204e465420746f2073656c6c0000600082015250565b6000620005da601e8362000591565b9150620005e782620005a2565b602082019050919050565b600060208201905081810360008301526200060d81620005cb565b9050919050565b7f4e487b7100000000000000000000000000000000000000000000000000000000600052601160045260246000fd5b600062000650826200046e565b91506200065d836200046e565b92508282026200066d816200046e565b9150828204841483151762000687576200068662000614565b5b5092915050565b60006200069b826200046e565b9150620006a8836200046e565b9250828201905080821115620006c357620006c262000614565b5b92915050565b61160880620006d96000396000f3fe6080604052600436106100e85760003560e01c80637150d8ae1161008a578063db2e1eed11610059578063db2e1eed146102c6578063eb91d37e146102f1578063ecfc7ecc1461031c578063f5734ae214610326576100e8565b80637150d8ae1461021a578063d3642a8814610245578063d4a92e3114610270578063d91c98d31461029b576100e8565b806329c2decd116100c657806329c2decd1461016e5780633103ea62146101995780636190afae146101c45780636ee6cb9f146101ef576100e8565b806308551a53146100ed5780630b48ab8f146101185780631d0806ae14610143575b600080fd5b3480156100f957600080fd5b50610102610351565b60405161010f91906110ba565b60405180910390f35b34801561012457600080fd5b5061012d610377565b60405161013a91906110f0565b60405180910390f35b34801561014f57600080fd5b5061015861038a565b6040516101659190611124565b60405180910390f35b34801561017a57600080fd5b50610183610390565b6040516101909190611124565b60405180910390f35b3480156101a557600080fd5b506101ae6103d4565b6040516101bb9190611124565b60405180910390f35b3480156101d057600080fd5b506101d96103da565b6040516101e691906110f0565b60405180910390f35b3480156101fb57600080fd5b506102046104b3565b6040516102119190611124565b60405180910390f35b34801561022657600080fd5b5061022f6104b9565b60405161023c91906110ba565b60405180910390f35b34801561025157600080fd5b5061025a6104df565b6040516102679190611124565b60405180910390f35b34801561027c57600080fd5b506102856104e5565b6040516102929190611124565b60405180910390f35b3480156102a757600080fd5b506102b061060d565b6040516102bd9190611124565b60405180910390f35b3480156102d257600080fd5b506102db610613565b6040516102e89190611124565b60405180910390f35b3480156102fd57600080fd5b50610306610619565b6040516103139190611124565b60405180910390f35b610324610766565b005b34801561033257600080fd5b5061033b610da4565b604051610348919061119e565b60405180910390f35b600660009054906101000a900473ffffffffffffffffffffffffffffffffffffffff1681565b600960009054906101000a900460ff1681565b60085481565b60006103a6676e0f7999b60fbf8560c01b610dca565b6103ba6726ffa8b8edc4c5da60c01b610dca565b6103ce67747d11e8ac067b1160c01b610dca565b43905090565b60035481565b60006103f067464787cac3a034bb60c01b610dca565b61040467233892d0b73dd9aa60c01b610dca565b61041867c9a9b80a81d904c160c01b610dca565b60006104226104e5565b9050610438679d479d21f48cec1e60c01b610dca565b61044c67a24d70489a230d4160c01b610dca565b60006003549050610467679295beb6e894056060c01b610dca565b61047b67121be5b142f8f88d60c01b610dca565b6000818311905061049667d20e01b631e8433e60c01b610dca565b6104aa679cc914dcefdfc3a360c01b610dca565b80935050505090565b60005481565b600560009054906101000a900473ffffffffffffffffffffffffffffffffffffffff1681565b60045481565b60006104fb672c59b9bcc523850e60c01b610dca565b61050f67d74ef3993324d92a60c01b610dca565b61052367679ab0bafdea184e60c01b610dca565b600061052d610390565b905061054367e8f4b8f2a5816d8860c01b610dca565b61055767fca88963f97e5ed060c01b610dca565b6000600754905061057267531628a5b2d9e7d560c01b610dca565b610586679044c24c0f1a3c4b60c01b610dca565b600081831180156105a757506105a6672383c4abc7f39c0a60c01b610dcd565b5b806105c257506105c1672d1a4c6646820e5e60c01b610dd8565b5b6105cd5760006105da565b81836105d991906111e8565b5b90506105f06749c5af0599c60f8760c01b610dca565b610604673c1761ce3f87340a60c01b610dca565b80935050505090565b60075481565b60025481565b600061062f677ad265346981611b60c01b610dca565b61064367f43aa7441531a56860c01b610dca565b61065767c58e56962502681260c01b610dca565b60006106616104e5565b905061067767178ba1866f4fa8d460c01b610dca565b61068b672eed34f01aec9f0f60c01b610dca565b60006106a16740b4ffba715d802560c01b610dca565b6106b567ebdb8ee908ec57bf60c01b610dca565b60035482106106f0576106d267b53a068e877f3f6c60c01b610dca565b6106e6674fd4420527ae439660c01b610dca565b6002549050610736565b6107046725ebdbe3f6e49b5560c01b610dca565b610718671989f91b426af39c60c01b610dca565b60045482610726919061121c565b60085461073391906111e8565b90505b61074a67f7b2bacbbe8afa0f60c01b610dca565b61075e67a6b36ab55a4a882760c01b610dca565b809250505090565b61077a676b2d1386a9e1784960c01b610dca565b61078e6783a0fa238fe5507e60c01b610dca565b6107a267ec5e4d17337359fe60c01b610dca565b6107b66789dd0ab97d4a9ad460c01b610dca565b6107be6103da565b156107fe576040517f08c379a00000000000000000000000000000000000000000000000000000000081526004016107f5906112bb565b60405180910390fd5b61081267536f4f11dac17a9060c01b610dca565b61082667faf300df835874e360c01b610dca565b61083a67fc225ffce895d24960c01b610dca565b61084e67ba5d4a4572e1300e60c01b610dca565b600560009054906101000a900473ffffffffffffffffffffffffffffffffffffffff1673ffffffffffffffffffffffffffffffffffffffff163373ffffffffffffffffffffffffffffffffffffffff16036108de576040517f08c379a00000000000000000000000000000000000000000000000000000000081526004016108d590611327565b60405180910390fd5b6108f26793d63782b014e6a860c01b610dca565b6109066724b5cb9a691f844560c01b610dca565b61091a6745cb79a56a2b631b60c01b610dca565b61092e67b26c470baad13c8e60c01b610dca565b600073ffffffffffffffffffffffffffffffffffffffff16600560009054906101000a900473ffffffffffffffffffffffffffffffffffffffff1673ffffffffffffffffffffffffffffffffffffffff16146109bf576040517f08c379a00000000000000000000000000000000000000000000000000000000081526004016109b690611393565b60405180910390fd5b6109d36740d831310979674560c01b610dca565b6109e76745ca6277e9d2908960c01b610dca565b6109fb67cd2a838648dcdf0160c01b610dca565b610a0f679afdc418ee4c69e160c01b610dca565b600660009054906101000a900473ffffffffffffffffffffffffffffffffffffffff1673ffffffffffffffffffffffffffffffffffffffff163373ffffffffffffffffffffffffffffffffffffffff1603610a9f576040517f08c379a0000000000000000000000000000000000000000000000000000000008152600401610a96906113ff565b60405180910390fd5b610ab367a1a0902d2410543260c01b610dca565b610ac767d5c699647af115c560c01b610dca565b610adb673ed20a6e8f4ec65060c01b610dca565b610aef6771659a7a5445159f60c01b610dca565b610af7610619565b341015610b39576040517f08c379a0000000000000000000000000000000000000000000000000000000008152600401610b309061146b565b60405180910390fd5b610b4d677cd051ba68ea722b60c01b610dca565b610b6167ff05876e4552704460c01b610dca565b610b75670d6051a504dee1e760c01b610dca565b6000600660009054906101000a900473ffffffffffffffffffffffffffffffffffffffff1673ffffffffffffffffffffffffffffffffffffffff16610bb8610619565b604051610bc4906114bc565b60006040518083038185875af1925050503d8060008114610c01576040519150601f19603f3d011682016040523d82523d6000602084013e610c06565b606091505b50509050610c1e678acdd0eb2e2db23b60c01b610dca565b610c326773e61756e1573ebf60c01b610dca565b610c46670e88214c57e3ddf460c01b610dca565b6001151581151514610c8d576040517f08c379a0000000000000000000000000000000000000000000000000000000008152600401610c849061151d565b60405180910390fd5b610ca167fecb1a17d2ede24960c01b610dca565b610cb56773b197044d02dcb360c01b610dca565b610cc96727795f7974a1b2c360c01b610dca565b6000610cd3610619565b34610cde91906111e8565b9050610cf4678f4b71256890816f60c01b610dca565b610d08677421cf00f7ee39ac60c01b610dca565b6000811115610d5b57610d2567c4c8ad51696be90460c01b610dca565b610d39674f79a1617318bc6b60c01b610dca565b610d4d674aad7470d13846c160c01b610dca565b610d5681610ddf565b610d70565b610d6f678ce52ed69693f67660c01b610dca565b5b610d846706abde97fbe1123c60c01b610dca565b610d986737cdf5c8f92341d960c01b610dca565b610da0610e65565b5050565b600160009054906101000a900473ffffffffffffffffffffffffffffffffffffffff1681565b50565b600060019050919050565b6000919050565b610df3677c95a6d1350a174860c01b610dca565b610e0767491338420513a13460c01b610dca565b610e1b67c9f4ec8d963220a760c01b610dca565b3373ffffffffffffffffffffffffffffffffffffffff166108fc829081150290604051600060405180830381858888f19350505050158015610e61573d6000803e3d6000fd5b5050565b610e79672de3201f2035800860c01b610dca565b610e8d67f6cdcd252bfb7cc860c01b610dca565b610ea1670d7f8a26cbf95f0160c01b610dca565b600160009054906101000a900473ffffffffffffffffffffffffffffffffffffffff1673ffffffffffffffffffffffffffffffffffffffff166323b872dd600660009054906101000a900473ffffffffffffffffffffffffffffffffffffffff16336000546040518463ffffffff1660e01b8152600401610f249392919061153d565b600060405180830381600087803b158015610f3e57600080fd5b505af1158015610f52573d6000803e3d6000fd5b50505050610f6a6774de773792d477bc60c01b610dca565b600160009054906101000a900473ffffffffffffffffffffffffffffffffffffffff1673ffffffffffffffffffffffffffffffffffffffff16636352211e6000546040518263ffffffff1660e01b8152600401610fc79190611124565b602060405180830381865afa158015610fe4573d6000803e3d6000fd5b505050506040513d601f19601f8201168201806040525081019061100891906115a5565b600560006101000a81548173ffffffffffffffffffffffffffffffffffffffff021916908373ffffffffffffffffffffffffffffffffffffffff16021790555061105c67489ff98932972b0260c01b610dca565b6000600960006101000a81548160ff021916908315150217905550565b600073ffffffffffffffffffffffffffffffffffffffff82169050919050565b60006110a482611079565b9050919050565b6110b481611099565b82525050565b60006020820190506110cf60008301846110ab565b92915050565b60008115159050919050565b6110ea816110d5565b82525050565b600060208201905061110560008301846110e1565b92915050565b6000819050919050565b61111e8161110b565b82525050565b60006020820190506111396000830184611115565b92915050565b6000819050919050565b600061116461115f61115a84611079565b61113f565b611079565b9050919050565b600061117682611149565b9050919050565b60006111888261116b565b9050919050565b6111988161117d565b82525050565b60006020820190506111b3600083018461118f565b92915050565b7f4e487b7100000000000000000000000000000000000000000000000000000000600052601160045260246000fd5b60006111f38261110b565b91506111fe8361110b565b9250828203905081811115611216576112156111b9565b5b92915050565b60006112278261110b565b91506112328361110b565b92508282026112408161110b565b91508282048414831517611257576112566111b9565b5b5092915050565b600082825260208201905092915050565b7f41756374696f6e20697320636c6f736564000000000000000000000000000000600082015250565b60006112a560118361125e565b91506112b08261126f565b602082019050919050565b600060208201905081810360008301526112d481611298565b9050919050565b7f50726f6475637420616c72656164792070757263686173656400000000000000600082015250565b600061131160198361125e565b915061131c826112db565b602082019050919050565b6000602082019050818103600083015261134081611304565b9050919050565b7f50726f6475637420616c726561647920736f6c64000000000000000000000000600082015250565b600061137d60148361125e565b915061138882611347565b602082019050919050565b600060208201905081810360008301526113ac81611370565b9050919050565b7f4f776e65722063616e2774206269640000000000000000000000000000000000600082015250565b60006113e9600f8361125e565b91506113f4826113b3565b602082019050919050565b60006020820190508181036000830152611418816113dc565b9050919050565b7f574549206973206e6f742073756666696369656e740000000000000000000000600082015250565b600061145560158361125e565b91506114608261141f565b602082019050919050565b6000602082019050818103600083015261148481611448565b9050919050565b600081905092915050565b50565b60006114a660008361148b565b91506114b182611496565b600082019050919050565b60006114c782611499565b9150819050919050565b7f4661696c656420746f2073656e64000000000000000000000000000000000000600082015250565b6000611507600e8361125e565b9150611512826114d1565b602082019050919050565b60006020820190508181036000830152611536816114fa565b9050919050565b600060608201905061155260008301866110ab565b61155f60208301856110ab565b61156c6040830184611115565b949350505050565b600080fd5b61158281611099565b811461158d57600080fd5b50565b60008151905061159f81611579565b92915050565b6000602082840312156115bb576115ba611574565b5b60006115c984828501611590565b9150509291505056fea264697066735822122088c87b624166d3c3f0632e593ab33b2ad20ffe15360782a3252f8d71a422531b64736f6c63430008110033","opcodes":"PUSH1 0x80 PUSH1 0x40 MSTORE CALLVALUE DUP1 ISZERO PUSH3 0x11 JUMPI PUSH1 0x0 DUP1 REVERT JUMPDEST POP PUSH1 0x40 MLOAD PUSH3 0x1CE1 CODESIZE SUB DUP1 PUSH3 0x1CE1 DUP4 CODECOPY DUP2 DUP2 ADD PUSH1 0x40 MSTORE DUP2 ADD SWAP1 PUSH3 0x37 SWAP2 SWAP1 PUSH3 0x4A9 JUMP JUMPDEST PUSH3 0x53 PUSH8 0x37824B2936C72473 PUSH1 0xC0 SHL PUSH3 0x401 PUSH1 0x20 SHL PUSH1 0x20 SHR JUMP JUMPDEST PUSH3 0x6F PUSH8 0x3C6A5ACB1AB31EA9 PUSH1 0xC0 SHL PUSH3 0x401 PUSH1 0x20 SHL PUSH1 0x20 SHR JUMP JUMPDEST CALLER PUSH1 0x6 PUSH1 0x0 PUSH2 0x100 EXP DUP2 SLOAD DUP2 PUSH20 0xFFFFFFFFFFFFFFFFFFFFFFFFFFFFFFFFFFFFFFFF MUL NOT AND SWAP1 DUP4 PUSH20 0xFFFFFFFFFFFFFFFFFFFFFFFFFFFFFFFFFFFFFFFF AND MUL OR SWAP1 SSTORE POP PUSH3 0xCC PUSH8 0xF3136CC7D65426A9 PUSH1 0xC0 SHL PUSH3 0x401 PUSH1 0x20 SHL PUSH1 0x20 SHR JUMP JUMPDEST NUMBER PUSH1 0x7 DUP2 SWAP1 SSTORE POP PUSH3 0xEF PUSH8 0x94FF634B9B53733F PUSH1 0xC0 SHL PUSH3 0x401 PUSH1 0x20 SHL PUSH1 0x20 SHR JUMP JUMPDEST PUSH1 0x1 PUSH1 0x9 PUSH1 0x0 PUSH2 0x100 EXP DUP2 SLOAD DUP2 PUSH1 0xFF MUL NOT AND SWAP1 DUP4 ISZERO ISZERO MUL OR SWAP1 SSTORE POP PUSH3 0x126 PUSH8 0xDCA4ACD992922003 PUSH1 0xC0 SHL PUSH3 0x401 PUSH1 0x20 SHL PUSH1 0x20 SHR JUMP JUMPDEST DUP4 PUSH1 0x0 DUP2 SWAP1 SSTORE POP PUSH3 0x149 PUSH8 0xD573761901E29B50 PUSH1 0xC0 SHL PUSH3 0x401 PUSH1 0x20 SHL PUSH1 0x20 SHR JUMP JUMPDEST DUP5 PUSH1 0x1 PUSH1 0x0 PUSH2 0x100 EXP DUP2 SLOAD DUP2 PUSH20 0xFFFFFFFFFFFFFFFFFFFFFFFFFFFFFFFFFFFFFFFF MUL NOT AND SWAP1 DUP4 PUSH20 0xFFFFFFFFFFFFFFFFFFFFFFFFFFFFFFFFFFFFFFFF AND MUL OR SWAP1 SSTORE POP PUSH3 0x1A6 PUSH8 0x62635F99DD5F6DD7 PUSH1 0xC0 SHL PUSH3 0x401 PUSH1 0x20 SHL PUSH1 0x20 SHR JUMP JUMPDEST PUSH3 0x1C2 PUSH8 0x39621A1DB509AE72 PUSH1 0xC0 SHL PUSH3 0x401 PUSH1 0x20 SHL PUSH1 0x20 SHR JUMP JUMPDEST PUSH3 0x1DE PUSH8 0x7BBDB5DFF2337D58 PUSH1 0xC0 SHL PUSH3 0x401 PUSH1 0x20 SHL PUSH1 0x20 SHR JUMP JUMPDEST CALLER PUSH20 0xFFFFFFFFFFFFFFFFFFFFFFFFFFFFFFFFFFFFFFFF AND PUSH1 0x1 PUSH1 0x0 SWAP1 SLOAD SWAP1 PUSH2 0x100 EXP SWAP1 DIV PUSH20 0xFFFFFFFFFFFFFFFFFFFFFFFFFFFFFFFFFFFFFFFF AND PUSH20 0xFFFFFFFFFFFFFFFFFFFFFFFFFFFFFFFFFFFFFFFF AND PUSH4 0x6352211E PUSH1 0x0 SLOAD PUSH1 0x40 MLOAD DUP3 PUSH4 0xFFFFFFFF AND PUSH1 0xE0 SHL DUP2 MSTORE PUSH1 0x4 ADD PUSH3 0x254 SWAP2 SWAP1 PUSH3 0x542 JUMP JUMPDEST PUSH1 0x20 PUSH1 0x40 MLOAD DUP1 DUP4 SUB DUP2 DUP7 GAS STATICCALL ISZERO DUP1 ISZERO PUSH3 0x272 JUMPI RETURNDATASIZE PUSH1 0x0 DUP1 RETURNDATACOPY RETURNDATASIZE PUSH1 0x0 REVERT JUMPDEST POP POP POP POP PUSH1 0x40 MLOAD RETURNDATASIZE PUSH1 0x1F NOT PUSH1 0x1F DUP3 ADD AND DUP3 ADD DUP1 PUSH1 0x40 MSTORE POP DUP2 ADD SWAP1 PUSH3 0x298 SWAP2 SWAP1 PUSH3 0x55F JUMP JUMPDEST PUSH20 0xFFFFFFFFFFFFFFFFFFFFFFFFFFFFFFFFFFFFFFFF AND EQ PUSH3 0x2F1 JUMPI PUSH1 0x40 MLOAD PUSH32 0x8C379A000000000000000000000000000000000000000000000000000000000 DUP2 MSTORE PUSH1 0x4 ADD PUSH3 0x2E8 SWAP1 PUSH3 0x5F2 JUMP JUMPDEST PUSH1 0x40 MLOAD DUP1 SWAP2 SUB SWAP1 REVERT JUMPDEST PUSH3 0x30D PUSH8 0xE34189D84BABFA71 PUSH1 0xC0 SHL PUSH3 0x401 PUSH1 0x20 SHL PUSH1 0x20 SHR JUMP JUMPDEST PUSH3 0x329 PUSH8 0xFD81524B6EAF344A PUSH1 0xC0 SHL PUSH3 0x401 PUSH1 0x20 SHL PUSH1 0x20 SHR JUMP JUMPDEST DUP3 PUSH1 0x2 DUP2 SWAP1 SSTORE POP PUSH3 0x34C PUSH8 0xF9E6C658F5BE6CD0 PUSH1 0xC0 SHL PUSH3 0x401 PUSH1 0x20 SHL PUSH1 0x20 SHR JUMP JUMPDEST DUP2 PUSH1 0x3 DUP2 SWAP1 SSTORE POP PUSH3 0x36F PUSH8 0x85FA2494582962CF PUSH1 0xC0 SHL PUSH3 0x401 PUSH1 0x20 SHL PUSH1 0x20 SHR JUMP JUMPDEST DUP1 PUSH1 0x4 DUP2 SWAP1 SSTORE POP PUSH3 0x392 PUSH8 0x291063D4534CB7B PUSH1 0xC0 SHL PUSH3 0x401 PUSH1 0x20 SHL PUSH1 0x20 SHR JUMP JUMPDEST PUSH3 0x3AD PUSH7 0x5481E9B51B9444 PUSH1 0xC0 SHL PUSH3 0x401 PUSH1 0x20 SHL PUSH1 0x20 SHR JUMP JUMPDEST PUSH1 0x0 PUSH1 0x4 SLOAD PUSH1 0x3 SLOAD PUSH3 0x3C1 SWAP2 SWAP1 PUSH3 0x643 JUMP JUMPDEST SWAP1 POP PUSH3 0x3DF PUSH8 0xB10768C0278D65F6 PUSH1 0xC0 SHL PUSH3 0x401 PUSH1 0x20 SHL PUSH1 0x20 SHR JUMP JUMPDEST PUSH1 0x2 SLOAD DUP2 PUSH3 0x3EF SWAP2 SWAP1 PUSH3 0x68E JUMP JUMPDEST PUSH1 0x8 DUP2 SWAP1 SSTORE POP POP POP POP POP POP POP PUSH3 0x6C9 JUMP JUMPDEST POP JUMP JUMPDEST PUSH1 0x0 DUP1 REVERT JUMPDEST PUSH1 0x0 PUSH20 0xFFFFFFFFFFFFFFFFFFFFFFFFFFFFFFFFFFFFFFFF DUP3 AND SWAP1 POP SWAP2 SWAP1 POP JUMP JUMPDEST PUSH1 0x0 PUSH3 0x436 DUP3 PUSH3 0x409 JUMP JUMPDEST SWAP1 POP SWAP2 SWAP1 POP JUMP JUMPDEST PUSH3 0x448 DUP2 PUSH3 0x429 JUMP JUMPDEST DUP2 EQ PUSH3 0x454 JUMPI PUSH1 0x0 DUP1 REVERT JUMPDEST POP JUMP JUMPDEST PUSH1 0x0 DUP2 MLOAD SWAP1 POP PUSH3 0x468 DUP2 PUSH3 0x43D JUMP JUMPDEST SWAP3 SWAP2 POP POP JUMP JUMPDEST PUSH1 0x0 DUP2 SWAP1 POP SWAP2 SWAP1 POP JUMP JUMPDEST PUSH3 0x483 DUP2 PUSH3 0x46E JUMP JUMPDEST DUP2 EQ PUSH3 0x48F JUMPI PUSH1 0x0 DUP1 REVERT JUMPDEST POP JUMP JUMPDEST PUSH1 0x0 DUP2 MLOAD SWAP1 POP PUSH3 0x4A3 DUP2 PUSH3 0x478 JUMP JUMPDEST SWAP3 SWAP2 POP POP JUMP JUMPDEST PUSH1 0x0 DUP1 PUSH1 0x0 DUP1 PUSH1 0x0 PUSH1 0xA0 DUP7 DUP9 SUB SLT ISZERO PUSH3 0x4C8 JUMPI PUSH3 0x4C7 PUSH3 0x404 JUMP JUMPDEST JUMPDEST PUSH1 0x0 PUSH3 0x4D8 DUP9 DUP3 DUP10 ADD PUSH3 0x457 JUMP JUMPDEST SWAP6 POP POP PUSH1 0x20 PUSH3 0x4EB DUP9 DUP3 DUP10 ADD PUSH3 0x492 JUMP JUMPDEST SWAP5 POP POP PUSH1 0x40 PUSH3 0x4FE DUP9 DUP3 DUP10 ADD PUSH3 0x492 JUMP JUMPDEST SWAP4 POP POP PUSH1 0x60 PUSH3 0x511 DUP9 DUP3 DUP10 ADD PUSH3 0x492 JUMP JUMPDEST SWAP3 POP POP PUSH1 0x80 PUSH3 0x524 DUP9 DUP3 DUP10 ADD PUSH3 0x492 JUMP JUMPDEST SWAP2 POP POP SWAP3 SWAP6 POP SWAP3 SWAP6 SWAP1 SWAP4 POP JUMP JUMPDEST PUSH3 0x53C DUP2 PUSH3 0x46E JUMP JUMPDEST DUP3 MSTORE POP POP JUMP JUMPDEST PUSH1 0x0 PUSH1 0x20 DUP3 ADD SWAP1 POP PUSH3 0x559 PUSH1 0x0 DUP4 ADD DUP5 PUSH3 0x531 JUMP JUMPDEST SWAP3 SWAP2 POP POP JUMP JUMPDEST PUSH1 0x0 PUSH1 0x20 DUP3 DUP5 SUB SLT ISZERO PUSH3 0x578 JUMPI PUSH3 0x577 PUSH3 0x404 JUMP JUMPDEST JUMPDEST PUSH1 0x0 PUSH3 0x588 DUP5 DUP3 DUP6 ADD PUSH3 0x457 JUMP JUMPDEST SWAP2 POP POP SWAP3 SWAP2 POP POP JUMP JUMPDEST PUSH1 0x0 DUP3 DUP3 MSTORE PUSH1 0x20 DUP3 ADD SWAP1 POP SWAP3 SWAP2 POP POP JUMP JUMPDEST PUSH32 0x596F7520646F6E2774206F776E2074686973204E465420746F2073656C6C0000 PUSH1 0x0 DUP3 ADD MSTORE POP JUMP JUMPDEST PUSH1 0x0 PUSH3 0x5DA PUSH1 0x1E DUP4 PUSH3 0x591 JUMP JUMPDEST SWAP2 POP PUSH3 0x5E7 DUP3 PUSH3 0x5A2 JUMP JUMPDEST PUSH1 0x20 DUP3 ADD SWAP1 POP SWAP2 SWAP1 POP JUMP JUMPDEST PUSH1 0x0 PUSH1 0x20 DUP3 ADD SWAP1 POP DUP2 DUP2 SUB PUSH1 0x0 DUP4 ADD MSTORE PUSH3 0x60D DUP2 PUSH3 0x5CB JUMP JUMPDEST SWAP1 POP SWAP2 SWAP1 POP JUMP JUMPDEST PUSH32 0x4E487B7100000000000000000000000000000000000000000000000000000000 PUSH1 0x0 MSTORE PUSH1 0x11 PUSH1 0x4 MSTORE PUSH1 0x24 PUSH1 0x0 REVERT JUMPDEST PUSH1 0x0 PUSH3 0x650 DUP3 PUSH3 0x46E JUMP JUMPDEST SWAP2 POP PUSH3 0x65D DUP4 PUSH3 0x46E JUMP JUMPDEST SWAP3 POP DUP3 DUP3 MUL PUSH3 0x66D DUP2 PUSH3 0x46E JUMP JUMPDEST SWAP2 POP DUP3 DUP3 DIV DUP5 EQ DUP4 ISZERO OR PUSH3 0x687 JUMPI PUSH3 0x686 PUSH3 0x614 JUMP JUMPDEST JUMPDEST POP SWAP3 SWAP2 POP POP JUMP JUMPDEST PUSH1 0x0 PUSH3 0x69B DUP3 PUSH3 0x46E JUMP JUMPDEST SWAP2 POP PUSH3 0x6A8 DUP4 PUSH3 0x46E JUMP JUMPDEST SWAP3 POP DUP3 DUP3 ADD SWAP1 POP DUP1 DUP3 GT ISZERO PUSH3 0x6C3 JUMPI PUSH3 0x6C2 PUSH3 0x614 JUMP JUMPDEST JUMPDEST SWAP3 SWAP2 POP POP JUMP JUMPDEST PUSH2 0x1608 DUP1 PUSH3 0x6D9 PUSH1 0x0 CODECOPY PUSH1 0x0 RETURN INVALID PUSH1 0x80 PUSH1 0x40 MSTORE PUSH1 0x4 CALLDATASIZE LT PUSH2 0xE8 JUMPI PUSH1 0x0 CALLDATALOAD PUSH1 0xE0 SHR DUP1 PUSH4 0x7150D8AE GT PUSH2 0x8A JUMPI DUP1 PUSH4 0xDB2E1EED GT PUSH2 0x59 JUMPI DUP1 PUSH4 0xDB2E1EED EQ PUSH2 0x2C6 JUMPI DUP1 PUSH4 0xEB91D37E EQ PUSH2 0x2F1 JUMPI DUP1 PUSH4 0xECFC7ECC EQ PUSH2 0x31C JUMPI DUP1 PUSH4 0xF5734AE2 EQ PUSH2 0x326 JUMPI PUSH2 0xE8 JUMP JUMPDEST DUP1 PUSH4 0x7150D8AE EQ PUSH2 0x21A JUMPI DUP1 PUSH4 0xD3642A88 EQ PUSH2 0x245 JUMPI DUP1 PUSH4 0xD4A92E31 EQ PUSH2 0x270 JUMPI DUP1 PUSH4 0xD91C98D3 EQ PUSH2 0x29B JUMPI PUSH2 0xE8 JUMP JUMPDEST DUP1 PUSH4 0x29C2DECD GT PUSH2 0xC6 JUMPI DUP1 PUSH4 0x29C2DECD EQ PUSH2 0x16E JUMPI DUP1 PUSH4 0x3103EA62 EQ PUSH2 0x199 JUMPI DUP1 PUSH4 0x6190AFAE EQ PUSH2 0x1C4 JUMPI DUP1 PUSH4 0x6EE6CB9F EQ PUSH2 0x1EF JUMPI PUSH2 0xE8 JUMP JUMPDEST DUP1 PUSH4 0x8551A53 EQ PUSH2 0xED JUMPI DUP1 PUSH4 0xB48AB8F EQ PUSH2 0x118 JUMPI DUP1 PUSH4 0x1D0806AE EQ PUSH2 0x143 JUMPI JUMPDEST PUSH1 0x0 DUP1 REVERT JUMPDEST CALLVALUE DUP1 ISZERO PUSH2 0xF9 JUMPI PUSH1 0x0 DUP1 REVERT JUMPDEST POP PUSH2 0x102 PUSH2 0x351 JUMP JUMPDEST PUSH1 0x40 MLOAD PUSH2 0x10F SWAP2 SWAP1 PUSH2 0x10BA JUMP JUMPDEST PUSH1 0x40 MLOAD DUP1 SWAP2 SUB SWAP1 RETURN JUMPDEST CALLVALUE DUP1 ISZERO PUSH2 0x124 JUMPI PUSH1 0x0 DUP1 REVERT JUMPDEST POP PUSH2 0x12D PUSH2 0x377 JUMP JUMPDEST PUSH1 0x40 MLOAD PUSH2 0x13A SWAP2 SWAP1 PUSH2 0x10F0 JUMP JUMPDEST PUSH1 0x40 MLOAD DUP1 SWAP2 SUB SWAP1 RETURN JUMPDEST CALLVALUE DUP1 ISZERO PUSH2 0x14F JUMPI PUSH1 0x0 DUP1 REVERT JUMPDEST POP PUSH2 0x158 PUSH2 0x38A JUMP JUMPDEST PUSH1 0x40 MLOAD PUSH2 0x165 SWAP2 SWAP1 PUSH2 0x1124 JUMP JUMPDEST PUSH1 0x40 MLOAD DUP1 SWAP2 SUB SWAP1 RETURN JUMPDEST CALLVALUE DUP1 ISZERO PUSH2 0x17A JUMPI PUSH1 0x0 DUP1 REVERT JUMPDEST POP PUSH2 0x183 PUSH2 0x390 JUMP JUMPDEST PUSH1 0x40 MLOAD PUSH2 0x190 SWAP2 SWAP1 PUSH2 0x1124 JUMP JUMPDEST PUSH1 0x40 MLOAD DUP1 SWAP2 SUB SWAP1 RETURN JUMPDEST CALLVALUE DUP1 ISZERO PUSH2 0x1A5 JUMPI PUSH1 0x0 DUP1 REVERT JUMPDEST POP PUSH2 0x1AE PUSH2 0x3D4 JUMP JUMPDEST PUSH1 0x40 MLOAD PUSH2 0x1BB SWAP2 SWAP1 PUSH2 0x1124 JUMP JUMPDEST PUSH1 0x40 MLOAD DUP1 SWAP2 SUB SWAP1 RETURN JUMPDEST CALLVALUE DUP1 ISZERO PUSH2 0x1D0 JUMPI PUSH1 0x0 DUP1 REVERT JUMPDEST POP PUSH2 0x1D9 PUSH2 0x3DA JUMP JUMPDEST PUSH1 0x40 MLOAD PUSH2 0x1E6 SWAP2 SWAP1 PUSH2 0x10F0 JUMP JUMPDEST PUSH1 0x40 MLOAD DUP1 SWAP2 SUB SWAP1 RETURN JUMPDEST CALLVALUE DUP1 ISZERO PUSH2 0x1FB JUMPI PUSH1 0x0 DUP1 REVERT JUMPDEST POP PUSH2 0x204 PUSH2 0x4B3 JUMP JUMPDEST PUSH1 0x40 MLOAD PUSH2 0x211 SWAP2 SWAP1 PUSH2 0x1124 JUMP JUMPDEST PUSH1 0x40 MLOAD DUP1 SWAP2 SUB SWAP1 RETURN JUMPDEST CALLVALUE DUP1 ISZERO PUSH2 0x226 JUMPI PUSH1 0x0 DUP1 REVERT JUMPDEST POP PUSH2 0x22F PUSH2 0x4B9 JUMP JUMPDEST PUSH1 0x40 MLOAD PUSH2 0x23C SWAP2 SWAP1 PUSH2 0x10BA JUMP JUMPDEST PUSH1 0x40 MLOAD DUP1 SWAP2 SUB SWAP1 RETURN JUMPDEST CALLVALUE DUP1 ISZERO PUSH2 0x251 JUMPI PUSH1 0x0 DUP1 REVERT JUMPDEST POP PUSH2 0x25A PUSH2 0x4DF JUMP JUMPDEST PUSH1 0x40 MLOAD PUSH2 0x267 SWAP2 SWAP1 PUSH2 0x1124 JUMP JUMPDEST PUSH1 0x40 MLOAD DUP1 SWAP2 SUB SWAP1 RETURN JUMPDEST CALLVALUE DUP1 ISZERO PUSH2 0x27C JUMPI PUSH1 0x0 DUP1 REVERT JUMPDEST POP PUSH2 0x285 PUSH2 0x4E5 JUMP JUMPDEST PUSH1 0x40 MLOAD PUSH2 0x292 SWAP2 SWAP1 PUSH2 0x1124 JUMP JUMPDEST PUSH1 0x40 MLOAD DUP1 SWAP2 SUB SWAP1 RETURN JUMPDEST CALLVALUE DUP1 ISZERO PUSH2 0x2A7 JUMPI PUSH1 0x0 DUP1 REVERT JUMPDEST POP PUSH2 0x2B0 PUSH2 0x60D JUMP JUMPDEST PUSH1 0x40 MLOAD PUSH2 0x2BD SWAP2 SWAP1 PUSH2 0x1124 JUMP JUMPDEST PUSH1 0x40 MLOAD DUP1 SWAP2 SUB SWAP1 RETURN JUMPDEST CALLVALUE DUP1 ISZERO PUSH2 0x2D2 JUMPI PUSH1 0x0 DUP1 REVERT JUMPDEST POP PUSH2 0x2DB PUSH2 0x613 JUMP JUMPDEST PUSH1 0x40 MLOAD PUSH2 0x2E8 SWAP2 SWAP1 PUSH2 0x1124 JUMP JUMPDEST PUSH1 0x40 MLOAD DUP1 SWAP2 SUB SWAP1 RETURN JUMPDEST CALLVALUE DUP1 ISZERO PUSH2 0x2FD JUMPI PUSH1 0x0 DUP1 REVERT JUMPDEST POP PUSH2 0x306 PUSH2 0x619 JUMP JUMPDEST PUSH1 0x40 MLOAD PUSH2 0x313 SWAP2 SWAP1 PUSH2 0x1124 JUMP JUMPDEST PUSH1 0x40 MLOAD DUP1 SWAP2 SUB SWAP1 RETURN JUMPDEST PUSH2 0x324 PUSH2 0x766 JUMP JUMPDEST STOP JUMPDEST CALLVALUE DUP1 ISZERO PUSH2 0x332 JUMPI PUSH1 0x0 DUP1 REVERT JUMPDEST POP PUSH2 0x33B PUSH2 0xDA4 JUMP JUMPDEST PUSH1 0x40 MLOAD PUSH2 0x348 SWAP2 SWAP1 PUSH2 0x119E JUMP JUMPDEST PUSH1 0x40 MLOAD DUP1 SWAP2 SUB SWAP1 RETURN JUMPDEST PUSH1 0x6 PUSH1 0x0 SWAP1 SLOAD SWAP1 PUSH2 0x100 EXP SWAP1 DIV PUSH20 0xFFFFFFFFFFFFFFFFFFFFFFFFFFFFFFFFFFFFFFFF AND DUP2 JUMP JUMPDEST PUSH1 0x9 PUSH1 0x0 SWAP1 SLOAD SWAP1 PUSH2 0x100 EXP SWAP1 DIV PUSH1 0xFF AND DUP2 JUMP JUMPDEST PUSH1 0x8 SLOAD DUP2 JUMP JUMPDEST PUSH1 0x0 PUSH2 0x3A6 PUSH8 0x6E0F7999B60FBF85 PUSH1 0xC0 SHL PUSH2 0xDCA JUMP JUMPDEST PUSH2 0x3BA PUSH8 0x26FFA8B8EDC4C5DA PUSH1 0xC0 SHL PUSH2 0xDCA JUMP JUMPDEST PUSH2 0x3CE PUSH8 0x747D11E8AC067B11 PUSH1 0xC0 SHL PUSH2 0xDCA JUMP JUMPDEST NUMBER SWAP1 POP SWAP1 JUMP JUMPDEST PUSH1 0x3 SLOAD DUP2 JUMP JUMPDEST PUSH1 0x0 PUSH2 0x3F0 PUSH8 0x464787CAC3A034BB PUSH1 0xC0 SHL PUSH2 0xDCA JUMP JUMPDEST PUSH2 0x404 PUSH8 0x233892D0B73DD9AA PUSH1 0xC0 SHL PUSH2 0xDCA JUMP JUMPDEST PUSH2 0x418 PUSH8 0xC9A9B80A81D904C1 PUSH1 0xC0 SHL PUSH2 0xDCA JUMP JUMPDEST PUSH1 0x0 PUSH2 0x422 PUSH2 0x4E5 JUMP JUMPDEST SWAP1 POP PUSH2 0x438 PUSH8 0x9D479D21F48CEC1E PUSH1 0xC0 SHL PUSH2 0xDCA JUMP JUMPDEST PUSH2 0x44C PUSH8 0xA24D70489A230D41 PUSH1 0xC0 SHL PUSH2 0xDCA JUMP JUMPDEST PUSH1 0x0 PUSH1 0x3 SLOAD SWAP1 POP PUSH2 0x467 PUSH8 0x9295BEB6E8940560 PUSH1 0xC0 SHL PUSH2 0xDCA JUMP JUMPDEST PUSH2 0x47B PUSH8 0x121BE5B142F8F88D PUSH1 0xC0 SHL PUSH2 0xDCA JUMP JUMPDEST PUSH1 0x0 DUP2 DUP4 GT SWAP1 POP PUSH2 0x496 PUSH8 0xD20E01B631E8433E PUSH1 0xC0 SHL PUSH2 0xDCA JUMP JUMPDEST PUSH2 0x4AA PUSH8 0x9CC914DCEFDFC3A3 PUSH1 0xC0 SHL PUSH2 0xDCA JUMP JUMPDEST DUP1 SWAP4 POP POP POP POP SWAP1 JUMP JUMPDEST PUSH1 0x0 SLOAD DUP2 JUMP JUMPDEST PUSH1 0x5 PUSH1 0x0 SWAP1 SLOAD SWAP1 PUSH2 0x100 EXP SWAP1 DIV PUSH20 0xFFFFFFFFFFFFFFFFFFFFFFFFFFFFFFFFFFFFFFFF AND DUP2 JUMP JUMPDEST PUSH1 0x4 SLOAD DUP2 JUMP JUMPDEST PUSH1 0x0 PUSH2 0x4FB PUSH8 0x2C59B9BCC523850E PUSH1 0xC0 SHL PUSH2 0xDCA JUMP JUMPDEST PUSH2 0x50F PUSH8 0xD74EF3993324D92A PUSH1 0xC0 SHL PUSH2 0xDCA JUMP JUMPDEST PUSH2 0x523 PUSH8 0x679AB0BAFDEA184E PUSH1 0xC0 SHL PUSH2 0xDCA JUMP JUMPDEST PUSH1 0x0 PUSH2 0x52D PUSH2 0x390 JUMP JUMPDEST SWAP1 POP PUSH2 0x543 PUSH8 0xE8F4B8F2A5816D88 PUSH1 0xC0 SHL PUSH2 0xDCA JUMP JUMPDEST PUSH2 0x557 PUSH8 0xFCA88963F97E5ED0 PUSH1 0xC0 SHL PUSH2 0xDCA JUMP JUMPDEST PUSH1 0x0 PUSH1 0x7 SLOAD SWAP1 POP PUSH2 0x572 PUSH8 0x531628A5B2D9E7D5 PUSH1 0xC0 SHL PUSH2 0xDCA JUMP JUMPDEST PUSH2 0x586 PUSH8 0x9044C24C0F1A3C4B PUSH1 0xC0 SHL PUSH2 0xDCA JUMP JUMPDEST PUSH1 0x0 DUP2 DUP4 GT DUP1 ISZERO PUSH2 0x5A7 JUMPI POP PUSH2 0x5A6 PUSH8 0x2383C4ABC7F39C0A PUSH1 0xC0 SHL PUSH2 0xDCD JUMP JUMPDEST JUMPDEST DUP1 PUSH2 0x5C2 JUMPI POP PUSH2 0x5C1 PUSH8 0x2D1A4C6646820E5E PUSH1 0xC0 SHL PUSH2 0xDD8 JUMP JUMPDEST JUMPDEST PUSH2 0x5CD JUMPI PUSH1 0x0 PUSH2 0x5DA JUMP JUMPDEST DUP2 DUP4 PUSH2 0x5D9 SWAP2 SWAP1 PUSH2 0x11E8 JUMP JUMPDEST JUMPDEST SWAP1 POP PUSH2 0x5F0 PUSH8 0x49C5AF0599C60F87 PUSH1 0xC0 SHL PUSH2 0xDCA JUMP JUMPDEST PUSH2 0x604 PUSH8 0x3C1761CE3F87340A PUSH1 0xC0 SHL PUSH2 0xDCA JUMP JUMPDEST DUP1 SWAP4 POP POP POP POP SWAP1 JUMP JUMPDEST PUSH1 0x7 SLOAD DUP2 JUMP JUMPDEST PUSH1 0x2 SLOAD DUP2 JUMP JUMPDEST PUSH1 0x0 PUSH2 0x62F PUSH8 0x7AD265346981611B PUSH1 0xC0 SHL PUSH2 0xDCA JUMP JUMPDEST PUSH2 0x643 PUSH8 0xF43AA7441531A568 PUSH1 0xC0 SHL PUSH2 0xDCA JUMP JUMPDEST PUSH2 0x657 PUSH8 0xC58E569625026812 PUSH1 0xC0 SHL PUSH2 0xDCA JUMP JUMPDEST PUSH1 0x0 PUSH2 0x661 PUSH2 0x4E5 JUMP JUMPDEST SWAP1 POP PUSH2 0x677 PUSH8 0x178BA1866F4FA8D4 PUSH1 0xC0 SHL PUSH2 0xDCA JUMP JUMPDEST PUSH2 0x68B PUSH8 0x2EED34F01AEC9F0F PUSH1 0xC0 SHL PUSH2 0xDCA JUMP JUMPDEST PUSH1 0x0 PUSH2 0x6A1 PUSH8 0x40B4FFBA715D8025 PUSH1 0xC0 SHL PUSH2 0xDCA JUMP JUMPDEST PUSH2 0x6B5 PUSH8 0xEBDB8EE908EC57BF PUSH1 0xC0 SHL PUSH2 0xDCA JUMP JUMPDEST PUSH1 0x3 SLOAD DUP3 LT PUSH2 0x6F0 JUMPI PUSH2 0x6D2 PUSH8 0xB53A068E877F3F6C PUSH1 0xC0 SHL PUSH2 0xDCA JUMP JUMPDEST PUSH2 0x6E6 PUSH8 0x4FD4420527AE4396 PUSH1 0xC0 SHL PUSH2 0xDCA JUMP JUMPDEST PUSH1 0x2 SLOAD SWAP1 POP PUSH2 0x736 JUMP JUMPDEST PUSH2 0x704 PUSH8 0x25EBDBE3F6E49B55 PUSH1 0xC0 SHL PUSH2 0xDCA JUMP JUMPDEST PUSH2 0x718 PUSH8 0x1989F91B426AF39C PUSH1 0xC0 SHL PUSH2 0xDCA JUMP JUMPDEST PUSH1 0x4 SLOAD DUP3 PUSH2 0x726 SWAP2 SWAP1 PUSH2 0x121C JUMP JUMPDEST PUSH1 0x8 SLOAD PUSH2 0x733 SWAP2 SWAP1 PUSH2 0x11E8 JUMP JUMPDEST SWAP1 POP JUMPDEST PUSH2 0x74A PUSH8 0xF7B2BACBBE8AFA0F PUSH1 0xC0 SHL PUSH2 0xDCA JUMP JUMPDEST PUSH2 0x75E PUSH8 0xA6B36AB55A4A8827 PUSH1 0xC0 SHL PUSH2 0xDCA JUMP JUMPDEST DUP1 SWAP3 POP POP POP SWAP1 JUMP JUMPDEST PUSH2 0x77A PUSH8 0x6B2D1386A9E17849 PUSH1 0xC0 SHL PUSH2 0xDCA JUMP JUMPDEST PUSH2 0x78E PUSH8 0x83A0FA238FE5507E PUSH1 0xC0 SHL PUSH2 0xDCA JUMP JUMPDEST PUSH2 0x7A2 PUSH8 0xEC5E4D17337359FE PUSH1 0xC0 SHL PUSH2 0xDCA JUMP JUMPDEST PUSH2 0x7B6 PUSH8 0x89DD0AB97D4A9AD4 PUSH1 0xC0 SHL PUSH2 0xDCA JUMP JUMPDEST PUSH2 0x7BE PUSH2 0x3DA JUMP JUMPDEST ISZERO PUSH2 0x7FE JUMPI PUSH1 0x40 MLOAD PUSH32 0x8C379A000000000000000000000000000000000000000000000000000000000 DUP2 MSTORE PUSH1 0x4 ADD PUSH2 0x7F5 SWAP1 PUSH2 0x12BB JUMP JUMPDEST PUSH1 0x40 MLOAD DUP1 SWAP2 SUB SWAP1 REVERT JUMPDEST PUSH2 0x812 PUSH8 0x536F4F11DAC17A90 PUSH1 0xC0 SHL PUSH2 0xDCA JUMP JUMPDEST PUSH2 0x826 PUSH8 0xFAF300DF835874E3 PUSH1 0xC0 SHL PUSH2 0xDCA JUMP JUMPDEST PUSH2 0x83A PUSH8 0xFC225FFCE895D249 PUSH1 0xC0 SHL PUSH2 0xDCA JUMP JUMPDEST PUSH2 0x84E PUSH8 0xBA5D4A4572E1300E PUSH1 0xC0 SHL PUSH2 0xDCA JUMP JUMPDEST PUSH1 0x5 PUSH1 0x0 SWAP1 SLOAD SWAP1 PUSH2 0x100 EXP SWAP1 DIV PUSH20 0xFFFFFFFFFFFFFFFFFFFFFFFFFFFFFFFFFFFFFFFF AND PUSH20 0xFFFFFFFFFFFFFFFFFFFFFFFFFFFFFFFFFFFFFFFF AND CALLER PUSH20 0xFFFFFFFFFFFFFFFFFFFFFFFFFFFFFFFFFFFFFFFF AND SUB PUSH2 0x8DE JUMPI PUSH1 0x40 MLOAD PUSH32 0x8C379A000000000000000000000000000000000000000000000000000000000 DUP2 MSTORE PUSH1 0x4 ADD PUSH2 0x8D5 SWAP1 PUSH2 0x1327 JUMP JUMPDEST PUSH1 0x40 MLOAD DUP1 SWAP2 SUB SWAP1 REVERT JUMPDEST PUSH2 0x8F2 PUSH8 0x93D63782B014E6A8 PUSH1 0xC0 SHL PUSH2 0xDCA JUMP JUMPDEST PUSH2 0x906 PUSH8 0x24B5CB9A691F8445 PUSH1 0xC0 SHL PUSH2 0xDCA JUMP JUMPDEST PUSH2 0x91A PUSH8 0x45CB79A56A2B631B PUSH1 0xC0 SHL PUSH2 0xDCA JUMP JUMPDEST PUSH2 0x92E PUSH8 0xB26C470BAAD13C8E PUSH1 0xC0 SHL PUSH2 0xDCA JUMP JUMPDEST PUSH1 0x0 PUSH20 0xFFFFFFFFFFFFFFFFFFFFFFFFFFFFFFFFFFFFFFFF AND PUSH1 0x5 PUSH1 0x0 SWAP1 SLOAD SWAP1 PUSH2 0x100 EXP SWAP1 DIV PUSH20 0xFFFFFFFFFFFFFFFFFFFFFFFFFFFFFFFFFFFFFFFF AND PUSH20 0xFFFFFFFFFFFFFFFFFFFFFFFFFFFFFFFFFFFFFFFF AND EQ PUSH2 0x9BF JUMPI PUSH1 0x40 MLOAD PUSH32 0x8C379A000000000000000000000000000000000000000000000000000000000 DUP2 MSTORE PUSH1 0x4 ADD PUSH2 0x9B6 SWAP1 PUSH2 0x1393 JUMP JUMPDEST PUSH1 0x40 MLOAD DUP1 SWAP2 SUB SWAP1 REVERT JUMPDEST PUSH2 0x9D3 PUSH8 0x40D8313109796745 PUSH1 0xC0 SHL PUSH2 0xDCA JUMP JUMPDEST PUSH2 0x9E7 PUSH8 0x45CA6277E9D29089 PUSH1 0xC0 SHL PUSH2 0xDCA JUMP JUMPDEST PUSH2 0x9FB PUSH8 0xCD2A838648DCDF01 PUSH1 0xC0 SHL PUSH2 0xDCA JUMP JUMPDEST PUSH2 0xA0F PUSH8 0x9AFDC418EE4C69E1 PUSH1 0xC0 SHL PUSH2 0xDCA JUMP JUMPDEST PUSH1 0x6 PUSH1 0x0 SWAP1 SLOAD SWAP1 PUSH2 0x100 EXP SWAP1 DIV PUSH20 0xFFFFFFFFFFFFFFFFFFFFFFFFFFFFFFFFFFFFFFFF AND PUSH20 0xFFFFFFFFFFFFFFFFFFFFFFFFFFFFFFFFFFFFFFFF AND CALLER PUSH20 0xFFFFFFFFFFFFFFFFFFFFFFFFFFFFFFFFFFFFFFFF AND SUB PUSH2 0xA9F JUMPI PUSH1 0x40 MLOAD PUSH32 0x8C379A000000000000000000000000000000000000000000000000000000000 DUP2 MSTORE PUSH1 0x4 ADD PUSH2 0xA96 SWAP1 PUSH2 0x13FF JUMP JUMPDEST PUSH1 0x40 MLOAD DUP1 SWAP2 SUB SWAP1 REVERT JUMPDEST PUSH2 0xAB3 PUSH8 0xA1A0902D24105432 PUSH1 0xC0 SHL PUSH2 0xDCA JUMP JUMPDEST PUSH2 0xAC7 PUSH8 0xD5C699647AF115C5 PUSH1 0xC0 SHL PUSH2 0xDCA JUMP JUMPDEST PUSH2 0xADB PUSH8 0x3ED20A6E8F4EC650 PUSH1 0xC0 SHL PUSH2 0xDCA JUMP JUMPDEST PUSH2 0xAEF PUSH8 0x71659A7A5445159F PUSH1 0xC0 SHL PUSH2 0xDCA JUMP JUMPDEST PUSH2 0xAF7 PUSH2 0x619 JUMP JUMPDEST CALLVALUE LT ISZERO PUSH2 0xB39 JUMPI PUSH1 0x40 MLOAD PUSH32 0x8C379A000000000000000000000000000000000000000000000000000000000 DUP2 MSTORE PUSH1 0x4 ADD PUSH2 0xB30 SWAP1 PUSH2 0x146B JUMP JUMPDEST PUSH1 0x40 MLOAD DUP1 SWAP2 SUB SWAP1 REVERT JUMPDEST PUSH2 0xB4D PUSH8 0x7CD051BA68EA722B PUSH1 0xC0 SHL PUSH2 0xDCA JUMP JUMPDEST PUSH2 0xB61 PUSH8 0xFF05876E45527044 PUSH1 0xC0 SHL PUSH2 0xDCA JUMP JUMPDEST PUSH2 0xB75 PUSH8 0xD6051A504DEE1E7 PUSH1 0xC0 SHL PUSH2 0xDCA JUMP JUMPDEST PUSH1 0x0 PUSH1 0x6 PUSH1 0x0 SWAP1 SLOAD SWAP1 PUSH2 0x100 EXP SWAP1 DIV PUSH20 0xFFFFFFFFFFFFFFFFFFFFFFFFFFFFFFFFFFFFFFFF AND PUSH20 0xFFFFFFFFFFFFFFFFFFFFFFFFFFFFFFFFFFFFFFFF AND PUSH2 0xBB8 PUSH2 0x619 JUMP JUMPDEST PUSH1 0x40 MLOAD PUSH2 0xBC4 SWAP1 PUSH2 0x14BC JUMP JUMPDEST PUSH1 0x0 PUSH1 0x40 MLOAD DUP1 DUP4 SUB DUP2 DUP6 DUP8 GAS CALL SWAP3 POP POP POP RETURNDATASIZE DUP1 PUSH1 0x0 DUP2 EQ PUSH2 0xC01 JUMPI PUSH1 0x40 MLOAD SWAP2 POP PUSH1 0x1F NOT PUSH1 0x3F RETURNDATASIZE ADD AND DUP3 ADD PUSH1 0x40 MSTORE RETURNDATASIZE DUP3 MSTORE RETURNDATASIZE PUSH1 0x0 PUSH1 0x20 DUP5 ADD RETURNDATACOPY PUSH2 0xC06 JUMP JUMPDEST PUSH1 0x60 SWAP2 POP JUMPDEST POP POP SWAP1 POP PUSH2 0xC1E PUSH8 0x8ACDD0EB2E2DB23B PUSH1 0xC0 SHL PUSH2 0xDCA JUMP JUMPDEST PUSH2 0xC32 PUSH8 0x73E61756E1573EBF PUSH1 0xC0 SHL PUSH2 0xDCA JUMP JUMPDEST PUSH2 0xC46 PUSH8 0xE88214C57E3DDF4 PUSH1 0xC0 SHL PUSH2 0xDCA JUMP JUMPDEST PUSH1 0x1 ISZERO ISZERO DUP2 ISZERO ISZERO EQ PUSH2 0xC8D JUMPI PUSH1 0x40 MLOAD PUSH32 0x8C379A000000000000000000000000000000000000000000000000000000000 DUP2 MSTORE PUSH1 0x4 ADD PUSH2 0xC84 SWAP1 PUSH2 0x151D JUMP JUMPDEST PUSH1 0x40 MLOAD DUP1 SWAP2 SUB SWAP1 REVERT JUMPDEST PUSH2 0xCA1 PUSH8 0xFECB1A17D2EDE249 PUSH1 0xC0 SHL PUSH2 0xDCA JUMP JUMPDEST PUSH2 0xCB5 PUSH8 0x73B197044D02DCB3 PUSH1 0xC0 SHL PUSH2 0xDCA JUMP JUMPDEST PUSH2 0xCC9 PUSH8 0x27795F7974A1B2C3 PUSH1 0xC0 SHL PUSH2 0xDCA JUMP JUMPDEST PUSH1 0x0 PUSH2 0xCD3 PUSH2 0x619 JUMP JUMPDEST CALLVALUE PUSH2 0xCDE SWAP2 SWAP1 PUSH2 0x11E8 JUMP JUMPDEST SWAP1 POP PUSH2 0xCF4 PUSH8 0x8F4B71256890816F PUSH1 0xC0 SHL PUSH2 0xDCA JUMP JUMPDEST PUSH2 0xD08 PUSH8 0x7421CF00F7EE39AC PUSH1 0xC0 SHL PUSH2 0xDCA JUMP JUMPDEST PUSH1 0x0 DUP2 GT ISZERO PUSH2 0xD5B JUMPI PUSH2 0xD25 PUSH8 0xC4C8AD51696BE904 PUSH1 0xC0 SHL PUSH2 0xDCA JUMP JUMPDEST PUSH2 0xD39 PUSH8 0x4F79A1617318BC6B PUSH1 0xC0 SHL PUSH2 0xDCA JUMP JUMPDEST PUSH2 0xD4D PUSH8 0x4AAD7470D13846C1 PUSH1 0xC0 SHL PUSH2 0xDCA JUMP JUMPDEST PUSH2 0xD56 DUP2 PUSH2 0xDDF JUMP JUMPDEST PUSH2 0xD70 JUMP JUMPDEST PUSH2 0xD6F PUSH8 0x8CE52ED69693F676 PUSH1 0xC0 SHL PUSH2 0xDCA JUMP JUMPDEST JUMPDEST PUSH2 0xD84 PUSH8 0x6ABDE97FBE1123C PUSH1 0xC0 SHL PUSH2 0xDCA JUMP JUMPDEST PUSH2 0xD98 PUSH8 0x37CDF5C8F92341D9 PUSH1 0xC0 SHL PUSH2 0xDCA JUMP JUMPDEST PUSH2 0xDA0 PUSH2 0xE65 JUMP JUMPDEST POP POP JUMP JUMPDEST PUSH1 0x1 PUSH1 0x0 SWAP1 SLOAD SWAP1 PUSH2 0x100 EXP SWAP1 DIV PUSH20 0xFFFFFFFFFFFFFFFFFFFFFFFFFFFFFFFFFFFFFFFF AND DUP2 JUMP JUMPDEST POP JUMP JUMPDEST PUSH1 0x0 PUSH1 0x1 SWAP1 POP SWAP2 SWAP1 POP JUMP JUMPDEST PUSH1 0x0 SWAP2 SWAP1 POP JUMP JUMPDEST PUSH2 0xDF3 PUSH8 0x7C95A6D1350A1748 PUSH1 0xC0 SHL PUSH2 0xDCA JUMP JUMPDEST PUSH2 0xE07 PUSH8 0x491338420513A134 PUSH1 0xC0 SHL PUSH2 0xDCA JUMP JUMPDEST PUSH2 0xE1B PUSH8 0xC9F4EC8D963220A7 PUSH1 0xC0 SHL PUSH2 0xDCA JUMP JUMPDEST CALLER PUSH20 0xFFFFFFFFFFFFFFFFFFFFFFFFFFFFFFFFFFFFFFFF AND PUSH2 0x8FC DUP3 SWAP1 DUP2 ISZERO MUL SWAP1 PUSH1 0x40 MLOAD PUSH1 0x0 PUSH1 0x40 MLOAD DUP1 DUP4 SUB DUP2 DUP6 DUP9 DUP9 CALL SWAP4 POP POP POP POP ISZERO DUP1 ISZERO PUSH2 0xE61 JUMPI RETURNDATASIZE PUSH1 0x0 DUP1 RETURNDATACOPY RETURNDATASIZE PUSH1 0x0 REVERT JUMPDEST POP POP JUMP JUMPDEST PUSH2 0xE79 PUSH8 0x2DE3201F20358008 PUSH1 0xC0 SHL PUSH2 0xDCA JUMP JUMPDEST PUSH2 0xE8D PUSH8 0xF6CDCD252BFB7CC8 PUSH1 0xC0 SHL PUSH2 0xDCA JUMP JUMPDEST PUSH2 0xEA1 PUSH8 0xD7F8A26CBF95F01 PUSH1 0xC0 SHL PUSH2 0xDCA JUMP JUMPDEST PUSH1 0x1 PUSH1 0x0 SWAP1 SLOAD SWAP1 PUSH2 0x100 EXP SWAP1 DIV PUSH20 0xFFFFFFFFFFFFFFFFFFFFFFFFFFFFFFFFFFFFFFFF AND PUSH20 0xFFFFFFFFFFFFFFFFFFFFFFFFFFFFFFFFFFFFFFFF AND PUSH4 0x23B872DD PUSH1 0x6 PUSH1 0x0 SWAP1 SLOAD SWAP1 PUSH2 0x100 EXP SWAP1 DIV PUSH20 0xFFFFFFFFFFFFFFFFFFFFFFFFFFFFFFFFFFFFFFFF AND CALLER PUSH1 0x0 SLOAD PUSH1 0x40 MLOAD DUP5 PUSH4 0xFFFFFFFF AND PUSH1 0xE0 SHL DUP2 MSTORE PUSH1 0x4 ADD PUSH2 0xF24 SWAP4 SWAP3 SWAP2 SWAP1 PUSH2 0x153D JUMP JUMPDEST PUSH1 0x0 PUSH1 0x40 MLOAD DUP1 DUP4 SUB DUP2 PUSH1 0x0 DUP8 DUP1 EXTCODESIZE ISZERO DUP1 ISZERO PUSH2 0xF3E JUMPI PUSH1 0x0 DUP1 REVERT JUMPDEST POP GAS CALL ISZERO DUP1 ISZERO PUSH2 0xF52 JUMPI RETURNDATASIZE PUSH1 0x0 DUP1 RETURNDATACOPY RETURNDATASIZE PUSH1 0x0 REVERT JUMPDEST POP POP POP POP PUSH2 0xF6A PUSH8 0x74DE773792D477BC PUSH1 0xC0 SHL PUSH2 0xDCA JUMP JUMPDEST PUSH1 0x1 PUSH1 0x0 SWAP1 SLOAD SWAP1 PUSH2 0x100 EXP SWAP1 DIV PUSH20 0xFFFFFFFFFFFFFFFFFFFFFFFFFFFFFFFFFFFFFFFF AND PUSH20 0xFFFFFFFFFFFFFFFFFFFFFFFFFFFFFFFFFFFFFFFF AND PUSH4 0x6352211E PUSH1 0x0 SLOAD PUSH1 0x40 MLOAD DUP3 PUSH4 0xFFFFFFFF AND PUSH1 0xE0 SHL DUP2 MSTORE PUSH1 0x4 ADD PUSH2 0xFC7 SWAP2 SWAP1 PUSH2 0x1124 JUMP JUMPDEST PUSH1 0x20 PUSH1 0x40 MLOAD DUP1 DUP4 SUB DUP2 DUP7 GAS STATICCALL ISZERO DUP1 ISZERO PUSH2 0xFE4 JUMPI RETURNDATASIZE PUSH1 0x0 DUP1 RETURNDATACOPY RETURNDATASIZE PUSH1 0x0 REVERT JUMPDEST POP POP POP POP PUSH1 0x40 MLOAD RETURNDATASIZE PUSH1 0x1F NOT PUSH1 0x1F DUP3 ADD AND DUP3 ADD DUP1 PUSH1 0x40 MSTORE POP DUP2 ADD SWAP1 PUSH2 0x1008 SWAP2 SWAP1 PUSH2 0x15A5 JUMP JUMPDEST PUSH1 0x5 PUSH1 0x0 PUSH2 0x100 EXP DUP2 SLOAD DUP2 PUSH20 0xFFFFFFFFFFFFFFFFFFFFFFFFFFFFFFFFFFFFFFFF MUL NOT AND SWAP1 DUP4 PUSH20 0xFFFFFFFFFFFFFFFFFFFFFFFFFFFFFFFFFFFFFFFF AND MUL OR SWAP1 SSTORE POP PUSH2 0x105C PUSH8 0x489FF98932972B02 PUSH1 0xC0 SHL PUSH2 0xDCA JUMP JUMPDEST PUSH1 0x0 PUSH1 0x9 PUSH1 0x0 PUSH2 0x100 EXP DUP2 SLOAD DUP2 PUSH1 0xFF MUL NOT AND SWAP1 DUP4 ISZERO ISZERO MUL OR SWAP1 SSTORE POP JUMP JUMPDEST PUSH1 0x0 PUSH20 0xFFFFFFFFFFFFFFFFFFFFFFFFFFFFFFFFFFFFFFFF DUP3 AND SWAP1 POP SWAP2 SWAP1 POP JUMP JUMPDEST PUSH1 0x0 PUSH2 0x10A4 DUP3 PUSH2 0x1079 JUMP JUMPDEST SWAP1 POP SWAP2 SWAP1 POP JUMP JUMPDEST PUSH2 0x10B4 DUP2 PUSH2 0x1099 JUMP JUMPDEST DUP3 MSTORE POP POP JUMP JUMPDEST PUSH1 0x0 PUSH1 0x20 DUP3 ADD SWAP1 POP PUSH2 0x10CF PUSH1 0x0 DUP4 ADD DUP5 PUSH2 0x10AB JUMP JUMPDEST SWAP3 SWAP2 POP POP JUMP JUMPDEST PUSH1 0x0 DUP2 ISZERO ISZERO SWAP1 POP SWAP2 SWAP1 POP JUMP JUMPDEST PUSH2 0x10EA DUP2 PUSH2 0x10D5 JUMP JUMPDEST DUP3 MSTORE POP POP JUMP JUMPDEST PUSH1 0x0 PUSH1 0x20 DUP3 ADD SWAP1 POP PUSH2 0x1105 PUSH1 0x0 DUP4 ADD DUP5 PUSH2 0x10E1 JUMP JUMPDEST SWAP3 SWAP2 POP POP JUMP JUMPDEST PUSH1 0x0 DUP2 SWAP1 POP SWAP2 SWAP1 POP JUMP JUMPDEST PUSH2 0x111E DUP2 PUSH2 0x110B JUMP JUMPDEST DUP3 MSTORE POP POP JUMP JUMPDEST PUSH1 0x0 PUSH1 0x20 DUP3 ADD SWAP1 POP PUSH2 0x1139 PUSH1 0x0 DUP4 ADD DUP5 PUSH2 0x1115 JUMP JUMPDEST SWAP3 SWAP2 POP POP JUMP JUMPDEST PUSH1 0x0 DUP2 SWAP1 POP SWAP2 SWAP1 POP JUMP JUMPDEST PUSH1 0x0 PUSH2 0x1164 PUSH2 0x115F PUSH2 0x115A DUP5 PUSH2 0x1079 JUMP JUMPDEST PUSH2 0x113F JUMP JUMPDEST PUSH2 0x1079 JUMP JUMPDEST SWAP1 POP SWAP2 SWAP1 POP JUMP JUMPDEST PUSH1 0x0 PUSH2 0x1176 DUP3 PUSH2 0x1149 JUMP JUMPDEST SWAP1 POP SWAP2 SWAP1 POP JUMP JUMPDEST PUSH1 0x0 PUSH2 0x1188 DUP3 PUSH2 0x116B JUMP JUMPDEST SWAP1 POP SWAP2 SWAP1 POP JUMP JUMPDEST PUSH2 0x1198 DUP2 PUSH2 0x117D JUMP JUMPDEST DUP3 MSTORE POP POP JUMP JUMPDEST PUSH1 0x0 PUSH1 0x20 DUP3 ADD SWAP1 POP PUSH2 0x11B3 PUSH1 0x0 DUP4 ADD DUP5 PUSH2 0x118F JUMP JUMPDEST SWAP3 SWAP2 POP POP JUMP JUMPDEST PUSH32 0x4E487B7100000000000000000000000000000000000000000000000000000000 PUSH1 0x0 MSTORE PUSH1 0x11 PUSH1 0x4 MSTORE PUSH1 0x24 PUSH1 0x0 REVERT JUMPDEST PUSH1 0x0 PUSH2 0x11F3 DUP3 PUSH2 0x110B JUMP JUMPDEST SWAP2 POP PUSH2 0x11FE DUP4 PUSH2 0x110B JUMP JUMPDEST SWAP3 POP DUP3 DUP3 SUB SWAP1 POP DUP2 DUP2 GT ISZERO PUSH2 0x1216 JUMPI PUSH2 0x1215 PUSH2 0x11B9 JUMP JUMPDEST JUMPDEST SWAP3 SWAP2 POP POP JUMP JUMPDEST PUSH1 0x0 PUSH2 0x1227 DUP3 PUSH2 0x110B JUMP JUMPDEST SWAP2 POP PUSH2 0x1232 DUP4 PUSH2 0x110B JUMP JUMPDEST SWAP3 POP DUP3 DUP3 MUL PUSH2 0x1240 DUP2 PUSH2 0x110B JUMP JUMPDEST SWAP2 POP DUP3 DUP3 DIV DUP5 EQ DUP4 ISZERO OR PUSH2 0x1257 JUMPI PUSH2 0x1256 PUSH2 0x11B9 JUMP JUMPDEST JUMPDEST POP SWAP3 SWAP2 POP POP JUMP JUMPDEST PUSH1 0x0 DUP3 DUP3 MSTORE PUSH1 0x20 DUP3 ADD SWAP1 POP SWAP3 SWAP2 POP POP JUMP JUMPDEST PUSH32 0x41756374696F6E20697320636C6F736564000000000000000000000000000000 PUSH1 0x0 DUP3 ADD MSTORE POP JUMP JUMPDEST PUSH1 0x0 PUSH2 0x12A5 PUSH1 0x11 DUP4 PUSH2 0x125E JUMP JUMPDEST SWAP2 POP PUSH2 0x12B0 DUP3 PUSH2 0x126F JUMP JUMPDEST PUSH1 0x20 DUP3 ADD SWAP1 POP SWAP2 SWAP1 POP JUMP JUMPDEST PUSH1 0x0 PUSH1 0x20 DUP3 ADD SWAP1 POP DUP2 DUP2 SUB PUSH1 0x0 DUP4 ADD MSTORE PUSH2 0x12D4 DUP2 PUSH2 0x1298 JUMP JUMPDEST SWAP1 POP SWAP2 SWAP1 POP JUMP JUMPDEST PUSH32 0x50726F6475637420616C72656164792070757263686173656400000000000000 PUSH1 0x0 DUP3 ADD MSTORE POP JUMP JUMPDEST PUSH1 0x0 PUSH2 0x1311 PUSH1 0x19 DUP4 PUSH2 0x125E JUMP JUMPDEST SWAP2 POP PUSH2 0x131C DUP3 PUSH2 0x12DB JUMP JUMPDEST PUSH1 0x20 DUP3 ADD SWAP1 POP SWAP2 SWAP1 POP JUMP JUMPDEST PUSH1 0x0 PUSH1 0x20 DUP3 ADD SWAP1 POP DUP2 DUP2 SUB PUSH1 0x0 DUP4 ADD MSTORE PUSH2 0x1340 DUP2 PUSH2 0x1304 JUMP JUMPDEST SWAP1 POP SWAP2 SWAP1 POP JUMP JUMPDEST PUSH32 0x50726F6475637420616C726561647920736F6C64000000000000000000000000 PUSH1 0x0 DUP3 ADD MSTORE POP JUMP JUMPDEST PUSH1 0x0 PUSH2 0x137D PUSH1 0x14 DUP4 PUSH2 0x125E JUMP JUMPDEST SWAP2 POP PUSH2 0x1388 DUP3 PUSH2 0x1347 JUMP JUMPDEST PUSH1 0x20 DUP3 ADD SWAP1 POP SWAP2 SWAP1 POP JUMP JUMPDEST PUSH1 0x0 PUSH1 0x20 DUP3 ADD SWAP1 POP DUP2 DUP2 SUB PUSH1 0x0 DUP4 ADD MSTORE PUSH2 0x13AC DUP2 PUSH2 0x1370 JUMP JUMPDEST SWAP1 POP SWAP2 SWAP1 POP JUMP JUMPDEST PUSH32 0x4F776E65722063616E2774206269640000000000000000000000000000000000 PUSH1 0x0 DUP3 ADD MSTORE POP JUMP JUMPDEST PUSH1 0x0 PUSH2 0x13E9 PUSH1 0xF DUP4 PUSH2 0x125E JUMP JUMPDEST SWAP2 POP PUSH2 0x13F4 DUP3 PUSH2 0x13B3 JUMP JUMPDEST PUSH1 0x20 DUP3 ADD SWAP1 POP SWAP2 SWAP1 POP JUMP JUMPDEST PUSH1 0x0 PUSH1 0x20 DUP3 ADD SWAP1 POP DUP2 DUP2 SUB PUSH1 0x0 DUP4 ADD MSTORE PUSH2 0x1418 DUP2 PUSH2 0x13DC JUMP JUMPDEST SWAP1 POP SWAP2 SWAP1 POP JUMP JUMPDEST PUSH32 0x574549206973206E6F742073756666696369656E740000000000000000000000 PUSH1 0x0 DUP3 ADD MSTORE POP JUMP JUMPDEST PUSH1 0x0 PUSH2 0x1455 PUSH1 0x15 DUP4 PUSH2 0x125E JUMP JUMPDEST SWAP2 POP PUSH2 0x1460 DUP3 PUSH2 0x141F JUMP JUMPDEST PUSH1 0x20 DUP3 ADD SWAP1 POP SWAP2 SWAP1 POP JUMP JUMPDEST PUSH1 0x0 PUSH1 0x20 DUP3 ADD SWAP1 POP DUP2 DUP2 SUB PUSH1 0x0 DUP4 ADD MSTORE PUSH2 0x1484 DUP2 PUSH2 0x1448 JUMP JUMPDEST SWAP1 POP SWAP2 SWAP1 POP JUMP JUMPDEST PUSH1 0x0 DUP2 SWAP1 POP SWAP3 SWAP2 POP POP JUMP JUMPDEST POP JUMP JUMPDEST PUSH1 0x0 PUSH2 0x14A6 PUSH1 0x0 DUP4 PUSH2 0x148B JUMP JUMPDEST SWAP2 POP PUSH2 0x14B1 DUP3 PUSH2 0x1496 JUMP JUMPDEST PUSH1 0x0 DUP3 ADD SWAP1 POP SWAP2 SWAP1 POP JUMP JUMPDEST PUSH1 0x0 PUSH2 0x14C7 DUP3 PUSH2 0x1499 JUMP JUMPDEST SWAP2 POP DUP2 SWAP1 POP SWAP2 SWAP1 POP JUMP JUMPDEST PUSH32 0x4661696C656420746F2073656E64000000000000000000000000000000000000 PUSH1 0x0 DUP3 ADD MSTORE POP JUMP JUMPDEST PUSH1 0x0 PUSH2 0x1507 PUSH1 0xE DUP4 PUSH2 0x125E JUMP JUMPDEST SWAP2 POP PUSH2 0x1512 DUP3 PUSH2 0x14D1 JUMP JUMPDEST PUSH1 0x20 DUP3 ADD SWAP1 POP SWAP2 SWAP1 POP JUMP JUMPDEST PUSH1 0x0 PUSH1 0x20 DUP3 ADD SWAP1 POP DUP2 DUP2 SUB PUSH1 0x0 DUP4 ADD MSTORE PUSH2 0x1536 DUP2 PUSH2 0x14FA JUMP JUMPDEST SWAP1 POP SWAP2 SWAP1 POP JUMP JUMPDEST PUSH1 0x0 PUSH1 0x60 DUP3 ADD SWAP1 POP PUSH2 0x1552 PUSH1 0x0 DUP4 ADD DUP7 PUSH2 0x10AB JUMP JUMPDEST PUSH2 0x155F PUSH1 0x20 DUP4 ADD DUP6 PUSH2 0x10AB JUMP JUMPDEST PUSH2 0x156C PUSH1 0x40 DUP4 ADD DUP5 PUSH2 0x1115 JUMP JUMPDEST SWAP5 SWAP4 POP POP POP POP JUMP JUMPDEST PUSH1 0x0 DUP1 REVERT JUMPDEST PUSH2 0x1582 DUP2 PUSH2 0x1099 JUMP JUMPDEST DUP2 EQ PUSH2 0x158D JUMPI PUSH1 0x0 DUP1 REVERT JUMPDEST POP JUMP JUMPDEST PUSH1 0x0 DUP2 MLOAD SWAP1 POP PUSH2 0x159F DUP2 PUSH2 0x1579 JUMP JUMPDEST SWAP3 SWAP2 POP POP JUMP JUMPDEST PUSH1 0x0 PUSH1 0x20 DUP3 DUP5 SUB SLT ISZERO PUSH2 0x15BB JUMPI PUSH2 0x15BA PUSH2 0x1574 JUMP JUMPDEST JUMPDEST PUSH1 0x0 PUSH2 0x15C9 DUP5 DUP3 DUP6 ADD PUSH2 0x1590 JUMP JUMPDEST SWAP2 POP POP SWAP3 SWAP2 POP POP JUMP INVALID LOG2 PUSH5 0x6970667358 0x22 SLT KECCAK256 DUP9 0xC8 PUSH28 0x624166D3C3F0632E593AB33B2AD20FFE15360782A3252F8D71A42253 SHL PUSH5 0x736F6C6343 STOP ADDMOD GT STOP CALLER "},"methodIdentifiers":{"auctionStatusOpen()":"0b48ab8f","buyer()":"7150d8ae","getBlockDiff()":"d4a92e31","getCurrBlock()":"29c2decd","getCurrentPrice()":"eb91d37e","initialPrice()":"1d0806ae","isAuctionClosed()":"6190afae","nft_Address()":"f5734ae2","nft_Id()":"6ee6cb9f","numBlocksAuctionOpen()":"3103ea62","offerPriceDecrement()":"d3642a88","placeBid()":"ecfc7ecc","reservePrice()":"db2e1eed","seller()":"08551a53","startingBlock()":"d91c98d3"}}}}}