{
  "_format": "hh-sol-artifact-1",
  "contractName": "NFTDutchAuction",
  "sourceName": "contracts/NFTDutchAuction.sol",
  "abi": [
    {
      "inputs": [
        {
          "internalType": "address",
          "name": "_nftAddress",
          "type": "address"
        },
        {
          "internalType": "uint256",
          "name": "_nftId",
          "type": "uint256"
        },
        {
          "internalType": "uint256",
          "name": "_reservePrice",
          "type": "uint256"
        },
        {
          "internalType": "uint256",
          "name": "_numBlocksAuctionOpen",
          "type": "uint256"
        },
        {
          "internalType": "uint256",
          "name": "_offerPriceDecrement",
          "type": "uint256"
        }
      ],
      "stateMutability": "nonpayable",
      "type": "constructor"
    },
    {
      "inputs": [],
      "name": "auctionStatusOpen",
      "outputs": [
        {
          "internalType": "bool",
          "name": "",
          "type": "bool"
        }
      ],
      "stateMutability": "view",
      "type": "function"
    },
    {
      "inputs": [],
      "name": "buyer",
      "outputs": [
        {
          "internalType": "address",
          "name": "",
          "type": "address"
        }
      ],
      "stateMutability": "view",
      "type": "function"
    },
    {
      "inputs": [],
      "name": "getBlockDiff",
      "outputs": [
        {
          "internalType": "uint256",
          "name": "",
          "type": "uint256"
        }
      ],
      "stateMutability": "view",
      "type": "function"
    },
    {
      "inputs": [],
      "name": "getCurrBlock",
      "outputs": [
        {
          "internalType": "uint256",
          "name": "",
          "type": "uint256"
        }
      ],
      "stateMutability": "view",
      "type": "function"
    },
    {
      "inputs": [],
      "name": "getCurrentPrice",
      "outputs": [
        {
          "internalType": "uint256",
          "name": "",
          "type": "uint256"
        }
      ],
      "stateMutability": "view",
      "type": "function"
    },
    {
      "inputs": [],
      "name": "initialPrice",
      "outputs": [
        {
          "internalType": "uint256",
          "name": "",
          "type": "uint256"
        }
      ],
      "stateMutability": "view",
      "type": "function"
    },
    {
      "inputs": [],
      "name": "isAuctionClosed",
      "outputs": [
        {
          "internalType": "bool",
          "name": "",
          "type": "bool"
        }
      ],
      "stateMutability": "view",
      "type": "function"
    },
    {
      "inputs": [],
      "name": "nft_Address",
      "outputs": [
        {
          "internalType": "contract IMyNFT",
          "name": "",
          "type": "address"
        }
      ],
      "stateMutability": "view",
      "type": "function"
    },
    {
      "inputs": [],
      "name": "nft_Id",
      "outputs": [
        {
          "internalType": "uint256",
          "name": "",
          "type": "uint256"
        }
      ],
      "stateMutability": "view",
      "type": "function"
    },
    {
      "inputs": [],
      "name": "numBlocksAuctionOpen",
      "outputs": [
        {
          "internalType": "uint256",
          "name": "",
          "type": "uint256"
        }
      ],
      "stateMutability": "view",
      "type": "function"
    },
    {
      "inputs": [],
      "name": "offerPriceDecrement",
      "outputs": [
        {
          "internalType": "uint256",
          "name": "",
          "type": "uint256"
        }
      ],
      "stateMutability": "view",
      "type": "function"
    },
    {
      "inputs": [],
      "name": "placeBid",
      "outputs": [],
      "stateMutability": "payable",
      "type": "function"
    },
    {
      "inputs": [],
      "name": "reservePrice",
      "outputs": [
        {
          "internalType": "uint256",
          "name": "",
          "type": "uint256"
        }
      ],
      "stateMutability": "view",
      "type": "function"
    },
    {
      "inputs": [],
      "name": "seller",
      "outputs": [
        {
          "internalType": "address",
          "name": "",
          "type": "address"
        }
      ],
      "stateMutability": "view",
      "type": "function"
    },
    {
      "inputs": [],
      "name": "startingBlock",
      "outputs": [
        {
          "internalType": "uint256",
          "name": "",
          "type": "uint256"
        }
      ],
      "stateMutability": "view",
      "type": "function"
    }
  ],
  "bytecode": "0x60806040523480156200001157600080fd5b5060405162001ce138038062001ce18339818101604052810190620000379190620004a9565b620000536737824b2936c7247360c01b6200040160201b60201c565b6200006f673c6a5acb1ab31ea960c01b6200040160201b60201c565b33600660006101000a81548173ffffffffffffffffffffffffffffffffffffffff021916908373ffffffffffffffffffffffffffffffffffffffff160217905550620000cc67f3136cc7d65426a960c01b6200040160201b60201c565b43600781905550620000ef6794ff634b9b53733f60c01b6200040160201b60201c565b6001600960006101000a81548160ff0219169083151502179055506200012667dca4acd99292200360c01b6200040160201b60201c565b836000819055506200014967d573761901e29b5060c01b6200040160201b60201c565b84600160006101000a81548173ffffffffffffffffffffffffffffffffffffffff021916908373ffffffffffffffffffffffffffffffffffffffff160217905550620001a66762635f99dd5f6dd760c01b6200040160201b60201c565b620001c26739621a1db509ae7260c01b6200040160201b60201c565b620001de677bbdb5dff2337d5860c01b6200040160201b60201c565b3373ffffffffffffffffffffffffffffffffffffffff16600160009054906101000a900473ffffffffffffffffffffffffffffffffffffffff1673ffffffffffffffffffffffffffffffffffffffff16636352211e6000546040518263ffffffff1660e01b815260040162000254919062000542565b602060405180830381865afa15801562000272573d6000803e3d6000fd5b505050506040513d601f19601f820116820180604052508101906200029891906200055f565b73ffffffffffffffffffffffffffffffffffffffff1614620002f1576040517f08c379a0000000000000000000000000000000000000000000000000000000008152600401620002e890620005f2565b60405180910390fd5b6200030d67e34189d84babfa7160c01b6200040160201b60201c565b6200032967fd81524b6eaf344a60c01b6200040160201b60201c565b826002819055506200034c67f9e6c658f5be6cd060c01b6200040160201b60201c565b816003819055506200036f6785fa2494582962cf60c01b6200040160201b60201c565b8060048190555062000392670291063d4534cb7b60c01b6200040160201b60201c565b620003ad665481e9b51b944460c01b6200040160201b60201c565b6000600454600354620003c1919062000643565b9050620003df67b10768c0278d65f660c01b6200040160201b60201c565b60025481620003ef91906200068e565b600881905550505050505050620006c9565b50565b600080fd5b600073ffffffffffffffffffffffffffffffffffffffff82169050919050565b6000620004368262000409565b9050919050565b620004488162000429565b81146200045457600080fd5b50565b60008151905062000468816200043d565b92915050565b6000819050919050565b62000483816200046e565b81146200048f57600080fd5b50565b600081519050620004a38162000478565b92915050565b600080600080600060a08688031215620004c857620004c762000404565b5b6000620004d88882890162000457565b9550506020620004eb8882890162000492565b9450506040620004fe8882890162000492565b9350506060620005118882890162000492565b9250506080620005248882890162000492565b9150509295509295909350565b6200053c816200046e565b82525050565b600060208201905062000559600083018462000531565b92915050565b60006020828403121562000578576200057762000404565b5b6000620005888482850162000457565b91505092915050565b600082825260208201905092915050565b7f596f7520646f6e2774206f776e2074686973204e465420746f2073656c6c0000600082015250565b6000620005da601e8362000591565b9150620005e782620005a2565b602082019050919050565b600060208201905081810360008301526200060d81620005cb565b9050919050565b7f4e487b7100000000000000000000000000000000000000000000000000000000600052601160045260246000fd5b600062000650826200046e565b91506200065d836200046e565b92508282026200066d816200046e565b9150828204841483151762000687576200068662000614565b5b5092915050565b60006200069b826200046e565b9150620006a8836200046e565b9250828201905080821115620006c357620006c262000614565b5b92915050565b61160880620006d96000396000f3fe6080604052600436106100e85760003560e01c80637150d8ae1161008a578063db2e1eed11610059578063db2e1eed146102c6578063eb91d37e146102f1578063ecfc7ecc1461031c578063f5734ae214610326576100e8565b80637150d8ae1461021a578063d3642a8814610245578063d4a92e3114610270578063d91c98d31461029b576100e8565b806329c2decd116100c657806329c2decd1461016e5780633103ea62146101995780636190afae146101c45780636ee6cb9f146101ef576100e8565b806308551a53146100ed5780630b48ab8f146101185780631d0806ae14610143575b600080fd5b3480156100f957600080fd5b50610102610351565b60405161010f91906110ba565b60405180910390f35b34801561012457600080fd5b5061012d610377565b60405161013a91906110f0565b60405180910390f35b34801561014f57600080fd5b5061015861038a565b6040516101659190611124565b60405180910390f35b34801561017a57600080fd5b50610183610390565b6040516101909190611124565b60405180910390f35b3480156101a557600080fd5b506101ae6103d4565b6040516101bb9190611124565b60405180910390f35b3480156101d057600080fd5b506101d96103da565b6040516101e691906110f0565b60405180910390f35b3480156101fb57600080fd5b506102046104b3565b6040516102119190611124565b60405180910390f35b34801561022657600080fd5b5061022f6104b9565b60405161023c91906110ba565b60405180910390f35b34801561025157600080fd5b5061025a6104df565b6040516102679190611124565b60405180910390f35b34801561027c57600080fd5b506102856104e5565b6040516102929190611124565b60405180910390f35b3480156102a757600080fd5b506102b061060d565b6040516102bd9190611124565b60405180910390f35b3480156102d257600080fd5b506102db610613565b6040516102e89190611124565b60405180910390f35b3480156102fd57600080fd5b50610306610619565b6040516103139190611124565b60405180910390f35b610324610766565b005b34801561033257600080fd5b5061033b610da4565b604051610348919061119e565b60405180910390f35b600660009054906101000a900473ffffffffffffffffffffffffffffffffffffffff1681565b600960009054906101000a900460ff1681565b60085481565b60006103a6676e0f7999b60fbf8560c01b610dca565b6103ba6726ffa8b8edc4c5da60c01b610dca565b6103ce67747d11e8ac067b1160c01b610dca565b43905090565b60035481565b60006103f067464787cac3a034bb60c01b610dca565b61040467233892d0b73dd9aa60c01b610dca565b61041867c9a9b80a81d904c160c01b610dca565b60006104226104e5565b9050610438679d479d21f48cec1e60c01b610dca565b61044c67a24d70489a230d4160c01b610dca565b60006003549050610467679295beb6e894056060c01b610dca565b61047b67121be5b142f8f88d60c01b610dca565b6000818311905061049667d20e01b631e8433e60c01b610dca565b6104aa679cc914dcefdfc3a360c01b610dca565b80935050505090565b60005481565b600560009054906101000a900473ffffffffffffffffffffffffffffffffffffffff1681565b60045481565b60006104fb672c59b9bcc523850e60c01b610dca565b61050f67d74ef3993324d92a60c01b610dca565b61052367679ab0bafdea184e60c01b610dca565b600061052d610390565b905061054367e8f4b8f2a5816d8860c01b610dca565b61055767fca88963f97e5ed060c01b610dca565b6000600754905061057267531628a5b2d9e7d560c01b610dca565b610586679044c24c0f1a3c4b60c01b610dca565b600081831180156105a757506105a6672383c4abc7f39c0a60c01b610dcd565b5b806105c257506105c1672d1a4c6646820e5e60c01b610dd8565b5b6105cd5760006105da565b81836105d991906111e8565b5b90506105f06749c5af0599c60f8760c01b610dca565b610604673c1761ce3f87340a60c01b610dca565b80935050505090565b60075481565b60025481565b600061062f677ad265346981611b60c01b610dca565b61064367f43aa7441531a56860c01b610dca565b61065767c58e56962502681260c01b610dca565b60006106616104e5565b905061067767178ba1866f4fa8d460c01b610dca565b61068b672eed34f01aec9f0f60c01b610dca565b60006106a16740b4ffba715d802560c01b610dca565b6106b567ebdb8ee908ec57bf60c01b610dca565b60035482106106f0576106d267b53a068e877f3f6c60c01b610dca565b6106e6674fd4420527ae439660c01b610dca565b6002549050610736565b6107046725ebdbe3f6e49b5560c01b610dca565b610718671989f91b426af39c60c01b610dca565b60045482610726919061121c565b60085461073391906111e8565b90505b61074a67f7b2bacbbe8afa0f60c01b610dca565b61075e67a6b36ab55a4a882760c01b610dca565b809250505090565b61077a676b2d1386a9e1784960c01b610dca565b61078e6783a0fa238fe5507e60c01b610dca565b6107a267ec5e4d17337359fe60c01b610dca565b6107b66789dd0ab97d4a9ad460c01b610dca565b6107be6103da565b156107fe576040517f08c379a00000000000000000000000000000000000000000000000000000000081526004016107f5906112bb565b60405180910390fd5b61081267536f4f11dac17a9060c01b610dca565b61082667faf300df835874e360c01b610dca565b61083a67fc225ffce895d24960c01b610dca565b61084e67ba5d4a4572e1300e60c01b610dca565b600560009054906101000a900473ffffffffffffffffffffffffffffffffffffffff1673ffffffffffffffffffffffffffffffffffffffff163373ffffffffffffffffffffffffffffffffffffffff16036108de576040517f08c379a00000000000000000000000000000000000000000000000000000000081526004016108d590611327565b60405180910390fd5b6108f26793d63782b014e6a860c01b610dca565b6109066724b5cb9a691f844560c01b610dca565b61091a6745cb79a56a2b631b60c01b610dca565b61092e67b26c470baad13c8e60c01b610dca565b600073ffffffffffffffffffffffffffffffffffffffff16600560009054906101000a900473ffffffffffffffffffffffffffffffffffffffff1673ffffffffffffffffffffffffffffffffffffffff16146109bf576040517f08c379a00000000000000000000000000000000000000000000000000000000081526004016109b690611393565b60405180910390fd5b6109d36740d831310979674560c01b610dca565b6109e76745ca6277e9d2908960c01b610dca565b6109fb67cd2a838648dcdf0160c01b610dca565b610a0f679afdc418ee4c69e160c01b610dca565b600660009054906101000a900473ffffffffffffffffffffffffffffffffffffffff1673ffffffffffffffffffffffffffffffffffffffff163373ffffffffffffffffffffffffffffffffffffffff1603610a9f576040517f08c379a0000000000000000000000000000000000000000000000000000000008152600401610a96906113ff565b60405180910390fd5b610ab367a1a0902d2410543260c01b610dca565b610ac767d5c699647af115c560c01b610dca565b610adb673ed20a6e8f4ec65060c01b610dca565b610aef6771659a7a5445159f60c01b610dca565b610af7610619565b341015610b39576040517f08c379a0000000000000000000000000000000000000000000000000000000008152600401610b309061146b565b60405180910390fd5b610b4d677cd051ba68ea722b60c01b610dca565b610b6167ff05876e4552704460c01b610dca565b610b75670d6051a504dee1e760c01b610dca565b6000600660009054906101000a900473ffffffffffffffffffffffffffffffffffffffff1673ffffffffffffffffffffffffffffffffffffffff16610bb8610619565b604051610bc4906114bc565b60006040518083038185875af1925050503d8060008114610c01576040519150601f19603f3d011682016040523d82523d6000602084013e610c06565b606091505b50509050610c1e678acdd0eb2e2db23b60c01b610dca565b610c326773e61756e1573ebf60c01b610dca565b610c46670e88214c57e3ddf460c01b610dca565b6001151581151514610c8d576040517f08c379a0000000000000000000000000000000000000000000000000000000008152600401610c849061151d565b60405180910390fd5b610ca167fecb1a17d2ede24960c01b610dca565b610cb56773b197044d02dcb360c01b610dca565b610cc96727795f7974a1b2c360c01b610dca565b6000610cd3610619565b34610cde91906111e8565b9050610cf4678f4b71256890816f60c01b610dca565b610d08677421cf00f7ee39ac60c01b610dca565b6000811115610d5b57610d2567c4c8ad51696be90460c01b610dca565b610d39674f79a1617318bc6b60c01b610dca565b610d4d674aad7470d13846c160c01b610dca565b610d5681610ddf565b610d70565b610d6f678ce52ed69693f67660c01b610dca565b5b610d846706abde97fbe1123c60c01b610dca565b610d986737cdf5c8f92341d960c01b610dca565b610da0610e65565b5050565b600160009054906101000a900473ffffffffffffffffffffffffffffffffffffffff1681565b50565b600060019050919050565b6000919050565b610df3677c95a6d1350a174860c01b610dca565b610e0767491338420513a13460c01b610dca565b610e1b67c9f4ec8d963220a760c01b610dca565b3373ffffffffffffffffffffffffffffffffffffffff166108fc829081150290604051600060405180830381858888f19350505050158015610e61573d6000803e3d6000fd5b5050565b610e79672de3201f2035800860c01b610dca565b610e8d67f6cdcd252bfb7cc860c01b610dca565b610ea1670d7f8a26cbf95f0160c01b610dca565b600160009054906101000a900473ffffffffffffffffffffffffffffffffffffffff1673ffffffffffffffffffffffffffffffffffffffff166323b872dd600660009054906101000a900473ffffffffffffffffffffffffffffffffffffffff16336000546040518463ffffffff1660e01b8152600401610f249392919061153d565b600060405180830381600087803b158015610f3e57600080fd5b505af1158015610f52573d6000803e3d6000fd5b50505050610f6a6774de773792d477bc60c01b610dca565b600160009054906101000a900473ffffffffffffffffffffffffffffffffffffffff1673ffffffffffffffffffffffffffffffffffffffff16636352211e6000546040518263ffffffff1660e01b8152600401610fc79190611124565b602060405180830381865afa158015610fe4573d6000803e3d6000fd5b505050506040513d601f19601f8201168201806040525081019061100891906115a5565b600560006101000a81548173ffffffffffffffffffffffffffffffffffffffff021916908373ffffffffffffffffffffffffffffffffffffffff16021790555061105c67489ff98932972b0260c01b610dca565b6000600960006101000a81548160ff021916908315150217905550565b600073ffffffffffffffffffffffffffffffffffffffff82169050919050565b60006110a482611079565b9050919050565b6110b481611099565b82525050565b60006020820190506110cf60008301846110ab565b92915050565b60008115159050919050565b6110ea816110d5565b82525050565b600060208201905061110560008301846110e1565b92915050565b6000819050919050565b61111e8161110b565b82525050565b60006020820190506111396000830184611115565b92915050565b6000819050919050565b600061116461115f61115a84611079565b61113f565b611079565b9050919050565b600061117682611149565b9050919050565b60006111888261116b565b9050919050565b6111988161117d565b82525050565b60006020820190506111b3600083018461118f565b92915050565b7f4e487b7100000000000000000000000000000000000000000000000000000000600052601160045260246000fd5b60006111f38261110b565b91506111fe8361110b565b9250828203905081811115611216576112156111b9565b5b92915050565b60006112278261110b565b91506112328361110b565b92508282026112408161110b565b91508282048414831517611257576112566111b9565b5b5092915050565b600082825260208201905092915050565b7f41756374696f6e20697320636c6f736564000000000000000000000000000000600082015250565b60006112a560118361125e565b91506112b08261126f565b602082019050919050565b600060208201905081810360008301526112d481611298565b9050919050565b7f50726f6475637420616c72656164792070757263686173656400000000000000600082015250565b600061131160198361125e565b915061131c826112db565b602082019050919050565b6000602082019050818103600083015261134081611304565b9050919050565b7f50726f6475637420616c726561647920736f6c64000000000000000000000000600082015250565b600061137d60148361125e565b915061138882611347565b602082019050919050565b600060208201905081810360008301526113ac81611370565b9050919050565b7f4f776e65722063616e2774206269640000000000000000000000000000000000600082015250565b60006113e9600f8361125e565b91506113f4826113b3565b602082019050919050565b60006020820190508181036000830152611418816113dc565b9050919050565b7f574549206973206e6f742073756666696369656e740000000000000000000000600082015250565b600061145560158361125e565b91506114608261141f565b602082019050919050565b6000602082019050818103600083015261148481611448565b9050919050565b600081905092915050565b50565b60006114a660008361148b565b91506114b182611496565b600082019050919050565b60006114c782611499565b9150819050919050565b7f4661696c656420746f2073656e64000000000000000000000000000000000000600082015250565b6000611507600e8361125e565b9150611512826114d1565b602082019050919050565b60006020820190508181036000830152611536816114fa565b9050919050565b600060608201905061155260008301866110ab565b61155f60208301856110ab565b61156c6040830184611115565b949350505050565b600080fd5b61158281611099565b811461158d57600080fd5b50565b60008151905061159f81611579565b92915050565b6000602082840312156115bb576115ba611574565b5b60006115c984828501611590565b9150509291505056fea264697066735822122088c87b624166d3c3f0632e593ab33b2ad20ffe15360782a3252f8d71a422531b64736f6c63430008110033",
  "linkReferences": {},
  "deployedLinkReferences": {}
}